{
	"data": {
		"bytecode": {
			"linkReferences": {},
			"object": "6080604052348015600e575f80fd5b503360015f6101000a81548173ffffffffffffffffffffffffffffffffffffffff021916908373ffffffffffffffffffffffffffffffffffffffff1602179055506109808061005c5f395ff3fe608060405234801561000f575f80fd5b506004361061003f575f3560e01c80638da5cb5b14610043578063bda0284214610061578063dd595ee414610091575b5f80fd5b61004b6100ad565b60405161005891906102c2565b60405180910390f35b61007b6004803603810190610076919061031f565b6100d2565b6040516100889190610362565b60405180910390f35b6100ab60048036038101906100a691906104b7565b610190565b005b60015f9054906101000a900473ffffffffffffffffffffffffffffffffffffffff1681565b5f3373ffffffffffffffffffffffffffffffffffffffff1660015f9054906101000a900473ffffffffffffffffffffffffffffffffffffffff1673ffffffffffffffffffffffffffffffffffffffff1614610162576040517f08c379a000000000000000000000000000000000000000000000000000000000815260040161015990610591565b60405180910390fd5b8160405160200161017391906105cf565b604051602081830303815290604052805190602001209050919050565b60058111156101d4576040517f08c379a00000000000000000000000000000000000000000000000000000000081526004016101cb90610659565b60405180910390fd5b6102136040518060400160405280600b81526020017f48616d627572677565736100000000000000000000000000000000000000000081525083610217565b5050565b5f604051806040016040528084815260200183815250908060018154018082558091505060019003905f5260205f2090600202015f909190919091505f820151815f019081610266919061087b565b50602082015181600101908161027c919061087b565b5050505050565b5f73ffffffffffffffffffffffffffffffffffffffff82169050919050565b5f6102ac82610283565b9050919050565b6102bc816102a2565b82525050565b5f6020820190506102d55f8301846102b3565b92915050565b5f604051905090565b5f80fd5b5f80fd5b5f819050919050565b6102fe816102ec565b8114610308575f80fd5b50565b5f81359050610319816102f5565b92915050565b5f60208284031215610334576103336102e4565b5b5f6103418482850161030b565b91505092915050565b5f819050919050565b61035c8161034a565b82525050565b5f6020820190506103755f830184610353565b92915050565b5f80fd5b5f80fd5b5f601f19601f8301169050919050565b7f4e487b71000000000000000000000000000000000000000000000000000000005f52604160045260245ffd5b6103c982610383565b810181811067ffffffffffffffff821117156103e8576103e7610393565b5b80604052505050565b5f6103fa6102db565b905061040682826103c0565b919050565b5f67ffffffffffffffff82111561042557610424610393565b5b61042e82610383565b9050602081019050919050565b828183375f83830152505050565b5f61045b6104568461040b565b6103f1565b9050828152602081018484840111156104775761047661037f565b5b61048284828561043b565b509392505050565b5f82601f83011261049e5761049d61037b565b5b81356104ae848260208601610449565b91505092915050565b5f80604083850312156104cd576104cc6102e4565b5b5f83013567ffffffffffffffff8111156104ea576104e96102e8565b5b6104f68582860161048a565b92505060206105078582860161030b565b9150509250929050565b5f82825260208201905092915050565b7f4e6f207469656e6573206175746f72697a6163696f6e207061726120656a65635f8201527f7574617220657374612066756e63696f6e000000000000000000000000000000602082015250565b5f61057b603183610511565b915061058682610521565b604082019050919050565b5f6020820190508181035f8301526105a88161056f565b9050919050565b5f819050919050565b6105c96105c4826102ec565b6105af565b82525050565b5f6105da82846105b8565b60208201915081905092915050565b7f5570732c206e6f207075656465732070656469722074616e7461732068616d625f8201527f7572677565736173000000000000000000000000000000000000000000000000602082015250565b5f610643602883610511565b915061064e826105e9565b604082019050919050565b5f6020820190508181035f83015261067081610637565b9050919050565b5f81519050919050565b7f4e487b71000000000000000000000000000000000000000000000000000000005f52602260045260245ffd5b5f60028204905060018216806106c557607f821691505b6020821081036106d8576106d7610681565b5b50919050565b5f819050815f5260205f209050919050565b5f6020601f8301049050919050565b5f82821b905092915050565b5f6008830261073a7fffffffffffffffffffffffffffffffffffffffffffffffffffffffffffffffff826106ff565b61074486836106ff565b95508019841693508086168417925050509392505050565b5f819050919050565b5f61077f61077a610775846102ec565b61075c565b6102ec565b9050919050565b5f819050919050565b61079883610765565b6107ac6107a482610786565b84845461070b565b825550505050565b5f90565b6107c06107b4565b6107cb81848461078f565b505050565b5b818110156107ee576107e35f826107b8565b6001810190506107d1565b5050565b601f82111561083357610804816106de565b61080d846106f0565b8101602085101561081c578190505b610830610828856106f0565b8301826107d0565b50505b505050565b5f82821c905092915050565b5f6108535f1984600802610838565b1980831691505092915050565b5f61086b8383610844565b9150826002028217905092915050565b61088482610677565b67ffffffffffffffff81111561089d5761089c610393565b5b6108a782546106ae565b6108b28282856107f2565b5f60209050601f8311600181146108e3575f84156108d1578287015190505b6108db8582610860565b865550610942565b601f1984166108f1866106de565b5f5b82811015610918578489015182556001820191506020850194506020810190506108f3565b868310156109355784890151610931601f891682610844565b8355505b6001600288020188555050505b50505050505056fea264697066735822122077258862663c4b26507a07782422a60a9abd89a5fd616432699e6add85a3d8cf64736f6c634300081a0033",
			"opcodes": "PUSH1 0x80 PUSH1 0x40 MSTORE CALLVALUE DUP1 ISZERO PUSH1 0xE JUMPI PUSH0 DUP1 REVERT JUMPDEST POP CALLER PUSH1 0x1 PUSH0 PUSH2 0x100 EXP DUP2 SLOAD DUP2 PUSH20 0xFFFFFFFFFFFFFFFFFFFFFFFFFFFFFFFFFFFFFFFF MUL NOT AND SWAP1 DUP4 PUSH20 0xFFFFFFFFFFFFFFFFFFFFFFFFFFFFFFFFFFFFFFFF AND MUL OR SWAP1 SSTORE POP PUSH2 0x980 DUP1 PUSH2 0x5C PUSH0 CODECOPY PUSH0 RETURN INVALID PUSH1 0x80 PUSH1 0x40 MSTORE CALLVALUE DUP1 ISZERO PUSH2 0xF JUMPI PUSH0 DUP1 REVERT JUMPDEST POP PUSH1 0x4 CALLDATASIZE LT PUSH2 0x3F JUMPI PUSH0 CALLDATALOAD PUSH1 0xE0 SHR DUP1 PUSH4 0x8DA5CB5B EQ PUSH2 0x43 JUMPI DUP1 PUSH4 0xBDA02842 EQ PUSH2 0x61 JUMPI DUP1 PUSH4 0xDD595EE4 EQ PUSH2 0x91 JUMPI JUMPDEST PUSH0 DUP1 REVERT JUMPDEST PUSH2 0x4B PUSH2 0xAD JUMP JUMPDEST PUSH1 0x40 MLOAD PUSH2 0x58 SWAP2 SWAP1 PUSH2 0x2C2 JUMP JUMPDEST PUSH1 0x40 MLOAD DUP1 SWAP2 SUB SWAP1 RETURN JUMPDEST PUSH2 0x7B PUSH1 0x4 DUP1 CALLDATASIZE SUB DUP2 ADD SWAP1 PUSH2 0x76 SWAP2 SWAP1 PUSH2 0x31F JUMP JUMPDEST PUSH2 0xD2 JUMP JUMPDEST PUSH1 0x40 MLOAD PUSH2 0x88 SWAP2 SWAP1 PUSH2 0x362 JUMP JUMPDEST PUSH1 0x40 MLOAD DUP1 SWAP2 SUB SWAP1 RETURN JUMPDEST PUSH2 0xAB PUSH1 0x4 DUP1 CALLDATASIZE SUB DUP2 ADD SWAP1 PUSH2 0xA6 SWAP2 SWAP1 PUSH2 0x4B7 JUMP JUMPDEST PUSH2 0x190 JUMP JUMPDEST STOP JUMPDEST PUSH1 0x1 PUSH0 SWAP1 SLOAD SWAP1 PUSH2 0x100 EXP SWAP1 DIV PUSH20 0xFFFFFFFFFFFFFFFFFFFFFFFFFFFFFFFFFFFFFFFF AND DUP2 JUMP JUMPDEST PUSH0 CALLER PUSH20 0xFFFFFFFFFFFFFFFFFFFFFFFFFFFFFFFFFFFFFFFF AND PUSH1 0x1 PUSH0 SWAP1 SLOAD SWAP1 PUSH2 0x100 EXP SWAP1 DIV PUSH20 0xFFFFFFFFFFFFFFFFFFFFFFFFFFFFFFFFFFFFFFFF AND PUSH20 0xFFFFFFFFFFFFFFFFFFFFFFFFFFFFFFFFFFFFFFFF AND EQ PUSH2 0x162 JUMPI PUSH1 0x40 MLOAD PUSH32 0x8C379A000000000000000000000000000000000000000000000000000000000 DUP2 MSTORE PUSH1 0x4 ADD PUSH2 0x159 SWAP1 PUSH2 0x591 JUMP JUMPDEST PUSH1 0x40 MLOAD DUP1 SWAP2 SUB SWAP1 REVERT JUMPDEST DUP2 PUSH1 0x40 MLOAD PUSH1 0x20 ADD PUSH2 0x173 SWAP2 SWAP1 PUSH2 0x5CF JUMP JUMPDEST PUSH1 0x40 MLOAD PUSH1 0x20 DUP2 DUP4 SUB SUB DUP2 MSTORE SWAP1 PUSH1 0x40 MSTORE DUP1 MLOAD SWAP1 PUSH1 0x20 ADD KECCAK256 SWAP1 POP SWAP2 SWAP1 POP JUMP JUMPDEST PUSH1 0x5 DUP2 GT ISZERO PUSH2 0x1D4 JUMPI PUSH1 0x40 MLOAD PUSH32 0x8C379A000000000000000000000000000000000000000000000000000000000 DUP2 MSTORE PUSH1 0x4 ADD PUSH2 0x1CB SWAP1 PUSH2 0x659 JUMP JUMPDEST PUSH1 0x40 MLOAD DUP1 SWAP2 SUB SWAP1 REVERT JUMPDEST PUSH2 0x213 PUSH1 0x40 MLOAD DUP1 PUSH1 0x40 ADD PUSH1 0x40 MSTORE DUP1 PUSH1 0xB DUP2 MSTORE PUSH1 0x20 ADD PUSH32 0x48616D6275726775657361000000000000000000000000000000000000000000 DUP2 MSTORE POP DUP4 PUSH2 0x217 JUMP JUMPDEST POP POP JUMP JUMPDEST PUSH0 PUSH1 0x40 MLOAD DUP1 PUSH1 0x40 ADD PUSH1 0x40 MSTORE DUP1 DUP5 DUP2 MSTORE PUSH1 0x20 ADD DUP4 DUP2 MSTORE POP SWAP1 DUP1 PUSH1 0x1 DUP2 SLOAD ADD DUP1 DUP3 SSTORE DUP1 SWAP2 POP POP PUSH1 0x1 SWAP1 SUB SWAP1 PUSH0 MSTORE PUSH1 0x20 PUSH0 KECCAK256 SWAP1 PUSH1 0x2 MUL ADD PUSH0 SWAP1 SWAP2 SWAP1 SWAP2 SWAP1 SWAP2 POP PUSH0 DUP3 ADD MLOAD DUP2 PUSH0 ADD SWAP1 DUP2 PUSH2 0x266 SWAP2 SWAP1 PUSH2 0x87B JUMP JUMPDEST POP PUSH1 0x20 DUP3 ADD MLOAD DUP2 PUSH1 0x1 ADD SWAP1 DUP2 PUSH2 0x27C SWAP2 SWAP1 PUSH2 0x87B JUMP JUMPDEST POP POP POP POP POP JUMP JUMPDEST PUSH0 PUSH20 0xFFFFFFFFFFFFFFFFFFFFFFFFFFFFFFFFFFFFFFFF DUP3 AND SWAP1 POP SWAP2 SWAP1 POP JUMP JUMPDEST PUSH0 PUSH2 0x2AC DUP3 PUSH2 0x283 JUMP JUMPDEST SWAP1 POP SWAP2 SWAP1 POP JUMP JUMPDEST PUSH2 0x2BC DUP2 PUSH2 0x2A2 JUMP JUMPDEST DUP3 MSTORE POP POP JUMP JUMPDEST PUSH0 PUSH1 0x20 DUP3 ADD SWAP1 POP PUSH2 0x2D5 PUSH0 DUP4 ADD DUP5 PUSH2 0x2B3 JUMP JUMPDEST SWAP3 SWAP2 POP POP JUMP JUMPDEST PUSH0 PUSH1 0x40 MLOAD SWAP1 POP SWAP1 JUMP JUMPDEST PUSH0 DUP1 REVERT JUMPDEST PUSH0 DUP1 REVERT JUMPDEST PUSH0 DUP2 SWAP1 POP SWAP2 SWAP1 POP JUMP JUMPDEST PUSH2 0x2FE DUP2 PUSH2 0x2EC JUMP JUMPDEST DUP2 EQ PUSH2 0x308 JUMPI PUSH0 DUP1 REVERT JUMPDEST POP JUMP JUMPDEST PUSH0 DUP2 CALLDATALOAD SWAP1 POP PUSH2 0x319 DUP2 PUSH2 0x2F5 JUMP JUMPDEST SWAP3 SWAP2 POP POP JUMP JUMPDEST PUSH0 PUSH1 0x20 DUP3 DUP5 SUB SLT ISZERO PUSH2 0x334 JUMPI PUSH2 0x333 PUSH2 0x2E4 JUMP JUMPDEST JUMPDEST PUSH0 PUSH2 0x341 DUP5 DUP3 DUP6 ADD PUSH2 0x30B JUMP JUMPDEST SWAP2 POP POP SWAP3 SWAP2 POP POP JUMP JUMPDEST PUSH0 DUP2 SWAP1 POP SWAP2 SWAP1 POP JUMP JUMPDEST PUSH2 0x35C DUP2 PUSH2 0x34A JUMP JUMPDEST DUP3 MSTORE POP POP JUMP JUMPDEST PUSH0 PUSH1 0x20 DUP3 ADD SWAP1 POP PUSH2 0x375 PUSH0 DUP4 ADD DUP5 PUSH2 0x353 JUMP JUMPDEST SWAP3 SWAP2 POP POP JUMP JUMPDEST PUSH0 DUP1 REVERT JUMPDEST PUSH0 DUP1 REVERT JUMPDEST PUSH0 PUSH1 0x1F NOT PUSH1 0x1F DUP4 ADD AND SWAP1 POP SWAP2 SWAP1 POP JUMP JUMPDEST PUSH32 0x4E487B7100000000000000000000000000000000000000000000000000000000 PUSH0 MSTORE PUSH1 0x41 PUSH1 0x4 MSTORE PUSH1 0x24 PUSH0 REVERT JUMPDEST PUSH2 0x3C9 DUP3 PUSH2 0x383 JUMP JUMPDEST DUP2 ADD DUP2 DUP2 LT PUSH8 0xFFFFFFFFFFFFFFFF DUP3 GT OR ISZERO PUSH2 0x3E8 JUMPI PUSH2 0x3E7 PUSH2 0x393 JUMP JUMPDEST JUMPDEST DUP1 PUSH1 0x40 MSTORE POP POP POP JUMP JUMPDEST PUSH0 PUSH2 0x3FA PUSH2 0x2DB JUMP JUMPDEST SWAP1 POP PUSH2 0x406 DUP3 DUP3 PUSH2 0x3C0 JUMP JUMPDEST SWAP2 SWAP1 POP JUMP JUMPDEST PUSH0 PUSH8 0xFFFFFFFFFFFFFFFF DUP3 GT ISZERO PUSH2 0x425 JUMPI PUSH2 0x424 PUSH2 0x393 JUMP JUMPDEST JUMPDEST PUSH2 0x42E DUP3 PUSH2 0x383 JUMP JUMPDEST SWAP1 POP PUSH1 0x20 DUP2 ADD SWAP1 POP SWAP2 SWAP1 POP JUMP JUMPDEST DUP3 DUP2 DUP4 CALLDATACOPY PUSH0 DUP4 DUP4 ADD MSTORE POP POP POP JUMP JUMPDEST PUSH0 PUSH2 0x45B PUSH2 0x456 DUP5 PUSH2 0x40B JUMP JUMPDEST PUSH2 0x3F1 JUMP JUMPDEST SWAP1 POP DUP3 DUP2 MSTORE PUSH1 0x20 DUP2 ADD DUP5 DUP5 DUP5 ADD GT ISZERO PUSH2 0x477 JUMPI PUSH2 0x476 PUSH2 0x37F JUMP JUMPDEST JUMPDEST PUSH2 0x482 DUP5 DUP3 DUP6 PUSH2 0x43B JUMP JUMPDEST POP SWAP4 SWAP3 POP POP POP JUMP JUMPDEST PUSH0 DUP3 PUSH1 0x1F DUP4 ADD SLT PUSH2 0x49E JUMPI PUSH2 0x49D PUSH2 0x37B JUMP JUMPDEST JUMPDEST DUP2 CALLDATALOAD PUSH2 0x4AE DUP5 DUP3 PUSH1 0x20 DUP7 ADD PUSH2 0x449 JUMP JUMPDEST SWAP2 POP POP SWAP3 SWAP2 POP POP JUMP JUMPDEST PUSH0 DUP1 PUSH1 0x40 DUP4 DUP6 SUB SLT ISZERO PUSH2 0x4CD JUMPI PUSH2 0x4CC PUSH2 0x2E4 JUMP JUMPDEST JUMPDEST PUSH0 DUP4 ADD CALLDATALOAD PUSH8 0xFFFFFFFFFFFFFFFF DUP2 GT ISZERO PUSH2 0x4EA JUMPI PUSH2 0x4E9 PUSH2 0x2E8 JUMP JUMPDEST JUMPDEST PUSH2 0x4F6 DUP6 DUP3 DUP7 ADD PUSH2 0x48A JUMP JUMPDEST SWAP3 POP POP PUSH1 0x20 PUSH2 0x507 DUP6 DUP3 DUP7 ADD PUSH2 0x30B JUMP JUMPDEST SWAP2 POP POP SWAP3 POP SWAP3 SWAP1 POP JUMP JUMPDEST PUSH0 DUP3 DUP3 MSTORE PUSH1 0x20 DUP3 ADD SWAP1 POP SWAP3 SWAP2 POP POP JUMP JUMPDEST PUSH32 0x4E6F207469656E6573206175746F72697A6163696F6E207061726120656A6563 PUSH0 DUP3 ADD MSTORE PUSH32 0x7574617220657374612066756E63696F6E000000000000000000000000000000 PUSH1 0x20 DUP3 ADD MSTORE POP JUMP JUMPDEST PUSH0 PUSH2 0x57B PUSH1 0x31 DUP4 PUSH2 0x511 JUMP JUMPDEST SWAP2 POP PUSH2 0x586 DUP3 PUSH2 0x521 JUMP JUMPDEST PUSH1 0x40 DUP3 ADD SWAP1 POP SWAP2 SWAP1 POP JUMP JUMPDEST PUSH0 PUSH1 0x20 DUP3 ADD SWAP1 POP DUP2 DUP2 SUB PUSH0 DUP4 ADD MSTORE PUSH2 0x5A8 DUP2 PUSH2 0x56F JUMP JUMPDEST SWAP1 POP SWAP2 SWAP1 POP JUMP JUMPDEST PUSH0 DUP2 SWAP1 POP SWAP2 SWAP1 POP JUMP JUMPDEST PUSH2 0x5C9 PUSH2 0x5C4 DUP3 PUSH2 0x2EC JUMP JUMPDEST PUSH2 0x5AF JUMP JUMPDEST DUP3 MSTORE POP POP JUMP JUMPDEST PUSH0 PUSH2 0x5DA DUP3 DUP5 PUSH2 0x5B8 JUMP JUMPDEST PUSH1 0x20 DUP3 ADD SWAP2 POP DUP2 SWAP1 POP SWAP3 SWAP2 POP POP JUMP JUMPDEST PUSH32 0x5570732C206E6F207075656465732070656469722074616E7461732068616D62 PUSH0 DUP3 ADD MSTORE PUSH32 0x7572677565736173000000000000000000000000000000000000000000000000 PUSH1 0x20 DUP3 ADD MSTORE POP JUMP JUMPDEST PUSH0 PUSH2 0x643 PUSH1 0x28 DUP4 PUSH2 0x511 JUMP JUMPDEST SWAP2 POP PUSH2 0x64E DUP3 PUSH2 0x5E9 JUMP JUMPDEST PUSH1 0x40 DUP3 ADD SWAP1 POP SWAP2 SWAP1 POP JUMP JUMPDEST PUSH0 PUSH1 0x20 DUP3 ADD SWAP1 POP DUP2 DUP2 SUB PUSH0 DUP4 ADD MSTORE PUSH2 0x670 DUP2 PUSH2 0x637 JUMP JUMPDEST SWAP1 POP SWAP2 SWAP1 POP JUMP JUMPDEST PUSH0 DUP2 MLOAD SWAP1 POP SWAP2 SWAP1 POP JUMP JUMPDEST PUSH32 0x4E487B7100000000000000000000000000000000000000000000000000000000 PUSH0 MSTORE PUSH1 0x22 PUSH1 0x4 MSTORE PUSH1 0x24 PUSH0 REVERT JUMPDEST PUSH0 PUSH1 0x2 DUP3 DIV SWAP1 POP PUSH1 0x1 DUP3 AND DUP1 PUSH2 0x6C5 JUMPI PUSH1 0x7F DUP3 AND SWAP2 POP JUMPDEST PUSH1 0x20 DUP3 LT DUP2 SUB PUSH2 0x6D8 JUMPI PUSH2 0x6D7 PUSH2 0x681 JUMP JUMPDEST JUMPDEST POP SWAP2 SWAP1 POP JUMP JUMPDEST PUSH0 DUP2 SWAP1 POP DUP2 PUSH0 MSTORE PUSH1 0x20 PUSH0 KECCAK256 SWAP1 POP SWAP2 SWAP1 POP JUMP JUMPDEST PUSH0 PUSH1 0x20 PUSH1 0x1F DUP4 ADD DIV SWAP1 POP SWAP2 SWAP1 POP JUMP JUMPDEST PUSH0 DUP3 DUP3 SHL SWAP1 POP SWAP3 SWAP2 POP POP JUMP JUMPDEST PUSH0 PUSH1 0x8 DUP4 MUL PUSH2 0x73A PUSH32 0xFFFFFFFFFFFFFFFFFFFFFFFFFFFFFFFFFFFFFFFFFFFFFFFFFFFFFFFFFFFFFFFF DUP3 PUSH2 0x6FF JUMP JUMPDEST PUSH2 0x744 DUP7 DUP4 PUSH2 0x6FF JUMP JUMPDEST SWAP6 POP DUP1 NOT DUP5 AND SWAP4 POP DUP1 DUP7 AND DUP5 OR SWAP3 POP POP POP SWAP4 SWAP3 POP POP POP JUMP JUMPDEST PUSH0 DUP2 SWAP1 POP SWAP2 SWAP1 POP JUMP JUMPDEST PUSH0 PUSH2 0x77F PUSH2 0x77A PUSH2 0x775 DUP5 PUSH2 0x2EC JUMP JUMPDEST PUSH2 0x75C JUMP JUMPDEST PUSH2 0x2EC JUMP JUMPDEST SWAP1 POP SWAP2 SWAP1 POP JUMP JUMPDEST PUSH0 DUP2 SWAP1 POP SWAP2 SWAP1 POP JUMP JUMPDEST PUSH2 0x798 DUP4 PUSH2 0x765 JUMP JUMPDEST PUSH2 0x7AC PUSH2 0x7A4 DUP3 PUSH2 0x786 JUMP JUMPDEST DUP5 DUP5 SLOAD PUSH2 0x70B JUMP JUMPDEST DUP3 SSTORE POP POP POP POP JUMP JUMPDEST PUSH0 SWAP1 JUMP JUMPDEST PUSH2 0x7C0 PUSH2 0x7B4 JUMP JUMPDEST PUSH2 0x7CB DUP2 DUP5 DUP5 PUSH2 0x78F JUMP JUMPDEST POP POP POP JUMP JUMPDEST JUMPDEST DUP2 DUP2 LT ISZERO PUSH2 0x7EE JUMPI PUSH2 0x7E3 PUSH0 DUP3 PUSH2 0x7B8 JUMP JUMPDEST PUSH1 0x1 DUP2 ADD SWAP1 POP PUSH2 0x7D1 JUMP JUMPDEST POP POP JUMP JUMPDEST PUSH1 0x1F DUP3 GT ISZERO PUSH2 0x833 JUMPI PUSH2 0x804 DUP2 PUSH2 0x6DE JUMP JUMPDEST PUSH2 0x80D DUP5 PUSH2 0x6F0 JUMP JUMPDEST DUP2 ADD PUSH1 0x20 DUP6 LT ISZERO PUSH2 0x81C JUMPI DUP2 SWAP1 POP JUMPDEST PUSH2 0x830 PUSH2 0x828 DUP6 PUSH2 0x6F0 JUMP JUMPDEST DUP4 ADD DUP3 PUSH2 0x7D0 JUMP JUMPDEST POP POP JUMPDEST POP POP POP JUMP JUMPDEST PUSH0 DUP3 DUP3 SHR SWAP1 POP SWAP3 SWAP2 POP POP JUMP JUMPDEST PUSH0 PUSH2 0x853 PUSH0 NOT DUP5 PUSH1 0x8 MUL PUSH2 0x838 JUMP JUMPDEST NOT DUP1 DUP4 AND SWAP2 POP POP SWAP3 SWAP2 POP POP JUMP JUMPDEST PUSH0 PUSH2 0x86B DUP4 DUP4 PUSH2 0x844 JUMP JUMPDEST SWAP2 POP DUP3 PUSH1 0x2 MUL DUP3 OR SWAP1 POP SWAP3 SWAP2 POP POP JUMP JUMPDEST PUSH2 0x884 DUP3 PUSH2 0x677 JUMP JUMPDEST PUSH8 0xFFFFFFFFFFFFFFFF DUP2 GT ISZERO PUSH2 0x89D JUMPI PUSH2 0x89C PUSH2 0x393 JUMP JUMPDEST JUMPDEST PUSH2 0x8A7 DUP3 SLOAD PUSH2 0x6AE JUMP JUMPDEST PUSH2 0x8B2 DUP3 DUP3 DUP6 PUSH2 0x7F2 JUMP JUMPDEST PUSH0 PUSH1 0x20 SWAP1 POP PUSH1 0x1F DUP4 GT PUSH1 0x1 DUP2 EQ PUSH2 0x8E3 JUMPI PUSH0 DUP5 ISZERO PUSH2 0x8D1 JUMPI DUP3 DUP8 ADD MLOAD SWAP1 POP JUMPDEST PUSH2 0x8DB DUP6 DUP3 PUSH2 0x860 JUMP JUMPDEST DUP7 SSTORE POP PUSH2 0x942 JUMP JUMPDEST PUSH1 0x1F NOT DUP5 AND PUSH2 0x8F1 DUP7 PUSH2 0x6DE JUMP JUMPDEST PUSH0 JUMPDEST DUP3 DUP2 LT ISZERO PUSH2 0x918 JUMPI DUP5 DUP10 ADD MLOAD DUP3 SSTORE PUSH1 0x1 DUP3 ADD SWAP2 POP PUSH1 0x20 DUP6 ADD SWAP5 POP PUSH1 0x20 DUP2 ADD SWAP1 POP PUSH2 0x8F3 JUMP JUMPDEST DUP7 DUP4 LT ISZERO PUSH2 0x935 JUMPI DUP5 DUP10 ADD MLOAD PUSH2 0x931 PUSH1 0x1F DUP10 AND DUP3 PUSH2 0x844 JUMP JUMPDEST DUP4 SSTORE POP JUMPDEST PUSH1 0x1 PUSH1 0x2 DUP9 MUL ADD DUP9 SSTORE POP POP POP JUMPDEST POP POP POP POP POP POP JUMP INVALID LOG2 PUSH5 0x6970667358 0x22 SLT KECCAK256 PUSH24 0x258862663C4B26507A07782422A60A9ABD89A5FD61643269 SWAP15 PUSH11 0xDD85A3D8CF64736F6C6343 STOP ADDMOD BYTE STOP CALLER "
		},
		"gasEstimates": {
			"creation": {
				"codeDepositCost": "486400",
				"executionCost": "24781",
				"totalCost": "511181"
			},
			"external": {
				"doHamburguer(string,uint256)": "infinite",
				"hashPrivateNumber(uint256)": "infinite",
				"owner()": "2486"
			}
		},
		"methodIdentifiers": {
			"doHamburguer(string,uint256)": "dd595ee4",
			"hashPrivateNumber(uint256)": "bda02842",
			"owner()": "8da5cb5b"
		}
	},
	"abi": [
		{
			"inputs": [],
			"stateMutability": "nonpayable",
			"type": "constructor"
		},
		{
			"inputs": [
				{
					"internalType": "string",
					"name": "_ingredients",
					"type": "string"
				},
				{
					"internalType": "uint256",
					"name": "_units",
					"type": "uint256"
				}
			],
			"name": "doHamburguer",
			"outputs": [],
			"stateMutability": "nonpayable",
			"type": "function"
		},
		{
			"inputs": [
				{
					"internalType": "uint256",
					"name": "_number",
					"type": "uint256"
				}
			],
			"name": "hashPrivateNumber",
			"outputs": [
				{
					"internalType": "bytes32",
					"name": "",
					"type": "bytes32"
				}
			],
			"stateMutability": "view",
			"type": "function"
		},
		{
			"inputs": [],
			"name": "owner",
			"outputs": [
				{
					"internalType": "address",
					"name": "",
					"type": "address"
				}
			],
			"stateMutability": "view",
			"type": "function"
		}
	]
}