{
	"contracts/03_estructuras_datos.sol": {
		"data_structures": {
			"abi": [
				{
					"inputs": [
						{
							"internalType": "address",
							"name": "",
							"type": "address"
						}
					],
					"name": "address_dataStructure",
					"outputs": [
						{
							"internalType": "uint256",
							"name": "id",
							"type": "uint256"
						},
						{
							"internalType": "string",
							"name": "name",
							"type": "string"
						},
						{
							"internalType": "string",
							"name": "email",
							"type": "string"
						}
					],
					"stateMutability": "view",
					"type": "function"
				},
				{
					"inputs": [
						{
							"internalType": "address",
							"name": "",
							"type": "address"
						}
					],
					"name": "address_uint",
					"outputs": [
						{
							"internalType": "uint256",
							"name": "",
							"type": "uint256"
						}
					],
					"stateMutability": "view",
					"type": "function"
				},
				{
					"inputs": [
						{
							"internalType": "uint256",
							"name": "_id",
							"type": "uint256"
						},
						{
							"internalType": "string",
							"name": "_name",
							"type": "string"
						},
						{
							"internalType": "string",
							"name": "_email",
							"type": "string"
						}
					],
					"name": "array_modification",
					"outputs": [],
					"stateMutability": "nonpayable",
					"type": "function"
				},
				{
					"inputs": [
						{
							"internalType": "uint256",
							"name": "_id",
							"type": "uint256"
						},
						{
							"internalType": "string",
							"name": "_name",
							"type": "string"
						},
						{
							"internalType": "string",
							"name": "_email",
							"type": "string"
						}
					],
					"name": "assignDataStructure",
					"outputs": [],
					"stateMutability": "nonpayable",
					"type": "function"
				},
				{
					"inputs": [
						{
							"internalType": "string",
							"name": "_name",
							"type": "string"
						},
						{
							"internalType": "uint256",
							"name": "_number",
							"type": "uint256"
						}
					],
					"name": "assignList",
					"outputs": [],
					"stateMutability": "nonpayable",
					"type": "function"
				},
				{
					"inputs": [
						{
							"internalType": "uint256",
							"name": "_number",
							"type": "uint256"
						}
					],
					"name": "assignNumber",
					"outputs": [],
					"stateMutability": "nonpayable",
					"type": "function"
				},
				{
					"inputs": [
						{
							"internalType": "uint256",
							"name": "",
							"type": "uint256"
						}
					],
					"name": "clientes_dinamicos",
					"outputs": [
						{
							"internalType": "uint256",
							"name": "id",
							"type": "uint256"
						},
						{
							"internalType": "string",
							"name": "name",
							"type": "string"
						},
						{
							"internalType": "string",
							"name": "email",
							"type": "string"
						}
					],
					"stateMutability": "view",
					"type": "function"
				},
				{
					"inputs": [
						{
							"internalType": "uint256",
							"name": "",
							"type": "uint256"
						}
					],
					"name": "enteros",
					"outputs": [
						{
							"internalType": "uint256",
							"name": "",
							"type": "uint256"
						}
					],
					"stateMutability": "view",
					"type": "function"
				},
				{
					"inputs": [
						{
							"internalType": "uint256",
							"name": "",
							"type": "uint256"
						}
					],
					"name": "enteros_dinamicos",
					"outputs": [
						{
							"internalType": "uint256",
							"name": "",
							"type": "uint256"
						}
					],
					"stateMutability": "view",
					"type": "function"
				},
				{
					"inputs": [
						{
							"internalType": "string",
							"name": "",
							"type": "string"
						},
						{
							"internalType": "uint256",
							"name": "",
							"type": "uint256"
						}
					],
					"name": "string_listUnits",
					"outputs": [
						{
							"internalType": "uint256",
							"name": "",
							"type": "uint256"
						}
					],
					"stateMutability": "view",
					"type": "function"
				}
			],
			"devdoc": {
				"kind": "dev",
				"methods": {},
				"version": 1
			},
			"evm": {
				"assembly": "    /* \"contracts/03_estructuras_datos.sol\":74:1643  contract data_structures {... */\n  mstore(0x40, 0x80)\n    /* \"contracts/03_estructuras_datos.sol\":304:343  Customer(1, \"Rene\", \"rene@hotmail.com\") */\n  mload(0x40)\n  dup1\n  0x60\n  add\n  0x40\n  mstore\n  dup1\n    /* \"contracts/03_estructuras_datos.sol\":313:314  1 */\n  0x01\n    /* \"contracts/03_estructuras_datos.sol\":304:343  Customer(1, \"Rene\", \"rene@hotmail.com\") */\n  dup2\n  mstore\n  0x20\n  add\n  mload(0x40)\n  dup1\n  0x40\n  add\n  0x40\n  mstore\n  dup1\n  0x04\n  dup2\n  mstore\n  0x20\n  add\n  0x52656e6500000000000000000000000000000000000000000000000000000000\n  dup2\n  mstore\n  pop\n  dup2\n  mstore\n  0x20\n  add\n  mload(0x40)\n  dup1\n  0x40\n  add\n  0x40\n  mstore\n  dup1\n  0x10\n  dup2\n  mstore\n  0x20\n  add\n  0x72656e6540686f746d61696c2e636f6d00000000000000000000000000000000\n  dup2\n  mstore\n  pop\n  dup2\n  mstore\n  pop\n    /* \"contracts/03_estructuras_datos.sol\":283:343  Customer cliente_1 = Customer(1, \"Rene\", \"rene@hotmail.com\") */\n  0x00\n  dup1\n  dup3\n  add\n  mload\n  dup2\n  0x00\n  add\n  sstore\n  0x20\n  dup3\n  add\n  mload\n  dup2\n  0x01\n  add\n  swap1\n  dup2\n  tag_1\n  swap2\n  swap1\n  tag_2\n  jump\t// in\ntag_1:\n  pop\n  0x40\n  dup3\n  add\n  mload\n  dup2\n  0x02\n  add\n  swap1\n  dup2\n  tag_3\n  swap2\n  swap1\n  tag_2\n  jump\t// in\ntag_3:\n  pop\n  pop\n  pop\n    /* \"contracts/03_estructuras_datos.sol\":397:438  uint256 [5] public enteros = [2,3,5,7,11] */\n  mload(0x40)\n  dup1\n  0xa0\n  add\n  0x40\n  mstore\n  dup1\n    /* \"contracts/03_estructuras_datos.sol\":427:428  2 */\n  0x02\n    /* \"contracts/03_estructuras_datos.sol\":397:438  uint256 [5] public enteros = [2,3,5,7,11] */\n  0xff\n  and\n  dup2\n  mstore\n  0x20\n  add\n    /* \"contracts/03_estructuras_datos.sol\":429:430  3 */\n  0x03\n    /* \"contracts/03_estructuras_datos.sol\":397:438  uint256 [5] public enteros = [2,3,5,7,11] */\n  0xff\n  and\n  dup2\n  mstore\n  0x20\n  add\n    /* \"contracts/03_estructuras_datos.sol\":431:432  5 */\n  0x05\n    /* \"contracts/03_estructuras_datos.sol\":397:438  uint256 [5] public enteros = [2,3,5,7,11] */\n  0xff\n  and\n  dup2\n  mstore\n  0x20\n  add\n    /* \"contracts/03_estructuras_datos.sol\":433:434  7 */\n  0x07\n    /* \"contracts/03_estructuras_datos.sol\":397:438  uint256 [5] public enteros = [2,3,5,7,11] */\n  0xff\n  and\n  dup2\n  mstore\n  0x20\n  add\n    /* \"contracts/03_estructuras_datos.sol\":435:437  11 */\n  0x0b\n    /* \"contracts/03_estructuras_datos.sol\":397:438  uint256 [5] public enteros = [2,3,5,7,11] */\n  0xff\n  and\n  dup2\n  mstore\n  pop\n  0x03\n  swap1\n  0x05\n  tag_4\n  swap3\n  swap2\n  swap1\n  tag_5\n  jump\t// in\ntag_4:\n  pop\n    /* \"contracts/03_estructuras_datos.sol\":74:1643  contract data_structures {... */\n  callvalue\n  dup1\n  iszero\n  tag_6\n  jumpi\n  0x00\n  dup1\n  revert\ntag_6:\n  pop\n  jump(tag_7)\ntag_5:\n  dup3\n  0x05\n  dup2\n  add\n  swap3\n  dup3\n  iszero\n  tag_8\n  jumpi\n  swap2\n  0x20\n  mul\n  dup3\n  add\ntag_9:\n  dup3\n  dup2\n  gt\n  iszero\n  tag_10\n  jumpi\n  dup3\n  mload\n  dup3\n  swap1\n  0xff\n  and\n  swap1\n  sstore\n  swap2\n  0x20\n  add\n  swap2\n  swap1\n  0x01\n  add\n  swap1\n  jump(tag_9)\ntag_10:\ntag_8:\n  pop\n  swap1\n  pop\n  tag_11\n  swap2\n  swap1\n  tag_12\n  jump\t// in\ntag_11:\n  pop\n  swap1\n  jump\t// out\ntag_12:\ntag_13:\n  dup1\n  dup3\n  gt\n  iszero\n  tag_14\n  jumpi\n  0x00\n  dup2\n  0x00\n  swap1\n  sstore\n  pop\n  0x01\n  add\n  jump(tag_13)\ntag_14:\n  pop\n  swap1\n  jump\t// out\n    /* \"#utility.yul\":7:106   */\ntag_15:\n    /* \"#utility.yul\":59:65   */\n  0x00\n    /* \"#utility.yul\":93:98   */\n  dup2\n    /* \"#utility.yul\":87:99   */\n  mload\n    /* \"#utility.yul\":77:99   */\n  swap1\n  pop\n    /* \"#utility.yul\":7:106   */\n  swap2\n  swap1\n  pop\n  jump\t// out\n    /* \"#utility.yul\":112:292   */\ntag_16:\n    /* \"#utility.yul\":160:237   */\n  0x4e487b7100000000000000000000000000000000000000000000000000000000\n    /* \"#utility.yul\":157:158   */\n  0x00\n    /* \"#utility.yul\":150:238   */\n  mstore\n    /* \"#utility.yul\":257:261   */\n  0x41\n    /* \"#utility.yul\":254:255   */\n  0x04\n    /* \"#utility.yul\":247:262   */\n  mstore\n    /* \"#utility.yul\":281:285   */\n  0x24\n    /* \"#utility.yul\":278:279   */\n  0x00\n    /* \"#utility.yul\":271:286   */\n  revert\n    /* \"#utility.yul\":298:478   */\ntag_17:\n    /* \"#utility.yul\":346:423   */\n  0x4e487b7100000000000000000000000000000000000000000000000000000000\n    /* \"#utility.yul\":343:344   */\n  0x00\n    /* \"#utility.yul\":336:424   */\n  mstore\n    /* \"#utility.yul\":443:447   */\n  0x22\n    /* \"#utility.yul\":440:441   */\n  0x04\n    /* \"#utility.yul\":433:448   */\n  mstore\n    /* \"#utility.yul\":467:471   */\n  0x24\n    /* \"#utility.yul\":464:465   */\n  0x00\n    /* \"#utility.yul\":457:472   */\n  revert\n    /* \"#utility.yul\":484:804   */\ntag_18:\n    /* \"#utility.yul\":528:534   */\n  0x00\n    /* \"#utility.yul\":565:566   */\n  0x02\n    /* \"#utility.yul\":559:563   */\n  dup3\n    /* \"#utility.yul\":555:567   */\n  div\n    /* \"#utility.yul\":545:567   */\n  swap1\n  pop\n    /* \"#utility.yul\":612:613   */\n  0x01\n    /* \"#utility.yul\":606:610   */\n  dup3\n    /* \"#utility.yul\":602:614   */\n  and\n    /* \"#utility.yul\":633:651   */\n  dup1\n    /* \"#utility.yul\":623:704   */\n  tag_40\n  jumpi\n    /* \"#utility.yul\":689:693   */\n  0x7f\n    /* \"#utility.yul\":681:687   */\n  dup3\n    /* \"#utility.yul\":677:694   */\n  and\n    /* \"#utility.yul\":667:694   */\n  swap2\n  pop\n    /* \"#utility.yul\":623:704   */\ntag_40:\n    /* \"#utility.yul\":751:753   */\n  0x20\n    /* \"#utility.yul\":743:749   */\n  dup3\n    /* \"#utility.yul\":740:754   */\n  lt\n    /* \"#utility.yul\":720:738   */\n  dup2\n    /* \"#utility.yul\":717:755   */\n  sub\n    /* \"#utility.yul\":714:798   */\n  tag_41\n  jumpi\n    /* \"#utility.yul\":770:788   */\n  tag_42\n  tag_17\n  jump\t// in\ntag_42:\n    /* \"#utility.yul\":714:798   */\ntag_41:\n    /* \"#utility.yul\":535:804   */\n  pop\n    /* \"#utility.yul\":484:804   */\n  swap2\n  swap1\n  pop\n  jump\t// out\n    /* \"#utility.yul\":810:951   */\ntag_19:\n    /* \"#utility.yul\":859:863   */\n  0x00\n    /* \"#utility.yul\":882:885   */\n  dup2\n    /* \"#utility.yul\":874:885   */\n  swap1\n  pop\n    /* \"#utility.yul\":905:908   */\n  dup2\n    /* \"#utility.yul\":902:903   */\n  0x00\n    /* \"#utility.yul\":895:909   */\n  mstore\n    /* \"#utility.yul\":939:943   */\n  0x20\n    /* \"#utility.yul\":936:937   */\n  0x00\n    /* \"#utility.yul\":926:944   */\n  keccak256\n    /* \"#utility.yul\":918:944   */\n  swap1\n  pop\n    /* \"#utility.yul\":810:951   */\n  swap2\n  swap1\n  pop\n  jump\t// out\n    /* \"#utility.yul\":957:1050   */\ntag_20:\n    /* \"#utility.yul\":994:1000   */\n  0x00\n    /* \"#utility.yul\":1041:1043   */\n  0x20\n    /* \"#utility.yul\":1036:1038   */\n  0x1f\n    /* \"#utility.yul\":1029:1034   */\n  dup4\n    /* \"#utility.yul\":1025:1039   */\n  add\n    /* \"#utility.yul\":1021:1044   */\n  div\n    /* \"#utility.yul\":1011:1044   */\n  swap1\n  pop\n    /* \"#utility.yul\":957:1050   */\n  swap2\n  swap1\n  pop\n  jump\t// out\n    /* \"#utility.yul\":1056:1163   */\ntag_21:\n    /* \"#utility.yul\":1100:1108   */\n  0x00\n    /* \"#utility.yul\":1150:1155   */\n  dup3\n    /* \"#utility.yul\":1144:1148   */\n  dup3\n    /* \"#utility.yul\":1140:1156   */\n  shl\n    /* \"#utility.yul\":1119:1156   */\n  swap1\n  pop\n    /* \"#utility.yul\":1056:1163   */\n  swap3\n  swap2\n  pop\n  pop\n  jump\t// out\n    /* \"#utility.yul\":1169:1562   */\ntag_22:\n    /* \"#utility.yul\":1238:1244   */\n  0x00\n    /* \"#utility.yul\":1288:1289   */\n  0x08\n    /* \"#utility.yul\":1276:1286   */\n  dup4\n    /* \"#utility.yul\":1272:1290   */\n  mul\n    /* \"#utility.yul\":1311:1408   */\n  tag_47\n    /* \"#utility.yul\":1341:1407   */\n  0xffffffffffffffffffffffffffffffffffffffffffffffffffffffffffffffff\n    /* \"#utility.yul\":1330:1339   */\n  dup3\n    /* \"#utility.yul\":1311:1408   */\n  tag_21\n  jump\t// in\ntag_47:\n    /* \"#utility.yul\":1429:1468   */\n  tag_48\n    /* \"#utility.yul\":1459:1467   */\n  dup7\n    /* \"#utility.yul\":1448:1457   */\n  dup4\n    /* \"#utility.yul\":1429:1468   */\n  tag_21\n  jump\t// in\ntag_48:\n    /* \"#utility.yul\":1417:1468   */\n  swap6\n  pop\n    /* \"#utility.yul\":1501:1505   */\n  dup1\n    /* \"#utility.yul\":1497:1506   */\n  not\n    /* \"#utility.yul\":1490:1495   */\n  dup5\n    /* \"#utility.yul\":1486:1507   */\n  and\n    /* \"#utility.yul\":1477:1507   */\n  swap4\n  pop\n    /* \"#utility.yul\":1550:1554   */\n  dup1\n    /* \"#utility.yul\":1540:1548   */\n  dup7\n    /* \"#utility.yul\":1536:1555   */\n  and\n    /* \"#utility.yul\":1529:1534   */\n  dup5\n    /* \"#utility.yul\":1526:1556   */\n  or\n    /* \"#utility.yul\":1516:1556   */\n  swap3\n  pop\n    /* \"#utility.yul\":1245:1562   */\n  pop\n  pop\n    /* \"#utility.yul\":1169:1562   */\n  swap4\n  swap3\n  pop\n  pop\n  pop\n  jump\t// out\n    /* \"#utility.yul\":1568:1645   */\ntag_23:\n    /* \"#utility.yul\":1605:1612   */\n  0x00\n    /* \"#utility.yul\":1634:1639   */\n  dup2\n    /* \"#utility.yul\":1623:1639   */\n  swap1\n  pop\n    /* \"#utility.yul\":1568:1645   */\n  swap2\n  swap1\n  pop\n  jump\t// out\n    /* \"#utility.yul\":1651:1711   */\ntag_24:\n    /* \"#utility.yul\":1679:1682   */\n  0x00\n    /* \"#utility.yul\":1700:1705   */\n  dup2\n    /* \"#utility.yul\":1693:1705   */\n  swap1\n  pop\n    /* \"#utility.yul\":1651:1711   */\n  swap2\n  swap1\n  pop\n  jump\t// out\n    /* \"#utility.yul\":1717:1859   */\ntag_25:\n    /* \"#utility.yul\":1767:1776   */\n  0x00\n    /* \"#utility.yul\":1800:1853   */\n  tag_52\n    /* \"#utility.yul\":1818:1852   */\n  tag_53\n    /* \"#utility.yul\":1827:1851   */\n  tag_54\n    /* \"#utility.yul\":1845:1850   */\n  dup5\n    /* \"#utility.yul\":1827:1851   */\n  tag_23\n  jump\t// in\ntag_54:\n    /* \"#utility.yul\":1818:1852   */\n  tag_24\n  jump\t// in\ntag_53:\n    /* \"#utility.yul\":1800:1853   */\n  tag_23\n  jump\t// in\ntag_52:\n    /* \"#utility.yul\":1787:1853   */\n  swap1\n  pop\n    /* \"#utility.yul\":1717:1859   */\n  swap2\n  swap1\n  pop\n  jump\t// out\n    /* \"#utility.yul\":1865:1940   */\ntag_26:\n    /* \"#utility.yul\":1908:1911   */\n  0x00\n    /* \"#utility.yul\":1929:1934   */\n  dup2\n    /* \"#utility.yul\":1922:1934   */\n  swap1\n  pop\n    /* \"#utility.yul\":1865:1940   */\n  swap2\n  swap1\n  pop\n  jump\t// out\n    /* \"#utility.yul\":1946:2215   */\ntag_27:\n    /* \"#utility.yul\":2056:2095   */\n  tag_57\n    /* \"#utility.yul\":2087:2094   */\n  dup4\n    /* \"#utility.yul\":2056:2095   */\n  tag_25\n  jump\t// in\ntag_57:\n    /* \"#utility.yul\":2117:2208   */\n  tag_58\n    /* \"#utility.yul\":2166:2207   */\n  tag_59\n    /* \"#utility.yul\":2190:2206   */\n  dup3\n    /* \"#utility.yul\":2166:2207   */\n  tag_26\n  jump\t// in\ntag_59:\n    /* \"#utility.yul\":2158:2164   */\n  dup5\n    /* \"#utility.yul\":2151:2155   */\n  dup5\n    /* \"#utility.yul\":2145:2156   */\n  sload\n    /* \"#utility.yul\":2117:2208   */\n  tag_22\n  jump\t// in\ntag_58:\n    /* \"#utility.yul\":2111:2115   */\n  dup3\n    /* \"#utility.yul\":2104:2209   */\n  sstore\n    /* \"#utility.yul\":2022:2215   */\n  pop\n    /* \"#utility.yul\":1946:2215   */\n  pop\n  pop\n  pop\n  jump\t// out\n    /* \"#utility.yul\":2221:2294   */\ntag_28:\n    /* \"#utility.yul\":2266:2269   */\n  0x00\n    /* \"#utility.yul\":2221:2294   */\n  swap1\n  jump\t// out\n    /* \"#utility.yul\":2300:2489   */\ntag_29:\n    /* \"#utility.yul\":2377:2409   */\n  tag_62\n  tag_28\n  jump\t// in\ntag_62:\n    /* \"#utility.yul\":2418:2483   */\n  tag_63\n    /* \"#utility.yul\":2476:2482   */\n  dup2\n    /* \"#utility.yul\":2468:2474   */\n  dup5\n    /* \"#utility.yul\":2462:2466   */\n  dup5\n    /* \"#utility.yul\":2418:2483   */\n  tag_27\n  jump\t// in\ntag_63:\n    /* \"#utility.yul\":2353:2489   */\n  pop\n    /* \"#utility.yul\":2300:2489   */\n  pop\n  pop\n  jump\t// out\n    /* \"#utility.yul\":2495:2681   */\ntag_30:\n    /* \"#utility.yul\":2555:2675   */\ntag_65:\n    /* \"#utility.yul\":2572:2575   */\n  dup2\n    /* \"#utility.yul\":2565:2570   */\n  dup2\n    /* \"#utility.yul\":2562:2576   */\n  lt\n    /* \"#utility.yul\":2555:2675   */\n  iszero\n  tag_67\n  jumpi\n    /* \"#utility.yul\":2626:2665   */\n  tag_68\n    /* \"#utility.yul\":2663:2664   */\n  0x00\n    /* \"#utility.yul\":2656:2661   */\n  dup3\n    /* \"#utility.yul\":2626:2665   */\n  tag_29\n  jump\t// in\ntag_68:\n    /* \"#utility.yul\":2599:2600   */\n  0x01\n    /* \"#utility.yul\":2592:2597   */\n  dup2\n    /* \"#utility.yul\":2588:2601   */\n  add\n    /* \"#utility.yul\":2579:2601   */\n  swap1\n  pop\n    /* \"#utility.yul\":2555:2675   */\n  jump(tag_65)\ntag_67:\n    /* \"#utility.yul\":2495:2681   */\n  pop\n  pop\n  jump\t// out\n    /* \"#utility.yul\":2687:3230   */\ntag_31:\n    /* \"#utility.yul\":2788:2790   */\n  0x1f\n    /* \"#utility.yul\":2783:2786   */\n  dup3\n    /* \"#utility.yul\":2780:2791   */\n  gt\n    /* \"#utility.yul\":2777:3223   */\n  iszero\n  tag_70\n  jumpi\n    /* \"#utility.yul\":2822:2860   */\n  tag_71\n    /* \"#utility.yul\":2854:2859   */\n  dup2\n    /* \"#utility.yul\":2822:2860   */\n  tag_19\n  jump\t// in\ntag_71:\n    /* \"#utility.yul\":2906:2935   */\n  tag_72\n    /* \"#utility.yul\":2924:2934   */\n  dup5\n    /* \"#utility.yul\":2906:2935   */\n  tag_20\n  jump\t// in\ntag_72:\n    /* \"#utility.yul\":2896:2904   */\n  dup2\n    /* \"#utility.yul\":2892:2936   */\n  add\n    /* \"#utility.yul\":3089:3091   */\n  0x20\n    /* \"#utility.yul\":3077:3087   */\n  dup6\n    /* \"#utility.yul\":3074:3092   */\n  lt\n    /* \"#utility.yul\":3071:3120   */\n  iszero\n  tag_73\n  jumpi\n    /* \"#utility.yul\":3110:3118   */\n  dup2\n    /* \"#utility.yul\":3095:3118   */\n  swap1\n  pop\n    /* \"#utility.yul\":3071:3120   */\ntag_73:\n    /* \"#utility.yul\":3133:3213   */\n  tag_74\n    /* \"#utility.yul\":3189:3211   */\n  tag_75\n    /* \"#utility.yul\":3207:3210   */\n  dup6\n    /* \"#utility.yul\":3189:3211   */\n  tag_20\n  jump\t// in\ntag_75:\n    /* \"#utility.yul\":3179:3187   */\n  dup4\n    /* \"#utility.yul\":3175:3212   */\n  add\n    /* \"#utility.yul\":3162:3173   */\n  dup3\n    /* \"#utility.yul\":3133:3213   */\n  tag_30\n  jump\t// in\ntag_74:\n    /* \"#utility.yul\":2792:3223   */\n  pop\n  pop\n    /* \"#utility.yul\":2777:3223   */\ntag_70:\n    /* \"#utility.yul\":2687:3230   */\n  pop\n  pop\n  pop\n  jump\t// out\n    /* \"#utility.yul\":3236:3353   */\ntag_32:\n    /* \"#utility.yul\":3290:3298   */\n  0x00\n    /* \"#utility.yul\":3340:3345   */\n  dup3\n    /* \"#utility.yul\":3334:3338   */\n  dup3\n    /* \"#utility.yul\":3330:3346   */\n  shr\n    /* \"#utility.yul\":3309:3346   */\n  swap1\n  pop\n    /* \"#utility.yul\":3236:3353   */\n  swap3\n  swap2\n  pop\n  pop\n  jump\t// out\n    /* \"#utility.yul\":3359:3528   */\ntag_33:\n    /* \"#utility.yul\":3403:3409   */\n  0x00\n    /* \"#utility.yul\":3436:3487   */\n  tag_78\n    /* \"#utility.yul\":3484:3485   */\n  0x00\n    /* \"#utility.yul\":3480:3486   */\n  not\n    /* \"#utility.yul\":3472:3477   */\n  dup5\n    /* \"#utility.yul\":3469:3470   */\n  0x08\n    /* \"#utility.yul\":3465:3478   */\n  mul\n    /* \"#utility.yul\":3436:3487   */\n  tag_32\n  jump\t// in\ntag_78:\n    /* \"#utility.yul\":3432:3488   */\n  not\n    /* \"#utility.yul\":3517:3521   */\n  dup1\n    /* \"#utility.yul\":3511:3515   */\n  dup4\n    /* \"#utility.yul\":3507:3522   */\n  and\n    /* \"#utility.yul\":3497:3522   */\n  swap2\n  pop\n    /* \"#utility.yul\":3410:3528   */\n  pop\n    /* \"#utility.yul\":3359:3528   */\n  swap3\n  swap2\n  pop\n  pop\n  jump\t// out\n    /* \"#utility.yul\":3533:3828   */\ntag_34:\n    /* \"#utility.yul\":3609:3613   */\n  0x00\n    /* \"#utility.yul\":3755:3784   */\n  tag_80\n    /* \"#utility.yul\":3780:3783   */\n  dup4\n    /* \"#utility.yul\":3774:3778   */\n  dup4\n    /* \"#utility.yul\":3755:3784   */\n  tag_33\n  jump\t// in\ntag_80:\n    /* \"#utility.yul\":3747:3784   */\n  swap2\n  pop\n    /* \"#utility.yul\":3817:3820   */\n  dup3\n    /* \"#utility.yul\":3814:3815   */\n  0x02\n    /* \"#utility.yul\":3810:3821   */\n  mul\n    /* \"#utility.yul\":3804:3808   */\n  dup3\n    /* \"#utility.yul\":3801:3822   */\n  or\n    /* \"#utility.yul\":3793:3822   */\n  swap1\n  pop\n    /* \"#utility.yul\":3533:3828   */\n  swap3\n  swap2\n  pop\n  pop\n  jump\t// out\n    /* \"#utility.yul\":3833:5228   */\ntag_2:\n    /* \"#utility.yul\":3950:3987   */\n  tag_82\n    /* \"#utility.yul\":3983:3986   */\n  dup3\n    /* \"#utility.yul\":3950:3987   */\n  tag_15\n  jump\t// in\ntag_82:\n    /* \"#utility.yul\":4052:4070   */\n  0xffffffffffffffff\n    /* \"#utility.yul\":4044:4050   */\n  dup2\n    /* \"#utility.yul\":4041:4071   */\n  gt\n    /* \"#utility.yul\":4038:4094   */\n  iszero\n  tag_83\n  jumpi\n    /* \"#utility.yul\":4074:4092   */\n  tag_84\n  tag_16\n  jump\t// in\ntag_84:\n    /* \"#utility.yul\":4038:4094   */\ntag_83:\n    /* \"#utility.yul\":4118:4156   */\n  tag_85\n    /* \"#utility.yul\":4150:4154   */\n  dup3\n    /* \"#utility.yul\":4144:4155   */\n  sload\n    /* \"#utility.yul\":4118:4156   */\n  tag_18\n  jump\t// in\ntag_85:\n    /* \"#utility.yul\":4203:4270   */\n  tag_86\n    /* \"#utility.yul\":4263:4269   */\n  dup3\n    /* \"#utility.yul\":4255:4261   */\n  dup3\n    /* \"#utility.yul\":4249:4253   */\n  dup6\n    /* \"#utility.yul\":4203:4270   */\n  tag_31\n  jump\t// in\ntag_86:\n    /* \"#utility.yul\":4297:4298   */\n  0x00\n    /* \"#utility.yul\":4321:4325   */\n  0x20\n    /* \"#utility.yul\":4308:4325   */\n  swap1\n  pop\n    /* \"#utility.yul\":4353:4355   */\n  0x1f\n    /* \"#utility.yul\":4345:4351   */\n  dup4\n    /* \"#utility.yul\":4342:4356   */\n  gt\n    /* \"#utility.yul\":4370:4371   */\n  0x01\n    /* \"#utility.yul\":4365:4983   */\n  dup2\n  eq\n  tag_88\n  jumpi\n    /* \"#utility.yul\":5027:5028   */\n  0x00\n    /* \"#utility.yul\":5044:5050   */\n  dup5\n    /* \"#utility.yul\":5041:5118   */\n  iszero\n  tag_89\n  jumpi\n    /* \"#utility.yul\":5093:5102   */\n  dup3\n    /* \"#utility.yul\":5088:5091   */\n  dup8\n    /* \"#utility.yul\":5084:5103   */\n  add\n    /* \"#utility.yul\":5078:5104   */\n  mload\n    /* \"#utility.yul\":5069:5104   */\n  swap1\n  pop\n    /* \"#utility.yul\":5041:5118   */\ntag_89:\n    /* \"#utility.yul\":5144:5211   */\n  tag_90\n    /* \"#utility.yul\":5204:5210   */\n  dup6\n    /* \"#utility.yul\":5197:5202   */\n  dup3\n    /* \"#utility.yul\":5144:5211   */\n  tag_34\n  jump\t// in\ntag_90:\n    /* \"#utility.yul\":5138:5142   */\n  dup7\n    /* \"#utility.yul\":5131:5212   */\n  sstore\n    /* \"#utility.yul\":5000:5222   */\n  pop\n    /* \"#utility.yul\":4335:5222   */\n  jump(tag_87)\n    /* \"#utility.yul\":4365:4983   */\ntag_88:\n    /* \"#utility.yul\":4417:4421   */\n  0x1f\n    /* \"#utility.yul\":4413:4422   */\n  not\n    /* \"#utility.yul\":4405:4411   */\n  dup5\n    /* \"#utility.yul\":4401:4423   */\n  and\n    /* \"#utility.yul\":4451:4488   */\n  tag_91\n    /* \"#utility.yul\":4483:4487   */\n  dup7\n    /* \"#utility.yul\":4451:4488   */\n  tag_19\n  jump\t// in\ntag_91:\n    /* \"#utility.yul\":4510:4511   */\n  0x00\n    /* \"#utility.yul\":4524:4732   */\ntag_92:\n    /* \"#utility.yul\":4538:4545   */\n  dup3\n    /* \"#utility.yul\":4535:4536   */\n  dup2\n    /* \"#utility.yul\":4532:4546   */\n  lt\n    /* \"#utility.yul\":4524:4732   */\n  iszero\n  tag_94\n  jumpi\n    /* \"#utility.yul\":4617:4626   */\n  dup5\n    /* \"#utility.yul\":4612:4615   */\n  dup10\n    /* \"#utility.yul\":4608:4627   */\n  add\n    /* \"#utility.yul\":4602:4628   */\n  mload\n    /* \"#utility.yul\":4594:4600   */\n  dup3\n    /* \"#utility.yul\":4587:4629   */\n  sstore\n    /* \"#utility.yul\":4668:4669   */\n  0x01\n    /* \"#utility.yul\":4660:4666   */\n  dup3\n    /* \"#utility.yul\":4656:4670   */\n  add\n    /* \"#utility.yul\":4646:4670   */\n  swap2\n  pop\n    /* \"#utility.yul\":4715:4717   */\n  0x20\n    /* \"#utility.yul\":4704:4713   */\n  dup6\n    /* \"#utility.yul\":4700:4718   */\n  add\n    /* \"#utility.yul\":4687:4718   */\n  swap5\n  pop\n    /* \"#utility.yul\":4561:4565   */\n  0x20\n    /* \"#utility.yul\":4558:4559   */\n  dup2\n    /* \"#utility.yul\":4554:4566   */\n  add\n    /* \"#utility.yul\":4549:4566   */\n  swap1\n  pop\n    /* \"#utility.yul\":4524:4732   */\n  jump(tag_92)\ntag_94:\n    /* \"#utility.yul\":4760:4766   */\n  dup7\n    /* \"#utility.yul\":4751:4758   */\n  dup4\n    /* \"#utility.yul\":4748:4767   */\n  lt\n    /* \"#utility.yul\":4745:4924   */\n  iszero\n  tag_95\n  jumpi\n    /* \"#utility.yul\":4818:4827   */\n  dup5\n    /* \"#utility.yul\":4813:4816   */\n  dup10\n    /* \"#utility.yul\":4809:4828   */\n  add\n    /* \"#utility.yul\":4803:4829   */\n  mload\n    /* \"#utility.yul\":4861:4909   */\n  tag_96\n    /* \"#utility.yul\":4903:4907   */\n  0x1f\n    /* \"#utility.yul\":4895:4901   */\n  dup10\n    /* \"#utility.yul\":4891:4908   */\n  and\n    /* \"#utility.yul\":4880:4889   */\n  dup3\n    /* \"#utility.yul\":4861:4909   */\n  tag_33\n  jump\t// in\ntag_96:\n    /* \"#utility.yul\":4853:4859   */\n  dup4\n    /* \"#utility.yul\":4846:4910   */\n  sstore\n    /* \"#utility.yul\":4768:4924   */\n  pop\n    /* \"#utility.yul\":4745:4924   */\ntag_95:\n    /* \"#utility.yul\":4970:4971   */\n  0x01\n    /* \"#utility.yul\":4966:4967   */\n  0x02\n    /* \"#utility.yul\":4958:4964   */\n  dup9\n    /* \"#utility.yul\":4954:4968   */\n  mul\n    /* \"#utility.yul\":4950:4972   */\n  add\n    /* \"#utility.yul\":4944:4948   */\n  dup9\n    /* \"#utility.yul\":4937:4973   */\n  sstore\n    /* \"#utility.yul\":4372:4983   */\n  pop\n  pop\n  pop\n    /* \"#utility.yul\":4335:5222   */\ntag_87:\n  pop\n    /* \"#utility.yul\":3925:5228   */\n  pop\n  pop\n  pop\n    /* \"#utility.yul\":3833:5228   */\n  pop\n  pop\n  jump\t// out\n    /* \"contracts/03_estructuras_datos.sol\":74:1643  contract data_structures {... */\ntag_7:\n  dataSize(sub_0)\n  dup1\n  dataOffset(sub_0)\n  0x00\n  codecopy\n  0x00\n  return\nstop\n\nsub_0: assembly {\n        /* \"contracts/03_estructuras_datos.sol\":74:1643  contract data_structures {... */\n      mstore(0x40, 0x80)\n      callvalue\n      dup1\n      iszero\n      tag_1\n      jumpi\n      0x00\n      dup1\n      revert\n    tag_1:\n      pop\n      jumpi(tag_2, lt(calldatasize, 0x04))\n      shr(0xe0, calldataload(0x00))\n      dup1\n      0x9a83e3ec\n      gt\n      tag_13\n      jumpi\n      dup1\n      0x9a83e3ec\n      eq\n      tag_8\n      jumpi\n      dup1\n      0xc8d915e6\n      eq\n      tag_9\n      jumpi\n      dup1\n      0xe52b008f\n      eq\n      tag_10\n      jumpi\n      dup1\n      0xe990585e\n      eq\n      tag_11\n      jumpi\n      dup1\n      0xeaaefa96\n      eq\n      tag_12\n      jumpi\n      jump(tag_2)\n    tag_13:\n      dup1\n      0x20716f88\n      eq\n      tag_3\n      jumpi\n      dup1\n      0x4cb59eb2\n      eq\n      tag_4\n      jumpi\n      dup1\n      0x54bb4274\n      eq\n      tag_5\n      jumpi\n      dup1\n      0x7a088a2e\n      eq\n      tag_6\n      jumpi\n      dup1\n      0x89553d46\n      eq\n      tag_7\n      jumpi\n    tag_2:\n      0x00\n      dup1\n      revert\n        /* \"contracts/03_estructuras_datos.sol\":947:1001  mapping (string => uint256 []) public string_listUnits */\n    tag_3:\n      tag_14\n      0x04\n      dup1\n      calldatasize\n      sub\n      dup2\n      add\n      swap1\n      tag_15\n      swap2\n      swap1\n      tag_16\n      jump\t// in\n    tag_15:\n      tag_17\n      jump\t// in\n    tag_14:\n      mload(0x40)\n      tag_18\n      swap2\n      swap1\n      tag_19\n      jump\t// in\n    tag_18:\n      mload(0x40)\n      dup1\n      swap2\n      sub\n      swap1\n      return\n        /* \"contracts/03_estructuras_datos.sol\":564:601  Customer [] public clientes_dinamicos */\n    tag_4:\n      tag_20\n      0x04\n      dup1\n      calldatasize\n      sub\n      dup2\n      add\n      swap1\n      tag_21\n      swap2\n      swap1\n      tag_22\n      jump\t// in\n    tag_21:\n      tag_23\n      jump\t// in\n    tag_20:\n      mload(0x40)\n      tag_24\n      swap4\n      swap3\n      swap2\n      swap1\n      tag_25\n      jump\t// in\n    tag_24:\n      mload(0x40)\n      dup1\n      swap2\n      sub\n      swap1\n      return\n        /* \"contracts/03_estructuras_datos.sol\":481:516  uint256 [] public enteros_dinamicos */\n    tag_5:\n      tag_26\n      0x04\n      dup1\n      calldatasize\n      sub\n      dup2\n      add\n      swap1\n      tag_27\n      swap2\n      swap1\n      tag_22\n      jump\t// in\n    tag_27:\n      tag_28\n      jump\t// in\n    tag_26:\n      mload(0x40)\n      tag_29\n      swap2\n      swap1\n      tag_19\n      jump\t// in\n    tag_29:\n      mload(0x40)\n      dup1\n      swap2\n      sub\n      swap1\n      return\n        /* \"contracts/03_estructuras_datos.sol\":892:940  mapping (address => uint256) public address_uint */\n    tag_6:\n      tag_30\n      0x04\n      dup1\n      calldatasize\n      sub\n      dup2\n      add\n      swap1\n      tag_31\n      swap2\n      swap1\n      tag_32\n      jump\t// in\n    tag_31:\n      tag_33\n      jump\t// in\n    tag_30:\n      mload(0x40)\n      tag_34\n      swap2\n      swap1\n      tag_19\n      jump\t// in\n    tag_34:\n      mload(0x40)\n      dup1\n      swap2\n      sub\n      swap1\n      return\n        /* \"contracts/03_estructuras_datos.sol\":1272:1394  function assignList (string memory _name, uint256 _number) public {... */\n    tag_7:\n      tag_35\n      0x04\n      dup1\n      calldatasize\n      sub\n      dup2\n      add\n      swap1\n      tag_36\n      swap2\n      swap1\n      tag_16\n      jump\t// in\n    tag_36:\n      tag_37\n      jump\t// in\n    tag_35:\n      stop\n        /* \"contracts/03_estructuras_datos.sol\":643:867  function array_modification (uint256 _id, string memory _name, string memory _email) public {... */\n    tag_8:\n      tag_38\n      0x04\n      dup1\n      calldatasize\n      sub\n      dup2\n      add\n      swap1\n      tag_39\n      swap2\n      swap1\n      tag_40\n      jump\t// in\n    tag_39:\n      tag_41\n      jump\t// in\n    tag_38:\n      stop\n        /* \"contracts/03_estructuras_datos.sol\":397:438  uint256 [5] public enteros = [2,3,5,7,11] */\n    tag_9:\n      tag_42\n      0x04\n      dup1\n      calldatasize\n      sub\n      dup2\n      add\n      swap1\n      tag_43\n      swap2\n      swap1\n      tag_22\n      jump\t// in\n    tag_43:\n      tag_44\n      jump\t// in\n    tag_42:\n      mload(0x40)\n      tag_45\n      swap2\n      swap1\n      tag_19\n      jump\t// in\n    tag_45:\n      mload(0x40)\n      dup1\n      swap2\n      sub\n      swap1\n      return\n        /* \"contracts/03_estructuras_datos.sol\":1117:1217  function assignNumber (uint256 _number) public {... */\n    tag_10:\n      tag_46\n      0x04\n      dup1\n      calldatasize\n      sub\n      dup2\n      add\n      swap1\n      tag_47\n      swap2\n      swap1\n      tag_22\n      jump\t// in\n    tag_47:\n      tag_48\n      jump\t// in\n    tag_46:\n      stop\n        /* \"contracts/03_estructuras_datos.sol\":1464:1640  function assignDataStructure (uint256 _id, string memory _name, string memory _email) public {... */\n    tag_11:\n      tag_49\n      0x04\n      dup1\n      calldatasize\n      sub\n      dup2\n      add\n      swap1\n      tag_50\n      swap2\n      swap1\n      tag_40\n      jump\t// in\n    tag_50:\n      tag_51\n      jump\t// in\n    tag_49:\n      stop\n        /* \"contracts/03_estructuras_datos.sol\":1008:1066  mapping (address => Customer) public address_dataStructure */\n    tag_12:\n      tag_52\n      0x04\n      dup1\n      calldatasize\n      sub\n      dup2\n      add\n      swap1\n      tag_53\n      swap2\n      swap1\n      tag_32\n      jump\t// in\n    tag_53:\n      tag_54\n      jump\t// in\n    tag_52:\n      mload(0x40)\n      tag_55\n      swap4\n      swap3\n      swap2\n      swap1\n      tag_25\n      jump\t// in\n    tag_55:\n      mload(0x40)\n      dup1\n      swap2\n      sub\n      swap1\n      return\n        /* \"contracts/03_estructuras_datos.sol\":947:1001  mapping (string => uint256 []) public string_listUnits */\n    tag_17:\n      0x0b\n      dup3\n      dup1\n      mload\n      0x20\n      dup2\n      add\n      dup3\n      add\n      dup1\n      mload\n      dup5\n      dup3\n      mstore\n      0x20\n      dup4\n      add\n      0x20\n      dup6\n      add\n      keccak256\n      dup2\n      dup4\n      mstore\n      dup1\n      swap6\n      pop\n      pop\n      pop\n      pop\n      pop\n      pop\n      dup2\n      dup2\n      sload\n      dup2\n      lt\n      tag_56\n      jumpi\n      0x00\n      dup1\n      revert\n    tag_56:\n      swap1\n      0x00\n      mstore\n      keccak256(0x00, 0x20)\n      add\n      0x00\n      swap2\n      pop\n      swap2\n      pop\n      pop\n      sload\n      dup2\n      jump\t// out\n        /* \"contracts/03_estructuras_datos.sol\":564:601  Customer [] public clientes_dinamicos */\n    tag_23:\n      0x09\n      dup2\n      dup2\n      sload\n      dup2\n      lt\n      tag_58\n      jumpi\n      0x00\n      dup1\n      revert\n    tag_58:\n      swap1\n      0x00\n      mstore\n      keccak256(0x00, 0x20)\n      swap1\n      0x03\n      mul\n      add\n      0x00\n      swap2\n      pop\n      swap1\n      pop\n      dup1\n      0x00\n      add\n      sload\n      swap1\n      dup1\n      0x01\n      add\n      dup1\n      sload\n      tag_60\n      swap1\n      tag_61\n      jump\t// in\n    tag_60:\n      dup1\n      0x1f\n      add\n      0x20\n      dup1\n      swap2\n      div\n      mul\n      0x20\n      add\n      mload(0x40)\n      swap1\n      dup2\n      add\n      0x40\n      mstore\n      dup1\n      swap3\n      swap2\n      swap1\n      dup2\n      dup2\n      mstore\n      0x20\n      add\n      dup3\n      dup1\n      sload\n      tag_62\n      swap1\n      tag_61\n      jump\t// in\n    tag_62:\n      dup1\n      iszero\n      tag_63\n      jumpi\n      dup1\n      0x1f\n      lt\n      tag_64\n      jumpi\n      0x0100\n      dup1\n      dup4\n      sload\n      div\n      mul\n      dup4\n      mstore\n      swap2\n      0x20\n      add\n      swap2\n      jump(tag_63)\n    tag_64:\n      dup3\n      add\n      swap2\n      swap1\n      0x00\n      mstore\n      keccak256(0x00, 0x20)\n      swap1\n    tag_65:\n      dup2\n      sload\n      dup2\n      mstore\n      swap1\n      0x01\n      add\n      swap1\n      0x20\n      add\n      dup1\n      dup4\n      gt\n      tag_65\n      jumpi\n      dup3\n      swap1\n      sub\n      0x1f\n      and\n      dup3\n      add\n      swap2\n    tag_63:\n      pop\n      pop\n      pop\n      pop\n      pop\n      swap1\n      dup1\n      0x02\n      add\n      dup1\n      sload\n      tag_66\n      swap1\n      tag_61\n      jump\t// in\n    tag_66:\n      dup1\n      0x1f\n      add\n      0x20\n      dup1\n      swap2\n      div\n      mul\n      0x20\n      add\n      mload(0x40)\n      swap1\n      dup2\n      add\n      0x40\n      mstore\n      dup1\n      swap3\n      swap2\n      swap1\n      dup2\n      dup2\n      mstore\n      0x20\n      add\n      dup3\n      dup1\n      sload\n      tag_67\n      swap1\n      tag_61\n      jump\t// in\n    tag_67:\n      dup1\n      iszero\n      tag_68\n      jumpi\n      dup1\n      0x1f\n      lt\n      tag_69\n      jumpi\n      0x0100\n      dup1\n      dup4\n      sload\n      div\n      mul\n      dup4\n      mstore\n      swap2\n      0x20\n      add\n      swap2\n      jump(tag_68)\n    tag_69:\n      dup3\n      add\n      swap2\n      swap1\n      0x00\n      mstore\n      keccak256(0x00, 0x20)\n      swap1\n    tag_70:\n      dup2\n      sload\n      dup2\n      mstore\n      swap1\n      0x01\n      add\n      swap1\n      0x20\n      add\n      dup1\n      dup4\n      gt\n      tag_70\n      jumpi\n      dup3\n      swap1\n      sub\n      0x1f\n      and\n      dup3\n      add\n      swap2\n    tag_68:\n      pop\n      pop\n      pop\n      pop\n      pop\n      swap1\n      pop\n      dup4\n      jump\t// out\n        /* \"contracts/03_estructuras_datos.sol\":481:516  uint256 [] public enteros_dinamicos */\n    tag_28:\n      0x08\n      dup2\n      dup2\n      sload\n      dup2\n      lt\n      tag_71\n      jumpi\n      0x00\n      dup1\n      revert\n    tag_71:\n      swap1\n      0x00\n      mstore\n      keccak256(0x00, 0x20)\n      add\n      0x00\n      swap2\n      pop\n      swap1\n      pop\n      sload\n      dup2\n      jump\t// out\n        /* \"contracts/03_estructuras_datos.sol\":892:940  mapping (address => uint256) public address_uint */\n    tag_33:\n      mstore(0x20, 0x0a)\n      dup1\n      0x00\n      mstore\n      keccak256(0x00, 0x40)\n      0x00\n      swap2\n      pop\n      swap1\n      pop\n      sload\n      dup2\n      jump\t// out\n        /* \"contracts/03_estructuras_datos.sol\":1272:1394  function assignList (string memory _name, uint256 _number) public {... */\n    tag_37:\n        /* \"contracts/03_estructuras_datos.sol\":1349:1365  string_listUnits */\n      0x0b\n        /* \"contracts/03_estructuras_datos.sol\":1366:1371  _name */\n      dup3\n        /* \"contracts/03_estructuras_datos.sol\":1349:1372  string_listUnits[_name] */\n      mload(0x40)\n      tag_74\n      swap2\n      swap1\n      tag_75\n      jump\t// in\n    tag_74:\n      swap1\n      dup2\n      mstore\n      0x20\n      add\n      mload(0x40)\n      dup1\n      swap2\n      sub\n      swap1\n      keccak256\n        /* \"contracts/03_estructuras_datos.sol\":1378:1385  _number */\n      dup2\n        /* \"contracts/03_estructuras_datos.sol\":1349:1386  string_listUnits[_name].push(_number) */\n      swap1\n      dup1\n      0x01\n      dup2\n      sload\n      add\n      dup1\n      dup3\n      sstore\n      dup1\n      swap2\n      pop\n      pop\n      0x01\n      swap1\n      sub\n      swap1\n      0x00\n      mstore\n      keccak256(0x00, 0x20)\n      add\n      0x00\n      swap1\n      swap2\n      swap1\n      swap2\n      swap1\n      swap2\n      pop\n      sstore\n        /* \"contracts/03_estructuras_datos.sol\":1272:1394  function assignList (string memory _name, uint256 _number) public {... */\n      pop\n      pop\n      jump\t// out\n        /* \"contracts/03_estructuras_datos.sol\":643:867  function array_modification (uint256 _id, string memory _name, string memory _email) public {... */\n    tag_41:\n        /* \"contracts/03_estructuras_datos.sol\":746:777  Customer memory random_customer */\n      0x00\n        /* \"contracts/03_estructuras_datos.sol\":780:808  Customer(_id, _name, _email) */\n      mload(0x40)\n      dup1\n      0x60\n      add\n      0x40\n      mstore\n      dup1\n        /* \"contracts/03_estructuras_datos.sol\":789:792  _id */\n      dup6\n        /* \"contracts/03_estructuras_datos.sol\":780:808  Customer(_id, _name, _email) */\n      dup2\n      mstore\n      0x20\n      add\n        /* \"contracts/03_estructuras_datos.sol\":794:799  _name */\n      dup5\n        /* \"contracts/03_estructuras_datos.sol\":780:808  Customer(_id, _name, _email) */\n      dup2\n      mstore\n      0x20\n      add\n        /* \"contracts/03_estructuras_datos.sol\":801:807  _email */\n      dup4\n        /* \"contracts/03_estructuras_datos.sol\":780:808  Customer(_id, _name, _email) */\n      dup2\n      mstore\n      pop\n        /* \"contracts/03_estructuras_datos.sol\":746:808  Customer memory random_customer = Customer(_id, _name, _email) */\n      swap1\n      pop\n        /* \"contracts/03_estructuras_datos.sol\":819:837  clientes_dinamicos */\n      0x09\n        /* \"contracts/03_estructuras_datos.sol\":843:858  random_customer */\n      dup2\n        /* \"contracts/03_estructuras_datos.sol\":819:859  clientes_dinamicos.push(random_customer) */\n      swap1\n      dup1\n      0x01\n      dup2\n      sload\n      add\n      dup1\n      dup3\n      sstore\n      dup1\n      swap2\n      pop\n      pop\n      0x01\n      swap1\n      sub\n      swap1\n      0x00\n      mstore\n      keccak256(0x00, 0x20)\n      swap1\n      0x03\n      mul\n      add\n      0x00\n      swap1\n      swap2\n      swap1\n      swap2\n      swap1\n      swap2\n      pop\n      0x00\n      dup3\n      add\n      mload\n      dup2\n      0x00\n      add\n      sstore\n      0x20\n      dup3\n      add\n      mload\n      dup2\n      0x01\n      add\n      swap1\n      dup2\n      tag_79\n      swap2\n      swap1\n      tag_80\n      jump\t// in\n    tag_79:\n      pop\n      0x40\n      dup3\n      add\n      mload\n      dup2\n      0x02\n      add\n      swap1\n      dup2\n      tag_81\n      swap2\n      swap1\n      tag_80\n      jump\t// in\n    tag_81:\n      pop\n      pop\n      pop\n        /* \"contracts/03_estructuras_datos.sol\":735:867  {... */\n      pop\n        /* \"contracts/03_estructuras_datos.sol\":643:867  function array_modification (uint256 _id, string memory _name, string memory _email) public {... */\n      pop\n      pop\n      pop\n      jump\t// out\n        /* \"contracts/03_estructuras_datos.sol\":397:438  uint256 [5] public enteros = [2,3,5,7,11] */\n    tag_44:\n      0x03\n      dup2\n      0x05\n      dup2\n      lt\n      tag_82\n      jumpi\n      0x00\n      dup1\n      revert\n    tag_82:\n      add\n      0x00\n      swap2\n      pop\n      swap1\n      pop\n      sload\n      dup2\n      jump\t// out\n        /* \"contracts/03_estructuras_datos.sol\":1117:1217  function assignNumber (uint256 _number) public {... */\n    tag_48:\n        /* \"contracts/03_estructuras_datos.sol\":1202:1209  _number */\n      dup1\n        /* \"contracts/03_estructuras_datos.sol\":1175:1187  address_uint */\n      0x0a\n        /* \"contracts/03_estructuras_datos.sol\":1175:1199  address_uint[msg.sender] */\n      0x00\n        /* \"contracts/03_estructuras_datos.sol\":1188:1198  msg.sender */\n      caller\n        /* \"contracts/03_estructuras_datos.sol\":1175:1199  address_uint[msg.sender] */\n      0xffffffffffffffffffffffffffffffffffffffff\n      and\n      0xffffffffffffffffffffffffffffffffffffffff\n      and\n      dup2\n      mstore\n      0x20\n      add\n      swap1\n      dup2\n      mstore\n      0x20\n      add\n      0x00\n      keccak256\n        /* \"contracts/03_estructuras_datos.sol\":1175:1209  address_uint[msg.sender] = _number */\n      dup2\n      swap1\n      sstore\n      pop\n        /* \"contracts/03_estructuras_datos.sol\":1117:1217  function assignNumber (uint256 _number) public {... */\n      pop\n      jump\t// out\n        /* \"contracts/03_estructuras_datos.sol\":1464:1640  function assignDataStructure (uint256 _id, string memory _name, string memory _email) public {... */\n    tag_51:\n        /* \"contracts/03_estructuras_datos.sol\":1604:1632  Customer(_id, _name, _email) */\n      mload(0x40)\n      dup1\n      0x60\n      add\n      0x40\n      mstore\n      dup1\n        /* \"contracts/03_estructuras_datos.sol\":1613:1616  _id */\n      dup5\n        /* \"contracts/03_estructuras_datos.sol\":1604:1632  Customer(_id, _name, _email) */\n      dup2\n      mstore\n      0x20\n      add\n        /* \"contracts/03_estructuras_datos.sol\":1618:1623  _name */\n      dup4\n        /* \"contracts/03_estructuras_datos.sol\":1604:1632  Customer(_id, _name, _email) */\n      dup2\n      mstore\n      0x20\n      add\n        /* \"contracts/03_estructuras_datos.sol\":1625:1631  _email */\n      dup3\n        /* \"contracts/03_estructuras_datos.sol\":1604:1632  Customer(_id, _name, _email) */\n      dup2\n      mstore\n      pop\n        /* \"contracts/03_estructuras_datos.sol\":1568:1589  address_dataStructure */\n      0x0c\n        /* \"contracts/03_estructuras_datos.sol\":1568:1601  address_dataStructure[msg.sender] */\n      0x00\n        /* \"contracts/03_estructuras_datos.sol\":1590:1600  msg.sender */\n      caller\n        /* \"contracts/03_estructuras_datos.sol\":1568:1601  address_dataStructure[msg.sender] */\n      0xffffffffffffffffffffffffffffffffffffffff\n      and\n      0xffffffffffffffffffffffffffffffffffffffff\n      and\n      dup2\n      mstore\n      0x20\n      add\n      swap1\n      dup2\n      mstore\n      0x20\n      add\n      0x00\n      keccak256\n        /* \"contracts/03_estructuras_datos.sol\":1568:1632  address_dataStructure[msg.sender] = Customer(_id, _name, _email) */\n      0x00\n      dup3\n      add\n      mload\n      dup2\n      0x00\n      add\n      sstore\n      0x20\n      dup3\n      add\n      mload\n      dup2\n      0x01\n      add\n      swap1\n      dup2\n      tag_86\n      swap2\n      swap1\n      tag_80\n      jump\t// in\n    tag_86:\n      pop\n      0x40\n      dup3\n      add\n      mload\n      dup2\n      0x02\n      add\n      swap1\n      dup2\n      tag_87\n      swap2\n      swap1\n      tag_80\n      jump\t// in\n    tag_87:\n      pop\n      swap1\n      pop\n      pop\n        /* \"contracts/03_estructuras_datos.sol\":1464:1640  function assignDataStructure (uint256 _id, string memory _name, string memory _email) public {... */\n      pop\n      pop\n      pop\n      jump\t// out\n        /* \"contracts/03_estructuras_datos.sol\":1008:1066  mapping (address => Customer) public address_dataStructure */\n    tag_54:\n      mstore(0x20, 0x0c)\n      dup1\n      0x00\n      mstore\n      keccak256(0x00, 0x40)\n      0x00\n      swap2\n      pop\n      swap1\n      pop\n      dup1\n      0x00\n      add\n      sload\n      swap1\n      dup1\n      0x01\n      add\n      dup1\n      sload\n      tag_88\n      swap1\n      tag_61\n      jump\t// in\n    tag_88:\n      dup1\n      0x1f\n      add\n      0x20\n      dup1\n      swap2\n      div\n      mul\n      0x20\n      add\n      mload(0x40)\n      swap1\n      dup2\n      add\n      0x40\n      mstore\n      dup1\n      swap3\n      swap2\n      swap1\n      dup2\n      dup2\n      mstore\n      0x20\n      add\n      dup3\n      dup1\n      sload\n      tag_89\n      swap1\n      tag_61\n      jump\t// in\n    tag_89:\n      dup1\n      iszero\n      tag_90\n      jumpi\n      dup1\n      0x1f\n      lt\n      tag_91\n      jumpi\n      0x0100\n      dup1\n      dup4\n      sload\n      div\n      mul\n      dup4\n      mstore\n      swap2\n      0x20\n      add\n      swap2\n      jump(tag_90)\n    tag_91:\n      dup3\n      add\n      swap2\n      swap1\n      0x00\n      mstore\n      keccak256(0x00, 0x20)\n      swap1\n    tag_92:\n      dup2\n      sload\n      dup2\n      mstore\n      swap1\n      0x01\n      add\n      swap1\n      0x20\n      add\n      dup1\n      dup4\n      gt\n      tag_92\n      jumpi\n      dup3\n      swap1\n      sub\n      0x1f\n      and\n      dup3\n      add\n      swap2\n    tag_90:\n      pop\n      pop\n      pop\n      pop\n      pop\n      swap1\n      dup1\n      0x02\n      add\n      dup1\n      sload\n      tag_93\n      swap1\n      tag_61\n      jump\t// in\n    tag_93:\n      dup1\n      0x1f\n      add\n      0x20\n      dup1\n      swap2\n      div\n      mul\n      0x20\n      add\n      mload(0x40)\n      swap1\n      dup2\n      add\n      0x40\n      mstore\n      dup1\n      swap3\n      swap2\n      swap1\n      dup2\n      dup2\n      mstore\n      0x20\n      add\n      dup3\n      dup1\n      sload\n      tag_94\n      swap1\n      tag_61\n      jump\t// in\n    tag_94:\n      dup1\n      iszero\n      tag_95\n      jumpi\n      dup1\n      0x1f\n      lt\n      tag_96\n      jumpi\n      0x0100\n      dup1\n      dup4\n      sload\n      div\n      mul\n      dup4\n      mstore\n      swap2\n      0x20\n      add\n      swap2\n      jump(tag_95)\n    tag_96:\n      dup3\n      add\n      swap2\n      swap1\n      0x00\n      mstore\n      keccak256(0x00, 0x20)\n      swap1\n    tag_97:\n      dup2\n      sload\n      dup2\n      mstore\n      swap1\n      0x01\n      add\n      swap1\n      0x20\n      add\n      dup1\n      dup4\n      gt\n      tag_97\n      jumpi\n      dup3\n      swap1\n      sub\n      0x1f\n      and\n      dup3\n      add\n      swap2\n    tag_95:\n      pop\n      pop\n      pop\n      pop\n      pop\n      swap1\n      pop\n      dup4\n      jump\t// out\n        /* \"#utility.yul\":7:82   */\n    tag_98:\n        /* \"#utility.yul\":40:46   */\n      0x00\n        /* \"#utility.yul\":73:75   */\n      0x40\n        /* \"#utility.yul\":67:76   */\n      mload\n        /* \"#utility.yul\":57:76   */\n      swap1\n      pop\n        /* \"#utility.yul\":7:82   */\n      swap1\n      jump\t// out\n        /* \"#utility.yul\":88:205   */\n    tag_99:\n        /* \"#utility.yul\":197:198   */\n      0x00\n        /* \"#utility.yul\":194:195   */\n      dup1\n        /* \"#utility.yul\":187:199   */\n      revert\n        /* \"#utility.yul\":211:328   */\n    tag_100:\n        /* \"#utility.yul\":320:321   */\n      0x00\n        /* \"#utility.yul\":317:318   */\n      dup1\n        /* \"#utility.yul\":310:322   */\n      revert\n        /* \"#utility.yul\":334:451   */\n    tag_101:\n        /* \"#utility.yul\":443:444   */\n      0x00\n        /* \"#utility.yul\":440:441   */\n      dup1\n        /* \"#utility.yul\":433:445   */\n      revert\n        /* \"#utility.yul\":457:574   */\n    tag_102:\n        /* \"#utility.yul\":566:567   */\n      0x00\n        /* \"#utility.yul\":563:564   */\n      dup1\n        /* \"#utility.yul\":556:568   */\n      revert\n        /* \"#utility.yul\":580:682   */\n    tag_103:\n        /* \"#utility.yul\":621:627   */\n      0x00\n        /* \"#utility.yul\":672:674   */\n      0x1f\n        /* \"#utility.yul\":668:675   */\n      not\n        /* \"#utility.yul\":663:665   */\n      0x1f\n        /* \"#utility.yul\":656:661   */\n      dup4\n        /* \"#utility.yul\":652:666   */\n      add\n        /* \"#utility.yul\":648:676   */\n      and\n        /* \"#utility.yul\":638:676   */\n      swap1\n      pop\n        /* \"#utility.yul\":580:682   */\n      swap2\n      swap1\n      pop\n      jump\t// out\n        /* \"#utility.yul\":688:868   */\n    tag_104:\n        /* \"#utility.yul\":736:813   */\n      0x4e487b7100000000000000000000000000000000000000000000000000000000\n        /* \"#utility.yul\":733:734   */\n      0x00\n        /* \"#utility.yul\":726:814   */\n      mstore\n        /* \"#utility.yul\":833:837   */\n      0x41\n        /* \"#utility.yul\":830:831   */\n      0x04\n        /* \"#utility.yul\":823:838   */\n      mstore\n        /* \"#utility.yul\":857:861   */\n      0x24\n        /* \"#utility.yul\":854:855   */\n      0x00\n        /* \"#utility.yul\":847:862   */\n      revert\n        /* \"#utility.yul\":874:1155   */\n    tag_105:\n        /* \"#utility.yul\":957:984   */\n      tag_150\n        /* \"#utility.yul\":979:983   */\n      dup3\n        /* \"#utility.yul\":957:984   */\n      tag_103\n      jump\t// in\n    tag_150:\n        /* \"#utility.yul\":949:955   */\n      dup2\n        /* \"#utility.yul\":945:985   */\n      add\n        /* \"#utility.yul\":1087:1093   */\n      dup2\n        /* \"#utility.yul\":1075:1085   */\n      dup2\n        /* \"#utility.yul\":1072:1094   */\n      lt\n        /* \"#utility.yul\":1051:1069   */\n      0xffffffffffffffff\n        /* \"#utility.yul\":1039:1049   */\n      dup3\n        /* \"#utility.yul\":1036:1070   */\n      gt\n        /* \"#utility.yul\":1033:1095   */\n      or\n        /* \"#utility.yul\":1030:1118   */\n      iszero\n      tag_151\n      jumpi\n        /* \"#utility.yul\":1098:1116   */\n      tag_152\n      tag_104\n      jump\t// in\n    tag_152:\n        /* \"#utility.yul\":1030:1118   */\n    tag_151:\n        /* \"#utility.yul\":1138:1148   */\n      dup1\n        /* \"#utility.yul\":1134:1136   */\n      0x40\n        /* \"#utility.yul\":1127:1149   */\n      mstore\n        /* \"#utility.yul\":917:1155   */\n      pop\n        /* \"#utility.yul\":874:1155   */\n      pop\n      pop\n      jump\t// out\n        /* \"#utility.yul\":1161:1290   */\n    tag_106:\n        /* \"#utility.yul\":1195:1201   */\n      0x00\n        /* \"#utility.yul\":1222:1242   */\n      tag_154\n      tag_98\n      jump\t// in\n    tag_154:\n        /* \"#utility.yul\":1212:1242   */\n      swap1\n      pop\n        /* \"#utility.yul\":1251:1284   */\n      tag_155\n        /* \"#utility.yul\":1279:1283   */\n      dup3\n        /* \"#utility.yul\":1271:1277   */\n      dup3\n        /* \"#utility.yul\":1251:1284   */\n      tag_105\n      jump\t// in\n    tag_155:\n        /* \"#utility.yul\":1161:1290   */\n      swap2\n      swap1\n      pop\n      jump\t// out\n        /* \"#utility.yul\":1296:1604   */\n    tag_107:\n        /* \"#utility.yul\":1358:1362   */\n      0x00\n        /* \"#utility.yul\":1448:1466   */\n      0xffffffffffffffff\n        /* \"#utility.yul\":1440:1446   */\n      dup3\n        /* \"#utility.yul\":1437:1467   */\n      gt\n        /* \"#utility.yul\":1434:1490   */\n      iszero\n      tag_157\n      jumpi\n        /* \"#utility.yul\":1470:1488   */\n      tag_158\n      tag_104\n      jump\t// in\n    tag_158:\n        /* \"#utility.yul\":1434:1490   */\n    tag_157:\n        /* \"#utility.yul\":1508:1537   */\n      tag_159\n        /* \"#utility.yul\":1530:1536   */\n      dup3\n        /* \"#utility.yul\":1508:1537   */\n      tag_103\n      jump\t// in\n    tag_159:\n        /* \"#utility.yul\":1500:1537   */\n      swap1\n      pop\n        /* \"#utility.yul\":1592:1596   */\n      0x20\n        /* \"#utility.yul\":1586:1590   */\n      dup2\n        /* \"#utility.yul\":1582:1597   */\n      add\n        /* \"#utility.yul\":1574:1597   */\n      swap1\n      pop\n        /* \"#utility.yul\":1296:1604   */\n      swap2\n      swap1\n      pop\n      jump\t// out\n        /* \"#utility.yul\":1610:1758   */\n    tag_108:\n        /* \"#utility.yul\":1708:1714   */\n      dup3\n        /* \"#utility.yul\":1703:1706   */\n      dup2\n        /* \"#utility.yul\":1698:1701   */\n      dup4\n        /* \"#utility.yul\":1685:1715   */\n      calldatacopy\n        /* \"#utility.yul\":1749:1750   */\n      0x00\n        /* \"#utility.yul\":1740:1746   */\n      dup4\n        /* \"#utility.yul\":1735:1738   */\n      dup4\n        /* \"#utility.yul\":1731:1747   */\n      add\n        /* \"#utility.yul\":1724:1751   */\n      mstore\n        /* \"#utility.yul\":1610:1758   */\n      pop\n      pop\n      pop\n      jump\t// out\n        /* \"#utility.yul\":1764:2189   */\n    tag_109:\n        /* \"#utility.yul\":1842:1847   */\n      0x00\n        /* \"#utility.yul\":1867:1933   */\n      tag_162\n        /* \"#utility.yul\":1883:1932   */\n      tag_163\n        /* \"#utility.yul\":1925:1931   */\n      dup5\n        /* \"#utility.yul\":1883:1932   */\n      tag_107\n      jump\t// in\n    tag_163:\n        /* \"#utility.yul\":1867:1933   */\n      tag_106\n      jump\t// in\n    tag_162:\n        /* \"#utility.yul\":1858:1933   */\n      swap1\n      pop\n        /* \"#utility.yul\":1956:1962   */\n      dup3\n        /* \"#utility.yul\":1949:1954   */\n      dup2\n        /* \"#utility.yul\":1942:1963   */\n      mstore\n        /* \"#utility.yul\":1994:1998   */\n      0x20\n        /* \"#utility.yul\":1987:1992   */\n      dup2\n        /* \"#utility.yul\":1983:1999   */\n      add\n        /* \"#utility.yul\":2032:2035   */\n      dup5\n        /* \"#utility.yul\":2023:2029   */\n      dup5\n        /* \"#utility.yul\":2018:2021   */\n      dup5\n        /* \"#utility.yul\":2014:2030   */\n      add\n        /* \"#utility.yul\":2011:2036   */\n      gt\n        /* \"#utility.yul\":2008:2120   */\n      iszero\n      tag_164\n      jumpi\n        /* \"#utility.yul\":2039:2118   */\n      tag_165\n      tag_102\n      jump\t// in\n    tag_165:\n        /* \"#utility.yul\":2008:2120   */\n    tag_164:\n        /* \"#utility.yul\":2129:2183   */\n      tag_166\n        /* \"#utility.yul\":2176:2182   */\n      dup5\n        /* \"#utility.yul\":2171:2174   */\n      dup3\n        /* \"#utility.yul\":2166:2169   */\n      dup6\n        /* \"#utility.yul\":2129:2183   */\n      tag_108\n      jump\t// in\n    tag_166:\n        /* \"#utility.yul\":1848:2189   */\n      pop\n        /* \"#utility.yul\":1764:2189   */\n      swap4\n      swap3\n      pop\n      pop\n      pop\n      jump\t// out\n        /* \"#utility.yul\":2209:2549   */\n    tag_110:\n        /* \"#utility.yul\":2265:2270   */\n      0x00\n        /* \"#utility.yul\":2314:2317   */\n      dup3\n        /* \"#utility.yul\":2307:2311   */\n      0x1f\n        /* \"#utility.yul\":2299:2305   */\n      dup4\n        /* \"#utility.yul\":2295:2312   */\n      add\n        /* \"#utility.yul\":2291:2318   */\n      slt\n        /* \"#utility.yul\":2281:2403   */\n      tag_168\n      jumpi\n        /* \"#utility.yul\":2322:2401   */\n      tag_169\n      tag_101\n      jump\t// in\n    tag_169:\n        /* \"#utility.yul\":2281:2403   */\n    tag_168:\n        /* \"#utility.yul\":2439:2445   */\n      dup2\n        /* \"#utility.yul\":2426:2446   */\n      calldataload\n        /* \"#utility.yul\":2464:2543   */\n      tag_170\n        /* \"#utility.yul\":2539:2542   */\n      dup5\n        /* \"#utility.yul\":2531:2537   */\n      dup3\n        /* \"#utility.yul\":2524:2528   */\n      0x20\n        /* \"#utility.yul\":2516:2522   */\n      dup7\n        /* \"#utility.yul\":2512:2529   */\n      add\n        /* \"#utility.yul\":2464:2543   */\n      tag_109\n      jump\t// in\n    tag_170:\n        /* \"#utility.yul\":2455:2543   */\n      swap2\n      pop\n        /* \"#utility.yul\":2271:2549   */\n      pop\n        /* \"#utility.yul\":2209:2549   */\n      swap3\n      swap2\n      pop\n      pop\n      jump\t// out\n        /* \"#utility.yul\":2555:2632   */\n    tag_111:\n        /* \"#utility.yul\":2592:2599   */\n      0x00\n        /* \"#utility.yul\":2621:2626   */\n      dup2\n        /* \"#utility.yul\":2610:2626   */\n      swap1\n      pop\n        /* \"#utility.yul\":2555:2632   */\n      swap2\n      swap1\n      pop\n      jump\t// out\n        /* \"#utility.yul\":2638:2760   */\n    tag_112:\n        /* \"#utility.yul\":2711:2735   */\n      tag_173\n        /* \"#utility.yul\":2729:2734   */\n      dup2\n        /* \"#utility.yul\":2711:2735   */\n      tag_111\n      jump\t// in\n    tag_173:\n        /* \"#utility.yul\":2704:2709   */\n      dup2\n        /* \"#utility.yul\":2701:2736   */\n      eq\n        /* \"#utility.yul\":2691:2754   */\n      tag_174\n      jumpi\n        /* \"#utility.yul\":2750:2751   */\n      0x00\n        /* \"#utility.yul\":2747:2748   */\n      dup1\n        /* \"#utility.yul\":2740:2752   */\n      revert\n        /* \"#utility.yul\":2691:2754   */\n    tag_174:\n        /* \"#utility.yul\":2638:2760   */\n      pop\n      jump\t// out\n        /* \"#utility.yul\":2766:2905   */\n    tag_113:\n        /* \"#utility.yul\":2812:2817   */\n      0x00\n        /* \"#utility.yul\":2850:2856   */\n      dup2\n        /* \"#utility.yul\":2837:2857   */\n      calldataload\n        /* \"#utility.yul\":2828:2857   */\n      swap1\n      pop\n        /* \"#utility.yul\":2866:2899   */\n      tag_176\n        /* \"#utility.yul\":2893:2898   */\n      dup2\n        /* \"#utility.yul\":2866:2899   */\n      tag_112\n      jump\t// in\n    tag_176:\n        /* \"#utility.yul\":2766:2905   */\n      swap3\n      swap2\n      pop\n      pop\n      jump\t// out\n        /* \"#utility.yul\":2911:3565   */\n    tag_16:\n        /* \"#utility.yul\":2989:2995   */\n      0x00\n        /* \"#utility.yul\":2997:3003   */\n      dup1\n        /* \"#utility.yul\":3046:3048   */\n      0x40\n        /* \"#utility.yul\":3034:3043   */\n      dup4\n        /* \"#utility.yul\":3025:3032   */\n      dup6\n        /* \"#utility.yul\":3021:3044   */\n      sub\n        /* \"#utility.yul\":3017:3049   */\n      slt\n        /* \"#utility.yul\":3014:3133   */\n      iszero\n      tag_178\n      jumpi\n        /* \"#utility.yul\":3052:3131   */\n      tag_179\n      tag_99\n      jump\t// in\n    tag_179:\n        /* \"#utility.yul\":3014:3133   */\n    tag_178:\n        /* \"#utility.yul\":3200:3201   */\n      0x00\n        /* \"#utility.yul\":3189:3198   */\n      dup4\n        /* \"#utility.yul\":3185:3202   */\n      add\n        /* \"#utility.yul\":3172:3203   */\n      calldataload\n        /* \"#utility.yul\":3230:3248   */\n      0xffffffffffffffff\n        /* \"#utility.yul\":3222:3228   */\n      dup2\n        /* \"#utility.yul\":3219:3249   */\n      gt\n        /* \"#utility.yul\":3216:3333   */\n      iszero\n      tag_180\n      jumpi\n        /* \"#utility.yul\":3252:3331   */\n      tag_181\n      tag_100\n      jump\t// in\n    tag_181:\n        /* \"#utility.yul\":3216:3333   */\n    tag_180:\n        /* \"#utility.yul\":3357:3420   */\n      tag_182\n        /* \"#utility.yul\":3412:3419   */\n      dup6\n        /* \"#utility.yul\":3403:3409   */\n      dup3\n        /* \"#utility.yul\":3392:3401   */\n      dup7\n        /* \"#utility.yul\":3388:3410   */\n      add\n        /* \"#utility.yul\":3357:3420   */\n      tag_110\n      jump\t// in\n    tag_182:\n        /* \"#utility.yul\":3347:3420   */\n      swap3\n      pop\n        /* \"#utility.yul\":3143:3430   */\n      pop\n        /* \"#utility.yul\":3469:3471   */\n      0x20\n        /* \"#utility.yul\":3495:3548   */\n      tag_183\n        /* \"#utility.yul\":3540:3547   */\n      dup6\n        /* \"#utility.yul\":3531:3537   */\n      dup3\n        /* \"#utility.yul\":3520:3529   */\n      dup7\n        /* \"#utility.yul\":3516:3538   */\n      add\n        /* \"#utility.yul\":3495:3548   */\n      tag_113\n      jump\t// in\n    tag_183:\n        /* \"#utility.yul\":3485:3548   */\n      swap2\n      pop\n        /* \"#utility.yul\":3440:3558   */\n      pop\n        /* \"#utility.yul\":2911:3565   */\n      swap3\n      pop\n      swap3\n      swap1\n      pop\n      jump\t// out\n        /* \"#utility.yul\":3571:3689   */\n    tag_114:\n        /* \"#utility.yul\":3658:3682   */\n      tag_185\n        /* \"#utility.yul\":3676:3681   */\n      dup2\n        /* \"#utility.yul\":3658:3682   */\n      tag_111\n      jump\t// in\n    tag_185:\n        /* \"#utility.yul\":3653:3656   */\n      dup3\n        /* \"#utility.yul\":3646:3683   */\n      mstore\n        /* \"#utility.yul\":3571:3689   */\n      pop\n      pop\n      jump\t// out\n        /* \"#utility.yul\":3695:3917   */\n    tag_19:\n        /* \"#utility.yul\":3788:3792   */\n      0x00\n        /* \"#utility.yul\":3826:3828   */\n      0x20\n        /* \"#utility.yul\":3815:3824   */\n      dup3\n        /* \"#utility.yul\":3811:3829   */\n      add\n        /* \"#utility.yul\":3803:3829   */\n      swap1\n      pop\n        /* \"#utility.yul\":3839:3910   */\n      tag_187\n        /* \"#utility.yul\":3907:3908   */\n      0x00\n        /* \"#utility.yul\":3896:3905   */\n      dup4\n        /* \"#utility.yul\":3892:3909   */\n      add\n        /* \"#utility.yul\":3883:3889   */\n      dup5\n        /* \"#utility.yul\":3839:3910   */\n      tag_114\n      jump\t// in\n    tag_187:\n        /* \"#utility.yul\":3695:3917   */\n      swap3\n      swap2\n      pop\n      pop\n      jump\t// out\n        /* \"#utility.yul\":3923:4252   */\n    tag_22:\n        /* \"#utility.yul\":3982:3988   */\n      0x00\n        /* \"#utility.yul\":4031:4033   */\n      0x20\n        /* \"#utility.yul\":4019:4028   */\n      dup3\n        /* \"#utility.yul\":4010:4017   */\n      dup5\n        /* \"#utility.yul\":4006:4029   */\n      sub\n        /* \"#utility.yul\":4002:4034   */\n      slt\n        /* \"#utility.yul\":3999:4118   */\n      iszero\n      tag_189\n      jumpi\n        /* \"#utility.yul\":4037:4116   */\n      tag_190\n      tag_99\n      jump\t// in\n    tag_190:\n        /* \"#utility.yul\":3999:4118   */\n    tag_189:\n        /* \"#utility.yul\":4157:4158   */\n      0x00\n        /* \"#utility.yul\":4182:4235   */\n      tag_191\n        /* \"#utility.yul\":4227:4234   */\n      dup5\n        /* \"#utility.yul\":4218:4224   */\n      dup3\n        /* \"#utility.yul\":4207:4216   */\n      dup6\n        /* \"#utility.yul\":4203:4225   */\n      add\n        /* \"#utility.yul\":4182:4235   */\n      tag_113\n      jump\t// in\n    tag_191:\n        /* \"#utility.yul\":4172:4235   */\n      swap2\n      pop\n        /* \"#utility.yul\":4128:4245   */\n      pop\n        /* \"#utility.yul\":3923:4252   */\n      swap3\n      swap2\n      pop\n      pop\n      jump\t// out\n        /* \"#utility.yul\":4258:4357   */\n    tag_115:\n        /* \"#utility.yul\":4310:4316   */\n      0x00\n        /* \"#utility.yul\":4344:4349   */\n      dup2\n        /* \"#utility.yul\":4338:4350   */\n      mload\n        /* \"#utility.yul\":4328:4350   */\n      swap1\n      pop\n        /* \"#utility.yul\":4258:4357   */\n      swap2\n      swap1\n      pop\n      jump\t// out\n        /* \"#utility.yul\":4363:4532   */\n    tag_116:\n        /* \"#utility.yul\":4447:4458   */\n      0x00\n        /* \"#utility.yul\":4481:4487   */\n      dup3\n        /* \"#utility.yul\":4476:4479   */\n      dup3\n        /* \"#utility.yul\":4469:4488   */\n      mstore\n        /* \"#utility.yul\":4521:4525   */\n      0x20\n        /* \"#utility.yul\":4516:4519   */\n      dup3\n        /* \"#utility.yul\":4512:4526   */\n      add\n        /* \"#utility.yul\":4497:4526   */\n      swap1\n      pop\n        /* \"#utility.yul\":4363:4532   */\n      swap3\n      swap2\n      pop\n      pop\n      jump\t// out\n        /* \"#utility.yul\":4538:4677   */\n    tag_117:\n        /* \"#utility.yul\":4627:4633   */\n      dup3\n        /* \"#utility.yul\":4622:4625   */\n      dup2\n        /* \"#utility.yul\":4617:4620   */\n      dup4\n        /* \"#utility.yul\":4611:4634   */\n      mcopy\n        /* \"#utility.yul\":4668:4669   */\n      0x00\n        /* \"#utility.yul\":4659:4665   */\n      dup4\n        /* \"#utility.yul\":4654:4657   */\n      dup4\n        /* \"#utility.yul\":4650:4666   */\n      add\n        /* \"#utility.yul\":4643:4670   */\n      mstore\n        /* \"#utility.yul\":4538:4677   */\n      pop\n      pop\n      pop\n      jump\t// out\n        /* \"#utility.yul\":4683:5060   */\n    tag_118:\n        /* \"#utility.yul\":4771:4774   */\n      0x00\n        /* \"#utility.yul\":4799:4838   */\n      tag_196\n        /* \"#utility.yul\":4832:4837   */\n      dup3\n        /* \"#utility.yul\":4799:4838   */\n      tag_115\n      jump\t// in\n    tag_196:\n        /* \"#utility.yul\":4854:4925   */\n      tag_197\n        /* \"#utility.yul\":4918:4924   */\n      dup2\n        /* \"#utility.yul\":4913:4916   */\n      dup6\n        /* \"#utility.yul\":4854:4925   */\n      tag_116\n      jump\t// in\n    tag_197:\n        /* \"#utility.yul\":4847:4925   */\n      swap4\n      pop\n        /* \"#utility.yul\":4934:4999   */\n      tag_198\n        /* \"#utility.yul\":4992:4998   */\n      dup2\n        /* \"#utility.yul\":4987:4990   */\n      dup6\n        /* \"#utility.yul\":4980:4984   */\n      0x20\n        /* \"#utility.yul\":4973:4978   */\n      dup7\n        /* \"#utility.yul\":4969:4985   */\n      add\n        /* \"#utility.yul\":4934:4999   */\n      tag_117\n      jump\t// in\n    tag_198:\n        /* \"#utility.yul\":5024:5053   */\n      tag_199\n        /* \"#utility.yul\":5046:5052   */\n      dup2\n        /* \"#utility.yul\":5024:5053   */\n      tag_103\n      jump\t// in\n    tag_199:\n        /* \"#utility.yul\":5019:5022   */\n      dup5\n        /* \"#utility.yul\":5015:5054   */\n      add\n        /* \"#utility.yul\":5008:5054   */\n      swap2\n      pop\n        /* \"#utility.yul\":4775:5060   */\n      pop\n        /* \"#utility.yul\":4683:5060   */\n      swap3\n      swap2\n      pop\n      pop\n      jump\t// out\n        /* \"#utility.yul\":5066:5690   */\n    tag_25:\n        /* \"#utility.yul\":5255:5259   */\n      0x00\n        /* \"#utility.yul\":5293:5295   */\n      0x60\n        /* \"#utility.yul\":5282:5291   */\n      dup3\n        /* \"#utility.yul\":5278:5296   */\n      add\n        /* \"#utility.yul\":5270:5296   */\n      swap1\n      pop\n        /* \"#utility.yul\":5306:5377   */\n      tag_201\n        /* \"#utility.yul\":5374:5375   */\n      0x00\n        /* \"#utility.yul\":5363:5372   */\n      dup4\n        /* \"#utility.yul\":5359:5376   */\n      add\n        /* \"#utility.yul\":5350:5356   */\n      dup7\n        /* \"#utility.yul\":5306:5377   */\n      tag_114\n      jump\t// in\n    tag_201:\n        /* \"#utility.yul\":5424:5433   */\n      dup2\n        /* \"#utility.yul\":5418:5422   */\n      dup2\n        /* \"#utility.yul\":5414:5434   */\n      sub\n        /* \"#utility.yul\":5409:5411   */\n      0x20\n        /* \"#utility.yul\":5398:5407   */\n      dup4\n        /* \"#utility.yul\":5394:5412   */\n      add\n        /* \"#utility.yul\":5387:5435   */\n      mstore\n        /* \"#utility.yul\":5452:5530   */\n      tag_202\n        /* \"#utility.yul\":5525:5529   */\n      dup2\n        /* \"#utility.yul\":5516:5522   */\n      dup6\n        /* \"#utility.yul\":5452:5530   */\n      tag_118\n      jump\t// in\n    tag_202:\n        /* \"#utility.yul\":5444:5530   */\n      swap1\n      pop\n        /* \"#utility.yul\":5577:5586   */\n      dup2\n        /* \"#utility.yul\":5571:5575   */\n      dup2\n        /* \"#utility.yul\":5567:5587   */\n      sub\n        /* \"#utility.yul\":5562:5564   */\n      0x40\n        /* \"#utility.yul\":5551:5560   */\n      dup4\n        /* \"#utility.yul\":5547:5565   */\n      add\n        /* \"#utility.yul\":5540:5588   */\n      mstore\n        /* \"#utility.yul\":5605:5683   */\n      tag_203\n        /* \"#utility.yul\":5678:5682   */\n      dup2\n        /* \"#utility.yul\":5669:5675   */\n      dup5\n        /* \"#utility.yul\":5605:5683   */\n      tag_118\n      jump\t// in\n    tag_203:\n        /* \"#utility.yul\":5597:5683   */\n      swap1\n      pop\n        /* \"#utility.yul\":5066:5690   */\n      swap5\n      swap4\n      pop\n      pop\n      pop\n      pop\n      jump\t// out\n        /* \"#utility.yul\":5696:5822   */\n    tag_119:\n        /* \"#utility.yul\":5733:5740   */\n      0x00\n        /* \"#utility.yul\":5773:5815   */\n      0xffffffffffffffffffffffffffffffffffffffff\n        /* \"#utility.yul\":5766:5771   */\n      dup3\n        /* \"#utility.yul\":5762:5816   */\n      and\n        /* \"#utility.yul\":5751:5816   */\n      swap1\n      pop\n        /* \"#utility.yul\":5696:5822   */\n      swap2\n      swap1\n      pop\n      jump\t// out\n        /* \"#utility.yul\":5828:5924   */\n    tag_120:\n        /* \"#utility.yul\":5865:5872   */\n      0x00\n        /* \"#utility.yul\":5894:5918   */\n      tag_206\n        /* \"#utility.yul\":5912:5917   */\n      dup3\n        /* \"#utility.yul\":5894:5918   */\n      tag_119\n      jump\t// in\n    tag_206:\n        /* \"#utility.yul\":5883:5918   */\n      swap1\n      pop\n        /* \"#utility.yul\":5828:5924   */\n      swap2\n      swap1\n      pop\n      jump\t// out\n        /* \"#utility.yul\":5930:6052   */\n    tag_121:\n        /* \"#utility.yul\":6003:6027   */\n      tag_208\n        /* \"#utility.yul\":6021:6026   */\n      dup2\n        /* \"#utility.yul\":6003:6027   */\n      tag_120\n      jump\t// in\n    tag_208:\n        /* \"#utility.yul\":5996:6001   */\n      dup2\n        /* \"#utility.yul\":5993:6028   */\n      eq\n        /* \"#utility.yul\":5983:6046   */\n      tag_209\n      jumpi\n        /* \"#utility.yul\":6042:6043   */\n      0x00\n        /* \"#utility.yul\":6039:6040   */\n      dup1\n        /* \"#utility.yul\":6032:6044   */\n      revert\n        /* \"#utility.yul\":5983:6046   */\n    tag_209:\n        /* \"#utility.yul\":5930:6052   */\n      pop\n      jump\t// out\n        /* \"#utility.yul\":6058:6197   */\n    tag_122:\n        /* \"#utility.yul\":6104:6109   */\n      0x00\n        /* \"#utility.yul\":6142:6148   */\n      dup2\n        /* \"#utility.yul\":6129:6149   */\n      calldataload\n        /* \"#utility.yul\":6120:6149   */\n      swap1\n      pop\n        /* \"#utility.yul\":6158:6191   */\n      tag_211\n        /* \"#utility.yul\":6185:6190   */\n      dup2\n        /* \"#utility.yul\":6158:6191   */\n      tag_121\n      jump\t// in\n    tag_211:\n        /* \"#utility.yul\":6058:6197   */\n      swap3\n      swap2\n      pop\n      pop\n      jump\t// out\n        /* \"#utility.yul\":6203:6532   */\n    tag_32:\n        /* \"#utility.yul\":6262:6268   */\n      0x00\n        /* \"#utility.yul\":6311:6313   */\n      0x20\n        /* \"#utility.yul\":6299:6308   */\n      dup3\n        /* \"#utility.yul\":6290:6297   */\n      dup5\n        /* \"#utility.yul\":6286:6309   */\n      sub\n        /* \"#utility.yul\":6282:6314   */\n      slt\n        /* \"#utility.yul\":6279:6398   */\n      iszero\n      tag_213\n      jumpi\n        /* \"#utility.yul\":6317:6396   */\n      tag_214\n      tag_99\n      jump\t// in\n    tag_214:\n        /* \"#utility.yul\":6279:6398   */\n    tag_213:\n        /* \"#utility.yul\":6437:6438   */\n      0x00\n        /* \"#utility.yul\":6462:6515   */\n      tag_215\n        /* \"#utility.yul\":6507:6514   */\n      dup5\n        /* \"#utility.yul\":6498:6504   */\n      dup3\n        /* \"#utility.yul\":6487:6496   */\n      dup6\n        /* \"#utility.yul\":6483:6505   */\n      add\n        /* \"#utility.yul\":6462:6515   */\n      tag_122\n      jump\t// in\n    tag_215:\n        /* \"#utility.yul\":6452:6515   */\n      swap2\n      pop\n        /* \"#utility.yul\":6408:6525   */\n      pop\n        /* \"#utility.yul\":6203:6532   */\n      swap3\n      swap2\n      pop\n      pop\n      jump\t// out\n        /* \"#utility.yul\":6538:7517   */\n    tag_40:\n        /* \"#utility.yul\":6635:6641   */\n      0x00\n        /* \"#utility.yul\":6643:6649   */\n      dup1\n        /* \"#utility.yul\":6651:6657   */\n      0x00\n        /* \"#utility.yul\":6700:6702   */\n      0x60\n        /* \"#utility.yul\":6688:6697   */\n      dup5\n        /* \"#utility.yul\":6679:6686   */\n      dup7\n        /* \"#utility.yul\":6675:6698   */\n      sub\n        /* \"#utility.yul\":6671:6703   */\n      slt\n        /* \"#utility.yul\":6668:6787   */\n      iszero\n      tag_217\n      jumpi\n        /* \"#utility.yul\":6706:6785   */\n      tag_218\n      tag_99\n      jump\t// in\n    tag_218:\n        /* \"#utility.yul\":6668:6787   */\n    tag_217:\n        /* \"#utility.yul\":6826:6827   */\n      0x00\n        /* \"#utility.yul\":6851:6904   */\n      tag_219\n        /* \"#utility.yul\":6896:6903   */\n      dup7\n        /* \"#utility.yul\":6887:6893   */\n      dup3\n        /* \"#utility.yul\":6876:6885   */\n      dup8\n        /* \"#utility.yul\":6872:6894   */\n      add\n        /* \"#utility.yul\":6851:6904   */\n      tag_113\n      jump\t// in\n    tag_219:\n        /* \"#utility.yul\":6841:6904   */\n      swap4\n      pop\n        /* \"#utility.yul\":6797:6914   */\n      pop\n        /* \"#utility.yul\":6981:6983   */\n      0x20\n        /* \"#utility.yul\":6970:6979   */\n      dup5\n        /* \"#utility.yul\":6966:6984   */\n      add\n        /* \"#utility.yul\":6953:6985   */\n      calldataload\n        /* \"#utility.yul\":7012:7030   */\n      0xffffffffffffffff\n        /* \"#utility.yul\":7004:7010   */\n      dup2\n        /* \"#utility.yul\":7001:7031   */\n      gt\n        /* \"#utility.yul\":6998:7115   */\n      iszero\n      tag_220\n      jumpi\n        /* \"#utility.yul\":7034:7113   */\n      tag_221\n      tag_100\n      jump\t// in\n    tag_221:\n        /* \"#utility.yul\":6998:7115   */\n    tag_220:\n        /* \"#utility.yul\":7139:7202   */\n      tag_222\n        /* \"#utility.yul\":7194:7201   */\n      dup7\n        /* \"#utility.yul\":7185:7191   */\n      dup3\n        /* \"#utility.yul\":7174:7183   */\n      dup8\n        /* \"#utility.yul\":7170:7192   */\n      add\n        /* \"#utility.yul\":7139:7202   */\n      tag_110\n      jump\t// in\n    tag_222:\n        /* \"#utility.yul\":7129:7202   */\n      swap3\n      pop\n        /* \"#utility.yul\":6924:7212   */\n      pop\n        /* \"#utility.yul\":7279:7281   */\n      0x40\n        /* \"#utility.yul\":7268:7277   */\n      dup5\n        /* \"#utility.yul\":7264:7282   */\n      add\n        /* \"#utility.yul\":7251:7283   */\n      calldataload\n        /* \"#utility.yul\":7310:7328   */\n      0xffffffffffffffff\n        /* \"#utility.yul\":7302:7308   */\n      dup2\n        /* \"#utility.yul\":7299:7329   */\n      gt\n        /* \"#utility.yul\":7296:7413   */\n      iszero\n      tag_223\n      jumpi\n        /* \"#utility.yul\":7332:7411   */\n      tag_224\n      tag_100\n      jump\t// in\n    tag_224:\n        /* \"#utility.yul\":7296:7413   */\n    tag_223:\n        /* \"#utility.yul\":7437:7500   */\n      tag_225\n        /* \"#utility.yul\":7492:7499   */\n      dup7\n        /* \"#utility.yul\":7483:7489   */\n      dup3\n        /* \"#utility.yul\":7472:7481   */\n      dup8\n        /* \"#utility.yul\":7468:7490   */\n      add\n        /* \"#utility.yul\":7437:7500   */\n      tag_110\n      jump\t// in\n    tag_225:\n        /* \"#utility.yul\":7427:7500   */\n      swap2\n      pop\n        /* \"#utility.yul\":7222:7510   */\n      pop\n        /* \"#utility.yul\":6538:7517   */\n      swap3\n      pop\n      swap3\n      pop\n      swap3\n      jump\t// out\n        /* \"#utility.yul\":7523:7703   */\n    tag_123:\n        /* \"#utility.yul\":7571:7648   */\n      0x4e487b7100000000000000000000000000000000000000000000000000000000\n        /* \"#utility.yul\":7568:7569   */\n      0x00\n        /* \"#utility.yul\":7561:7649   */\n      mstore\n        /* \"#utility.yul\":7668:7672   */\n      0x22\n        /* \"#utility.yul\":7665:7666   */\n      0x04\n        /* \"#utility.yul\":7658:7673   */\n      mstore\n        /* \"#utility.yul\":7692:7696   */\n      0x24\n        /* \"#utility.yul\":7689:7690   */\n      0x00\n        /* \"#utility.yul\":7682:7697   */\n      revert\n        /* \"#utility.yul\":7709:8029   */\n    tag_61:\n        /* \"#utility.yul\":7753:7759   */\n      0x00\n        /* \"#utility.yul\":7790:7791   */\n      0x02\n        /* \"#utility.yul\":7784:7788   */\n      dup3\n        /* \"#utility.yul\":7780:7792   */\n      div\n        /* \"#utility.yul\":7770:7792   */\n      swap1\n      pop\n        /* \"#utility.yul\":7837:7838   */\n      0x01\n        /* \"#utility.yul\":7831:7835   */\n      dup3\n        /* \"#utility.yul\":7827:7839   */\n      and\n        /* \"#utility.yul\":7858:7876   */\n      dup1\n        /* \"#utility.yul\":7848:7929   */\n      tag_228\n      jumpi\n        /* \"#utility.yul\":7914:7918   */\n      0x7f\n        /* \"#utility.yul\":7906:7912   */\n      dup3\n        /* \"#utility.yul\":7902:7919   */\n      and\n        /* \"#utility.yul\":7892:7919   */\n      swap2\n      pop\n        /* \"#utility.yul\":7848:7929   */\n    tag_228:\n        /* \"#utility.yul\":7976:7978   */\n      0x20\n        /* \"#utility.yul\":7968:7974   */\n      dup3\n        /* \"#utility.yul\":7965:7979   */\n      lt\n        /* \"#utility.yul\":7945:7963   */\n      dup2\n        /* \"#utility.yul\":7942:7980   */\n      sub\n        /* \"#utility.yul\":7939:8023   */\n      tag_229\n      jumpi\n        /* \"#utility.yul\":7995:8013   */\n      tag_230\n      tag_123\n      jump\t// in\n    tag_230:\n        /* \"#utility.yul\":7939:8023   */\n    tag_229:\n        /* \"#utility.yul\":7760:8029   */\n      pop\n        /* \"#utility.yul\":7709:8029   */\n      swap2\n      swap1\n      pop\n      jump\t// out\n        /* \"#utility.yul\":8035:8183   */\n    tag_124:\n        /* \"#utility.yul\":8137:8148   */\n      0x00\n        /* \"#utility.yul\":8174:8177   */\n      dup2\n        /* \"#utility.yul\":8159:8177   */\n      swap1\n      pop\n        /* \"#utility.yul\":8035:8183   */\n      swap3\n      swap2\n      pop\n      pop\n      jump\t// out\n        /* \"#utility.yul\":8189:8579   */\n    tag_125:\n        /* \"#utility.yul\":8295:8298   */\n      0x00\n        /* \"#utility.yul\":8323:8362   */\n      tag_233\n        /* \"#utility.yul\":8356:8361   */\n      dup3\n        /* \"#utility.yul\":8323:8362   */\n      tag_115\n      jump\t// in\n    tag_233:\n        /* \"#utility.yul\":8378:8467   */\n      tag_234\n        /* \"#utility.yul\":8460:8466   */\n      dup2\n        /* \"#utility.yul\":8455:8458   */\n      dup6\n        /* \"#utility.yul\":8378:8467   */\n      tag_124\n      jump\t// in\n    tag_234:\n        /* \"#utility.yul\":8371:8467   */\n      swap4\n      pop\n        /* \"#utility.yul\":8476:8541   */\n      tag_235\n        /* \"#utility.yul\":8534:8540   */\n      dup2\n        /* \"#utility.yul\":8529:8532   */\n      dup6\n        /* \"#utility.yul\":8522:8526   */\n      0x20\n        /* \"#utility.yul\":8515:8520   */\n      dup7\n        /* \"#utility.yul\":8511:8527   */\n      add\n        /* \"#utility.yul\":8476:8541   */\n      tag_117\n      jump\t// in\n    tag_235:\n        /* \"#utility.yul\":8566:8572   */\n      dup1\n        /* \"#utility.yul\":8561:8564   */\n      dup5\n        /* \"#utility.yul\":8557:8573   */\n      add\n        /* \"#utility.yul\":8550:8573   */\n      swap2\n      pop\n        /* \"#utility.yul\":8299:8579   */\n      pop\n        /* \"#utility.yul\":8189:8579   */\n      swap3\n      swap2\n      pop\n      pop\n      jump\t// out\n        /* \"#utility.yul\":8585:8860   */\n    tag_75:\n        /* \"#utility.yul\":8717:8720   */\n      0x00\n        /* \"#utility.yul\":8739:8834   */\n      tag_237\n        /* \"#utility.yul\":8830:8833   */\n      dup3\n        /* \"#utility.yul\":8821:8827   */\n      dup5\n        /* \"#utility.yul\":8739:8834   */\n      tag_125\n      jump\t// in\n    tag_237:\n        /* \"#utility.yul\":8732:8834   */\n      swap2\n      pop\n        /* \"#utility.yul\":8851:8854   */\n      dup2\n        /* \"#utility.yul\":8844:8854   */\n      swap1\n      pop\n        /* \"#utility.yul\":8585:8860   */\n      swap3\n      swap2\n      pop\n      pop\n      jump\t// out\n        /* \"#utility.yul\":8866:9007   */\n    tag_126:\n        /* \"#utility.yul\":8915:8919   */\n      0x00\n        /* \"#utility.yul\":8938:8941   */\n      dup2\n        /* \"#utility.yul\":8930:8941   */\n      swap1\n      pop\n        /* \"#utility.yul\":8961:8964   */\n      dup2\n        /* \"#utility.yul\":8958:8959   */\n      0x00\n        /* \"#utility.yul\":8951:8965   */\n      mstore\n        /* \"#utility.yul\":8995:8999   */\n      0x20\n        /* \"#utility.yul\":8992:8993   */\n      0x00\n        /* \"#utility.yul\":8982:9000   */\n      keccak256\n        /* \"#utility.yul\":8974:9000   */\n      swap1\n      pop\n        /* \"#utility.yul\":8866:9007   */\n      swap2\n      swap1\n      pop\n      jump\t// out\n        /* \"#utility.yul\":9013:9106   */\n    tag_127:\n        /* \"#utility.yul\":9050:9056   */\n      0x00\n        /* \"#utility.yul\":9097:9099   */\n      0x20\n        /* \"#utility.yul\":9092:9094   */\n      0x1f\n        /* \"#utility.yul\":9085:9090   */\n      dup4\n        /* \"#utility.yul\":9081:9095   */\n      add\n        /* \"#utility.yul\":9077:9100   */\n      div\n        /* \"#utility.yul\":9067:9100   */\n      swap1\n      pop\n        /* \"#utility.yul\":9013:9106   */\n      swap2\n      swap1\n      pop\n      jump\t// out\n        /* \"#utility.yul\":9112:9219   */\n    tag_128:\n        /* \"#utility.yul\":9156:9164   */\n      0x00\n        /* \"#utility.yul\":9206:9211   */\n      dup3\n        /* \"#utility.yul\":9200:9204   */\n      dup3\n        /* \"#utility.yul\":9196:9212   */\n      shl\n        /* \"#utility.yul\":9175:9212   */\n      swap1\n      pop\n        /* \"#utility.yul\":9112:9219   */\n      swap3\n      swap2\n      pop\n      pop\n      jump\t// out\n        /* \"#utility.yul\":9225:9618   */\n    tag_129:\n        /* \"#utility.yul\":9294:9300   */\n      0x00\n        /* \"#utility.yul\":9344:9345   */\n      0x08\n        /* \"#utility.yul\":9332:9342   */\n      dup4\n        /* \"#utility.yul\":9328:9346   */\n      mul\n        /* \"#utility.yul\":9367:9464   */\n      tag_242\n        /* \"#utility.yul\":9397:9463   */\n      0xffffffffffffffffffffffffffffffffffffffffffffffffffffffffffffffff\n        /* \"#utility.yul\":9386:9395   */\n      dup3\n        /* \"#utility.yul\":9367:9464   */\n      tag_128\n      jump\t// in\n    tag_242:\n        /* \"#utility.yul\":9485:9524   */\n      tag_243\n        /* \"#utility.yul\":9515:9523   */\n      dup7\n        /* \"#utility.yul\":9504:9513   */\n      dup4\n        /* \"#utility.yul\":9485:9524   */\n      tag_128\n      jump\t// in\n    tag_243:\n        /* \"#utility.yul\":9473:9524   */\n      swap6\n      pop\n        /* \"#utility.yul\":9557:9561   */\n      dup1\n        /* \"#utility.yul\":9553:9562   */\n      not\n        /* \"#utility.yul\":9546:9551   */\n      dup5\n        /* \"#utility.yul\":9542:9563   */\n      and\n        /* \"#utility.yul\":9533:9563   */\n      swap4\n      pop\n        /* \"#utility.yul\":9606:9610   */\n      dup1\n        /* \"#utility.yul\":9596:9604   */\n      dup7\n        /* \"#utility.yul\":9592:9611   */\n      and\n        /* \"#utility.yul\":9585:9590   */\n      dup5\n        /* \"#utility.yul\":9582:9612   */\n      or\n        /* \"#utility.yul\":9572:9612   */\n      swap3\n      pop\n        /* \"#utility.yul\":9301:9618   */\n      pop\n      pop\n        /* \"#utility.yul\":9225:9618   */\n      swap4\n      swap3\n      pop\n      pop\n      pop\n      jump\t// out\n        /* \"#utility.yul\":9624:9684   */\n    tag_130:\n        /* \"#utility.yul\":9652:9655   */\n      0x00\n        /* \"#utility.yul\":9673:9678   */\n      dup2\n        /* \"#utility.yul\":9666:9678   */\n      swap1\n      pop\n        /* \"#utility.yul\":9624:9684   */\n      swap2\n      swap1\n      pop\n      jump\t// out\n        /* \"#utility.yul\":9690:9832   */\n    tag_131:\n        /* \"#utility.yul\":9740:9749   */\n      0x00\n        /* \"#utility.yul\":9773:9826   */\n      tag_246\n        /* \"#utility.yul\":9791:9825   */\n      tag_247\n        /* \"#utility.yul\":9800:9824   */\n      tag_248\n        /* \"#utility.yul\":9818:9823   */\n      dup5\n        /* \"#utility.yul\":9800:9824   */\n      tag_111\n      jump\t// in\n    tag_248:\n        /* \"#utility.yul\":9791:9825   */\n      tag_130\n      jump\t// in\n    tag_247:\n        /* \"#utility.yul\":9773:9826   */\n      tag_111\n      jump\t// in\n    tag_246:\n        /* \"#utility.yul\":9760:9826   */\n      swap1\n      pop\n        /* \"#utility.yul\":9690:9832   */\n      swap2\n      swap1\n      pop\n      jump\t// out\n        /* \"#utility.yul\":9838:9913   */\n    tag_132:\n        /* \"#utility.yul\":9881:9884   */\n      0x00\n        /* \"#utility.yul\":9902:9907   */\n      dup2\n        /* \"#utility.yul\":9895:9907   */\n      swap1\n      pop\n        /* \"#utility.yul\":9838:9913   */\n      swap2\n      swap1\n      pop\n      jump\t// out\n        /* \"#utility.yul\":9919:10188   */\n    tag_133:\n        /* \"#utility.yul\":10029:10068   */\n      tag_251\n        /* \"#utility.yul\":10060:10067   */\n      dup4\n        /* \"#utility.yul\":10029:10068   */\n      tag_131\n      jump\t// in\n    tag_251:\n        /* \"#utility.yul\":10090:10181   */\n      tag_252\n        /* \"#utility.yul\":10139:10180   */\n      tag_253\n        /* \"#utility.yul\":10163:10179   */\n      dup3\n        /* \"#utility.yul\":10139:10180   */\n      tag_132\n      jump\t// in\n    tag_253:\n        /* \"#utility.yul\":10131:10137   */\n      dup5\n        /* \"#utility.yul\":10124:10128   */\n      dup5\n        /* \"#utility.yul\":10118:10129   */\n      sload\n        /* \"#utility.yul\":10090:10181   */\n      tag_129\n      jump\t// in\n    tag_252:\n        /* \"#utility.yul\":10084:10088   */\n      dup3\n        /* \"#utility.yul\":10077:10182   */\n      sstore\n        /* \"#utility.yul\":9995:10188   */\n      pop\n        /* \"#utility.yul\":9919:10188   */\n      pop\n      pop\n      pop\n      jump\t// out\n        /* \"#utility.yul\":10194:10267   */\n    tag_134:\n        /* \"#utility.yul\":10239:10242   */\n      0x00\n        /* \"#utility.yul\":10194:10267   */\n      swap1\n      jump\t// out\n        /* \"#utility.yul\":10273:10462   */\n    tag_135:\n        /* \"#utility.yul\":10350:10382   */\n      tag_256\n      tag_134\n      jump\t// in\n    tag_256:\n        /* \"#utility.yul\":10391:10456   */\n      tag_257\n        /* \"#utility.yul\":10449:10455   */\n      dup2\n        /* \"#utility.yul\":10441:10447   */\n      dup5\n        /* \"#utility.yul\":10435:10439   */\n      dup5\n        /* \"#utility.yul\":10391:10456   */\n      tag_133\n      jump\t// in\n    tag_257:\n        /* \"#utility.yul\":10326:10462   */\n      pop\n        /* \"#utility.yul\":10273:10462   */\n      pop\n      pop\n      jump\t// out\n        /* \"#utility.yul\":10468:10654   */\n    tag_136:\n        /* \"#utility.yul\":10528:10648   */\n    tag_259:\n        /* \"#utility.yul\":10545:10548   */\n      dup2\n        /* \"#utility.yul\":10538:10543   */\n      dup2\n        /* \"#utility.yul\":10535:10549   */\n      lt\n        /* \"#utility.yul\":10528:10648   */\n      iszero\n      tag_261\n      jumpi\n        /* \"#utility.yul\":10599:10638   */\n      tag_262\n        /* \"#utility.yul\":10636:10637   */\n      0x00\n        /* \"#utility.yul\":10629:10634   */\n      dup3\n        /* \"#utility.yul\":10599:10638   */\n      tag_135\n      jump\t// in\n    tag_262:\n        /* \"#utility.yul\":10572:10573   */\n      0x01\n        /* \"#utility.yul\":10565:10570   */\n      dup2\n        /* \"#utility.yul\":10561:10574   */\n      add\n        /* \"#utility.yul\":10552:10574   */\n      swap1\n      pop\n        /* \"#utility.yul\":10528:10648   */\n      jump(tag_259)\n    tag_261:\n        /* \"#utility.yul\":10468:10654   */\n      pop\n      pop\n      jump\t// out\n        /* \"#utility.yul\":10660:11203   */\n    tag_137:\n        /* \"#utility.yul\":10761:10763   */\n      0x1f\n        /* \"#utility.yul\":10756:10759   */\n      dup3\n        /* \"#utility.yul\":10753:10764   */\n      gt\n        /* \"#utility.yul\":10750:11196   */\n      iszero\n      tag_264\n      jumpi\n        /* \"#utility.yul\":10795:10833   */\n      tag_265\n        /* \"#utility.yul\":10827:10832   */\n      dup2\n        /* \"#utility.yul\":10795:10833   */\n      tag_126\n      jump\t// in\n    tag_265:\n        /* \"#utility.yul\":10879:10908   */\n      tag_266\n        /* \"#utility.yul\":10897:10907   */\n      dup5\n        /* \"#utility.yul\":10879:10908   */\n      tag_127\n      jump\t// in\n    tag_266:\n        /* \"#utility.yul\":10869:10877   */\n      dup2\n        /* \"#utility.yul\":10865:10909   */\n      add\n        /* \"#utility.yul\":11062:11064   */\n      0x20\n        /* \"#utility.yul\":11050:11060   */\n      dup6\n        /* \"#utility.yul\":11047:11065   */\n      lt\n        /* \"#utility.yul\":11044:11093   */\n      iszero\n      tag_267\n      jumpi\n        /* \"#utility.yul\":11083:11091   */\n      dup2\n        /* \"#utility.yul\":11068:11091   */\n      swap1\n      pop\n        /* \"#utility.yul\":11044:11093   */\n    tag_267:\n        /* \"#utility.yul\":11106:11186   */\n      tag_268\n        /* \"#utility.yul\":11162:11184   */\n      tag_269\n        /* \"#utility.yul\":11180:11183   */\n      dup6\n        /* \"#utility.yul\":11162:11184   */\n      tag_127\n      jump\t// in\n    tag_269:\n        /* \"#utility.yul\":11152:11160   */\n      dup4\n        /* \"#utility.yul\":11148:11185   */\n      add\n        /* \"#utility.yul\":11135:11146   */\n      dup3\n        /* \"#utility.yul\":11106:11186   */\n      tag_136\n      jump\t// in\n    tag_268:\n        /* \"#utility.yul\":10765:11196   */\n      pop\n      pop\n        /* \"#utility.yul\":10750:11196   */\n    tag_264:\n        /* \"#utility.yul\":10660:11203   */\n      pop\n      pop\n      pop\n      jump\t// out\n        /* \"#utility.yul\":11209:11326   */\n    tag_138:\n        /* \"#utility.yul\":11263:11271   */\n      0x00\n        /* \"#utility.yul\":11313:11318   */\n      dup3\n        /* \"#utility.yul\":11307:11311   */\n      dup3\n        /* \"#utility.yul\":11303:11319   */\n      shr\n        /* \"#utility.yul\":11282:11319   */\n      swap1\n      pop\n        /* \"#utility.yul\":11209:11326   */\n      swap3\n      swap2\n      pop\n      pop\n      jump\t// out\n        /* \"#utility.yul\":11332:11501   */\n    tag_139:\n        /* \"#utility.yul\":11376:11382   */\n      0x00\n        /* \"#utility.yul\":11409:11460   */\n      tag_272\n        /* \"#utility.yul\":11457:11458   */\n      0x00\n        /* \"#utility.yul\":11453:11459   */\n      not\n        /* \"#utility.yul\":11445:11450   */\n      dup5\n        /* \"#utility.yul\":11442:11443   */\n      0x08\n        /* \"#utility.yul\":11438:11451   */\n      mul\n        /* \"#utility.yul\":11409:11460   */\n      tag_138\n      jump\t// in\n    tag_272:\n        /* \"#utility.yul\":11405:11461   */\n      not\n        /* \"#utility.yul\":11490:11494   */\n      dup1\n        /* \"#utility.yul\":11484:11488   */\n      dup4\n        /* \"#utility.yul\":11480:11495   */\n      and\n        /* \"#utility.yul\":11470:11495   */\n      swap2\n      pop\n        /* \"#utility.yul\":11383:11501   */\n      pop\n        /* \"#utility.yul\":11332:11501   */\n      swap3\n      swap2\n      pop\n      pop\n      jump\t// out\n        /* \"#utility.yul\":11506:11801   */\n    tag_140:\n        /* \"#utility.yul\":11582:11586   */\n      0x00\n        /* \"#utility.yul\":11728:11757   */\n      tag_274\n        /* \"#utility.yul\":11753:11756   */\n      dup4\n        /* \"#utility.yul\":11747:11751   */\n      dup4\n        /* \"#utility.yul\":11728:11757   */\n      tag_139\n      jump\t// in\n    tag_274:\n        /* \"#utility.yul\":11720:11757   */\n      swap2\n      pop\n        /* \"#utility.yul\":11790:11793   */\n      dup3\n        /* \"#utility.yul\":11787:11788   */\n      0x02\n        /* \"#utility.yul\":11783:11794   */\n      mul\n        /* \"#utility.yul\":11777:11781   */\n      dup3\n        /* \"#utility.yul\":11774:11795   */\n      or\n        /* \"#utility.yul\":11766:11795   */\n      swap1\n      pop\n        /* \"#utility.yul\":11506:11801   */\n      swap3\n      swap2\n      pop\n      pop\n      jump\t// out\n        /* \"#utility.yul\":11806:13201   */\n    tag_80:\n        /* \"#utility.yul\":11923:11960   */\n      tag_276\n        /* \"#utility.yul\":11956:11959   */\n      dup3\n        /* \"#utility.yul\":11923:11960   */\n      tag_115\n      jump\t// in\n    tag_276:\n        /* \"#utility.yul\":12025:12043   */\n      0xffffffffffffffff\n        /* \"#utility.yul\":12017:12023   */\n      dup2\n        /* \"#utility.yul\":12014:12044   */\n      gt\n        /* \"#utility.yul\":12011:12067   */\n      iszero\n      tag_277\n      jumpi\n        /* \"#utility.yul\":12047:12065   */\n      tag_278\n      tag_104\n      jump\t// in\n    tag_278:\n        /* \"#utility.yul\":12011:12067   */\n    tag_277:\n        /* \"#utility.yul\":12091:12129   */\n      tag_279\n        /* \"#utility.yul\":12123:12127   */\n      dup3\n        /* \"#utility.yul\":12117:12128   */\n      sload\n        /* \"#utility.yul\":12091:12129   */\n      tag_61\n      jump\t// in\n    tag_279:\n        /* \"#utility.yul\":12176:12243   */\n      tag_280\n        /* \"#utility.yul\":12236:12242   */\n      dup3\n        /* \"#utility.yul\":12228:12234   */\n      dup3\n        /* \"#utility.yul\":12222:12226   */\n      dup6\n        /* \"#utility.yul\":12176:12243   */\n      tag_137\n      jump\t// in\n    tag_280:\n        /* \"#utility.yul\":12270:12271   */\n      0x00\n        /* \"#utility.yul\":12294:12298   */\n      0x20\n        /* \"#utility.yul\":12281:12298   */\n      swap1\n      pop\n        /* \"#utility.yul\":12326:12328   */\n      0x1f\n        /* \"#utility.yul\":12318:12324   */\n      dup4\n        /* \"#utility.yul\":12315:12329   */\n      gt\n        /* \"#utility.yul\":12343:12344   */\n      0x01\n        /* \"#utility.yul\":12338:12956   */\n      dup2\n      eq\n      tag_282\n      jumpi\n        /* \"#utility.yul\":13000:13001   */\n      0x00\n        /* \"#utility.yul\":13017:13023   */\n      dup5\n        /* \"#utility.yul\":13014:13091   */\n      iszero\n      tag_283\n      jumpi\n        /* \"#utility.yul\":13066:13075   */\n      dup3\n        /* \"#utility.yul\":13061:13064   */\n      dup8\n        /* \"#utility.yul\":13057:13076   */\n      add\n        /* \"#utility.yul\":13051:13077   */\n      mload\n        /* \"#utility.yul\":13042:13077   */\n      swap1\n      pop\n        /* \"#utility.yul\":13014:13091   */\n    tag_283:\n        /* \"#utility.yul\":13117:13184   */\n      tag_284\n        /* \"#utility.yul\":13177:13183   */\n      dup6\n        /* \"#utility.yul\":13170:13175   */\n      dup3\n        /* \"#utility.yul\":13117:13184   */\n      tag_140\n      jump\t// in\n    tag_284:\n        /* \"#utility.yul\":13111:13115   */\n      dup7\n        /* \"#utility.yul\":13104:13185   */\n      sstore\n        /* \"#utility.yul\":12973:13195   */\n      pop\n        /* \"#utility.yul\":12308:13195   */\n      jump(tag_281)\n        /* \"#utility.yul\":12338:12956   */\n    tag_282:\n        /* \"#utility.yul\":12390:12394   */\n      0x1f\n        /* \"#utility.yul\":12386:12395   */\n      not\n        /* \"#utility.yul\":12378:12384   */\n      dup5\n        /* \"#utility.yul\":12374:12396   */\n      and\n        /* \"#utility.yul\":12424:12461   */\n      tag_285\n        /* \"#utility.yul\":12456:12460   */\n      dup7\n        /* \"#utility.yul\":12424:12461   */\n      tag_126\n      jump\t// in\n    tag_285:\n        /* \"#utility.yul\":12483:12484   */\n      0x00\n        /* \"#utility.yul\":12497:12705   */\n    tag_286:\n        /* \"#utility.yul\":12511:12518   */\n      dup3\n        /* \"#utility.yul\":12508:12509   */\n      dup2\n        /* \"#utility.yul\":12505:12519   */\n      lt\n        /* \"#utility.yul\":12497:12705   */\n      iszero\n      tag_288\n      jumpi\n        /* \"#utility.yul\":12590:12599   */\n      dup5\n        /* \"#utility.yul\":12585:12588   */\n      dup10\n        /* \"#utility.yul\":12581:12600   */\n      add\n        /* \"#utility.yul\":12575:12601   */\n      mload\n        /* \"#utility.yul\":12567:12573   */\n      dup3\n        /* \"#utility.yul\":12560:12602   */\n      sstore\n        /* \"#utility.yul\":12641:12642   */\n      0x01\n        /* \"#utility.yul\":12633:12639   */\n      dup3\n        /* \"#utility.yul\":12629:12643   */\n      add\n        /* \"#utility.yul\":12619:12643   */\n      swap2\n      pop\n        /* \"#utility.yul\":12688:12690   */\n      0x20\n        /* \"#utility.yul\":12677:12686   */\n      dup6\n        /* \"#utility.yul\":12673:12691   */\n      add\n        /* \"#utility.yul\":12660:12691   */\n      swap5\n      pop\n        /* \"#utility.yul\":12534:12538   */\n      0x20\n        /* \"#utility.yul\":12531:12532   */\n      dup2\n        /* \"#utility.yul\":12527:12539   */\n      add\n        /* \"#utility.yul\":12522:12539   */\n      swap1\n      pop\n        /* \"#utility.yul\":12497:12705   */\n      jump(tag_286)\n    tag_288:\n        /* \"#utility.yul\":12733:12739   */\n      dup7\n        /* \"#utility.yul\":12724:12731   */\n      dup4\n        /* \"#utility.yul\":12721:12740   */\n      lt\n        /* \"#utility.yul\":12718:12897   */\n      iszero\n      tag_289\n      jumpi\n        /* \"#utility.yul\":12791:12800   */\n      dup5\n        /* \"#utility.yul\":12786:12789   */\n      dup10\n        /* \"#utility.yul\":12782:12801   */\n      add\n        /* \"#utility.yul\":12776:12802   */\n      mload\n        /* \"#utility.yul\":12834:12882   */\n      tag_290\n        /* \"#utility.yul\":12876:12880   */\n      0x1f\n        /* \"#utility.yul\":12868:12874   */\n      dup10\n        /* \"#utility.yul\":12864:12881   */\n      and\n        /* \"#utility.yul\":12853:12862   */\n      dup3\n        /* \"#utility.yul\":12834:12882   */\n      tag_139\n      jump\t// in\n    tag_290:\n        /* \"#utility.yul\":12826:12832   */\n      dup4\n        /* \"#utility.yul\":12819:12883   */\n      sstore\n        /* \"#utility.yul\":12741:12897   */\n      pop\n        /* \"#utility.yul\":12718:12897   */\n    tag_289:\n        /* \"#utility.yul\":12943:12944   */\n      0x01\n        /* \"#utility.yul\":12939:12940   */\n      0x02\n        /* \"#utility.yul\":12931:12937   */\n      dup9\n        /* \"#utility.yul\":12927:12941   */\n      mul\n        /* \"#utility.yul\":12923:12945   */\n      add\n        /* \"#utility.yul\":12917:12921   */\n      dup9\n        /* \"#utility.yul\":12910:12946   */\n      sstore\n        /* \"#utility.yul\":12345:12956   */\n      pop\n      pop\n      pop\n        /* \"#utility.yul\":12308:13195   */\n    tag_281:\n      pop\n        /* \"#utility.yul\":11898:13201   */\n      pop\n      pop\n      pop\n        /* \"#utility.yul\":11806:13201   */\n      pop\n      pop\n      jump\t// out\n\n    auxdata: 0xa264697066735822122096281a39bf4455b818daea0dd604bca80702ab6a99df4d5a9528d83caaed9ce964736f6c634300081a0033\n}\n",
				"bytecode": {
					"linkReferences": {},
					"object": "60806040526040518060600160405280600181526020016040518060400160405280600481526020017f52656e650000000000000000000000000000000000000000000000000000000081525081526020016040518060400160405280601081526020017f72656e6540686f746d61696c2e636f6d000000000000000000000000000000008152508152505f80820151815f015560208201518160010190816100a891906103b8565b5060408201518160020190816100be91906103b8565b5050506040518060a00160405280600260ff168152602001600360ff168152602001600560ff168152602001600760ff168152602001600b60ff16815250600390600561010c92919061011e565b50348015610118575f80fd5b50610487565b8260058101928215610152579160200282015b82811115610151578251829060ff16905591602001919060010190610131565b5b50905061015f9190610163565b5090565b5b8082111561017a575f815f905550600101610164565b5090565b5f81519050919050565b7f4e487b71000000000000000000000000000000000000000000000000000000005f52604160045260245ffd5b7f4e487b71000000000000000000000000000000000000000000000000000000005f52602260045260245ffd5b5f60028204905060018216806101f957607f821691505b60208210810361020c5761020b6101b5565b5b50919050565b5f819050815f5260205f209050919050565b5f6020601f8301049050919050565b5f82821b905092915050565b5f6008830261026e7fffffffffffffffffffffffffffffffffffffffffffffffffffffffffffffffff82610233565b6102788683610233565b95508019841693508086168417925050509392505050565b5f819050919050565b5f819050919050565b5f6102bc6102b76102b284610290565b610299565b610290565b9050919050565b5f819050919050565b6102d5836102a2565b6102e96102e1826102c3565b84845461023f565b825550505050565b5f90565b6102fd6102f1565b6103088184846102cc565b505050565b5b8181101561032b576103205f826102f5565b60018101905061030e565b5050565b601f8211156103705761034181610212565b61034a84610224565b81016020851015610359578190505b61036d61036585610224565b83018261030d565b50505b505050565b5f82821c905092915050565b5f6103905f1984600802610375565b1980831691505092915050565b5f6103a88383610381565b9150826002028217905092915050565b6103c18261017e565b67ffffffffffffffff8111156103da576103d9610188565b5b6103e482546101e2565b6103ef82828561032f565b5f60209050601f831160018114610420575f841561040e578287015190505b610418858261039d565b86555061047f565b601f19841661042e86610212565b5f5b8281101561045557848901518255600182019150602085019450602081019050610430565b86831015610472578489015161046e601f891682610381565b8355505b6001600288020188555050505b505050505050565b610e06806104945f395ff3fe608060405234801561000f575f80fd5b506004361061009c575f3560e01c80639a83e3ec116100645780639a83e3ec1461017e578063c8d915e61461019a578063e52b008f146101ca578063e990585e146101e6578063eaaefa96146102025761009c565b806320716f88146100a05780634cb59eb2146100d057806354bb4274146101025780637a088a2e1461013257806389553d4614610162575b5f80fd5b6100ba60048036038101906100b5919061085a565b610234565b6040516100c791906108c3565b60405180910390f35b6100ea60048036038101906100e591906108dc565b610277565b6040516100f993929190610967565b60405180910390f35b61011c600480360381019061011791906108dc565b6103b8565b60405161012991906108c3565b60405180910390f35b61014c60048036038101906101479190610a04565b6103d8565b60405161015991906108c3565b60405180910390f35b61017c6004803603810190610177919061085a565b6103ed565b005b61019860048036038101906101939190610a2f565b610433565b005b6101b460048036038101906101af91906108dc565b6104b6565b6040516101c191906108c3565b60405180910390f35b6101e460048036038101906101df91906108dc565b6104cf565b005b61020060048036038101906101fb9190610a2f565b610514565b005b61021c60048036038101906102179190610a04565b6105a8565b60405161022b93929190610967565b60405180910390f35b600b828051602081018201805184825260208301602085012081835280955050505050508181548110610265575f80fd5b905f5260205f20015f91509150505481565b60098181548110610286575f80fd5b905f5260205f2090600302015f91509050805f0154908060010180546102ab90610ae4565b80601f01602080910402602001604051908101604052809291908181526020018280546102d790610ae4565b80156103225780601f106102f957610100808354040283529160200191610322565b820191905f5260205f20905b81548152906001019060200180831161030557829003601f168201915b50505050509080600201805461033790610ae4565b80601f016020809104026020016040519081016040528092919081815260200182805461036390610ae4565b80156103ae5780601f10610385576101008083540402835291602001916103ae565b820191905f5260205f20905b81548152906001019060200180831161039157829003601f168201915b5050505050905083565b600881815481106103c7575f80fd5b905f5260205f20015f915090505481565b600a602052805f5260405f205f915090505481565b600b826040516103fd9190610b4e565b908152602001604051809103902081908060018154018082558091505060019003905f5260205f20015f90919091909150555050565b5f6040518060600160405280858152602001848152602001838152509050600981908060018154018082558091505060019003905f5260205f2090600302015f909190919091505f820151815f015560208201518160010190816104979190610d01565b5060408201518160020190816104ad9190610d01565b50505050505050565b600381600581106104c5575f80fd5b015f915090505481565b80600a5f3373ffffffffffffffffffffffffffffffffffffffff1673ffffffffffffffffffffffffffffffffffffffff1681526020019081526020015f208190555050565b604051806060016040528084815260200183815260200182815250600c5f3373ffffffffffffffffffffffffffffffffffffffff1673ffffffffffffffffffffffffffffffffffffffff1681526020019081526020015f205f820151815f015560208201518160010190816105899190610d01565b50604082015181600201908161059f9190610d01565b50905050505050565b600c602052805f5260405f205f91509050805f0154908060010180546105cd90610ae4565b80601f01602080910402602001604051908101604052809291908181526020018280546105f990610ae4565b80156106445780601f1061061b57610100808354040283529160200191610644565b820191905f5260205f20905b81548152906001019060200180831161062757829003601f168201915b50505050509080600201805461065990610ae4565b80601f016020809104026020016040519081016040528092919081815260200182805461068590610ae4565b80156106d05780601f106106a7576101008083540402835291602001916106d0565b820191905f5260205f20905b8154815290600101906020018083116106b357829003601f168201915b5050505050905083565b5f604051905090565b5f80fd5b5f80fd5b5f80fd5b5f80fd5b5f601f19601f8301169050919050565b7f4e487b71000000000000000000000000000000000000000000000000000000005f52604160045260245ffd5b610739826106f3565b810181811067ffffffffffffffff8211171561075857610757610703565b5b80604052505050565b5f61076a6106da565b90506107768282610730565b919050565b5f67ffffffffffffffff82111561079557610794610703565b5b61079e826106f3565b9050602081019050919050565b828183375f83830152505050565b5f6107cb6107c68461077b565b610761565b9050828152602081018484840111156107e7576107e66106ef565b5b6107f28482856107ab565b509392505050565b5f82601f83011261080e5761080d6106eb565b5b813561081e8482602086016107b9565b91505092915050565b5f819050919050565b61083981610827565b8114610843575f80fd5b50565b5f8135905061085481610830565b92915050565b5f80604083850312156108705761086f6106e3565b5b5f83013567ffffffffffffffff81111561088d5761088c6106e7565b5b610899858286016107fa565b92505060206108aa85828601610846565b9150509250929050565b6108bd81610827565b82525050565b5f6020820190506108d65f8301846108b4565b92915050565b5f602082840312156108f1576108f06106e3565b5b5f6108fe84828501610846565b91505092915050565b5f81519050919050565b5f82825260208201905092915050565b8281835e5f83830152505050565b5f61093982610907565b6109438185610911565b9350610953818560208601610921565b61095c816106f3565b840191505092915050565b5f60608201905061097a5f8301866108b4565b818103602083015261098c818561092f565b905081810360408301526109a0818461092f565b9050949350505050565b5f73ffffffffffffffffffffffffffffffffffffffff82169050919050565b5f6109d3826109aa565b9050919050565b6109e3816109c9565b81146109ed575f80fd5b50565b5f813590506109fe816109da565b92915050565b5f60208284031215610a1957610a186106e3565b5b5f610a26848285016109f0565b91505092915050565b5f805f60608486031215610a4657610a456106e3565b5b5f610a5386828701610846565b935050602084013567ffffffffffffffff811115610a7457610a736106e7565b5b610a80868287016107fa565b925050604084013567ffffffffffffffff811115610aa157610aa06106e7565b5b610aad868287016107fa565b9150509250925092565b7f4e487b71000000000000000000000000000000000000000000000000000000005f52602260045260245ffd5b5f6002820490506001821680610afb57607f821691505b602082108103610b0e57610b0d610ab7565b5b50919050565b5f81905092915050565b5f610b2882610907565b610b328185610b14565b9350610b42818560208601610921565b80840191505092915050565b5f610b598284610b1e565b915081905092915050565b5f819050815f5260205f209050919050565b5f6020601f8301049050919050565b5f82821b905092915050565b5f60088302610bc07fffffffffffffffffffffffffffffffffffffffffffffffffffffffffffffffff82610b85565b610bca8683610b85565b95508019841693508086168417925050509392505050565b5f819050919050565b5f610c05610c00610bfb84610827565b610be2565b610827565b9050919050565b5f819050919050565b610c1e83610beb565b610c32610c2a82610c0c565b848454610b91565b825550505050565b5f90565b610c46610c3a565b610c51818484610c15565b505050565b5b81811015610c7457610c695f82610c3e565b600181019050610c57565b5050565b601f821115610cb957610c8a81610b64565b610c9384610b76565b81016020851015610ca2578190505b610cb6610cae85610b76565b830182610c56565b50505b505050565b5f82821c905092915050565b5f610cd95f1984600802610cbe565b1980831691505092915050565b5f610cf18383610cca565b9150826002028217905092915050565b610d0a82610907565b67ffffffffffffffff811115610d2357610d22610703565b5b610d2d8254610ae4565b610d38828285610c78565b5f60209050601f831160018114610d69575f8415610d57578287015190505b610d618582610ce6565b865550610dc8565b601f198416610d7786610b64565b5f5b82811015610d9e57848901518255600182019150602085019450602081019050610d79565b86831015610dbb5784890151610db7601f891682610cca565b8355505b6001600288020188555050505b50505050505056fea264697066735822122096281a39bf4455b818daea0dd604bca80702ab6a99df4d5a9528d83caaed9ce964736f6c634300081a0033",
					"opcodes": "PUSH1 0x80 PUSH1 0x40 MSTORE PUSH1 0x40 MLOAD DUP1 PUSH1 0x60 ADD PUSH1 0x40 MSTORE DUP1 PUSH1 0x1 DUP2 MSTORE PUSH1 0x20 ADD PUSH1 0x40 MLOAD DUP1 PUSH1 0x40 ADD PUSH1 0x40 MSTORE DUP1 PUSH1 0x4 DUP2 MSTORE PUSH1 0x20 ADD PUSH32 0x52656E6500000000000000000000000000000000000000000000000000000000 DUP2 MSTORE POP DUP2 MSTORE PUSH1 0x20 ADD PUSH1 0x40 MLOAD DUP1 PUSH1 0x40 ADD PUSH1 0x40 MSTORE DUP1 PUSH1 0x10 DUP2 MSTORE PUSH1 0x20 ADD PUSH32 0x72656E6540686F746D61696C2E636F6D00000000000000000000000000000000 DUP2 MSTORE POP DUP2 MSTORE POP PUSH0 DUP1 DUP3 ADD MLOAD DUP2 PUSH0 ADD SSTORE PUSH1 0x20 DUP3 ADD MLOAD DUP2 PUSH1 0x1 ADD SWAP1 DUP2 PUSH2 0xA8 SWAP2 SWAP1 PUSH2 0x3B8 JUMP JUMPDEST POP PUSH1 0x40 DUP3 ADD MLOAD DUP2 PUSH1 0x2 ADD SWAP1 DUP2 PUSH2 0xBE SWAP2 SWAP1 PUSH2 0x3B8 JUMP JUMPDEST POP POP POP PUSH1 0x40 MLOAD DUP1 PUSH1 0xA0 ADD PUSH1 0x40 MSTORE DUP1 PUSH1 0x2 PUSH1 0xFF AND DUP2 MSTORE PUSH1 0x20 ADD PUSH1 0x3 PUSH1 0xFF AND DUP2 MSTORE PUSH1 0x20 ADD PUSH1 0x5 PUSH1 0xFF AND DUP2 MSTORE PUSH1 0x20 ADD PUSH1 0x7 PUSH1 0xFF AND DUP2 MSTORE PUSH1 0x20 ADD PUSH1 0xB PUSH1 0xFF AND DUP2 MSTORE POP PUSH1 0x3 SWAP1 PUSH1 0x5 PUSH2 0x10C SWAP3 SWAP2 SWAP1 PUSH2 0x11E JUMP JUMPDEST POP CALLVALUE DUP1 ISZERO PUSH2 0x118 JUMPI PUSH0 DUP1 REVERT JUMPDEST POP PUSH2 0x487 JUMP JUMPDEST DUP3 PUSH1 0x5 DUP2 ADD SWAP3 DUP3 ISZERO PUSH2 0x152 JUMPI SWAP2 PUSH1 0x20 MUL DUP3 ADD JUMPDEST DUP3 DUP2 GT ISZERO PUSH2 0x151 JUMPI DUP3 MLOAD DUP3 SWAP1 PUSH1 0xFF AND SWAP1 SSTORE SWAP2 PUSH1 0x20 ADD SWAP2 SWAP1 PUSH1 0x1 ADD SWAP1 PUSH2 0x131 JUMP JUMPDEST JUMPDEST POP SWAP1 POP PUSH2 0x15F SWAP2 SWAP1 PUSH2 0x163 JUMP JUMPDEST POP SWAP1 JUMP JUMPDEST JUMPDEST DUP1 DUP3 GT ISZERO PUSH2 0x17A JUMPI PUSH0 DUP2 PUSH0 SWAP1 SSTORE POP PUSH1 0x1 ADD PUSH2 0x164 JUMP JUMPDEST POP SWAP1 JUMP JUMPDEST PUSH0 DUP2 MLOAD SWAP1 POP SWAP2 SWAP1 POP JUMP JUMPDEST PUSH32 0x4E487B7100000000000000000000000000000000000000000000000000000000 PUSH0 MSTORE PUSH1 0x41 PUSH1 0x4 MSTORE PUSH1 0x24 PUSH0 REVERT JUMPDEST PUSH32 0x4E487B7100000000000000000000000000000000000000000000000000000000 PUSH0 MSTORE PUSH1 0x22 PUSH1 0x4 MSTORE PUSH1 0x24 PUSH0 REVERT JUMPDEST PUSH0 PUSH1 0x2 DUP3 DIV SWAP1 POP PUSH1 0x1 DUP3 AND DUP1 PUSH2 0x1F9 JUMPI PUSH1 0x7F DUP3 AND SWAP2 POP JUMPDEST PUSH1 0x20 DUP3 LT DUP2 SUB PUSH2 0x20C JUMPI PUSH2 0x20B PUSH2 0x1B5 JUMP JUMPDEST JUMPDEST POP SWAP2 SWAP1 POP JUMP JUMPDEST PUSH0 DUP2 SWAP1 POP DUP2 PUSH0 MSTORE PUSH1 0x20 PUSH0 KECCAK256 SWAP1 POP SWAP2 SWAP1 POP JUMP JUMPDEST PUSH0 PUSH1 0x20 PUSH1 0x1F DUP4 ADD DIV SWAP1 POP SWAP2 SWAP1 POP JUMP JUMPDEST PUSH0 DUP3 DUP3 SHL SWAP1 POP SWAP3 SWAP2 POP POP JUMP JUMPDEST PUSH0 PUSH1 0x8 DUP4 MUL PUSH2 0x26E PUSH32 0xFFFFFFFFFFFFFFFFFFFFFFFFFFFFFFFFFFFFFFFFFFFFFFFFFFFFFFFFFFFFFFFF DUP3 PUSH2 0x233 JUMP JUMPDEST PUSH2 0x278 DUP7 DUP4 PUSH2 0x233 JUMP JUMPDEST SWAP6 POP DUP1 NOT DUP5 AND SWAP4 POP DUP1 DUP7 AND DUP5 OR SWAP3 POP POP POP SWAP4 SWAP3 POP POP POP JUMP JUMPDEST PUSH0 DUP2 SWAP1 POP SWAP2 SWAP1 POP JUMP JUMPDEST PUSH0 DUP2 SWAP1 POP SWAP2 SWAP1 POP JUMP JUMPDEST PUSH0 PUSH2 0x2BC PUSH2 0x2B7 PUSH2 0x2B2 DUP5 PUSH2 0x290 JUMP JUMPDEST PUSH2 0x299 JUMP JUMPDEST PUSH2 0x290 JUMP JUMPDEST SWAP1 POP SWAP2 SWAP1 POP JUMP JUMPDEST PUSH0 DUP2 SWAP1 POP SWAP2 SWAP1 POP JUMP JUMPDEST PUSH2 0x2D5 DUP4 PUSH2 0x2A2 JUMP JUMPDEST PUSH2 0x2E9 PUSH2 0x2E1 DUP3 PUSH2 0x2C3 JUMP JUMPDEST DUP5 DUP5 SLOAD PUSH2 0x23F JUMP JUMPDEST DUP3 SSTORE POP POP POP POP JUMP JUMPDEST PUSH0 SWAP1 JUMP JUMPDEST PUSH2 0x2FD PUSH2 0x2F1 JUMP JUMPDEST PUSH2 0x308 DUP2 DUP5 DUP5 PUSH2 0x2CC JUMP JUMPDEST POP POP POP JUMP JUMPDEST JUMPDEST DUP2 DUP2 LT ISZERO PUSH2 0x32B JUMPI PUSH2 0x320 PUSH0 DUP3 PUSH2 0x2F5 JUMP JUMPDEST PUSH1 0x1 DUP2 ADD SWAP1 POP PUSH2 0x30E JUMP JUMPDEST POP POP JUMP JUMPDEST PUSH1 0x1F DUP3 GT ISZERO PUSH2 0x370 JUMPI PUSH2 0x341 DUP2 PUSH2 0x212 JUMP JUMPDEST PUSH2 0x34A DUP5 PUSH2 0x224 JUMP JUMPDEST DUP2 ADD PUSH1 0x20 DUP6 LT ISZERO PUSH2 0x359 JUMPI DUP2 SWAP1 POP JUMPDEST PUSH2 0x36D PUSH2 0x365 DUP6 PUSH2 0x224 JUMP JUMPDEST DUP4 ADD DUP3 PUSH2 0x30D JUMP JUMPDEST POP POP JUMPDEST POP POP POP JUMP JUMPDEST PUSH0 DUP3 DUP3 SHR SWAP1 POP SWAP3 SWAP2 POP POP JUMP JUMPDEST PUSH0 PUSH2 0x390 PUSH0 NOT DUP5 PUSH1 0x8 MUL PUSH2 0x375 JUMP JUMPDEST NOT DUP1 DUP4 AND SWAP2 POP POP SWAP3 SWAP2 POP POP JUMP JUMPDEST PUSH0 PUSH2 0x3A8 DUP4 DUP4 PUSH2 0x381 JUMP JUMPDEST SWAP2 POP DUP3 PUSH1 0x2 MUL DUP3 OR SWAP1 POP SWAP3 SWAP2 POP POP JUMP JUMPDEST PUSH2 0x3C1 DUP3 PUSH2 0x17E JUMP JUMPDEST PUSH8 0xFFFFFFFFFFFFFFFF DUP2 GT ISZERO PUSH2 0x3DA JUMPI PUSH2 0x3D9 PUSH2 0x188 JUMP JUMPDEST JUMPDEST PUSH2 0x3E4 DUP3 SLOAD PUSH2 0x1E2 JUMP JUMPDEST PUSH2 0x3EF DUP3 DUP3 DUP6 PUSH2 0x32F JUMP JUMPDEST PUSH0 PUSH1 0x20 SWAP1 POP PUSH1 0x1F DUP4 GT PUSH1 0x1 DUP2 EQ PUSH2 0x420 JUMPI PUSH0 DUP5 ISZERO PUSH2 0x40E JUMPI DUP3 DUP8 ADD MLOAD SWAP1 POP JUMPDEST PUSH2 0x418 DUP6 DUP3 PUSH2 0x39D JUMP JUMPDEST DUP7 SSTORE POP PUSH2 0x47F JUMP JUMPDEST PUSH1 0x1F NOT DUP5 AND PUSH2 0x42E DUP7 PUSH2 0x212 JUMP JUMPDEST PUSH0 JUMPDEST DUP3 DUP2 LT ISZERO PUSH2 0x455 JUMPI DUP5 DUP10 ADD MLOAD DUP3 SSTORE PUSH1 0x1 DUP3 ADD SWAP2 POP PUSH1 0x20 DUP6 ADD SWAP5 POP PUSH1 0x20 DUP2 ADD SWAP1 POP PUSH2 0x430 JUMP JUMPDEST DUP7 DUP4 LT ISZERO PUSH2 0x472 JUMPI DUP5 DUP10 ADD MLOAD PUSH2 0x46E PUSH1 0x1F DUP10 AND DUP3 PUSH2 0x381 JUMP JUMPDEST DUP4 SSTORE POP JUMPDEST PUSH1 0x1 PUSH1 0x2 DUP9 MUL ADD DUP9 SSTORE POP POP POP JUMPDEST POP POP POP POP POP POP JUMP JUMPDEST PUSH2 0xE06 DUP1 PUSH2 0x494 PUSH0 CODECOPY PUSH0 RETURN INVALID PUSH1 0x80 PUSH1 0x40 MSTORE CALLVALUE DUP1 ISZERO PUSH2 0xF JUMPI PUSH0 DUP1 REVERT JUMPDEST POP PUSH1 0x4 CALLDATASIZE LT PUSH2 0x9C JUMPI PUSH0 CALLDATALOAD PUSH1 0xE0 SHR DUP1 PUSH4 0x9A83E3EC GT PUSH2 0x64 JUMPI DUP1 PUSH4 0x9A83E3EC EQ PUSH2 0x17E JUMPI DUP1 PUSH4 0xC8D915E6 EQ PUSH2 0x19A JUMPI DUP1 PUSH4 0xE52B008F EQ PUSH2 0x1CA JUMPI DUP1 PUSH4 0xE990585E EQ PUSH2 0x1E6 JUMPI DUP1 PUSH4 0xEAAEFA96 EQ PUSH2 0x202 JUMPI PUSH2 0x9C JUMP JUMPDEST DUP1 PUSH4 0x20716F88 EQ PUSH2 0xA0 JUMPI DUP1 PUSH4 0x4CB59EB2 EQ PUSH2 0xD0 JUMPI DUP1 PUSH4 0x54BB4274 EQ PUSH2 0x102 JUMPI DUP1 PUSH4 0x7A088A2E EQ PUSH2 0x132 JUMPI DUP1 PUSH4 0x89553D46 EQ PUSH2 0x162 JUMPI JUMPDEST PUSH0 DUP1 REVERT JUMPDEST PUSH2 0xBA PUSH1 0x4 DUP1 CALLDATASIZE SUB DUP2 ADD SWAP1 PUSH2 0xB5 SWAP2 SWAP1 PUSH2 0x85A JUMP JUMPDEST PUSH2 0x234 JUMP JUMPDEST PUSH1 0x40 MLOAD PUSH2 0xC7 SWAP2 SWAP1 PUSH2 0x8C3 JUMP JUMPDEST PUSH1 0x40 MLOAD DUP1 SWAP2 SUB SWAP1 RETURN JUMPDEST PUSH2 0xEA PUSH1 0x4 DUP1 CALLDATASIZE SUB DUP2 ADD SWAP1 PUSH2 0xE5 SWAP2 SWAP1 PUSH2 0x8DC JUMP JUMPDEST PUSH2 0x277 JUMP JUMPDEST PUSH1 0x40 MLOAD PUSH2 0xF9 SWAP4 SWAP3 SWAP2 SWAP1 PUSH2 0x967 JUMP JUMPDEST PUSH1 0x40 MLOAD DUP1 SWAP2 SUB SWAP1 RETURN JUMPDEST PUSH2 0x11C PUSH1 0x4 DUP1 CALLDATASIZE SUB DUP2 ADD SWAP1 PUSH2 0x117 SWAP2 SWAP1 PUSH2 0x8DC JUMP JUMPDEST PUSH2 0x3B8 JUMP JUMPDEST PUSH1 0x40 MLOAD PUSH2 0x129 SWAP2 SWAP1 PUSH2 0x8C3 JUMP JUMPDEST PUSH1 0x40 MLOAD DUP1 SWAP2 SUB SWAP1 RETURN JUMPDEST PUSH2 0x14C PUSH1 0x4 DUP1 CALLDATASIZE SUB DUP2 ADD SWAP1 PUSH2 0x147 SWAP2 SWAP1 PUSH2 0xA04 JUMP JUMPDEST PUSH2 0x3D8 JUMP JUMPDEST PUSH1 0x40 MLOAD PUSH2 0x159 SWAP2 SWAP1 PUSH2 0x8C3 JUMP JUMPDEST PUSH1 0x40 MLOAD DUP1 SWAP2 SUB SWAP1 RETURN JUMPDEST PUSH2 0x17C PUSH1 0x4 DUP1 CALLDATASIZE SUB DUP2 ADD SWAP1 PUSH2 0x177 SWAP2 SWAP1 PUSH2 0x85A JUMP JUMPDEST PUSH2 0x3ED JUMP JUMPDEST STOP JUMPDEST PUSH2 0x198 PUSH1 0x4 DUP1 CALLDATASIZE SUB DUP2 ADD SWAP1 PUSH2 0x193 SWAP2 SWAP1 PUSH2 0xA2F JUMP JUMPDEST PUSH2 0x433 JUMP JUMPDEST STOP JUMPDEST PUSH2 0x1B4 PUSH1 0x4 DUP1 CALLDATASIZE SUB DUP2 ADD SWAP1 PUSH2 0x1AF SWAP2 SWAP1 PUSH2 0x8DC JUMP JUMPDEST PUSH2 0x4B6 JUMP JUMPDEST PUSH1 0x40 MLOAD PUSH2 0x1C1 SWAP2 SWAP1 PUSH2 0x8C3 JUMP JUMPDEST PUSH1 0x40 MLOAD DUP1 SWAP2 SUB SWAP1 RETURN JUMPDEST PUSH2 0x1E4 PUSH1 0x4 DUP1 CALLDATASIZE SUB DUP2 ADD SWAP1 PUSH2 0x1DF SWAP2 SWAP1 PUSH2 0x8DC JUMP JUMPDEST PUSH2 0x4CF JUMP JUMPDEST STOP JUMPDEST PUSH2 0x200 PUSH1 0x4 DUP1 CALLDATASIZE SUB DUP2 ADD SWAP1 PUSH2 0x1FB SWAP2 SWAP1 PUSH2 0xA2F JUMP JUMPDEST PUSH2 0x514 JUMP JUMPDEST STOP JUMPDEST PUSH2 0x21C PUSH1 0x4 DUP1 CALLDATASIZE SUB DUP2 ADD SWAP1 PUSH2 0x217 SWAP2 SWAP1 PUSH2 0xA04 JUMP JUMPDEST PUSH2 0x5A8 JUMP JUMPDEST PUSH1 0x40 MLOAD PUSH2 0x22B SWAP4 SWAP3 SWAP2 SWAP1 PUSH2 0x967 JUMP JUMPDEST PUSH1 0x40 MLOAD DUP1 SWAP2 SUB SWAP1 RETURN JUMPDEST PUSH1 0xB DUP3 DUP1 MLOAD PUSH1 0x20 DUP2 ADD DUP3 ADD DUP1 MLOAD DUP5 DUP3 MSTORE PUSH1 0x20 DUP4 ADD PUSH1 0x20 DUP6 ADD KECCAK256 DUP2 DUP4 MSTORE DUP1 SWAP6 POP POP POP POP POP POP DUP2 DUP2 SLOAD DUP2 LT PUSH2 0x265 JUMPI PUSH0 DUP1 REVERT JUMPDEST SWAP1 PUSH0 MSTORE PUSH1 0x20 PUSH0 KECCAK256 ADD PUSH0 SWAP2 POP SWAP2 POP POP SLOAD DUP2 JUMP JUMPDEST PUSH1 0x9 DUP2 DUP2 SLOAD DUP2 LT PUSH2 0x286 JUMPI PUSH0 DUP1 REVERT JUMPDEST SWAP1 PUSH0 MSTORE PUSH1 0x20 PUSH0 KECCAK256 SWAP1 PUSH1 0x3 MUL ADD PUSH0 SWAP2 POP SWAP1 POP DUP1 PUSH0 ADD SLOAD SWAP1 DUP1 PUSH1 0x1 ADD DUP1 SLOAD PUSH2 0x2AB SWAP1 PUSH2 0xAE4 JUMP JUMPDEST DUP1 PUSH1 0x1F ADD PUSH1 0x20 DUP1 SWAP2 DIV MUL PUSH1 0x20 ADD PUSH1 0x40 MLOAD SWAP1 DUP2 ADD PUSH1 0x40 MSTORE DUP1 SWAP3 SWAP2 SWAP1 DUP2 DUP2 MSTORE PUSH1 0x20 ADD DUP3 DUP1 SLOAD PUSH2 0x2D7 SWAP1 PUSH2 0xAE4 JUMP JUMPDEST DUP1 ISZERO PUSH2 0x322 JUMPI DUP1 PUSH1 0x1F LT PUSH2 0x2F9 JUMPI PUSH2 0x100 DUP1 DUP4 SLOAD DIV MUL DUP4 MSTORE SWAP2 PUSH1 0x20 ADD SWAP2 PUSH2 0x322 JUMP JUMPDEST DUP3 ADD SWAP2 SWAP1 PUSH0 MSTORE PUSH1 0x20 PUSH0 KECCAK256 SWAP1 JUMPDEST DUP2 SLOAD DUP2 MSTORE SWAP1 PUSH1 0x1 ADD SWAP1 PUSH1 0x20 ADD DUP1 DUP4 GT PUSH2 0x305 JUMPI DUP3 SWAP1 SUB PUSH1 0x1F AND DUP3 ADD SWAP2 JUMPDEST POP POP POP POP POP SWAP1 DUP1 PUSH1 0x2 ADD DUP1 SLOAD PUSH2 0x337 SWAP1 PUSH2 0xAE4 JUMP JUMPDEST DUP1 PUSH1 0x1F ADD PUSH1 0x20 DUP1 SWAP2 DIV MUL PUSH1 0x20 ADD PUSH1 0x40 MLOAD SWAP1 DUP2 ADD PUSH1 0x40 MSTORE DUP1 SWAP3 SWAP2 SWAP1 DUP2 DUP2 MSTORE PUSH1 0x20 ADD DUP3 DUP1 SLOAD PUSH2 0x363 SWAP1 PUSH2 0xAE4 JUMP JUMPDEST DUP1 ISZERO PUSH2 0x3AE JUMPI DUP1 PUSH1 0x1F LT PUSH2 0x385 JUMPI PUSH2 0x100 DUP1 DUP4 SLOAD DIV MUL DUP4 MSTORE SWAP2 PUSH1 0x20 ADD SWAP2 PUSH2 0x3AE JUMP JUMPDEST DUP3 ADD SWAP2 SWAP1 PUSH0 MSTORE PUSH1 0x20 PUSH0 KECCAK256 SWAP1 JUMPDEST DUP2 SLOAD DUP2 MSTORE SWAP1 PUSH1 0x1 ADD SWAP1 PUSH1 0x20 ADD DUP1 DUP4 GT PUSH2 0x391 JUMPI DUP3 SWAP1 SUB PUSH1 0x1F AND DUP3 ADD SWAP2 JUMPDEST POP POP POP POP POP SWAP1 POP DUP4 JUMP JUMPDEST PUSH1 0x8 DUP2 DUP2 SLOAD DUP2 LT PUSH2 0x3C7 JUMPI PUSH0 DUP1 REVERT JUMPDEST SWAP1 PUSH0 MSTORE PUSH1 0x20 PUSH0 KECCAK256 ADD PUSH0 SWAP2 POP SWAP1 POP SLOAD DUP2 JUMP JUMPDEST PUSH1 0xA PUSH1 0x20 MSTORE DUP1 PUSH0 MSTORE PUSH1 0x40 PUSH0 KECCAK256 PUSH0 SWAP2 POP SWAP1 POP SLOAD DUP2 JUMP JUMPDEST PUSH1 0xB DUP3 PUSH1 0x40 MLOAD PUSH2 0x3FD SWAP2 SWAP1 PUSH2 0xB4E JUMP JUMPDEST SWAP1 DUP2 MSTORE PUSH1 0x20 ADD PUSH1 0x40 MLOAD DUP1 SWAP2 SUB SWAP1 KECCAK256 DUP2 SWAP1 DUP1 PUSH1 0x1 DUP2 SLOAD ADD DUP1 DUP3 SSTORE DUP1 SWAP2 POP POP PUSH1 0x1 SWAP1 SUB SWAP1 PUSH0 MSTORE PUSH1 0x20 PUSH0 KECCAK256 ADD PUSH0 SWAP1 SWAP2 SWAP1 SWAP2 SWAP1 SWAP2 POP SSTORE POP POP JUMP JUMPDEST PUSH0 PUSH1 0x40 MLOAD DUP1 PUSH1 0x60 ADD PUSH1 0x40 MSTORE DUP1 DUP6 DUP2 MSTORE PUSH1 0x20 ADD DUP5 DUP2 MSTORE PUSH1 0x20 ADD DUP4 DUP2 MSTORE POP SWAP1 POP PUSH1 0x9 DUP2 SWAP1 DUP1 PUSH1 0x1 DUP2 SLOAD ADD DUP1 DUP3 SSTORE DUP1 SWAP2 POP POP PUSH1 0x1 SWAP1 SUB SWAP1 PUSH0 MSTORE PUSH1 0x20 PUSH0 KECCAK256 SWAP1 PUSH1 0x3 MUL ADD PUSH0 SWAP1 SWAP2 SWAP1 SWAP2 SWAP1 SWAP2 POP PUSH0 DUP3 ADD MLOAD DUP2 PUSH0 ADD SSTORE PUSH1 0x20 DUP3 ADD MLOAD DUP2 PUSH1 0x1 ADD SWAP1 DUP2 PUSH2 0x497 SWAP2 SWAP1 PUSH2 0xD01 JUMP JUMPDEST POP PUSH1 0x40 DUP3 ADD MLOAD DUP2 PUSH1 0x2 ADD SWAP1 DUP2 PUSH2 0x4AD SWAP2 SWAP1 PUSH2 0xD01 JUMP JUMPDEST POP POP POP POP POP POP POP JUMP JUMPDEST PUSH1 0x3 DUP2 PUSH1 0x5 DUP2 LT PUSH2 0x4C5 JUMPI PUSH0 DUP1 REVERT JUMPDEST ADD PUSH0 SWAP2 POP SWAP1 POP SLOAD DUP2 JUMP JUMPDEST DUP1 PUSH1 0xA PUSH0 CALLER PUSH20 0xFFFFFFFFFFFFFFFFFFFFFFFFFFFFFFFFFFFFFFFF AND PUSH20 0xFFFFFFFFFFFFFFFFFFFFFFFFFFFFFFFFFFFFFFFF AND DUP2 MSTORE PUSH1 0x20 ADD SWAP1 DUP2 MSTORE PUSH1 0x20 ADD PUSH0 KECCAK256 DUP2 SWAP1 SSTORE POP POP JUMP JUMPDEST PUSH1 0x40 MLOAD DUP1 PUSH1 0x60 ADD PUSH1 0x40 MSTORE DUP1 DUP5 DUP2 MSTORE PUSH1 0x20 ADD DUP4 DUP2 MSTORE PUSH1 0x20 ADD DUP3 DUP2 MSTORE POP PUSH1 0xC PUSH0 CALLER PUSH20 0xFFFFFFFFFFFFFFFFFFFFFFFFFFFFFFFFFFFFFFFF AND PUSH20 0xFFFFFFFFFFFFFFFFFFFFFFFFFFFFFFFFFFFFFFFF AND DUP2 MSTORE PUSH1 0x20 ADD SWAP1 DUP2 MSTORE PUSH1 0x20 ADD PUSH0 KECCAK256 PUSH0 DUP3 ADD MLOAD DUP2 PUSH0 ADD SSTORE PUSH1 0x20 DUP3 ADD MLOAD DUP2 PUSH1 0x1 ADD SWAP1 DUP2 PUSH2 0x589 SWAP2 SWAP1 PUSH2 0xD01 JUMP JUMPDEST POP PUSH1 0x40 DUP3 ADD MLOAD DUP2 PUSH1 0x2 ADD SWAP1 DUP2 PUSH2 0x59F SWAP2 SWAP1 PUSH2 0xD01 JUMP JUMPDEST POP SWAP1 POP POP POP POP POP JUMP JUMPDEST PUSH1 0xC PUSH1 0x20 MSTORE DUP1 PUSH0 MSTORE PUSH1 0x40 PUSH0 KECCAK256 PUSH0 SWAP2 POP SWAP1 POP DUP1 PUSH0 ADD SLOAD SWAP1 DUP1 PUSH1 0x1 ADD DUP1 SLOAD PUSH2 0x5CD SWAP1 PUSH2 0xAE4 JUMP JUMPDEST DUP1 PUSH1 0x1F ADD PUSH1 0x20 DUP1 SWAP2 DIV MUL PUSH1 0x20 ADD PUSH1 0x40 MLOAD SWAP1 DUP2 ADD PUSH1 0x40 MSTORE DUP1 SWAP3 SWAP2 SWAP1 DUP2 DUP2 MSTORE PUSH1 0x20 ADD DUP3 DUP1 SLOAD PUSH2 0x5F9 SWAP1 PUSH2 0xAE4 JUMP JUMPDEST DUP1 ISZERO PUSH2 0x644 JUMPI DUP1 PUSH1 0x1F LT PUSH2 0x61B JUMPI PUSH2 0x100 DUP1 DUP4 SLOAD DIV MUL DUP4 MSTORE SWAP2 PUSH1 0x20 ADD SWAP2 PUSH2 0x644 JUMP JUMPDEST DUP3 ADD SWAP2 SWAP1 PUSH0 MSTORE PUSH1 0x20 PUSH0 KECCAK256 SWAP1 JUMPDEST DUP2 SLOAD DUP2 MSTORE SWAP1 PUSH1 0x1 ADD SWAP1 PUSH1 0x20 ADD DUP1 DUP4 GT PUSH2 0x627 JUMPI DUP3 SWAP1 SUB PUSH1 0x1F AND DUP3 ADD SWAP2 JUMPDEST POP POP POP POP POP SWAP1 DUP1 PUSH1 0x2 ADD DUP1 SLOAD PUSH2 0x659 SWAP1 PUSH2 0xAE4 JUMP JUMPDEST DUP1 PUSH1 0x1F ADD PUSH1 0x20 DUP1 SWAP2 DIV MUL PUSH1 0x20 ADD PUSH1 0x40 MLOAD SWAP1 DUP2 ADD PUSH1 0x40 MSTORE DUP1 SWAP3 SWAP2 SWAP1 DUP2 DUP2 MSTORE PUSH1 0x20 ADD DUP3 DUP1 SLOAD PUSH2 0x685 SWAP1 PUSH2 0xAE4 JUMP JUMPDEST DUP1 ISZERO PUSH2 0x6D0 JUMPI DUP1 PUSH1 0x1F LT PUSH2 0x6A7 JUMPI PUSH2 0x100 DUP1 DUP4 SLOAD DIV MUL DUP4 MSTORE SWAP2 PUSH1 0x20 ADD SWAP2 PUSH2 0x6D0 JUMP JUMPDEST DUP3 ADD SWAP2 SWAP1 PUSH0 MSTORE PUSH1 0x20 PUSH0 KECCAK256 SWAP1 JUMPDEST DUP2 SLOAD DUP2 MSTORE SWAP1 PUSH1 0x1 ADD SWAP1 PUSH1 0x20 ADD DUP1 DUP4 GT PUSH2 0x6B3 JUMPI DUP3 SWAP1 SUB PUSH1 0x1F AND DUP3 ADD SWAP2 JUMPDEST POP POP POP POP POP SWAP1 POP DUP4 JUMP JUMPDEST PUSH0 PUSH1 0x40 MLOAD SWAP1 POP SWAP1 JUMP JUMPDEST PUSH0 DUP1 REVERT JUMPDEST PUSH0 DUP1 REVERT JUMPDEST PUSH0 DUP1 REVERT JUMPDEST PUSH0 DUP1 REVERT JUMPDEST PUSH0 PUSH1 0x1F NOT PUSH1 0x1F DUP4 ADD AND SWAP1 POP SWAP2 SWAP1 POP JUMP JUMPDEST PUSH32 0x4E487B7100000000000000000000000000000000000000000000000000000000 PUSH0 MSTORE PUSH1 0x41 PUSH1 0x4 MSTORE PUSH1 0x24 PUSH0 REVERT JUMPDEST PUSH2 0x739 DUP3 PUSH2 0x6F3 JUMP JUMPDEST DUP2 ADD DUP2 DUP2 LT PUSH8 0xFFFFFFFFFFFFFFFF DUP3 GT OR ISZERO PUSH2 0x758 JUMPI PUSH2 0x757 PUSH2 0x703 JUMP JUMPDEST JUMPDEST DUP1 PUSH1 0x40 MSTORE POP POP POP JUMP JUMPDEST PUSH0 PUSH2 0x76A PUSH2 0x6DA JUMP JUMPDEST SWAP1 POP PUSH2 0x776 DUP3 DUP3 PUSH2 0x730 JUMP JUMPDEST SWAP2 SWAP1 POP JUMP JUMPDEST PUSH0 PUSH8 0xFFFFFFFFFFFFFFFF DUP3 GT ISZERO PUSH2 0x795 JUMPI PUSH2 0x794 PUSH2 0x703 JUMP JUMPDEST JUMPDEST PUSH2 0x79E DUP3 PUSH2 0x6F3 JUMP JUMPDEST SWAP1 POP PUSH1 0x20 DUP2 ADD SWAP1 POP SWAP2 SWAP1 POP JUMP JUMPDEST DUP3 DUP2 DUP4 CALLDATACOPY PUSH0 DUP4 DUP4 ADD MSTORE POP POP POP JUMP JUMPDEST PUSH0 PUSH2 0x7CB PUSH2 0x7C6 DUP5 PUSH2 0x77B JUMP JUMPDEST PUSH2 0x761 JUMP JUMPDEST SWAP1 POP DUP3 DUP2 MSTORE PUSH1 0x20 DUP2 ADD DUP5 DUP5 DUP5 ADD GT ISZERO PUSH2 0x7E7 JUMPI PUSH2 0x7E6 PUSH2 0x6EF JUMP JUMPDEST JUMPDEST PUSH2 0x7F2 DUP5 DUP3 DUP6 PUSH2 0x7AB JUMP JUMPDEST POP SWAP4 SWAP3 POP POP POP JUMP JUMPDEST PUSH0 DUP3 PUSH1 0x1F DUP4 ADD SLT PUSH2 0x80E JUMPI PUSH2 0x80D PUSH2 0x6EB JUMP JUMPDEST JUMPDEST DUP2 CALLDATALOAD PUSH2 0x81E DUP5 DUP3 PUSH1 0x20 DUP7 ADD PUSH2 0x7B9 JUMP JUMPDEST SWAP2 POP POP SWAP3 SWAP2 POP POP JUMP JUMPDEST PUSH0 DUP2 SWAP1 POP SWAP2 SWAP1 POP JUMP JUMPDEST PUSH2 0x839 DUP2 PUSH2 0x827 JUMP JUMPDEST DUP2 EQ PUSH2 0x843 JUMPI PUSH0 DUP1 REVERT JUMPDEST POP JUMP JUMPDEST PUSH0 DUP2 CALLDATALOAD SWAP1 POP PUSH2 0x854 DUP2 PUSH2 0x830 JUMP JUMPDEST SWAP3 SWAP2 POP POP JUMP JUMPDEST PUSH0 DUP1 PUSH1 0x40 DUP4 DUP6 SUB SLT ISZERO PUSH2 0x870 JUMPI PUSH2 0x86F PUSH2 0x6E3 JUMP JUMPDEST JUMPDEST PUSH0 DUP4 ADD CALLDATALOAD PUSH8 0xFFFFFFFFFFFFFFFF DUP2 GT ISZERO PUSH2 0x88D JUMPI PUSH2 0x88C PUSH2 0x6E7 JUMP JUMPDEST JUMPDEST PUSH2 0x899 DUP6 DUP3 DUP7 ADD PUSH2 0x7FA JUMP JUMPDEST SWAP3 POP POP PUSH1 0x20 PUSH2 0x8AA DUP6 DUP3 DUP7 ADD PUSH2 0x846 JUMP JUMPDEST SWAP2 POP POP SWAP3 POP SWAP3 SWAP1 POP JUMP JUMPDEST PUSH2 0x8BD DUP2 PUSH2 0x827 JUMP JUMPDEST DUP3 MSTORE POP POP JUMP JUMPDEST PUSH0 PUSH1 0x20 DUP3 ADD SWAP1 POP PUSH2 0x8D6 PUSH0 DUP4 ADD DUP5 PUSH2 0x8B4 JUMP JUMPDEST SWAP3 SWAP2 POP POP JUMP JUMPDEST PUSH0 PUSH1 0x20 DUP3 DUP5 SUB SLT ISZERO PUSH2 0x8F1 JUMPI PUSH2 0x8F0 PUSH2 0x6E3 JUMP JUMPDEST JUMPDEST PUSH0 PUSH2 0x8FE DUP5 DUP3 DUP6 ADD PUSH2 0x846 JUMP JUMPDEST SWAP2 POP POP SWAP3 SWAP2 POP POP JUMP JUMPDEST PUSH0 DUP2 MLOAD SWAP1 POP SWAP2 SWAP1 POP JUMP JUMPDEST PUSH0 DUP3 DUP3 MSTORE PUSH1 0x20 DUP3 ADD SWAP1 POP SWAP3 SWAP2 POP POP JUMP JUMPDEST DUP3 DUP2 DUP4 MCOPY PUSH0 DUP4 DUP4 ADD MSTORE POP POP POP JUMP JUMPDEST PUSH0 PUSH2 0x939 DUP3 PUSH2 0x907 JUMP JUMPDEST PUSH2 0x943 DUP2 DUP6 PUSH2 0x911 JUMP JUMPDEST SWAP4 POP PUSH2 0x953 DUP2 DUP6 PUSH1 0x20 DUP7 ADD PUSH2 0x921 JUMP JUMPDEST PUSH2 0x95C DUP2 PUSH2 0x6F3 JUMP JUMPDEST DUP5 ADD SWAP2 POP POP SWAP3 SWAP2 POP POP JUMP JUMPDEST PUSH0 PUSH1 0x60 DUP3 ADD SWAP1 POP PUSH2 0x97A PUSH0 DUP4 ADD DUP7 PUSH2 0x8B4 JUMP JUMPDEST DUP2 DUP2 SUB PUSH1 0x20 DUP4 ADD MSTORE PUSH2 0x98C DUP2 DUP6 PUSH2 0x92F JUMP JUMPDEST SWAP1 POP DUP2 DUP2 SUB PUSH1 0x40 DUP4 ADD MSTORE PUSH2 0x9A0 DUP2 DUP5 PUSH2 0x92F JUMP JUMPDEST SWAP1 POP SWAP5 SWAP4 POP POP POP POP JUMP JUMPDEST PUSH0 PUSH20 0xFFFFFFFFFFFFFFFFFFFFFFFFFFFFFFFFFFFFFFFF DUP3 AND SWAP1 POP SWAP2 SWAP1 POP JUMP JUMPDEST PUSH0 PUSH2 0x9D3 DUP3 PUSH2 0x9AA JUMP JUMPDEST SWAP1 POP SWAP2 SWAP1 POP JUMP JUMPDEST PUSH2 0x9E3 DUP2 PUSH2 0x9C9 JUMP JUMPDEST DUP2 EQ PUSH2 0x9ED JUMPI PUSH0 DUP1 REVERT JUMPDEST POP JUMP JUMPDEST PUSH0 DUP2 CALLDATALOAD SWAP1 POP PUSH2 0x9FE DUP2 PUSH2 0x9DA JUMP JUMPDEST SWAP3 SWAP2 POP POP JUMP JUMPDEST PUSH0 PUSH1 0x20 DUP3 DUP5 SUB SLT ISZERO PUSH2 0xA19 JUMPI PUSH2 0xA18 PUSH2 0x6E3 JUMP JUMPDEST JUMPDEST PUSH0 PUSH2 0xA26 DUP5 DUP3 DUP6 ADD PUSH2 0x9F0 JUMP JUMPDEST SWAP2 POP POP SWAP3 SWAP2 POP POP JUMP JUMPDEST PUSH0 DUP1 PUSH0 PUSH1 0x60 DUP5 DUP7 SUB SLT ISZERO PUSH2 0xA46 JUMPI PUSH2 0xA45 PUSH2 0x6E3 JUMP JUMPDEST JUMPDEST PUSH0 PUSH2 0xA53 DUP7 DUP3 DUP8 ADD PUSH2 0x846 JUMP JUMPDEST SWAP4 POP POP PUSH1 0x20 DUP5 ADD CALLDATALOAD PUSH8 0xFFFFFFFFFFFFFFFF DUP2 GT ISZERO PUSH2 0xA74 JUMPI PUSH2 0xA73 PUSH2 0x6E7 JUMP JUMPDEST JUMPDEST PUSH2 0xA80 DUP7 DUP3 DUP8 ADD PUSH2 0x7FA JUMP JUMPDEST SWAP3 POP POP PUSH1 0x40 DUP5 ADD CALLDATALOAD PUSH8 0xFFFFFFFFFFFFFFFF DUP2 GT ISZERO PUSH2 0xAA1 JUMPI PUSH2 0xAA0 PUSH2 0x6E7 JUMP JUMPDEST JUMPDEST PUSH2 0xAAD DUP7 DUP3 DUP8 ADD PUSH2 0x7FA JUMP JUMPDEST SWAP2 POP POP SWAP3 POP SWAP3 POP SWAP3 JUMP JUMPDEST PUSH32 0x4E487B7100000000000000000000000000000000000000000000000000000000 PUSH0 MSTORE PUSH1 0x22 PUSH1 0x4 MSTORE PUSH1 0x24 PUSH0 REVERT JUMPDEST PUSH0 PUSH1 0x2 DUP3 DIV SWAP1 POP PUSH1 0x1 DUP3 AND DUP1 PUSH2 0xAFB JUMPI PUSH1 0x7F DUP3 AND SWAP2 POP JUMPDEST PUSH1 0x20 DUP3 LT DUP2 SUB PUSH2 0xB0E JUMPI PUSH2 0xB0D PUSH2 0xAB7 JUMP JUMPDEST JUMPDEST POP SWAP2 SWAP1 POP JUMP JUMPDEST PUSH0 DUP2 SWAP1 POP SWAP3 SWAP2 POP POP JUMP JUMPDEST PUSH0 PUSH2 0xB28 DUP3 PUSH2 0x907 JUMP JUMPDEST PUSH2 0xB32 DUP2 DUP6 PUSH2 0xB14 JUMP JUMPDEST SWAP4 POP PUSH2 0xB42 DUP2 DUP6 PUSH1 0x20 DUP7 ADD PUSH2 0x921 JUMP JUMPDEST DUP1 DUP5 ADD SWAP2 POP POP SWAP3 SWAP2 POP POP JUMP JUMPDEST PUSH0 PUSH2 0xB59 DUP3 DUP5 PUSH2 0xB1E JUMP JUMPDEST SWAP2 POP DUP2 SWAP1 POP SWAP3 SWAP2 POP POP JUMP JUMPDEST PUSH0 DUP2 SWAP1 POP DUP2 PUSH0 MSTORE PUSH1 0x20 PUSH0 KECCAK256 SWAP1 POP SWAP2 SWAP1 POP JUMP JUMPDEST PUSH0 PUSH1 0x20 PUSH1 0x1F DUP4 ADD DIV SWAP1 POP SWAP2 SWAP1 POP JUMP JUMPDEST PUSH0 DUP3 DUP3 SHL SWAP1 POP SWAP3 SWAP2 POP POP JUMP JUMPDEST PUSH0 PUSH1 0x8 DUP4 MUL PUSH2 0xBC0 PUSH32 0xFFFFFFFFFFFFFFFFFFFFFFFFFFFFFFFFFFFFFFFFFFFFFFFFFFFFFFFFFFFFFFFF DUP3 PUSH2 0xB85 JUMP JUMPDEST PUSH2 0xBCA DUP7 DUP4 PUSH2 0xB85 JUMP JUMPDEST SWAP6 POP DUP1 NOT DUP5 AND SWAP4 POP DUP1 DUP7 AND DUP5 OR SWAP3 POP POP POP SWAP4 SWAP3 POP POP POP JUMP JUMPDEST PUSH0 DUP2 SWAP1 POP SWAP2 SWAP1 POP JUMP JUMPDEST PUSH0 PUSH2 0xC05 PUSH2 0xC00 PUSH2 0xBFB DUP5 PUSH2 0x827 JUMP JUMPDEST PUSH2 0xBE2 JUMP JUMPDEST PUSH2 0x827 JUMP JUMPDEST SWAP1 POP SWAP2 SWAP1 POP JUMP JUMPDEST PUSH0 DUP2 SWAP1 POP SWAP2 SWAP1 POP JUMP JUMPDEST PUSH2 0xC1E DUP4 PUSH2 0xBEB JUMP JUMPDEST PUSH2 0xC32 PUSH2 0xC2A DUP3 PUSH2 0xC0C JUMP JUMPDEST DUP5 DUP5 SLOAD PUSH2 0xB91 JUMP JUMPDEST DUP3 SSTORE POP POP POP POP JUMP JUMPDEST PUSH0 SWAP1 JUMP JUMPDEST PUSH2 0xC46 PUSH2 0xC3A JUMP JUMPDEST PUSH2 0xC51 DUP2 DUP5 DUP5 PUSH2 0xC15 JUMP JUMPDEST POP POP POP JUMP JUMPDEST JUMPDEST DUP2 DUP2 LT ISZERO PUSH2 0xC74 JUMPI PUSH2 0xC69 PUSH0 DUP3 PUSH2 0xC3E JUMP JUMPDEST PUSH1 0x1 DUP2 ADD SWAP1 POP PUSH2 0xC57 JUMP JUMPDEST POP POP JUMP JUMPDEST PUSH1 0x1F DUP3 GT ISZERO PUSH2 0xCB9 JUMPI PUSH2 0xC8A DUP2 PUSH2 0xB64 JUMP JUMPDEST PUSH2 0xC93 DUP5 PUSH2 0xB76 JUMP JUMPDEST DUP2 ADD PUSH1 0x20 DUP6 LT ISZERO PUSH2 0xCA2 JUMPI DUP2 SWAP1 POP JUMPDEST PUSH2 0xCB6 PUSH2 0xCAE DUP6 PUSH2 0xB76 JUMP JUMPDEST DUP4 ADD DUP3 PUSH2 0xC56 JUMP JUMPDEST POP POP JUMPDEST POP POP POP JUMP JUMPDEST PUSH0 DUP3 DUP3 SHR SWAP1 POP SWAP3 SWAP2 POP POP JUMP JUMPDEST PUSH0 PUSH2 0xCD9 PUSH0 NOT DUP5 PUSH1 0x8 MUL PUSH2 0xCBE JUMP JUMPDEST NOT DUP1 DUP4 AND SWAP2 POP POP SWAP3 SWAP2 POP POP JUMP JUMPDEST PUSH0 PUSH2 0xCF1 DUP4 DUP4 PUSH2 0xCCA JUMP JUMPDEST SWAP2 POP DUP3 PUSH1 0x2 MUL DUP3 OR SWAP1 POP SWAP3 SWAP2 POP POP JUMP JUMPDEST PUSH2 0xD0A DUP3 PUSH2 0x907 JUMP JUMPDEST PUSH8 0xFFFFFFFFFFFFFFFF DUP2 GT ISZERO PUSH2 0xD23 JUMPI PUSH2 0xD22 PUSH2 0x703 JUMP JUMPDEST JUMPDEST PUSH2 0xD2D DUP3 SLOAD PUSH2 0xAE4 JUMP JUMPDEST PUSH2 0xD38 DUP3 DUP3 DUP6 PUSH2 0xC78 JUMP JUMPDEST PUSH0 PUSH1 0x20 SWAP1 POP PUSH1 0x1F DUP4 GT PUSH1 0x1 DUP2 EQ PUSH2 0xD69 JUMPI PUSH0 DUP5 ISZERO PUSH2 0xD57 JUMPI DUP3 DUP8 ADD MLOAD SWAP1 POP JUMPDEST PUSH2 0xD61 DUP6 DUP3 PUSH2 0xCE6 JUMP JUMPDEST DUP7 SSTORE POP PUSH2 0xDC8 JUMP JUMPDEST PUSH1 0x1F NOT DUP5 AND PUSH2 0xD77 DUP7 PUSH2 0xB64 JUMP JUMPDEST PUSH0 JUMPDEST DUP3 DUP2 LT ISZERO PUSH2 0xD9E JUMPI DUP5 DUP10 ADD MLOAD DUP3 SSTORE PUSH1 0x1 DUP3 ADD SWAP2 POP PUSH1 0x20 DUP6 ADD SWAP5 POP PUSH1 0x20 DUP2 ADD SWAP1 POP PUSH2 0xD79 JUMP JUMPDEST DUP7 DUP4 LT ISZERO PUSH2 0xDBB JUMPI DUP5 DUP10 ADD MLOAD PUSH2 0xDB7 PUSH1 0x1F DUP10 AND DUP3 PUSH2 0xCCA JUMP JUMPDEST DUP4 SSTORE POP JUMPDEST PUSH1 0x1 PUSH1 0x2 DUP9 MUL ADD DUP9 SSTORE POP POP POP JUMPDEST POP POP POP POP POP POP JUMP INVALID LOG2 PUSH5 0x6970667358 0x22 SLT KECCAK256 SWAP7 0x28 BYTE CODECOPY 0xBF PREVRANDAO SSTORE 0xB8 XOR 0xDA 0xEA 0xD 0xD6 DIV 0xBC 0xA8 SMOD MUL 0xAB PUSH11 0x99DF4D5A9528D83CAAED9C 0xE9 PUSH5 0x736F6C6343 STOP ADDMOD BYTE STOP CALLER "
				},
				"gasEstimates": {
					"creation": {
						"codeDepositCost": "718000",
						"executionCost": "infinite",
						"totalCost": "infinite"
					},
					"external": {
						"address_dataStructure(address)": "infinite",
						"address_uint(address)": "2869",
						"array_modification(uint256,string,string)": "infinite",
						"assignDataStructure(uint256,string,string)": "infinite",
						"assignList(string,uint256)": "infinite",
						"assignNumber(uint256)": "22646",
						"clientes_dinamicos(uint256)": "infinite",
						"enteros(uint256)": "infinite",
						"enteros_dinamicos(uint256)": "infinite",
						"string_listUnits(string,uint256)": "infinite"
					}
				},
				"methodIdentifiers": {
					"address_dataStructure(address)": "eaaefa96",
					"address_uint(address)": "7a088a2e",
					"array_modification(uint256,string,string)": "9a83e3ec",
					"assignDataStructure(uint256,string,string)": "e990585e",
					"assignList(string,uint256)": "89553d46",
					"assignNumber(uint256)": "e52b008f",
					"clientes_dinamicos(uint256)": "4cb59eb2",
					"enteros(uint256)": "c8d915e6",
					"enteros_dinamicos(uint256)": "54bb4274",
					"string_listUnits(string,uint256)": "20716f88"
				}
			},
			"storageLayout": {
				"storage": [
					{
						"astId": 16,
						"contract": "contracts/03_estructuras_datos.sol:data_structures",
						"label": "cliente_1",
						"offset": 0,
						"slot": "0",
						"type": "t_struct(Customer)8_storage"
					},
					{
						"astId": 26,
						"contract": "contracts/03_estructuras_datos.sol:data_structures",
						"label": "enteros",
						"offset": 0,
						"slot": "3",
						"type": "t_array(t_uint256)5_storage"
					},
					{
						"astId": 29,
						"contract": "contracts/03_estructuras_datos.sol:data_structures",
						"label": "enteros_dinamicos",
						"offset": 0,
						"slot": "8",
						"type": "t_array(t_uint256)dyn_storage"
					},
					{
						"astId": 33,
						"contract": "contracts/03_estructuras_datos.sol:data_structures",
						"label": "clientes_dinamicos",
						"offset": 0,
						"slot": "9",
						"type": "t_array(t_struct(Customer)8_storage)dyn_storage"
					},
					{
						"astId": 62,
						"contract": "contracts/03_estructuras_datos.sol:data_structures",
						"label": "address_uint",
						"offset": 0,
						"slot": "10",
						"type": "t_mapping(t_address,t_uint256)"
					},
					{
						"astId": 67,
						"contract": "contracts/03_estructuras_datos.sol:data_structures",
						"label": "string_listUnits",
						"offset": 0,
						"slot": "11",
						"type": "t_mapping(t_string_memory_ptr,t_array(t_uint256)dyn_storage)"
					},
					{
						"astId": 72,
						"contract": "contracts/03_estructuras_datos.sol:data_structures",
						"label": "address_dataStructure",
						"offset": 0,
						"slot": "12",
						"type": "t_mapping(t_address,t_struct(Customer)8_storage)"
					}
				],
				"types": {
					"t_address": {
						"encoding": "inplace",
						"label": "address",
						"numberOfBytes": "20"
					},
					"t_array(t_struct(Customer)8_storage)dyn_storage": {
						"base": "t_struct(Customer)8_storage",
						"encoding": "dynamic_array",
						"label": "struct data_structures.Customer[]",
						"numberOfBytes": "32"
					},
					"t_array(t_uint256)5_storage": {
						"base": "t_uint256",
						"encoding": "inplace",
						"label": "uint256[5]",
						"numberOfBytes": "160"
					},
					"t_array(t_uint256)dyn_storage": {
						"base": "t_uint256",
						"encoding": "dynamic_array",
						"label": "uint256[]",
						"numberOfBytes": "32"
					},
					"t_mapping(t_address,t_struct(Customer)8_storage)": {
						"encoding": "mapping",
						"key": "t_address",
						"label": "mapping(address => struct data_structures.Customer)",
						"numberOfBytes": "32",
						"value": "t_struct(Customer)8_storage"
					},
					"t_mapping(t_address,t_uint256)": {
						"encoding": "mapping",
						"key": "t_address",
						"label": "mapping(address => uint256)",
						"numberOfBytes": "32",
						"value": "t_uint256"
					},
					"t_mapping(t_string_memory_ptr,t_array(t_uint256)dyn_storage)": {
						"encoding": "mapping",
						"key": "t_string_memory_ptr",
						"label": "mapping(string => uint256[])",
						"numberOfBytes": "32",
						"value": "t_array(t_uint256)dyn_storage"
					},
					"t_string_memory_ptr": {
						"encoding": "bytes",
						"label": "string",
						"numberOfBytes": "32"
					},
					"t_string_storage": {
						"encoding": "bytes",
						"label": "string",
						"numberOfBytes": "32"
					},
					"t_struct(Customer)8_storage": {
						"encoding": "inplace",
						"label": "struct data_structures.Customer",
						"members": [
							{
								"astId": 3,
								"contract": "contracts/03_estructuras_datos.sol:data_structures",
								"label": "id",
								"offset": 0,
								"slot": "0",
								"type": "t_uint256"
							},
							{
								"astId": 5,
								"contract": "contracts/03_estructuras_datos.sol:data_structures",
								"label": "name",
								"offset": 0,
								"slot": "1",
								"type": "t_string_storage"
							},
							{
								"astId": 7,
								"contract": "contracts/03_estructuras_datos.sol:data_structures",
								"label": "email",
								"offset": 0,
								"slot": "2",
								"type": "t_string_storage"
							}
						],
						"numberOfBytes": "96"
					},
					"t_uint256": {
						"encoding": "inplace",
						"label": "uint256",
						"numberOfBytes": "32"
					}
				}
			},
			"userdoc": {
				"kind": "user",
				"methods": {},
				"version": 1
			}
		}
	}
}