{
	"contracts/07_maths.sol": {
		"Maths": {
			"abi": [
				{
					"inputs": [
						{
							"internalType": "uint256",
							"name": "_a",
							"type": "uint256"
						},
						{
							"internalType": "uint256",
							"name": "_b",
							"type": "uint256"
						}
					],
					"name": "div",
					"outputs": [
						{
							"internalType": "uint256",
							"name": "",
							"type": "uint256"
						}
					],
					"stateMutability": "pure",
					"type": "function"
				},
				{
					"inputs": [
						{
							"internalType": "uint256",
							"name": "_a",
							"type": "uint256"
						},
						{
							"internalType": "uint256",
							"name": "_b",
							"type": "uint256"
						}
					],
					"name": "expo",
					"outputs": [
						{
							"internalType": "uint256",
							"name": "",
							"type": "uint256"
						}
					],
					"stateMutability": "pure",
					"type": "function"
				},
				{
					"inputs": [
						{
							"internalType": "uint256",
							"name": "_a",
							"type": "uint256"
						},
						{
							"internalType": "uint256",
							"name": "_b",
							"type": "uint256"
						}
					],
					"name": "mod",
					"outputs": [
						{
							"internalType": "uint256",
							"name": "",
							"type": "uint256"
						}
					],
					"stateMutability": "pure",
					"type": "function"
				},
				{
					"inputs": [
						{
							"internalType": "uint256",
							"name": "_a",
							"type": "uint256"
						},
						{
							"internalType": "uint256",
							"name": "_b",
							"type": "uint256"
						}
					],
					"name": "prod",
					"outputs": [
						{
							"internalType": "uint256",
							"name": "",
							"type": "uint256"
						}
					],
					"stateMutability": "pure",
					"type": "function"
				},
				{
					"inputs": [
						{
							"internalType": "int256",
							"name": "_a",
							"type": "int256"
						},
						{
							"internalType": "int256",
							"name": "_b",
							"type": "int256"
						}
					],
					"name": "resta",
					"outputs": [
						{
							"internalType": "int256",
							"name": "",
							"type": "int256"
						}
					],
					"stateMutability": "pure",
					"type": "function"
				},
				{
					"inputs": [
						{
							"internalType": "uint256",
							"name": "_a",
							"type": "uint256"
						},
						{
							"internalType": "uint256",
							"name": "_b",
							"type": "uint256"
						}
					],
					"name": "suma",
					"outputs": [
						{
							"internalType": "uint256",
							"name": "",
							"type": "uint256"
						}
					],
					"stateMutability": "pure",
					"type": "function"
				}
			],
			"devdoc": {
				"kind": "dev",
				"methods": {},
				"version": 1
			},
			"evm": {
				"assembly": "    /* \"contracts/07_maths.sol\":74:775  contract Maths {... */\n  mstore(0x40, 0x80)\n  callvalue\n  dup1\n  iszero\n  tag_1\n  jumpi\n  0x00\n  dup1\n  revert\ntag_1:\n  pop\n  dataSize(sub_0)\n  dup1\n  dataOffset(sub_0)\n  0x00\n  codecopy\n  0x00\n  return\nstop\n\nsub_0: assembly {\n        /* \"contracts/07_maths.sol\":74:775  contract Maths {... */\n      mstore(0x40, 0x80)\n      callvalue\n      dup1\n      iszero\n      tag_1\n      jumpi\n      0x00\n      dup1\n      revert\n    tag_1:\n      pop\n      jumpi(tag_2, lt(calldatasize, 0x04))\n      shr(0xe0, calldataload(0x00))\n      dup1\n      0x424bd620\n      eq\n      tag_3\n      jumpi\n      dup1\n      0x4c627bad\n      eq\n      tag_4\n      jumpi\n      dup1\n      0x4f4752ba\n      eq\n      tag_5\n      jumpi\n      dup1\n      0xa391c15b\n      eq\n      tag_6\n      jumpi\n      dup1\n      0xb1b45b1b\n      eq\n      tag_7\n      jumpi\n      dup1\n      0xf43f523a\n      eq\n      tag_8\n      jumpi\n    tag_2:\n      0x00\n      dup1\n      revert\n        /* \"contracts/07_maths.sol\":336:435  function prod(uint256 _a, uint256 _b) public pure returns (uint256) {... */\n    tag_3:\n      tag_9\n      0x04\n      dup1\n      calldatasize\n      sub\n      dup2\n      add\n      swap1\n      tag_10\n      swap2\n      swap1\n      tag_11\n      jump\t// in\n    tag_10:\n      tag_12\n      jump\t// in\n    tag_9:\n      mload(0x40)\n      tag_13\n      swap2\n      swap1\n      tag_14\n      jump\t// in\n    tag_13:\n      mload(0x40)\n      dup1\n      swap2\n      sub\n      swap1\n      return\n        /* \"contracts/07_maths.sol\":231:328  function resta(int256 _a, int256 _b) public pure returns (int256) {... */\n    tag_4:\n      tag_15\n      0x04\n      dup1\n      calldatasize\n      sub\n      dup2\n      add\n      swap1\n      tag_16\n      swap2\n      swap1\n      tag_17\n      jump\t// in\n    tag_16:\n      tag_18\n      jump\t// in\n    tag_15:\n      mload(0x40)\n      tag_19\n      swap2\n      swap1\n      tag_20\n      jump\t// in\n    tag_19:\n      mload(0x40)\n      dup1\n      swap2\n      sub\n      swap1\n      return\n        /* \"contracts/07_maths.sol\":557:657  function expo(uint256 _a, uint256 _b) public pure returns (uint256) {... */\n    tag_5:\n      tag_21\n      0x04\n      dup1\n      calldatasize\n      sub\n      dup2\n      add\n      swap1\n      tag_22\n      swap2\n      swap1\n      tag_11\n      jump\t// in\n    tag_22:\n      tag_23\n      jump\t// in\n    tag_21:\n      mload(0x40)\n      tag_24\n      swap2\n      swap1\n      tag_14\n      jump\t// in\n    tag_24:\n      mload(0x40)\n      dup1\n      swap2\n      sub\n      swap1\n      return\n        /* \"contracts/07_maths.sol\":447:545  function div(uint256 _a, uint256 _b) public pure returns (uint256) {... */\n    tag_6:\n      tag_25\n      0x04\n      dup1\n      calldatasize\n      sub\n      dup2\n      add\n      swap1\n      tag_26\n      swap2\n      swap1\n      tag_11\n      jump\t// in\n    tag_26:\n      tag_27\n      jump\t// in\n    tag_25:\n      mload(0x40)\n      tag_28\n      swap2\n      swap1\n      tag_14\n      jump\t// in\n    tag_28:\n      mload(0x40)\n      dup1\n      swap2\n      sub\n      swap1\n      return\n        /* \"contracts/07_maths.sol\":124:223  function suma(uint256 _a, uint256 _b) public pure returns (uint256) {... */\n    tag_7:\n      tag_29\n      0x04\n      dup1\n      calldatasize\n      sub\n      dup2\n      add\n      swap1\n      tag_30\n      swap2\n      swap1\n      tag_11\n      jump\t// in\n    tag_30:\n      tag_31\n      jump\t// in\n    tag_29:\n      mload(0x40)\n      tag_32\n      swap2\n      swap1\n      tag_14\n      jump\t// in\n    tag_32:\n      mload(0x40)\n      dup1\n      swap2\n      sub\n      swap1\n      return\n        /* \"contracts/07_maths.sol\":666:764  function mod(uint256 _a, uint256 _b) public pure returns (uint256) {... */\n    tag_8:\n      tag_33\n      0x04\n      dup1\n      calldatasize\n      sub\n      dup2\n      add\n      swap1\n      tag_34\n      swap2\n      swap1\n      tag_11\n      jump\t// in\n    tag_34:\n      tag_35\n      jump\t// in\n    tag_33:\n      mload(0x40)\n      tag_36\n      swap2\n      swap1\n      tag_14\n      jump\t// in\n    tag_36:\n      mload(0x40)\n      dup1\n      swap2\n      sub\n      swap1\n      return\n        /* \"contracts/07_maths.sol\":336:435  function prod(uint256 _a, uint256 _b) public pure returns (uint256) {... */\n    tag_12:\n        /* \"contracts/07_maths.sol\":395:402  uint256 */\n      0x00\n        /* \"contracts/07_maths.sol\":425:427  _b */\n      dup2\n        /* \"contracts/07_maths.sol\":422:424  _a */\n      dup4\n        /* \"contracts/07_maths.sol\":422:427  _a*_b */\n      tag_38\n      swap2\n      swap1\n      tag_39\n      jump\t// in\n    tag_38:\n        /* \"contracts/07_maths.sol\":415:427  return _a*_b */\n      swap1\n      pop\n        /* \"contracts/07_maths.sol\":336:435  function prod(uint256 _a, uint256 _b) public pure returns (uint256) {... */\n      swap3\n      swap2\n      pop\n      pop\n      jump\t// out\n        /* \"contracts/07_maths.sol\":231:328  function resta(int256 _a, int256 _b) public pure returns (int256) {... */\n    tag_18:\n        /* \"contracts/07_maths.sol\":289:295  int256 */\n      0x00\n        /* \"contracts/07_maths.sol\":318:320  _b */\n      dup2\n        /* \"contracts/07_maths.sol\":315:317  _a */\n      dup4\n        /* \"contracts/07_maths.sol\":315:320  _a-_b */\n      tag_41\n      swap2\n      swap1\n      tag_42\n      jump\t// in\n    tag_41:\n        /* \"contracts/07_maths.sol\":308:320  return _a-_b */\n      swap1\n      pop\n        /* \"contracts/07_maths.sol\":231:328  function resta(int256 _a, int256 _b) public pure returns (int256) {... */\n      swap3\n      swap2\n      pop\n      pop\n      jump\t// out\n        /* \"contracts/07_maths.sol\":557:657  function expo(uint256 _a, uint256 _b) public pure returns (uint256) {... */\n    tag_23:\n        /* \"contracts/07_maths.sol\":616:623  uint256 */\n      0x00\n        /* \"contracts/07_maths.sol\":647:649  _b */\n      dup2\n        /* \"contracts/07_maths.sol\":643:645  _a */\n      dup4\n        /* \"contracts/07_maths.sol\":643:649  _a**_b */\n      tag_44\n      swap2\n      swap1\n      tag_45\n      jump\t// in\n    tag_44:\n        /* \"contracts/07_maths.sol\":636:649  return _a**_b */\n      swap1\n      pop\n        /* \"contracts/07_maths.sol\":557:657  function expo(uint256 _a, uint256 _b) public pure returns (uint256) {... */\n      swap3\n      swap2\n      pop\n      pop\n      jump\t// out\n        /* \"contracts/07_maths.sol\":447:545  function div(uint256 _a, uint256 _b) public pure returns (uint256) {... */\n    tag_27:\n        /* \"contracts/07_maths.sol\":505:512  uint256 */\n      0x00\n        /* \"contracts/07_maths.sol\":535:537  _b */\n      dup2\n        /* \"contracts/07_maths.sol\":532:534  _a */\n      dup4\n        /* \"contracts/07_maths.sol\":532:537  _a/_b */\n      tag_47\n      swap2\n      swap1\n      tag_48\n      jump\t// in\n    tag_47:\n        /* \"contracts/07_maths.sol\":525:537  return _a/_b */\n      swap1\n      pop\n        /* \"contracts/07_maths.sol\":447:545  function div(uint256 _a, uint256 _b) public pure returns (uint256) {... */\n      swap3\n      swap2\n      pop\n      pop\n      jump\t// out\n        /* \"contracts/07_maths.sol\":124:223  function suma(uint256 _a, uint256 _b) public pure returns (uint256) {... */\n    tag_31:\n        /* \"contracts/07_maths.sol\":183:190  uint256 */\n      0x00\n        /* \"contracts/07_maths.sol\":213:215  _b */\n      dup2\n        /* \"contracts/07_maths.sol\":210:212  _a */\n      dup4\n        /* \"contracts/07_maths.sol\":210:215  _a+_b */\n      tag_50\n      swap2\n      swap1\n      tag_51\n      jump\t// in\n    tag_50:\n        /* \"contracts/07_maths.sol\":203:215  return _a+_b */\n      swap1\n      pop\n        /* \"contracts/07_maths.sol\":124:223  function suma(uint256 _a, uint256 _b) public pure returns (uint256) {... */\n      swap3\n      swap2\n      pop\n      pop\n      jump\t// out\n        /* \"contracts/07_maths.sol\":666:764  function mod(uint256 _a, uint256 _b) public pure returns (uint256) {... */\n    tag_35:\n        /* \"contracts/07_maths.sol\":724:731  uint256 */\n      0x00\n        /* \"contracts/07_maths.sol\":754:756  _b */\n      dup2\n        /* \"contracts/07_maths.sol\":751:753  _a */\n      dup4\n        /* \"contracts/07_maths.sol\":751:756  _a%_b */\n      tag_53\n      swap2\n      swap1\n      tag_54\n      jump\t// in\n    tag_53:\n        /* \"contracts/07_maths.sol\":744:756  return _a%_b */\n      swap1\n      pop\n        /* \"contracts/07_maths.sol\":666:764  function mod(uint256 _a, uint256 _b) public pure returns (uint256) {... */\n      swap3\n      swap2\n      pop\n      pop\n      jump\t// out\n        /* \"#utility.yul\":88:205   */\n    tag_56:\n        /* \"#utility.yul\":197:198   */\n      0x00\n        /* \"#utility.yul\":194:195   */\n      dup1\n        /* \"#utility.yul\":187:199   */\n      revert\n        /* \"#utility.yul\":334:411   */\n    tag_58:\n        /* \"#utility.yul\":371:378   */\n      0x00\n        /* \"#utility.yul\":400:405   */\n      dup2\n        /* \"#utility.yul\":389:405   */\n      swap1\n      pop\n        /* \"#utility.yul\":334:411   */\n      swap2\n      swap1\n      pop\n      jump\t// out\n        /* \"#utility.yul\":417:539   */\n    tag_59:\n        /* \"#utility.yul\":490:514   */\n      tag_77\n        /* \"#utility.yul\":508:513   */\n      dup2\n        /* \"#utility.yul\":490:514   */\n      tag_58\n      jump\t// in\n    tag_77:\n        /* \"#utility.yul\":483:488   */\n      dup2\n        /* \"#utility.yul\":480:515   */\n      eq\n        /* \"#utility.yul\":470:533   */\n      tag_78\n      jumpi\n        /* \"#utility.yul\":529:530   */\n      0x00\n        /* \"#utility.yul\":526:527   */\n      dup1\n        /* \"#utility.yul\":519:531   */\n      revert\n        /* \"#utility.yul\":470:533   */\n    tag_78:\n        /* \"#utility.yul\":417:539   */\n      pop\n      jump\t// out\n        /* \"#utility.yul\":545:684   */\n    tag_60:\n        /* \"#utility.yul\":591:596   */\n      0x00\n        /* \"#utility.yul\":629:635   */\n      dup2\n        /* \"#utility.yul\":616:636   */\n      calldataload\n        /* \"#utility.yul\":607:636   */\n      swap1\n      pop\n        /* \"#utility.yul\":645:678   */\n      tag_80\n        /* \"#utility.yul\":672:677   */\n      dup2\n        /* \"#utility.yul\":645:678   */\n      tag_59\n      jump\t// in\n    tag_80:\n        /* \"#utility.yul\":545:684   */\n      swap3\n      swap2\n      pop\n      pop\n      jump\t// out\n        /* \"#utility.yul\":690:1164   */\n    tag_11:\n        /* \"#utility.yul\":758:764   */\n      0x00\n        /* \"#utility.yul\":766:772   */\n      dup1\n        /* \"#utility.yul\":815:817   */\n      0x40\n        /* \"#utility.yul\":803:812   */\n      dup4\n        /* \"#utility.yul\":794:801   */\n      dup6\n        /* \"#utility.yul\":790:813   */\n      sub\n        /* \"#utility.yul\":786:818   */\n      slt\n        /* \"#utility.yul\":783:902   */\n      iszero\n      tag_82\n      jumpi\n        /* \"#utility.yul\":821:900   */\n      tag_83\n      tag_56\n      jump\t// in\n    tag_83:\n        /* \"#utility.yul\":783:902   */\n    tag_82:\n        /* \"#utility.yul\":941:942   */\n      0x00\n        /* \"#utility.yul\":966:1019   */\n      tag_84\n        /* \"#utility.yul\":1011:1018   */\n      dup6\n        /* \"#utility.yul\":1002:1008   */\n      dup3\n        /* \"#utility.yul\":991:1000   */\n      dup7\n        /* \"#utility.yul\":987:1009   */\n      add\n        /* \"#utility.yul\":966:1019   */\n      tag_60\n      jump\t// in\n    tag_84:\n        /* \"#utility.yul\":956:1019   */\n      swap3\n      pop\n        /* \"#utility.yul\":912:1029   */\n      pop\n        /* \"#utility.yul\":1068:1070   */\n      0x20\n        /* \"#utility.yul\":1094:1147   */\n      tag_85\n        /* \"#utility.yul\":1139:1146   */\n      dup6\n        /* \"#utility.yul\":1130:1136   */\n      dup3\n        /* \"#utility.yul\":1119:1128   */\n      dup7\n        /* \"#utility.yul\":1115:1137   */\n      add\n        /* \"#utility.yul\":1094:1147   */\n      tag_60\n      jump\t// in\n    tag_85:\n        /* \"#utility.yul\":1084:1147   */\n      swap2\n      pop\n        /* \"#utility.yul\":1039:1157   */\n      pop\n        /* \"#utility.yul\":690:1164   */\n      swap3\n      pop\n      swap3\n      swap1\n      pop\n      jump\t// out\n        /* \"#utility.yul\":1170:1288   */\n    tag_61:\n        /* \"#utility.yul\":1257:1281   */\n      tag_87\n        /* \"#utility.yul\":1275:1280   */\n      dup2\n        /* \"#utility.yul\":1257:1281   */\n      tag_58\n      jump\t// in\n    tag_87:\n        /* \"#utility.yul\":1252:1255   */\n      dup3\n        /* \"#utility.yul\":1245:1282   */\n      mstore\n        /* \"#utility.yul\":1170:1288   */\n      pop\n      pop\n      jump\t// out\n        /* \"#utility.yul\":1294:1516   */\n    tag_14:\n        /* \"#utility.yul\":1387:1391   */\n      0x00\n        /* \"#utility.yul\":1425:1427   */\n      0x20\n        /* \"#utility.yul\":1414:1423   */\n      dup3\n        /* \"#utility.yul\":1410:1428   */\n      add\n        /* \"#utility.yul\":1402:1428   */\n      swap1\n      pop\n        /* \"#utility.yul\":1438:1509   */\n      tag_89\n        /* \"#utility.yul\":1506:1507   */\n      0x00\n        /* \"#utility.yul\":1495:1504   */\n      dup4\n        /* \"#utility.yul\":1491:1508   */\n      add\n        /* \"#utility.yul\":1482:1488   */\n      dup5\n        /* \"#utility.yul\":1438:1509   */\n      tag_61\n      jump\t// in\n    tag_89:\n        /* \"#utility.yul\":1294:1516   */\n      swap3\n      swap2\n      pop\n      pop\n      jump\t// out\n        /* \"#utility.yul\":1522:1598   */\n    tag_62:\n        /* \"#utility.yul\":1558:1565   */\n      0x00\n        /* \"#utility.yul\":1587:1592   */\n      dup2\n        /* \"#utility.yul\":1576:1592   */\n      swap1\n      pop\n        /* \"#utility.yul\":1522:1598   */\n      swap2\n      swap1\n      pop\n      jump\t// out\n        /* \"#utility.yul\":1604:1724   */\n    tag_63:\n        /* \"#utility.yul\":1676:1699   */\n      tag_92\n        /* \"#utility.yul\":1693:1698   */\n      dup2\n        /* \"#utility.yul\":1676:1699   */\n      tag_62\n      jump\t// in\n    tag_92:\n        /* \"#utility.yul\":1669:1674   */\n      dup2\n        /* \"#utility.yul\":1666:1700   */\n      eq\n        /* \"#utility.yul\":1656:1718   */\n      tag_93\n      jumpi\n        /* \"#utility.yul\":1714:1715   */\n      0x00\n        /* \"#utility.yul\":1711:1712   */\n      dup1\n        /* \"#utility.yul\":1704:1716   */\n      revert\n        /* \"#utility.yul\":1656:1718   */\n    tag_93:\n        /* \"#utility.yul\":1604:1724   */\n      pop\n      jump\t// out\n        /* \"#utility.yul\":1730:1867   */\n    tag_64:\n        /* \"#utility.yul\":1775:1780   */\n      0x00\n        /* \"#utility.yul\":1813:1819   */\n      dup2\n        /* \"#utility.yul\":1800:1820   */\n      calldataload\n        /* \"#utility.yul\":1791:1820   */\n      swap1\n      pop\n        /* \"#utility.yul\":1829:1861   */\n      tag_95\n        /* \"#utility.yul\":1855:1860   */\n      dup2\n        /* \"#utility.yul\":1829:1861   */\n      tag_63\n      jump\t// in\n    tag_95:\n        /* \"#utility.yul\":1730:1867   */\n      swap3\n      swap2\n      pop\n      pop\n      jump\t// out\n        /* \"#utility.yul\":1873:2343   */\n    tag_17:\n        /* \"#utility.yul\":1939:1945   */\n      0x00\n        /* \"#utility.yul\":1947:1953   */\n      dup1\n        /* \"#utility.yul\":1996:1998   */\n      0x40\n        /* \"#utility.yul\":1984:1993   */\n      dup4\n        /* \"#utility.yul\":1975:1982   */\n      dup6\n        /* \"#utility.yul\":1971:1994   */\n      sub\n        /* \"#utility.yul\":1967:1999   */\n      slt\n        /* \"#utility.yul\":1964:2083   */\n      iszero\n      tag_97\n      jumpi\n        /* \"#utility.yul\":2002:2081   */\n      tag_98\n      tag_56\n      jump\t// in\n    tag_98:\n        /* \"#utility.yul\":1964:2083   */\n    tag_97:\n        /* \"#utility.yul\":2122:2123   */\n      0x00\n        /* \"#utility.yul\":2147:2199   */\n      tag_99\n        /* \"#utility.yul\":2191:2198   */\n      dup6\n        /* \"#utility.yul\":2182:2188   */\n      dup3\n        /* \"#utility.yul\":2171:2180   */\n      dup7\n        /* \"#utility.yul\":2167:2189   */\n      add\n        /* \"#utility.yul\":2147:2199   */\n      tag_64\n      jump\t// in\n    tag_99:\n        /* \"#utility.yul\":2137:2199   */\n      swap3\n      pop\n        /* \"#utility.yul\":2093:2209   */\n      pop\n        /* \"#utility.yul\":2248:2250   */\n      0x20\n        /* \"#utility.yul\":2274:2326   */\n      tag_100\n        /* \"#utility.yul\":2318:2325   */\n      dup6\n        /* \"#utility.yul\":2309:2315   */\n      dup3\n        /* \"#utility.yul\":2298:2307   */\n      dup7\n        /* \"#utility.yul\":2294:2316   */\n      add\n        /* \"#utility.yul\":2274:2326   */\n      tag_64\n      jump\t// in\n    tag_100:\n        /* \"#utility.yul\":2264:2326   */\n      swap2\n      pop\n        /* \"#utility.yul\":2219:2336   */\n      pop\n        /* \"#utility.yul\":1873:2343   */\n      swap3\n      pop\n      swap3\n      swap1\n      pop\n      jump\t// out\n        /* \"#utility.yul\":2349:2464   */\n    tag_65:\n        /* \"#utility.yul\":2434:2457   */\n      tag_102\n        /* \"#utility.yul\":2451:2456   */\n      dup2\n        /* \"#utility.yul\":2434:2457   */\n      tag_62\n      jump\t// in\n    tag_102:\n        /* \"#utility.yul\":2429:2432   */\n      dup3\n        /* \"#utility.yul\":2422:2458   */\n      mstore\n        /* \"#utility.yul\":2349:2464   */\n      pop\n      pop\n      jump\t// out\n        /* \"#utility.yul\":2470:2688   */\n    tag_20:\n        /* \"#utility.yul\":2561:2565   */\n      0x00\n        /* \"#utility.yul\":2599:2601   */\n      0x20\n        /* \"#utility.yul\":2588:2597   */\n      dup3\n        /* \"#utility.yul\":2584:2602   */\n      add\n        /* \"#utility.yul\":2576:2602   */\n      swap1\n      pop\n        /* \"#utility.yul\":2612:2681   */\n      tag_104\n        /* \"#utility.yul\":2678:2679   */\n      0x00\n        /* \"#utility.yul\":2667:2676   */\n      dup4\n        /* \"#utility.yul\":2663:2680   */\n      add\n        /* \"#utility.yul\":2654:2660   */\n      dup5\n        /* \"#utility.yul\":2612:2681   */\n      tag_65\n      jump\t// in\n    tag_104:\n        /* \"#utility.yul\":2470:2688   */\n      swap3\n      swap2\n      pop\n      pop\n      jump\t// out\n        /* \"#utility.yul\":2694:2874   */\n    tag_66:\n        /* \"#utility.yul\":2742:2819   */\n      0x4e487b7100000000000000000000000000000000000000000000000000000000\n        /* \"#utility.yul\":2739:2740   */\n      0x00\n        /* \"#utility.yul\":2732:2820   */\n      mstore\n        /* \"#utility.yul\":2839:2843   */\n      0x11\n        /* \"#utility.yul\":2836:2837   */\n      0x04\n        /* \"#utility.yul\":2829:2844   */\n      mstore\n        /* \"#utility.yul\":2863:2867   */\n      0x24\n        /* \"#utility.yul\":2860:2861   */\n      0x00\n        /* \"#utility.yul\":2853:2868   */\n      revert\n        /* \"#utility.yul\":2880:3290   */\n    tag_39:\n        /* \"#utility.yul\":2920:2927   */\n      0x00\n        /* \"#utility.yul\":2943:2963   */\n      tag_107\n        /* \"#utility.yul\":2961:2962   */\n      dup3\n        /* \"#utility.yul\":2943:2963   */\n      tag_58\n      jump\t// in\n    tag_107:\n        /* \"#utility.yul\":2938:2963   */\n      swap2\n      pop\n        /* \"#utility.yul\":2977:2997   */\n      tag_108\n        /* \"#utility.yul\":2995:2996   */\n      dup4\n        /* \"#utility.yul\":2977:2997   */\n      tag_58\n      jump\t// in\n    tag_108:\n        /* \"#utility.yul\":2972:2997   */\n      swap3\n      pop\n        /* \"#utility.yul\":3032:3033   */\n      dup3\n        /* \"#utility.yul\":3029:3030   */\n      dup3\n        /* \"#utility.yul\":3025:3034   */\n      mul\n        /* \"#utility.yul\":3054:3084   */\n      tag_109\n        /* \"#utility.yul\":3072:3083   */\n      dup2\n        /* \"#utility.yul\":3054:3084   */\n      tag_58\n      jump\t// in\n    tag_109:\n        /* \"#utility.yul\":3043:3084   */\n      swap2\n      pop\n        /* \"#utility.yul\":3233:3234   */\n      dup3\n        /* \"#utility.yul\":3224:3231   */\n      dup3\n        /* \"#utility.yul\":3220:3235   */\n      div\n        /* \"#utility.yul\":3217:3218   */\n      dup5\n        /* \"#utility.yul\":3214:3236   */\n      eq\n        /* \"#utility.yul\":3194:3195   */\n      dup4\n        /* \"#utility.yul\":3187:3196   */\n      iszero\n        /* \"#utility.yul\":3167:3250   */\n      or\n        /* \"#utility.yul\":3144:3283   */\n      tag_110\n      jumpi\n        /* \"#utility.yul\":3263:3281   */\n      tag_111\n      tag_66\n      jump\t// in\n    tag_111:\n        /* \"#utility.yul\":3144:3283   */\n    tag_110:\n        /* \"#utility.yul\":2928:3290   */\n      pop\n        /* \"#utility.yul\":2880:3290   */\n      swap3\n      swap2\n      pop\n      pop\n      jump\t// out\n        /* \"#utility.yul\":3296:3668   */\n    tag_42:\n        /* \"#utility.yul\":3335:3339   */\n      0x00\n        /* \"#utility.yul\":3355:3374   */\n      tag_113\n        /* \"#utility.yul\":3372:3373   */\n      dup3\n        /* \"#utility.yul\":3355:3374   */\n      tag_62\n      jump\t// in\n    tag_113:\n        /* \"#utility.yul\":3350:3374   */\n      swap2\n      pop\n        /* \"#utility.yul\":3388:3407   */\n      tag_114\n        /* \"#utility.yul\":3405:3406   */\n      dup4\n        /* \"#utility.yul\":3388:3407   */\n      tag_62\n      jump\t// in\n    tag_114:\n        /* \"#utility.yul\":3383:3407   */\n      swap3\n      pop\n        /* \"#utility.yul\":3431:3432   */\n      dup3\n        /* \"#utility.yul\":3428:3429   */\n      dup3\n        /* \"#utility.yul\":3424:3433   */\n      sub\n        /* \"#utility.yul\":3416:3433   */\n      swap1\n      pop\n        /* \"#utility.yul\":3625:3626   */\n      dup2\n        /* \"#utility.yul\":3619:3623   */\n      dup2\n        /* \"#utility.yul\":3615:3627   */\n      slt\n        /* \"#utility.yul\":3611:3612   */\n      0x00\n        /* \"#utility.yul\":3608:3609   */\n      dup5\n        /* \"#utility.yul\":3604:3613   */\n      slt\n        /* \"#utility.yul\":3600:3628   */\n      and\n        /* \"#utility.yul\":3583:3584   */\n      dup3\n        /* \"#utility.yul\":3577:3581   */\n      dup3\n        /* \"#utility.yul\":3573:3585   */\n      sgt\n        /* \"#utility.yul\":3568:3569   */\n      0x00\n        /* \"#utility.yul\":3565:3566   */\n      dup6\n        /* \"#utility.yul\":3561:3570   */\n      slt\n        /* \"#utility.yul\":3554:3571   */\n      iszero\n        /* \"#utility.yul\":3550:3586   */\n      and\n        /* \"#utility.yul\":3534:3638   */\n      or\n        /* \"#utility.yul\":3531:3661   */\n      iszero\n      tag_115\n      jumpi\n        /* \"#utility.yul\":3641:3659   */\n      tag_116\n      tag_66\n      jump\t// in\n    tag_116:\n        /* \"#utility.yul\":3531:3661   */\n    tag_115:\n        /* \"#utility.yul\":3296:3668   */\n      swap3\n      swap2\n      pop\n      pop\n      jump\t// out\n        /* \"#utility.yul\":3674:3776   */\n    tag_67:\n        /* \"#utility.yul\":3716:3724   */\n      0x00\n        /* \"#utility.yul\":3763:3768   */\n      dup2\n        /* \"#utility.yul\":3760:3761   */\n      0x01\n        /* \"#utility.yul\":3756:3769   */\n      shr\n        /* \"#utility.yul\":3735:3769   */\n      swap1\n      pop\n        /* \"#utility.yul\":3674:3776   */\n      swap2\n      swap1\n      pop\n      jump\t// out\n        /* \"#utility.yul\":3782:4630   */\n    tag_68:\n        /* \"#utility.yul\":3843:3848   */\n      0x00\n        /* \"#utility.yul\":3850:3854   */\n      dup1\n        /* \"#utility.yul\":3874:3880   */\n      dup3\n        /* \"#utility.yul\":3865:3880   */\n      swap2\n      pop\n        /* \"#utility.yul\":3898:3903   */\n      dup4\n        /* \"#utility.yul\":3889:3903   */\n      swap1\n      pop\n        /* \"#utility.yul\":3912:4624   */\n    tag_119:\n        /* \"#utility.yul\":3933:3934   */\n      0x01\n        /* \"#utility.yul\":3923:3931   */\n      dup6\n        /* \"#utility.yul\":3920:3935   */\n      gt\n        /* \"#utility.yul\":3912:4624   */\n      iszero\n      tag_121\n      jumpi\n        /* \"#utility.yul\":4028:4032   */\n      dup1\n        /* \"#utility.yul\":4023:4026   */\n      dup7\n        /* \"#utility.yul\":4019:4033   */\n      div\n        /* \"#utility.yul\":4013:4017   */\n      dup2\n        /* \"#utility.yul\":4010:4034   */\n      gt\n        /* \"#utility.yul\":4007:4057   */\n      iszero\n      tag_122\n      jumpi\n        /* \"#utility.yul\":4037:4055   */\n      tag_123\n      tag_66\n      jump\t// in\n    tag_123:\n        /* \"#utility.yul\":4007:4057   */\n    tag_122:\n        /* \"#utility.yul\":4087:4088   */\n      0x01\n        /* \"#utility.yul\":4077:4085   */\n      dup6\n        /* \"#utility.yul\":4073:4089   */\n      and\n        /* \"#utility.yul\":4070:4521   */\n      iszero\n      tag_124\n      jumpi\n        /* \"#utility.yul\":4502:4506   */\n      dup1\n        /* \"#utility.yul\":4495:4500   */\n      dup3\n        /* \"#utility.yul\":4491:4507   */\n      mul\n        /* \"#utility.yul\":4482:4507   */\n      swap2\n      pop\n        /* \"#utility.yul\":4070:4521   */\n    tag_124:\n        /* \"#utility.yul\":4552:4556   */\n      dup1\n        /* \"#utility.yul\":4546:4550   */\n      dup2\n        /* \"#utility.yul\":4542:4557   */\n      mul\n        /* \"#utility.yul\":4534:4557   */\n      swap1\n      pop\n        /* \"#utility.yul\":4582:4614   */\n      tag_125\n        /* \"#utility.yul\":4605:4613   */\n      dup6\n        /* \"#utility.yul\":4582:4614   */\n      tag_67\n      jump\t// in\n    tag_125:\n        /* \"#utility.yul\":4570:4614   */\n      swap5\n      pop\n        /* \"#utility.yul\":3912:4624   */\n      jump(tag_119)\n    tag_121:\n        /* \"#utility.yul\":3782:4630   */\n      swap5\n      pop\n      swap5\n      swap3\n      pop\n      pop\n      pop\n      jump\t// out\n        /* \"#utility.yul\":4636:5709   */\n    tag_69:\n        /* \"#utility.yul\":4690:4695   */\n      0x00\n        /* \"#utility.yul\":4881:4889   */\n      dup3\n        /* \"#utility.yul\":4871:4911   */\n      tag_127\n      jumpi\n        /* \"#utility.yul\":4902:4903   */\n      0x01\n        /* \"#utility.yul\":4893:4903   */\n      swap1\n      pop\n        /* \"#utility.yul\":4904:4909   */\n      jump(tag_126)\n        /* \"#utility.yul\":4871:4911   */\n    tag_127:\n        /* \"#utility.yul\":4930:4934   */\n      dup2\n        /* \"#utility.yul\":4920:4956   */\n      tag_128\n      jumpi\n        /* \"#utility.yul\":4947:4948   */\n      0x00\n        /* \"#utility.yul\":4938:4948   */\n      swap1\n      pop\n        /* \"#utility.yul\":4949:4954   */\n      jump(tag_126)\n        /* \"#utility.yul\":4920:4956   */\n    tag_128:\n        /* \"#utility.yul\":5016:5020   */\n      dup2\n        /* \"#utility.yul\":5064:5065   */\n      0x01\n        /* \"#utility.yul\":5059:5086   */\n      dup2\n      eq\n      tag_130\n      jumpi\n        /* \"#utility.yul\":5100:5101   */\n      0x02\n        /* \"#utility.yul\":5095:5286   */\n      dup2\n      eq\n      tag_131\n      jumpi\n        /* \"#utility.yul\":5009:5286   */\n      jump(tag_129)\n        /* \"#utility.yul\":5059:5086   */\n    tag_130:\n        /* \"#utility.yul\":5077:5078   */\n      0x01\n        /* \"#utility.yul\":5068:5078   */\n      swap2\n      pop\n        /* \"#utility.yul\":5079:5084   */\n      pop\n      jump(tag_126)\n        /* \"#utility.yul\":5095:5286   */\n    tag_131:\n        /* \"#utility.yul\":5140:5143   */\n      0xff\n        /* \"#utility.yul\":5130:5138   */\n      dup5\n        /* \"#utility.yul\":5127:5144   */\n      gt\n        /* \"#utility.yul\":5124:5167   */\n      iszero\n      tag_132\n      jumpi\n        /* \"#utility.yul\":5147:5165   */\n      tag_133\n      tag_66\n      jump\t// in\n    tag_133:\n        /* \"#utility.yul\":5124:5167   */\n    tag_132:\n        /* \"#utility.yul\":5196:5204   */\n      dup4\n        /* \"#utility.yul\":5193:5194   */\n      0x02\n        /* \"#utility.yul\":5189:5205   */\n      exp\n        /* \"#utility.yul\":5180:5205   */\n      swap2\n      pop\n        /* \"#utility.yul\":5231:5234   */\n      dup5\n        /* \"#utility.yul\":5224:5229   */\n      dup3\n        /* \"#utility.yul\":5221:5235   */\n      gt\n        /* \"#utility.yul\":5218:5258   */\n      iszero\n      tag_134\n      jumpi\n        /* \"#utility.yul\":5238:5256   */\n      tag_135\n      tag_66\n      jump\t// in\n    tag_135:\n        /* \"#utility.yul\":5218:5258   */\n    tag_134:\n        /* \"#utility.yul\":5271:5276   */\n      pop\n      jump(tag_126)\n        /* \"#utility.yul\":5009:5286   */\n    tag_129:\n      pop\n        /* \"#utility.yul\":5395:5397   */\n      0x20\n        /* \"#utility.yul\":5385:5393   */\n      dup4\n        /* \"#utility.yul\":5382:5398   */\n      lt\n        /* \"#utility.yul\":5376:5379   */\n      0x0133\n        /* \"#utility.yul\":5370:5374   */\n      dup4\n        /* \"#utility.yul\":5367:5380   */\n      lt\n        /* \"#utility.yul\":5363:5399   */\n      and\n        /* \"#utility.yul\":5345:5347   */\n      0x4e\n        /* \"#utility.yul\":5335:5343   */\n      dup5\n        /* \"#utility.yul\":5332:5348   */\n      lt\n        /* \"#utility.yul\":5327:5329   */\n      0x0b\n        /* \"#utility.yul\":5321:5325   */\n      dup5\n        /* \"#utility.yul\":5318:5330   */\n      lt\n        /* \"#utility.yul\":5314:5349   */\n      and\n        /* \"#utility.yul\":5298:5409   */\n      or\n        /* \"#utility.yul\":5295:5541   */\n      iszero\n      tag_136\n      jumpi\n        /* \"#utility.yul\":5451:5459   */\n      dup3\n        /* \"#utility.yul\":5445:5449   */\n      dup3\n        /* \"#utility.yul\":5441:5460   */\n      exp\n        /* \"#utility.yul\":5432:5460   */\n      swap1\n      pop\n        /* \"#utility.yul\":5486:5489   */\n      dup4\n        /* \"#utility.yul\":5479:5484   */\n      dup2\n        /* \"#utility.yul\":5476:5490   */\n      gt\n        /* \"#utility.yul\":5473:5513   */\n      iszero\n      tag_137\n      jumpi\n        /* \"#utility.yul\":5493:5511   */\n      tag_138\n      tag_66\n      jump\t// in\n    tag_138:\n        /* \"#utility.yul\":5473:5513   */\n    tag_137:\n        /* \"#utility.yul\":5526:5531   */\n      jump(tag_126)\n        /* \"#utility.yul\":5295:5541   */\n    tag_136:\n        /* \"#utility.yul\":5566:5608   */\n      tag_139\n        /* \"#utility.yul\":5604:5607   */\n      dup5\n        /* \"#utility.yul\":5594:5602   */\n      dup5\n        /* \"#utility.yul\":5588:5592   */\n      dup5\n        /* \"#utility.yul\":5585:5586   */\n      0x01\n        /* \"#utility.yul\":5566:5608   */\n      tag_68\n      jump\t// in\n    tag_139:\n        /* \"#utility.yul\":5551:5608   */\n      swap3\n      pop\n      swap1\n      pop\n        /* \"#utility.yul\":5640:5644   */\n      dup2\n        /* \"#utility.yul\":5635:5638   */\n      dup5\n        /* \"#utility.yul\":5631:5645   */\n      div\n        /* \"#utility.yul\":5624:5629   */\n      dup2\n        /* \"#utility.yul\":5621:5646   */\n      gt\n        /* \"#utility.yul\":5618:5669   */\n      iszero\n      tag_140\n      jumpi\n        /* \"#utility.yul\":5649:5667   */\n      tag_141\n      tag_66\n      jump\t// in\n    tag_141:\n        /* \"#utility.yul\":5618:5669   */\n    tag_140:\n        /* \"#utility.yul\":5698:5702   */\n      dup2\n        /* \"#utility.yul\":5691:5696   */\n      dup2\n        /* \"#utility.yul\":5687:5703   */\n      mul\n        /* \"#utility.yul\":5678:5703   */\n      swap1\n      pop\n        /* \"#utility.yul\":4636:5709   */\n    tag_126:\n      swap4\n      swap3\n      pop\n      pop\n      pop\n      jump\t// out\n        /* \"#utility.yul\":5715:6000   */\n    tag_45:\n        /* \"#utility.yul\":5775:5780   */\n      0x00\n        /* \"#utility.yul\":5799:5822   */\n      tag_143\n        /* \"#utility.yul\":5817:5821   */\n      dup3\n        /* \"#utility.yul\":5799:5822   */\n      tag_58\n      jump\t// in\n    tag_143:\n        /* \"#utility.yul\":5791:5822   */\n      swap2\n      pop\n        /* \"#utility.yul\":5843:5870   */\n      tag_144\n        /* \"#utility.yul\":5861:5869   */\n      dup4\n        /* \"#utility.yul\":5843:5870   */\n      tag_58\n      jump\t// in\n    tag_144:\n        /* \"#utility.yul\":5831:5870   */\n      swap3\n      pop\n        /* \"#utility.yul\":5889:5993   */\n      tag_145\n        /* \"#utility.yul\":5926:5992   */\n      0xffffffffffffffffffffffffffffffffffffffffffffffffffffffffffffffff\n        /* \"#utility.yul\":5916:5924   */\n      dup5\n        /* \"#utility.yul\":5910:5914   */\n      dup5\n        /* \"#utility.yul\":5889:5993   */\n      tag_69\n      jump\t// in\n    tag_145:\n        /* \"#utility.yul\":5880:5993   */\n      swap1\n      pop\n        /* \"#utility.yul\":5715:6000   */\n      swap3\n      swap2\n      pop\n      pop\n      jump\t// out\n        /* \"#utility.yul\":6006:6186   */\n    tag_70:\n        /* \"#utility.yul\":6054:6131   */\n      0x4e487b7100000000000000000000000000000000000000000000000000000000\n        /* \"#utility.yul\":6051:6052   */\n      0x00\n        /* \"#utility.yul\":6044:6132   */\n      mstore\n        /* \"#utility.yul\":6151:6155   */\n      0x12\n        /* \"#utility.yul\":6148:6149   */\n      0x04\n        /* \"#utility.yul\":6141:6156   */\n      mstore\n        /* \"#utility.yul\":6175:6179   */\n      0x24\n        /* \"#utility.yul\":6172:6173   */\n      0x00\n        /* \"#utility.yul\":6165:6180   */\n      revert\n        /* \"#utility.yul\":6192:6377   */\n    tag_48:\n        /* \"#utility.yul\":6232:6233   */\n      0x00\n        /* \"#utility.yul\":6249:6269   */\n      tag_148\n        /* \"#utility.yul\":6267:6268   */\n      dup3\n        /* \"#utility.yul\":6249:6269   */\n      tag_58\n      jump\t// in\n    tag_148:\n        /* \"#utility.yul\":6244:6269   */\n      swap2\n      pop\n        /* \"#utility.yul\":6283:6303   */\n      tag_149\n        /* \"#utility.yul\":6301:6302   */\n      dup4\n        /* \"#utility.yul\":6283:6303   */\n      tag_58\n      jump\t// in\n    tag_149:\n        /* \"#utility.yul\":6278:6303   */\n      swap3\n      pop\n        /* \"#utility.yul\":6322:6323   */\n      dup3\n        /* \"#utility.yul\":6312:6347   */\n      tag_150\n      jumpi\n        /* \"#utility.yul\":6327:6345   */\n      tag_151\n      tag_70\n      jump\t// in\n    tag_151:\n        /* \"#utility.yul\":6312:6347   */\n    tag_150:\n        /* \"#utility.yul\":6369:6370   */\n      dup3\n        /* \"#utility.yul\":6366:6367   */\n      dup3\n        /* \"#utility.yul\":6362:6371   */\n      div\n        /* \"#utility.yul\":6357:6371   */\n      swap1\n      pop\n        /* \"#utility.yul\":6192:6377   */\n      swap3\n      swap2\n      pop\n      pop\n      jump\t// out\n        /* \"#utility.yul\":6383:6574   */\n    tag_51:\n        /* \"#utility.yul\":6423:6426   */\n      0x00\n        /* \"#utility.yul\":6442:6462   */\n      tag_153\n        /* \"#utility.yul\":6460:6461   */\n      dup3\n        /* \"#utility.yul\":6442:6462   */\n      tag_58\n      jump\t// in\n    tag_153:\n        /* \"#utility.yul\":6437:6462   */\n      swap2\n      pop\n        /* \"#utility.yul\":6476:6496   */\n      tag_154\n        /* \"#utility.yul\":6494:6495   */\n      dup4\n        /* \"#utility.yul\":6476:6496   */\n      tag_58\n      jump\t// in\n    tag_154:\n        /* \"#utility.yul\":6471:6496   */\n      swap3\n      pop\n        /* \"#utility.yul\":6519:6520   */\n      dup3\n        /* \"#utility.yul\":6516:6517   */\n      dup3\n        /* \"#utility.yul\":6512:6521   */\n      add\n        /* \"#utility.yul\":6505:6521   */\n      swap1\n      pop\n        /* \"#utility.yul\":6540:6543   */\n      dup1\n        /* \"#utility.yul\":6537:6538   */\n      dup3\n        /* \"#utility.yul\":6534:6544   */\n      gt\n        /* \"#utility.yul\":6531:6567   */\n      iszero\n      tag_155\n      jumpi\n        /* \"#utility.yul\":6547:6565   */\n      tag_156\n      tag_66\n      jump\t// in\n    tag_156:\n        /* \"#utility.yul\":6531:6567   */\n    tag_155:\n        /* \"#utility.yul\":6383:6574   */\n      swap3\n      swap2\n      pop\n      pop\n      jump\t// out\n        /* \"#utility.yul\":6580:6756   */\n    tag_54:\n        /* \"#utility.yul\":6612:6613   */\n      0x00\n        /* \"#utility.yul\":6629:6649   */\n      tag_158\n        /* \"#utility.yul\":6647:6648   */\n      dup3\n        /* \"#utility.yul\":6629:6649   */\n      tag_58\n      jump\t// in\n    tag_158:\n        /* \"#utility.yul\":6624:6649   */\n      swap2\n      pop\n        /* \"#utility.yul\":6663:6683   */\n      tag_159\n        /* \"#utility.yul\":6681:6682   */\n      dup4\n        /* \"#utility.yul\":6663:6683   */\n      tag_58\n      jump\t// in\n    tag_159:\n        /* \"#utility.yul\":6658:6683   */\n      swap3\n      pop\n        /* \"#utility.yul\":6702:6703   */\n      dup3\n        /* \"#utility.yul\":6692:6727   */\n      tag_160\n      jumpi\n        /* \"#utility.yul\":6707:6725   */\n      tag_161\n      tag_70\n      jump\t// in\n    tag_161:\n        /* \"#utility.yul\":6692:6727   */\n    tag_160:\n        /* \"#utility.yul\":6748:6749   */\n      dup3\n        /* \"#utility.yul\":6745:6746   */\n      dup3\n        /* \"#utility.yul\":6741:6750   */\n      mod\n        /* \"#utility.yul\":6736:6750   */\n      swap1\n      pop\n        /* \"#utility.yul\":6580:6756   */\n      swap3\n      swap2\n      pop\n      pop\n      jump\t// out\n\n    auxdata: 0xa26469706673582212203386555c90c6403a3d172264f097cf69c3f3f28d36d84b57b5b1dd4a24ea0c0c64736f6c634300081a0033\n}\n",
				"bytecode": {
					"linkReferences": {},
					"object": "6080604052348015600e575f80fd5b506106558061001c5f395ff3fe608060405234801561000f575f80fd5b5060043610610060575f3560e01c8063424bd620146100645780634c627bad146100945780634f4752ba146100c4578063a391c15b146100f4578063b1b45b1b14610124578063f43f523a14610154575b5f80fd5b61007e60048036038101906100799190610239565b610184565b60405161008b9190610286565b60405180910390f35b6100ae60048036038101906100a991906102d2565b610199565b6040516100bb919061031f565b60405180910390f35b6100de60048036038101906100d99190610239565b6101ae565b6040516100eb9190610286565b60405180910390f35b61010e60048036038101906101099190610239565b6101c3565b60405161011b9190610286565b60405180910390f35b61013e60048036038101906101399190610239565b6101d8565b60405161014b9190610286565b60405180910390f35b61016e60048036038101906101699190610239565b6101ed565b60405161017b9190610286565b60405180910390f35b5f81836101919190610365565b905092915050565b5f81836101a691906103a6565b905092915050565b5f81836101bb9190610515565b905092915050565b5f81836101d0919061058c565b905092915050565b5f81836101e591906105bc565b905092915050565b5f81836101fa91906105ef565b905092915050565b5f80fd5b5f819050919050565b61021881610206565b8114610222575f80fd5b50565b5f813590506102338161020f565b92915050565b5f806040838503121561024f5761024e610202565b5b5f61025c85828601610225565b925050602061026d85828601610225565b9150509250929050565b61028081610206565b82525050565b5f6020820190506102995f830184610277565b92915050565b5f819050919050565b6102b18161029f565b81146102bb575f80fd5b50565b5f813590506102cc816102a8565b92915050565b5f80604083850312156102e8576102e7610202565b5b5f6102f5858286016102be565b9250506020610306858286016102be565b9150509250929050565b6103198161029f565b82525050565b5f6020820190506103325f830184610310565b92915050565b7f4e487b71000000000000000000000000000000000000000000000000000000005f52601160045260245ffd5b5f61036f82610206565b915061037a83610206565b925082820261038881610206565b9150828204841483151761039f5761039e610338565b5b5092915050565b5f6103b08261029f565b91506103bb8361029f565b925082820390508181125f8412168282135f8512151617156103e0576103df610338565b5b92915050565b5f8160011c9050919050565b5f808291508390505b600185111561043b5780860481111561041757610416610338565b5b60018516156104265780820291505b8081029050610434856103e6565b94506103fb565b94509492505050565b5f82610453576001905061050e565b81610460575f905061050e565b81600181146104765760028114610480576104af565b600191505061050e565b60ff84111561049257610491610338565b5b8360020a9150848211156104a9576104a8610338565b5b5061050e565b5060208310610133831016604e8410600b84101617156104e45782820a9050838111156104df576104de610338565b5b61050e565b6104f184848460016103f2565b9250905081840481111561050857610507610338565b5b81810290505b9392505050565b5f61051f82610206565b915061052a83610206565b92506105577fffffffffffffffffffffffffffffffffffffffffffffffffffffffffffffffff8484610444565b905092915050565b7f4e487b71000000000000000000000000000000000000000000000000000000005f52601260045260245ffd5b5f61059682610206565b91506105a183610206565b9250826105b1576105b061055f565b5b828204905092915050565b5f6105c682610206565b91506105d183610206565b92508282019050808211156105e9576105e8610338565b5b92915050565b5f6105f982610206565b915061060483610206565b9250826106145761061361055f565b5b82820690509291505056fea26469706673582212203386555c90c6403a3d172264f097cf69c3f3f28d36d84b57b5b1dd4a24ea0c0c64736f6c634300081a0033",
					"opcodes": "PUSH1 0x80 PUSH1 0x40 MSTORE CALLVALUE DUP1 ISZERO PUSH1 0xE JUMPI PUSH0 DUP1 REVERT JUMPDEST POP PUSH2 0x655 DUP1 PUSH2 0x1C PUSH0 CODECOPY PUSH0 RETURN INVALID PUSH1 0x80 PUSH1 0x40 MSTORE CALLVALUE DUP1 ISZERO PUSH2 0xF JUMPI PUSH0 DUP1 REVERT JUMPDEST POP PUSH1 0x4 CALLDATASIZE LT PUSH2 0x60 JUMPI PUSH0 CALLDATALOAD PUSH1 0xE0 SHR DUP1 PUSH4 0x424BD620 EQ PUSH2 0x64 JUMPI DUP1 PUSH4 0x4C627BAD EQ PUSH2 0x94 JUMPI DUP1 PUSH4 0x4F4752BA EQ PUSH2 0xC4 JUMPI DUP1 PUSH4 0xA391C15B EQ PUSH2 0xF4 JUMPI DUP1 PUSH4 0xB1B45B1B EQ PUSH2 0x124 JUMPI DUP1 PUSH4 0xF43F523A EQ PUSH2 0x154 JUMPI JUMPDEST PUSH0 DUP1 REVERT JUMPDEST PUSH2 0x7E PUSH1 0x4 DUP1 CALLDATASIZE SUB DUP2 ADD SWAP1 PUSH2 0x79 SWAP2 SWAP1 PUSH2 0x239 JUMP JUMPDEST PUSH2 0x184 JUMP JUMPDEST PUSH1 0x40 MLOAD PUSH2 0x8B SWAP2 SWAP1 PUSH2 0x286 JUMP JUMPDEST PUSH1 0x40 MLOAD DUP1 SWAP2 SUB SWAP1 RETURN JUMPDEST PUSH2 0xAE PUSH1 0x4 DUP1 CALLDATASIZE SUB DUP2 ADD SWAP1 PUSH2 0xA9 SWAP2 SWAP1 PUSH2 0x2D2 JUMP JUMPDEST PUSH2 0x199 JUMP JUMPDEST PUSH1 0x40 MLOAD PUSH2 0xBB SWAP2 SWAP1 PUSH2 0x31F JUMP JUMPDEST PUSH1 0x40 MLOAD DUP1 SWAP2 SUB SWAP1 RETURN JUMPDEST PUSH2 0xDE PUSH1 0x4 DUP1 CALLDATASIZE SUB DUP2 ADD SWAP1 PUSH2 0xD9 SWAP2 SWAP1 PUSH2 0x239 JUMP JUMPDEST PUSH2 0x1AE JUMP JUMPDEST PUSH1 0x40 MLOAD PUSH2 0xEB SWAP2 SWAP1 PUSH2 0x286 JUMP JUMPDEST PUSH1 0x40 MLOAD DUP1 SWAP2 SUB SWAP1 RETURN JUMPDEST PUSH2 0x10E PUSH1 0x4 DUP1 CALLDATASIZE SUB DUP2 ADD SWAP1 PUSH2 0x109 SWAP2 SWAP1 PUSH2 0x239 JUMP JUMPDEST PUSH2 0x1C3 JUMP JUMPDEST PUSH1 0x40 MLOAD PUSH2 0x11B SWAP2 SWAP1 PUSH2 0x286 JUMP JUMPDEST PUSH1 0x40 MLOAD DUP1 SWAP2 SUB SWAP1 RETURN JUMPDEST PUSH2 0x13E PUSH1 0x4 DUP1 CALLDATASIZE SUB DUP2 ADD SWAP1 PUSH2 0x139 SWAP2 SWAP1 PUSH2 0x239 JUMP JUMPDEST PUSH2 0x1D8 JUMP JUMPDEST PUSH1 0x40 MLOAD PUSH2 0x14B SWAP2 SWAP1 PUSH2 0x286 JUMP JUMPDEST PUSH1 0x40 MLOAD DUP1 SWAP2 SUB SWAP1 RETURN JUMPDEST PUSH2 0x16E PUSH1 0x4 DUP1 CALLDATASIZE SUB DUP2 ADD SWAP1 PUSH2 0x169 SWAP2 SWAP1 PUSH2 0x239 JUMP JUMPDEST PUSH2 0x1ED JUMP JUMPDEST PUSH1 0x40 MLOAD PUSH2 0x17B SWAP2 SWAP1 PUSH2 0x286 JUMP JUMPDEST PUSH1 0x40 MLOAD DUP1 SWAP2 SUB SWAP1 RETURN JUMPDEST PUSH0 DUP2 DUP4 PUSH2 0x191 SWAP2 SWAP1 PUSH2 0x365 JUMP JUMPDEST SWAP1 POP SWAP3 SWAP2 POP POP JUMP JUMPDEST PUSH0 DUP2 DUP4 PUSH2 0x1A6 SWAP2 SWAP1 PUSH2 0x3A6 JUMP JUMPDEST SWAP1 POP SWAP3 SWAP2 POP POP JUMP JUMPDEST PUSH0 DUP2 DUP4 PUSH2 0x1BB SWAP2 SWAP1 PUSH2 0x515 JUMP JUMPDEST SWAP1 POP SWAP3 SWAP2 POP POP JUMP JUMPDEST PUSH0 DUP2 DUP4 PUSH2 0x1D0 SWAP2 SWAP1 PUSH2 0x58C JUMP JUMPDEST SWAP1 POP SWAP3 SWAP2 POP POP JUMP JUMPDEST PUSH0 DUP2 DUP4 PUSH2 0x1E5 SWAP2 SWAP1 PUSH2 0x5BC JUMP JUMPDEST SWAP1 POP SWAP3 SWAP2 POP POP JUMP JUMPDEST PUSH0 DUP2 DUP4 PUSH2 0x1FA SWAP2 SWAP1 PUSH2 0x5EF JUMP JUMPDEST SWAP1 POP SWAP3 SWAP2 POP POP JUMP JUMPDEST PUSH0 DUP1 REVERT JUMPDEST PUSH0 DUP2 SWAP1 POP SWAP2 SWAP1 POP JUMP JUMPDEST PUSH2 0x218 DUP2 PUSH2 0x206 JUMP JUMPDEST DUP2 EQ PUSH2 0x222 JUMPI PUSH0 DUP1 REVERT JUMPDEST POP JUMP JUMPDEST PUSH0 DUP2 CALLDATALOAD SWAP1 POP PUSH2 0x233 DUP2 PUSH2 0x20F JUMP JUMPDEST SWAP3 SWAP2 POP POP JUMP JUMPDEST PUSH0 DUP1 PUSH1 0x40 DUP4 DUP6 SUB SLT ISZERO PUSH2 0x24F JUMPI PUSH2 0x24E PUSH2 0x202 JUMP JUMPDEST JUMPDEST PUSH0 PUSH2 0x25C DUP6 DUP3 DUP7 ADD PUSH2 0x225 JUMP JUMPDEST SWAP3 POP POP PUSH1 0x20 PUSH2 0x26D DUP6 DUP3 DUP7 ADD PUSH2 0x225 JUMP JUMPDEST SWAP2 POP POP SWAP3 POP SWAP3 SWAP1 POP JUMP JUMPDEST PUSH2 0x280 DUP2 PUSH2 0x206 JUMP JUMPDEST DUP3 MSTORE POP POP JUMP JUMPDEST PUSH0 PUSH1 0x20 DUP3 ADD SWAP1 POP PUSH2 0x299 PUSH0 DUP4 ADD DUP5 PUSH2 0x277 JUMP JUMPDEST SWAP3 SWAP2 POP POP JUMP JUMPDEST PUSH0 DUP2 SWAP1 POP SWAP2 SWAP1 POP JUMP JUMPDEST PUSH2 0x2B1 DUP2 PUSH2 0x29F JUMP JUMPDEST DUP2 EQ PUSH2 0x2BB JUMPI PUSH0 DUP1 REVERT JUMPDEST POP JUMP JUMPDEST PUSH0 DUP2 CALLDATALOAD SWAP1 POP PUSH2 0x2CC DUP2 PUSH2 0x2A8 JUMP JUMPDEST SWAP3 SWAP2 POP POP JUMP JUMPDEST PUSH0 DUP1 PUSH1 0x40 DUP4 DUP6 SUB SLT ISZERO PUSH2 0x2E8 JUMPI PUSH2 0x2E7 PUSH2 0x202 JUMP JUMPDEST JUMPDEST PUSH0 PUSH2 0x2F5 DUP6 DUP3 DUP7 ADD PUSH2 0x2BE JUMP JUMPDEST SWAP3 POP POP PUSH1 0x20 PUSH2 0x306 DUP6 DUP3 DUP7 ADD PUSH2 0x2BE JUMP JUMPDEST SWAP2 POP POP SWAP3 POP SWAP3 SWAP1 POP JUMP JUMPDEST PUSH2 0x319 DUP2 PUSH2 0x29F JUMP JUMPDEST DUP3 MSTORE POP POP JUMP JUMPDEST PUSH0 PUSH1 0x20 DUP3 ADD SWAP1 POP PUSH2 0x332 PUSH0 DUP4 ADD DUP5 PUSH2 0x310 JUMP JUMPDEST SWAP3 SWAP2 POP POP JUMP JUMPDEST PUSH32 0x4E487B7100000000000000000000000000000000000000000000000000000000 PUSH0 MSTORE PUSH1 0x11 PUSH1 0x4 MSTORE PUSH1 0x24 PUSH0 REVERT JUMPDEST PUSH0 PUSH2 0x36F DUP3 PUSH2 0x206 JUMP JUMPDEST SWAP2 POP PUSH2 0x37A DUP4 PUSH2 0x206 JUMP JUMPDEST SWAP3 POP DUP3 DUP3 MUL PUSH2 0x388 DUP2 PUSH2 0x206 JUMP JUMPDEST SWAP2 POP DUP3 DUP3 DIV DUP5 EQ DUP4 ISZERO OR PUSH2 0x39F JUMPI PUSH2 0x39E PUSH2 0x338 JUMP JUMPDEST JUMPDEST POP SWAP3 SWAP2 POP POP JUMP JUMPDEST PUSH0 PUSH2 0x3B0 DUP3 PUSH2 0x29F JUMP JUMPDEST SWAP2 POP PUSH2 0x3BB DUP4 PUSH2 0x29F JUMP JUMPDEST SWAP3 POP DUP3 DUP3 SUB SWAP1 POP DUP2 DUP2 SLT PUSH0 DUP5 SLT AND DUP3 DUP3 SGT PUSH0 DUP6 SLT ISZERO AND OR ISZERO PUSH2 0x3E0 JUMPI PUSH2 0x3DF PUSH2 0x338 JUMP JUMPDEST JUMPDEST SWAP3 SWAP2 POP POP JUMP JUMPDEST PUSH0 DUP2 PUSH1 0x1 SHR SWAP1 POP SWAP2 SWAP1 POP JUMP JUMPDEST PUSH0 DUP1 DUP3 SWAP2 POP DUP4 SWAP1 POP JUMPDEST PUSH1 0x1 DUP6 GT ISZERO PUSH2 0x43B JUMPI DUP1 DUP7 DIV DUP2 GT ISZERO PUSH2 0x417 JUMPI PUSH2 0x416 PUSH2 0x338 JUMP JUMPDEST JUMPDEST PUSH1 0x1 DUP6 AND ISZERO PUSH2 0x426 JUMPI DUP1 DUP3 MUL SWAP2 POP JUMPDEST DUP1 DUP2 MUL SWAP1 POP PUSH2 0x434 DUP6 PUSH2 0x3E6 JUMP JUMPDEST SWAP5 POP PUSH2 0x3FB JUMP JUMPDEST SWAP5 POP SWAP5 SWAP3 POP POP POP JUMP JUMPDEST PUSH0 DUP3 PUSH2 0x453 JUMPI PUSH1 0x1 SWAP1 POP PUSH2 0x50E JUMP JUMPDEST DUP2 PUSH2 0x460 JUMPI PUSH0 SWAP1 POP PUSH2 0x50E JUMP JUMPDEST DUP2 PUSH1 0x1 DUP2 EQ PUSH2 0x476 JUMPI PUSH1 0x2 DUP2 EQ PUSH2 0x480 JUMPI PUSH2 0x4AF JUMP JUMPDEST PUSH1 0x1 SWAP2 POP POP PUSH2 0x50E JUMP JUMPDEST PUSH1 0xFF DUP5 GT ISZERO PUSH2 0x492 JUMPI PUSH2 0x491 PUSH2 0x338 JUMP JUMPDEST JUMPDEST DUP4 PUSH1 0x2 EXP SWAP2 POP DUP5 DUP3 GT ISZERO PUSH2 0x4A9 JUMPI PUSH2 0x4A8 PUSH2 0x338 JUMP JUMPDEST JUMPDEST POP PUSH2 0x50E JUMP JUMPDEST POP PUSH1 0x20 DUP4 LT PUSH2 0x133 DUP4 LT AND PUSH1 0x4E DUP5 LT PUSH1 0xB DUP5 LT AND OR ISZERO PUSH2 0x4E4 JUMPI DUP3 DUP3 EXP SWAP1 POP DUP4 DUP2 GT ISZERO PUSH2 0x4DF JUMPI PUSH2 0x4DE PUSH2 0x338 JUMP JUMPDEST JUMPDEST PUSH2 0x50E JUMP JUMPDEST PUSH2 0x4F1 DUP5 DUP5 DUP5 PUSH1 0x1 PUSH2 0x3F2 JUMP JUMPDEST SWAP3 POP SWAP1 POP DUP2 DUP5 DIV DUP2 GT ISZERO PUSH2 0x508 JUMPI PUSH2 0x507 PUSH2 0x338 JUMP JUMPDEST JUMPDEST DUP2 DUP2 MUL SWAP1 POP JUMPDEST SWAP4 SWAP3 POP POP POP JUMP JUMPDEST PUSH0 PUSH2 0x51F DUP3 PUSH2 0x206 JUMP JUMPDEST SWAP2 POP PUSH2 0x52A DUP4 PUSH2 0x206 JUMP JUMPDEST SWAP3 POP PUSH2 0x557 PUSH32 0xFFFFFFFFFFFFFFFFFFFFFFFFFFFFFFFFFFFFFFFFFFFFFFFFFFFFFFFFFFFFFFFF DUP5 DUP5 PUSH2 0x444 JUMP JUMPDEST SWAP1 POP SWAP3 SWAP2 POP POP JUMP JUMPDEST PUSH32 0x4E487B7100000000000000000000000000000000000000000000000000000000 PUSH0 MSTORE PUSH1 0x12 PUSH1 0x4 MSTORE PUSH1 0x24 PUSH0 REVERT JUMPDEST PUSH0 PUSH2 0x596 DUP3 PUSH2 0x206 JUMP JUMPDEST SWAP2 POP PUSH2 0x5A1 DUP4 PUSH2 0x206 JUMP JUMPDEST SWAP3 POP DUP3 PUSH2 0x5B1 JUMPI PUSH2 0x5B0 PUSH2 0x55F JUMP JUMPDEST JUMPDEST DUP3 DUP3 DIV SWAP1 POP SWAP3 SWAP2 POP POP JUMP JUMPDEST PUSH0 PUSH2 0x5C6 DUP3 PUSH2 0x206 JUMP JUMPDEST SWAP2 POP PUSH2 0x5D1 DUP4 PUSH2 0x206 JUMP JUMPDEST SWAP3 POP DUP3 DUP3 ADD SWAP1 POP DUP1 DUP3 GT ISZERO PUSH2 0x5E9 JUMPI PUSH2 0x5E8 PUSH2 0x338 JUMP JUMPDEST JUMPDEST SWAP3 SWAP2 POP POP JUMP JUMPDEST PUSH0 PUSH2 0x5F9 DUP3 PUSH2 0x206 JUMP JUMPDEST SWAP2 POP PUSH2 0x604 DUP4 PUSH2 0x206 JUMP JUMPDEST SWAP3 POP DUP3 PUSH2 0x614 JUMPI PUSH2 0x613 PUSH2 0x55F JUMP JUMPDEST JUMPDEST DUP3 DUP3 MOD SWAP1 POP SWAP3 SWAP2 POP POP JUMP INVALID LOG2 PUSH5 0x6970667358 0x22 SLT KECCAK256 CALLER DUP7 SSTORE TLOAD SWAP1 0xC6 BLOCKHASH GASPRICE RETURNDATASIZE OR 0x22 PUSH5 0xF097CF69C3 RETURN CALLCODE DUP14 CALLDATASIZE 0xD8 0x4B JUMPI 0xB5 0xB1 0xDD BLOBBASEFEE 0x24 0xEA 0xC 0xC PUSH5 0x736F6C6343 STOP ADDMOD BYTE STOP CALLER "
				},
				"gasEstimates": {
					"creation": {
						"codeDepositCost": "324200",
						"executionCost": "360",
						"totalCost": "324560"
					},
					"external": {
						"div(uint256,uint256)": "infinite",
						"expo(uint256,uint256)": "infinite",
						"mod(uint256,uint256)": "infinite",
						"prod(uint256,uint256)": "infinite",
						"resta(int256,int256)": "infinite",
						"suma(uint256,uint256)": "infinite"
					}
				},
				"methodIdentifiers": {
					"div(uint256,uint256)": "a391c15b",
					"expo(uint256,uint256)": "4f4752ba",
					"mod(uint256,uint256)": "f43f523a",
					"prod(uint256,uint256)": "424bd620",
					"resta(int256,int256)": "4c627bad",
					"suma(uint256,uint256)": "b1b45b1b"
				}
			},
			"storageLayout": {
				"storage": [],
				"types": null
			},
			"userdoc": {
				"kind": "user",
				"methods": {},
				"version": 1
			}
		}
	}
}