{
  "contractName": "SimpleAuction",
  "abi": [
    {
      "inputs": [],
      "stateMutability": "nonpayable",
      "type": "constructor"
    },
    {
      "inputs": [],
      "name": "AuctionAlreadyEnded",
      "type": "error"
    },
    {
      "inputs": [
        {
          "internalType": "uint256",
          "name": "currentBid",
          "type": "uint256"
        }
      ],
      "name": "BidNotHighEnough",
      "type": "error"
    },
    {
      "inputs": [],
      "name": "NoFundsToWithdraw",
      "type": "error"
    },
    {
      "inputs": [],
      "name": "Unauthorized",
      "type": "error"
    },
    {
      "anonymous": false,
      "inputs": [
        {
          "indexed": false,
          "internalType": "address",
          "name": "winner",
          "type": "address"
        },
        {
          "indexed": false,
          "internalType": "uint256",
          "name": "amount",
          "type": "uint256"
        }
      ],
      "name": "AuctionEnded",
      "type": "event"
    },
    {
      "anonymous": false,
      "inputs": [],
      "name": "AuctionReset",
      "type": "event"
    },
    {
      "anonymous": false,
      "inputs": [
        {
          "indexed": true,
          "internalType": "address",
          "name": "bidder",
          "type": "address"
        },
        {
          "indexed": false,
          "internalType": "uint256",
          "name": "amount",
          "type": "uint256"
        }
      ],
      "name": "HighestBidIncreased",
      "type": "event"
    },
    {
      "inputs": [],
      "name": "auctionEnded",
      "outputs": [
        {
          "internalType": "bool",
          "name": "",
          "type": "bool"
        }
      ],
      "stateMutability": "view",
      "type": "function",
      "constant": true
    },
    {
      "inputs": [],
      "name": "highestBid",
      "outputs": [
        {
          "internalType": "uint256",
          "name": "",
          "type": "uint256"
        }
      ],
      "stateMutability": "view",
      "type": "function",
      "constant": true
    },
    {
      "inputs": [],
      "name": "highestBidder",
      "outputs": [
        {
          "internalType": "address",
          "name": "",
          "type": "address"
        }
      ],
      "stateMutability": "view",
      "type": "function",
      "constant": true
    },
    {
      "inputs": [],
      "name": "getOwner",
      "outputs": [
        {
          "internalType": "address",
          "name": "",
          "type": "address"
        }
      ],
      "stateMutability": "view",
      "type": "function",
      "constant": true
    },
    {
      "inputs": [],
      "name": "bid",
      "outputs": [],
      "stateMutability": "payable",
      "type": "function",
      "payable": true
    },
    {
      "inputs": [],
      "name": "endAuction",
      "outputs": [],
      "stateMutability": "nonpayable",
      "type": "function"
    },
    {
      "inputs": [],
      "name": "resetAuction",
      "outputs": [],
      "stateMutability": "nonpayable",
      "type": "function"
    }
  ],
  "bytecode": "0x608060405234801561001057600080fd5b50336000806101000a81548173ffffffffffffffffffffffffffffffffffffffff021916908373ffffffffffffffffffffffffffffffffffffffff1602179055506000600260146101000a81548160ff0219169083151502179055506108158061007b6000396000f3fe6080604052600436106100705760003560e01c8063893d20e81161004e578063893d20e8146100c157806391f90157146100ec578063d57bde7914610117578063fe67a54b1461014257610070565b80631998aeef146100755780637d3504531461007f5780638643337414610096575b600080fd5b61007d610159565b005b34801561008b57600080fd5b50610094610330565b005b3480156100a257600080fd5b506100ab6104d9565b6040516100b89190610761565b60405180910390f35b3480156100cd57600080fd5b506100d66104ec565b6040516100e3919061071d565b60405180910390f35b3480156100f857600080fd5b50610101610515565b60405161010e919061071d565b60405180910390f35b34801561012357600080fd5b5061012c61053b565b604051610139919061077c565b60405180910390f35b34801561014e57600080fd5b50610157610541565b005b600260149054906101000a900460ff16156101a0576040517fd02e774d00000000000000000000000000000000000000000000000000000000815260040160405180910390fd5b600034116101da576040517f67e3990d00000000000000000000000000000000000000000000000000000000815260040160405180910390fd5b6001543411610222576001546040517f4e12c1bb000000000000000000000000000000000000000000000000000000008152600401610219919061077c565b60405180910390fd5b60006001541461029857600260009054906101000a900473ffffffffffffffffffffffffffffffffffffffff1673ffffffffffffffffffffffffffffffffffffffff166108fc6001549081150290604051600060405180830381858888f19350505050158015610296573d6000803e3d6000fd5b505b3460018190555033600260006101000a81548173ffffffffffffffffffffffffffffffffffffffff021916908373ffffffffffffffffffffffffffffffffffffffff1602179055503373ffffffffffffffffffffffffffffffffffffffff167ff4757a49b326036464bec6fe419a4ae38c8a02ce3e68bf0809674f6aab8ad30034604051610326919061077c565b60405180910390a2565b60008054906101000a900473ffffffffffffffffffffffffffffffffffffffff1673ffffffffffffffffffffffffffffffffffffffff163373ffffffffffffffffffffffffffffffffffffffff16146103b5576040517f82b4290000000000000000000000000000000000000000000000000000000000815260040160405180910390fd5b600260149054906101000a900460ff161580156103d55750600060015414155b1561044657600260009054906101000a900473ffffffffffffffffffffffffffffffffffffffff1673ffffffffffffffffffffffffffffffffffffffff166108fc6001549081150290604051600060405180830381858888f19350505050158015610444573d6000803e3d6000fd5b505b60006001819055506000600260006101000a81548173ffffffffffffffffffffffffffffffffffffffff021916908373ffffffffffffffffffffffffffffffffffffffff1602179055506000600260146101000a81548160ff0219169083151502179055507fd9463465c2ef1e1dd20090d1d30d48dd6075133448fe55a18423f9e9d3fda23460405160405180910390a1565b600260149054906101000a900460ff1681565b60008060009054906101000a900473ffffffffffffffffffffffffffffffffffffffff16905090565b600260009054906101000a900473ffffffffffffffffffffffffffffffffffffffff1681565b60015481565b60008054906101000a900473ffffffffffffffffffffffffffffffffffffffff1673ffffffffffffffffffffffffffffffffffffffff163373ffffffffffffffffffffffffffffffffffffffff16146105c6576040517f82b4290000000000000000000000000000000000000000000000000000000000815260040160405180910390fd5b600260149054906101000a900460ff161561060d576040517fd02e774d00000000000000000000000000000000000000000000000000000000815260040160405180910390fd5b6001600260146101000a81548160ff0219169083151502179055507fdaec4582d5d9595688c8c98545fdd1c696d41c6aeaeb636737e84ed2f5c00eda600260009054906101000a900473ffffffffffffffffffffffffffffffffffffffff1660015460405161067d929190610738565b60405180910390a160008054906101000a900473ffffffffffffffffffffffffffffffffffffffff1673ffffffffffffffffffffffffffffffffffffffff166108fc6001549081150290604051600060405180830381858888f193505050501580156106ed573d6000803e3d6000fd5b50565b6106f981610797565b82525050565b610708816107a9565b82525050565b610717816107d5565b82525050565b600060208201905061073260008301846106f0565b92915050565b600060408201905061074d60008301856106f0565b61075a602083018461070e565b9392505050565b600060208201905061077660008301846106ff565b92915050565b6000602082019050610791600083018461070e565b92915050565b60006107a2826107b5565b9050919050565b60008115159050919050565b600073ffffffffffffffffffffffffffffffffffffffff82169050919050565b600081905091905056fea264697066735822122022ba5b77283a79732203ab6308ca3976197b36a2e3429ae8ef9343713a41e69864736f6c63430008040033",
  "immutableReferences": {},
  "source": "// SPDX-License-Identifier: MIT\r\npragma solidity ^0.8.4;\r\n\r\n/*\r\n    PROBLEMA: Crear un contrato de subasta donde:\r\n\r\n    01 • Los usuarios puedan hacer ofertas (bids) enviando Ether.\r\n    02 • Solo el propietario pueda finalizar la subasta.\r\n    03 • El contrato registre eventos cuando se hagan ofertas y cuando la subasta termine.\r\n    04 • Solo se acepte una oferta si es mayor que la oferta actual más alta.\r\n    05 • Cuando se finaliza la subasta, los fondos se transferirán al propietario.\r\n*/\r\n\r\ncontract SimpleAuction {\r\n    address private owner;\r\n    uint public highestBid;\r\n    address public highestBidder;\r\n    bool public auctionEnded;\r\n\r\n    event HighestBidIncreased(address indexed bidder, uint amount);\r\n    event AuctionEnded(address winner, uint amount);\r\n    event AuctionReset();\r\n\r\n    // Errores personalizados\r\n    error Unauthorized();\r\n    error AuctionAlreadyEnded();\r\n    error BidNotHighEnough(uint currentBid);\r\n    error NoFundsToWithdraw();\r\n\r\n    modifier onlyOwner() {\r\n        if (msg.sender != owner) {\r\n            revert Unauthorized(); // Error personalizado si no es el propietario\r\n        }\r\n        _;\r\n    }\r\n\r\n    modifier auctionActive() {\r\n        if (auctionEnded) {\r\n            revert AuctionAlreadyEnded(); // Error personalizado si la subasta ha terminado\r\n        }\r\n        _;\r\n    }\r\n\r\n    constructor() {\r\n        owner = msg.sender;\r\n        auctionEnded = false;\r\n    }\r\n\r\n    function getOwner() public view returns (address) {\r\n        return owner;\r\n    }\r\n\r\n    // Función para realizar ofertas\r\n    function bid() public payable auctionActive {\r\n        if (msg.value <= 0) {\r\n            revert NoFundsToWithdraw(); // Error personalizado si la oferta es cero o menor\r\n        }\r\n        if (msg.value <= highestBid) {\r\n            revert BidNotHighEnough(highestBid); // Error personalizado si la oferta no es suficiente\r\n        }\r\n\r\n        if (highestBid != 0) {\r\n            // Devolver el Ether al ofertante anterior\r\n            payable(highestBidder).transfer(highestBid);\r\n        }\r\n\r\n        highestBid = msg.value;\r\n        highestBidder = msg.sender;\r\n        emit HighestBidIncreased(msg.sender, msg.value);\r\n    }\r\n\r\n    // Función para finalizar la subasta\r\n    function endAuction() public onlyOwner auctionActive {\r\n        auctionEnded = true;\r\n        emit AuctionEnded(highestBidder, highestBid);\r\n\r\n        // Transferir los fondos al propietario\r\n        payable(owner).transfer(highestBid);\r\n    }\r\n\r\n    // Nueva función para reiniciar la subasta\r\n    function resetAuction() public onlyOwner {\r\n        // Si la subasta no ha terminado y hay una oferta, devolver el Ether al ofertante más alto\r\n        if (!auctionEnded && highestBid != 0) {\r\n            payable(highestBidder).transfer(highestBid);\r\n        }\r\n\r\n        // Reiniciar el estado de la subasta\r\n        highestBid = 0;\r\n        highestBidder = address(0);\r\n        auctionEnded = false;\r\n\r\n        emit AuctionReset();\r\n    }    \r\n}",
  "sourcePath": "D:\\Blockchain\\Projects\\MyContracts\\src\\contracts\\SimpleAuction.sol",
  "compiler": {
    "name": "solc",
    "version": "0.8.4+commit.c7e474f2.Emscripten.clang"
  },
  "schemaVersion": "3.4.16",
  "updatedAt": "2024-11-07T16:34:52.492Z",
  "networkType": "ethereum",
  "devdoc": {
    "kind": "dev",
    "methods": {},
    "version": 1
  },
  "userdoc": {
    "kind": "user",
    "methods": {},
    "version": 1
  }
}