{
  "contractName": "StakingPlatform",
  "abi": [
    {
      "inputs": [
        {
          "internalType": "address",
          "name": "_stakingToken",
          "type": "address"
        },
        {
          "internalType": "address",
          "name": "_rewardToken",
          "type": "address"
        },
        {
          "internalType": "uint256",
          "name": "_apr",
          "type": "uint256"
        }
      ],
      "stateMutability": "nonpayable",
      "type": "constructor"
    },
    {
      "anonymous": false,
      "inputs": [
        {
          "indexed": true,
          "internalType": "address",
          "name": "previousOwner",
          "type": "address"
        },
        {
          "indexed": true,
          "internalType": "address",
          "name": "newOwner",
          "type": "address"
        }
      ],
      "name": "OwnershipTransferred",
      "type": "event"
    },
    {
      "inputs": [],
      "name": "FAKE_RWD_PRICE",
      "outputs": [
        {
          "internalType": "uint256",
          "name": "",
          "type": "uint256"
        }
      ],
      "stateMutability": "view",
      "type": "function",
      "constant": true
    },
    {
      "inputs": [],
      "name": "accelerator",
      "outputs": [
        {
          "internalType": "uint256",
          "name": "",
          "type": "uint256"
        }
      ],
      "stateMutability": "view",
      "type": "function",
      "constant": true
    },
    {
      "inputs": [],
      "name": "apr",
      "outputs": [
        {
          "internalType": "uint256",
          "name": "",
          "type": "uint256"
        }
      ],
      "stateMutability": "view",
      "type": "function",
      "constant": true
    },
    {
      "inputs": [],
      "name": "owner",
      "outputs": [
        {
          "internalType": "address",
          "name": "",
          "type": "address"
        }
      ],
      "stateMutability": "view",
      "type": "function",
      "constant": true
    },
    {
      "inputs": [],
      "name": "renounceOwnership",
      "outputs": [],
      "stateMutability": "nonpayable",
      "type": "function"
    },
    {
      "inputs": [],
      "name": "reward",
      "outputs": [
        {
          "internalType": "contract RewardToken",
          "name": "",
          "type": "address"
        }
      ],
      "stateMutability": "view",
      "type": "function",
      "constant": true
    },
    {
      "inputs": [
        {
          "internalType": "uint256",
          "name": "",
          "type": "uint256"
        }
      ],
      "name": "stakerAddresses",
      "outputs": [
        {
          "internalType": "address",
          "name": "",
          "type": "address"
        }
      ],
      "stateMutability": "view",
      "type": "function",
      "constant": true
    },
    {
      "inputs": [
        {
          "internalType": "address",
          "name": "",
          "type": "address"
        }
      ],
      "name": "stakers",
      "outputs": [
        {
          "internalType": "uint256",
          "name": "amount",
          "type": "uint256"
        },
        {
          "internalType": "uint256",
          "name": "lastUpdateTime",
          "type": "uint256"
        },
        {
          "internalType": "uint256",
          "name": "rewards",
          "type": "uint256"
        }
      ],
      "stateMutability": "view",
      "type": "function",
      "constant": true
    },
    {
      "inputs": [],
      "name": "staking",
      "outputs": [
        {
          "internalType": "contract StakingToken",
          "name": "",
          "type": "address"
        }
      ],
      "stateMutability": "view",
      "type": "function",
      "constant": true
    },
    {
      "inputs": [],
      "name": "totalStaked",
      "outputs": [
        {
          "internalType": "uint256",
          "name": "",
          "type": "uint256"
        }
      ],
      "stateMutability": "view",
      "type": "function",
      "constant": true
    },
    {
      "inputs": [
        {
          "internalType": "address",
          "name": "newOwner",
          "type": "address"
        }
      ],
      "name": "transferOwnership",
      "outputs": [],
      "stateMutability": "nonpayable",
      "type": "function"
    },
    {
      "inputs": [
        {
          "internalType": "uint256",
          "name": "amount",
          "type": "uint256"
        }
      ],
      "name": "stake",
      "outputs": [],
      "stateMutability": "nonpayable",
      "type": "function"
    },
    {
      "inputs": [],
      "name": "unStake",
      "outputs": [],
      "stateMutability": "nonpayable",
      "type": "function"
    },
    {
      "inputs": [
        {
          "internalType": "address",
          "name": "user",
          "type": "address"
        }
      ],
      "name": "calculateRewards",
      "outputs": [
        {
          "internalType": "uint256",
          "name": "",
          "type": "uint256"
        }
      ],
      "stateMutability": "view",
      "type": "function",
      "constant": true
    },
    {
      "inputs": [
        {
          "internalType": "uint256",
          "name": "_apr",
          "type": "uint256"
        }
      ],
      "name": "setAPR",
      "outputs": [],
      "stateMutability": "nonpayable",
      "type": "function"
    },
    {
      "inputs": [
        {
          "internalType": "uint256",
          "name": "_accelerator",
          "type": "uint256"
        }
      ],
      "name": "setAccelerator",
      "outputs": [],
      "stateMutability": "nonpayable",
      "type": "function"
    },
    {
      "inputs": [
        {
          "internalType": "address",
          "name": "user",
          "type": "address"
        }
      ],
      "name": "getRewardValueInUSDT",
      "outputs": [
        {
          "internalType": "uint256",
          "name": "",
          "type": "uint256"
        }
      ],
      "stateMutability": "view",
      "type": "function",
      "constant": true
    }
  ],
  "bytecode": "0x6080604052620186a060055534801561001757600080fd5b50604051610d31380380610d31833981016040819052610036916100e7565b61003f3361007b565b60018055600280546001600160a01b039485166001600160a01b0319918216179091556003805493909416921691909117909155600455610122565b600080546001600160a01b038381166001600160a01b0319831681178455604051919092169283917f8be0079c531659141344cd1fd0a4f28419497f9722a3daafe3b4186f6b6457e09190a35050565b80516001600160a01b03811681146100e257600080fd5b919050565b6000806000606084860312156100fb578283fd5b610104846100cb565b9250610112602085016100cb565b9150604084015190509250925092565b610c00806101316000396000f3fe608060405234801561001057600080fd5b506004361061010b5760003560e01c806373cf575a116100a25780639168ae72116100715780639168ae72146101eb578063a694fc3a14610235578063f2fde38b14610248578063f6e2d02b1461025b578063fd75c1361461026e57600080fd5b806373cf575a146101b6578063817b1cd2146101be578063854303cf146101c75780638da5cb5b146101da57600080fd5b80634cf088d9116100de5780634cf088d91461017f57806357ded9c91461019257806364ab86751461019b578063715018a6146101ae57600080fd5b80631c05ca8d146101105780631ce485a41461012c578063228cb73314610141578063459598a21461016c575b600080fd5b61011960055481565b6040519081526020015b60405180910390f35b61013f61013a366004610ade565b610278565b005b600354610154906001600160a01b031681565b6040516001600160a01b039091168152602001610123565b61015461017a366004610ade565b6102b0565b600254610154906001600160a01b031681565b61011960045481565b6101196101a9366004610a90565b6102da565b61013f61036d565b61013f6103a3565b61011960065481565b61013f6101d5366004610ade565b6105a8565b6000546001600160a01b0316610154565b61021a6101f9366004610a90565b60076020526000908152604090208054600182015460029092015490919083565b60408051938452602084019290925290820152606001610123565b61013f610243366004610ade565b610657565b61013f610256366004610a90565b610835565b610119610269366004610a90565b6108d0565b610119624c4b4081565b6000546001600160a01b031633146102ab5760405162461bcd60e51b81526004016102a290610af6565b60405180910390fd5b600555565b600881815481106102c057600080fd5b6000918252602090912001546001600160a01b0316905081565b6001600160a01b03811660009081526007602052604081208054610302576002015492915050565b60008160010154426103149190610b82565b90506103266301e13380612710610b63565b60055460045484546103389085610b63565b6103429190610b63565b61034c9190610b63565b6103569190610b43565b82600201546103659190610b2b565b949350505050565b6000546001600160a01b031633146103975760405162461bcd60e51b81526004016102a290610af6565b6103a160006108fc565b565b600260015414156103f65760405162461bcd60e51b815260206004820152601f60248201527f5265656e7472616e637947756172643a207265656e7472616e742063616c6c0060448201526064016102a2565b600260015533600090815260076020526040902080546104585760405162461bcd60e51b815260206004820152601e60248201527f43616e746964616420696e76616c69646120706172612072657469726172000060448201526064016102a2565b610461336102da565b426001830155815460006002840181905580845560068054839290610487908490610b82565b909155505060025460405163a9059cbb60e01b8152336004820152602481018390526001600160a01b039091169063a9059cbb90604401602060405180830381600087803b1580156104d857600080fd5b505af11580156104ec573d6000803e3d6000fd5b505050506040513d601f19601f820116820180604052508101906105109190610abe565b5060035460405163a9059cbb60e01b8152336004820152602481018490526001600160a01b039091169063a9059cbb90604401602060405180830381600087803b15801561055d57600080fd5b505af1158015610571573d6000803e3d6000fd5b505050506040513d601f19601f820116820180604052508101906105959190610abe565b5061059f3361094c565b50506001805550565b6000546001600160a01b031633146105d25760405162461bcd60e51b81526004016102a290610af6565b60005b6008548110156106515760006008828154811061060257634e487b7160e01b600052603260045260246000fd5b60009182526020808320909101546001600160a01b031680835260079091526040909120909150610632826102da565b600282015542600190910155508061064981610b99565b9150506105d5565b50600455565b600260015414156106aa5760405162461bcd60e51b815260206004820152601f60248201527f5265656e7472616e637947756172643a207265656e7472616e742063616c6c0060448201526064016102a2565b6002600155806106fc5760405162461bcd60e51b815260206004820152601e60248201527f43616e746964616420696e76616c6964612070617261207374616b696e67000060448201526064016102a2565b336000908152600760205260409020805461075457600880546001810182556000919091527ff3f7a9fe364faab93b216da50a3214154f22a0a2b415b23a84c8169e8b636ee30180546001600160a01b031916331790555b80541561076a57610764336102da565b60028201555b4260018201556002546040516323b872dd60e01b8152336004820152306024820152604481018490526001600160a01b03909116906323b872dd90606401602060405180830381600087803b1580156107c257600080fd5b505af11580156107d6573d6000803e3d6000fd5b505050506040513d601f19601f820116820180604052508101906107fa9190610abe565b508181600001600082825461080f9190610b2b565b9250508190555081600660008282546108289190610b2b565b9091555050600180555050565b6000546001600160a01b0316331461085f5760405162461bcd60e51b81526004016102a290610af6565b6001600160a01b0381166108c45760405162461bcd60e51b815260206004820152602660248201527f4f776e61626c653a206e6577206f776e657220697320746865207a65726f206160448201526564647265737360d01b60648201526084016102a2565b6108cd816108fc565b50565b6000806108dc836102da565b905060006305f5e1006108f2624c4b4084610b63565b6103659190610b43565b600080546001600160a01b038381166001600160a01b0319831681178455604051919092169283917f8be0079c531659141344cd1fd0a4f28419497f9722a3daafe3b4186f6b6457e09190a35050565b60085460005b81811015610a8b57826001600160a01b03166008828154811061098557634e487b7160e01b600052603260045260246000fd5b6000918252602090912001546001600160a01b03161415610a795760086109ad600184610b82565b815481106109cb57634e487b7160e01b600052603260045260246000fd5b600091825260209091200154600880546001600160a01b039092169183908110610a0557634e487b7160e01b600052603260045260246000fd5b9060005260206000200160006101000a8154816001600160a01b0302191690836001600160a01b031602179055506008805480610a5257634e487b7160e01b600052603160045260246000fd5b600082815260209020810160001990810180546001600160a01b0319169055019055505050565b80610a8381610b99565b915050610952565b505050565b600060208284031215610aa1578081fd5b81356001600160a01b0381168114610ab7578182fd5b9392505050565b600060208284031215610acf578081fd5b81518015158114610ab7578182fd5b600060208284031215610aef578081fd5b5035919050565b6020808252818101527f4f776e61626c653a2063616c6c6572206973206e6f7420746865206f776e6572604082015260600190565b60008219821115610b3e57610b3e610bb4565b500190565b600082610b5e57634e487b7160e01b81526012600452602481fd5b500490565b6000816000190483118215151615610b7d57610b7d610bb4565b500290565b600082821015610b9457610b94610bb4565b500390565b6000600019821415610bad57610bad610bb4565b5060010190565b634e487b7160e01b600052601160045260246000fdfea2646970667358221220ec8636c2a891ab386ed25aceec7a6bfdebbc0602d8f506f2c9d59fd06f44be3964736f6c63430008040033",
  "immutableReferences": {},
  "source": "// SPDX-License-Identifier: MIT\r\npragma solidity ^0.8.4;\r\n\r\nimport \"./StakingToken.sol\";\r\nimport \"./RewardToken.sol\";\r\nimport \"@openzeppelin/contracts/access/Ownable.sol\";\r\nimport \"@openzeppelin/contracts/security/ReentrancyGuard.sol\";\r\n\r\n// Propietario: 0x5B38Da6a701c568545dCfcB03FcB875f56beddC4\r\n// Alice: 0xAb8483F64d9C6d1EcF9b849Ae677dD3315835cb2\r\n// Bob: 0x4B20993Bc481177ec7E8f571ceCaE8A9e22C02db\r\n\r\n/**\r\n * @title StakingPlatform\r\n * @dev Contrato para hacer staking de tokens y generar recompensas segn un APR configurable.\r\n *      Adems, se agrega un factor de aceleracin (accelerator) para simular recompensas ms rpidas.\r\n */\r\ncontract StakingPlatform is Ownable, ReentrancyGuard {\r\n    StakingToken public staking;\r\n    RewardToken public reward;\r\n\r\n    // APR en basis points. Por ejemplo, 1250 equivale a un 12.50% anual.\r\n    uint256 public apr;\r\n\r\n    // Nmero de segundos en un ao (365 das).\r\n    // 365 das * 24 horas/da * 60 min/hora * 60 seg/min = 31536000 seg.\r\n    uint256 private constant SECONDS_IN_YEAR = 31536000;\r\n\r\n    // Factor de aceleracin para simular recompensas ms rpidas.\r\n    // 1 significa sin aceleracin; 2 significa el doble de rpido, etc.\r\n    uint256 public accelerator = 100000;\r\n\r\n    // Total de tokens apostados.\r\n    uint256 public totalStaked;\r\n\r\n    // Valor ficticio para RWD en USDT (para pruebas).\r\n    // Queremos que 1 RWD valga $0.05. Con 8 decimales: 0.05 * 10^8 = 5000000.\r\n    uint256 public constant FAKE_RWD_PRICE = 5000000;\r\n\r\n    struct Staker {\r\n        uint256 amount; // Tokens apostados por el usuario.\r\n        uint256 lastUpdateTime; // ltima vez que el usuario interactu con el contrato.\r\n        uint256 rewards; // Recompensas acumuladas hasta la ltima actualizacin.\r\n    }\r\n\r\n    mapping(address => Staker) public stakers;\r\n\r\n    // Array para almacenar las direcciones de todos los stakers activos.\r\n    address[] public stakerAddresses;\r\n\r\n    /**\r\n     * @dev Constructor que inicializa el contrato.\r\n     * @param _stakingToken Direccin del contrato StakingToken.\r\n     * @param _rewardToken Direccin del contrato RewardToken.\r\n     * @param _apr APR inicial en basis points (por ejemplo, 1250 para 12.50% anual).\r\n     */\r\n    constructor(address _stakingToken, address _rewardToken, uint256 _apr) {\r\n        staking = StakingToken(_stakingToken);\r\n        reward = RewardToken(_rewardToken);\r\n        apr = _apr;\r\n    }\r\n\r\n    /**\r\n     * @notice Permite a los usuarios apostar tokens.\r\n     * @param amount Cantidad de tokens a apostar.\r\n     */\r\n    function stake(uint256 amount) external nonReentrant {\r\n        require(amount > 0, \"Cantidad invalida para staking\");\r\n\r\n        Staker storage staker = stakers[msg.sender];\r\n\r\n        // Si es el primer staking del usuario, lo agregamos al array de stakers.\r\n        if (staker.amount == 0) {\r\n            stakerAddresses.push(msg.sender);\r\n        }\r\n\r\n        // Si ya tiene tokens apostados, actualizamos sus recompensas.\r\n        if (staker.amount > 0) {\r\n            staker.rewards = calculateRewards(msg.sender);\r\n        }\r\n\r\n        // Actualizamos el ltimo timestamp.\r\n        staker.lastUpdateTime = block.timestamp;\r\n\r\n        // Transferimos tokens del usuario al contrato.\r\n        staking.transferFrom(msg.sender, address(this), amount);\r\n        staker.amount += amount;\r\n        totalStaked += amount;\r\n    }\r\n\r\n    /**\r\n     * @notice Permite a los usuarios retirar sus tokens apostados junto con las recompensas.\r\n     */\r\n    function unStake() external nonReentrant {\r\n        Staker storage staker = stakers[msg.sender];\r\n        require(staker.amount > 0, \"Cantidad invalida para retirar\");\r\n\r\n        // Actualizamos las recompensas acumuladas antes de retirar.\r\n        // Usamos \"=\" en lugar de \"+=\" para evitar duplicar lo ya acumulado.\r\n        staker.rewards = calculateRewards(msg.sender);\r\n        staker.lastUpdateTime = block.timestamp;\r\n\r\n        uint256 rewardsToTransfer = staker.rewards;\r\n        uint256 amountToReturn = staker.amount;\r\n\r\n        // Reiniciamos los valores del usuario.\r\n        staker.rewards = 0;\r\n        staker.amount = 0;\r\n        totalStaked -= amountToReturn;\r\n\r\n        // Transferimos los tokens apostados y las recompensas acumuladas.\r\n        staking.transfer(msg.sender, amountToReturn);\r\n        reward.transfer(msg.sender, rewardsToTransfer);\r\n\r\n        // Removemos la direccin del staker del array, ya que ya no est realizando staking.\r\n        removeStaker(msg.sender);\r\n    }\r\n\r\n    /**\r\n     * @notice Calcula las recompensas acumuladas para un usuario usando APR y un factor de aceleracin.\r\n     * @param user Direccin del usuario.\r\n     * @return La cantidad total de recompensas acumuladas.\r\n     *\r\n     * Frmula base:\r\n     *   rewards = recompensas previas +\r\n     *     (timeDifference * staker.amount * apr * accelerator) / (10000 * SECONDS_IN_YEAR)\r\n     *\r\n     * Donde:\r\n     *   - apr/10000 es el APR anual en forma fraccionaria (por ejemplo, 1250 -> 0.125).\r\n     *   - accelerator = 1 => sin aceleracin, 2 => doble de rpido, etc.\r\n     */\r\n    function calculateRewards(address user) public view returns (uint256) {\r\n        Staker storage staker = stakers[user];\r\n        if (staker.amount == 0) {\r\n            return staker.rewards;\r\n        }\r\n\r\n        uint256 timeDifference = block.timestamp - staker.lastUpdateTime;\r\n        return\r\n            staker.rewards +\r\n            ((timeDifference * staker.amount * apr * accelerator) /\r\n                (10000 * SECONDS_IN_YEAR));\r\n    }\r\n\r\n    /**\r\n     * @notice Permite al owner actualizar el APR.\r\n     * Antes de asignar el nuevo APR, liquida las recompensas acumuladas de todos los stakers\r\n     * usando el APR anterior y actualiza su lastUpdateTime.\r\n     * @param _apr Nuevo APR en basis points (por ejemplo, 3500 para 35.00% anual).\r\n     */\r\n    function setAPR(uint256 _apr) external onlyOwner {\r\n        for (uint256 i = 0; i < stakerAddresses.length; i++) {\r\n            address stakerAddr = stakerAddresses[i];\r\n            Staker storage staker = stakers[stakerAddr];\r\n            // Liquidamos las recompensas utilizando el APR vigente.\r\n            staker.rewards = calculateRewards(stakerAddr);\r\n            // Reiniciamos el tiempo para que la nueva acumulacin se realice con el nuevo APR.\r\n            staker.lastUpdateTime = block.timestamp;\r\n        }\r\n        apr = _apr;\r\n    }\r\n\r\n    /**\r\n     * @notice Permite al owner actualizar el factor de aceleracin (accelerator).\r\n     * @param _accelerator Nuevo factor de aceleracin (1 = sin aceleracin).\r\n     */\r\n    function setAccelerator(uint256 _accelerator) external onlyOwner {\r\n        accelerator = _accelerator;\r\n    }\r\n\r\n    /**\r\n     * @notice Obtiene el valor en USDT de las recompensas acumuladas para un usuario.\r\n     * @param user Direccin del usuario.\r\n     * @return El valor de las recompensas en USDT.\r\n     *\r\n     * Para pruebas, se utiliza un valor ficticio (FAKE_RWD_PRICE) que define el precio de RWD en USDT.\r\n     * En este caso, FAKE_RWD_PRICE = 5000000, lo que significa que 1 RWD equivale a $0.05.\r\n     */\r\n    function getRewardValueInUSDT(address user) public view returns (uint256) {\r\n        uint256 rewards = calculateRewards(user);\r\n        uint256 usdtValue = (rewards * FAKE_RWD_PRICE) / (10 ** 8);\r\n        return usdtValue;\r\n    }\r\n\r\n    /**\r\n     * @dev Funcin interna para remover una direccin del array stakerAddresses.\r\n     * Se utiliza cuando un usuario realiza unstake y ya no tiene tokens apostados.\r\n     * @param stakerAddr Direccin del staker a remover.\r\n     */\r\n    function removeStaker(address stakerAddr) internal {\r\n        uint256 length = stakerAddresses.length;\r\n        for (uint256 i = 0; i < length; i++) {\r\n            if (stakerAddresses[i] == stakerAddr) {\r\n                stakerAddresses[i] = stakerAddresses[length - 1];\r\n                stakerAddresses.pop();\r\n                break;\r\n            }\r\n        }\r\n    }\r\n}\r\n",
  "sourcePath": "D:\\Blockchain\\Projects\\Solidity\\staking-ui\\src\\contracts\\StakingPlatform.sol",
  "compiler": {
    "name": "solc",
    "version": "0.8.4+commit.c7e474f2.Emscripten.clang"
  },
  "schemaVersion": "3.4.16",
  "updatedAt": "2025-02-24T15:55:35.995Z",
  "networkType": "ethereum",
  "devdoc": {
    "details": "Contrato para hacer staking de tokens y generar recompensas segn un APR configurable.      Adems, se agrega un factor de aceleracin (accelerator) para simular recompensas ms rpidas.",
    "kind": "dev",
    "methods": {
      "calculateRewards(address)": {
        "params": {
          "user": "Direccin del usuario."
        },
        "returns": {
          "_0": "La cantidad total de recompensas acumuladas. Frmula base:   rewards = recompensas previas +     (timeDifference * staker.amount * apr * accelerator) / (10000 * SECONDS_IN_YEAR) Donde:   - apr/10000 es el APR anual en forma fraccionaria (por ejemplo, 1250 -> 0.125).   - accelerator = 1 => sin aceleracin, 2 => doble de rpido, etc."
        }
      },
      "constructor": {
        "details": "Constructor que inicializa el contrato.",
        "params": {
          "_apr": "APR inicial en basis points (por ejemplo, 1250 para 12.50% anual).",
          "_rewardToken": "Direccin del contrato RewardToken.",
          "_stakingToken": "Direccin del contrato StakingToken."
        }
      },
      "getRewardValueInUSDT(address)": {
        "params": {
          "user": "Direccin del usuario."
        },
        "returns": {
          "_0": "El valor de las recompensas en USDT. Para pruebas, se utiliza un valor ficticio (FAKE_RWD_PRICE) que define el precio de RWD en USDT. En este caso, FAKE_RWD_PRICE = 5000000, lo que significa que 1 RWD equivale a $0.05."
        }
      },
      "owner()": {
        "details": "Returns the address of the current owner."
      },
      "renounceOwnership()": {
        "details": "Leaves the contract without owner. It will not be possible to call `onlyOwner` functions anymore. Can only be called by the current owner. NOTE: Renouncing ownership will leave the contract without an owner, thereby removing any functionality that is only available to the owner."
      },
      "setAPR(uint256)": {
        "params": {
          "_apr": "Nuevo APR en basis points (por ejemplo, 3500 para 35.00% anual)."
        }
      },
      "setAccelerator(uint256)": {
        "params": {
          "_accelerator": "Nuevo factor de aceleracin (1 = sin aceleracin)."
        }
      },
      "stake(uint256)": {
        "params": {
          "amount": "Cantidad de tokens a apostar."
        }
      },
      "transferOwnership(address)": {
        "details": "Transfers ownership of the contract to a new account (`newOwner`). Can only be called by the current owner."
      }
    },
    "title": "StakingPlatform",
    "version": 1
  },
  "userdoc": {
    "kind": "user",
    "methods": {
      "calculateRewards(address)": {
        "notice": "Calcula las recompensas acumuladas para un usuario usando APR y un factor de aceleracin."
      },
      "getRewardValueInUSDT(address)": {
        "notice": "Obtiene el valor en USDT de las recompensas acumuladas para un usuario."
      },
      "setAPR(uint256)": {
        "notice": "Permite al owner actualizar el APR. Antes de asignar el nuevo APR, liquida las recompensas acumuladas de todos los stakers usando el APR anterior y actualiza su lastUpdateTime."
      },
      "setAccelerator(uint256)": {
        "notice": "Permite al owner actualizar el factor de aceleracin (accelerator)."
      },
      "stake(uint256)": {
        "notice": "Permite a los usuarios apostar tokens."
      },
      "unStake()": {
        "notice": "Permite a los usuarios retirar sus tokens apostados junto con las recompensas."
      }
    },
    "version": 1
  }
}