{
	"contracts/01_bucles_condicionales.sol": {
		"loops_condicionals": {
			"abi": [
				{
					"inputs": [],
					"name": "impares",
					"outputs": [
						{
							"internalType": "uint256",
							"name": "",
							"type": "uint256"
						}
					],
					"stateMutability": "pure",
					"type": "function"
				},
				{
					"inputs": [
						{
							"internalType": "string",
							"name": "_operation",
							"type": "string"
						},
						{
							"internalType": "uint256",
							"name": "_a",
							"type": "uint256"
						},
						{
							"internalType": "uint256",
							"name": "_b",
							"type": "uint256"
						}
					],
					"name": "operations",
					"outputs": [
						{
							"internalType": "uint256",
							"name": "",
							"type": "uint256"
						}
					],
					"stateMutability": "pure",
					"type": "function"
				},
				{
					"inputs": [
						{
							"internalType": "uint256",
							"name": "_number",
							"type": "uint256"
						}
					],
					"name": "sumarV1",
					"outputs": [
						{
							"internalType": "uint256",
							"name": "",
							"type": "uint256"
						}
					],
					"stateMutability": "pure",
					"type": "function"
				},
				{
					"inputs": [
						{
							"internalType": "uint256",
							"name": "_number",
							"type": "uint256"
						}
					],
					"name": "sumarV2",
					"outputs": [
						{
							"internalType": "uint256",
							"name": "",
							"type": "uint256"
						}
					],
					"stateMutability": "pure",
					"type": "function"
				}
			],
			"devdoc": {
				"kind": "dev",
				"methods": {},
				"version": 1
			},
			"evm": {
				"assembly": "    /* \"contracts/01_bucles_condicionales.sol\":69:2059  contract loops_condicionals {... */\n  mstore(0x40, 0x80)\n  callvalue\n  dup1\n  iszero\n  tag_1\n  jumpi\n  0x00\n  dup1\n  revert\ntag_1:\n  pop\n  dataSize(sub_0)\n  dup1\n  dataOffset(sub_0)\n  0x00\n  codecopy\n  0x00\n  return\nstop\n\nsub_0: assembly {\n        /* \"contracts/01_bucles_condicionales.sol\":69:2059  contract loops_condicionals {... */\n      mstore(0x40, 0x80)\n      callvalue\n      dup1\n      iszero\n      tag_1\n      jumpi\n      0x00\n      dup1\n      revert\n    tag_1:\n      pop\n      jumpi(tag_2, lt(calldatasize, 0x04))\n      shr(0xe0, calldataload(0x00))\n      dup1\n      0x5ffe8733\n      eq\n      tag_3\n      jumpi\n      dup1\n      0xb43ea79d\n      eq\n      tag_4\n      jumpi\n      dup1\n      0xbd5dd664\n      eq\n      tag_5\n      jumpi\n      dup1\n      0xf879f5c7\n      eq\n      tag_6\n      jumpi\n    tag_2:\n      0x00\n      dup1\n      revert\n        /* \"contracts/01_bucles_condicionales.sol\":1362:2057  function operations(... */\n    tag_3:\n      tag_7\n      0x04\n      dup1\n      calldatasize\n      sub\n      dup2\n      add\n      swap1\n      tag_8\n      swap2\n      swap1\n      tag_9\n      jump\t// in\n    tag_8:\n      tag_10\n      jump\t// in\n    tag_7:\n      mload(0x40)\n      tag_11\n      swap2\n      swap1\n      tag_12\n      jump\t// in\n    tag_11:\n      mload(0x40)\n      dup1\n      swap2\n      sub\n      swap1\n      return\n        /* \"contracts/01_bucles_condicionales.sol\":459:863  function sumarV2(uint256 _number) public pure returns (uint256) {... */\n    tag_4:\n      tag_13\n      0x04\n      dup1\n      calldatasize\n      sub\n      dup2\n      add\n      swap1\n      tag_14\n      swap2\n      swap1\n      tag_15\n      jump\t// in\n    tag_14:\n      tag_16\n      jump\t// in\n    tag_13:\n      mload(0x40)\n      tag_17\n      swap2\n      swap1\n      tag_12\n      jump\t// in\n    tag_17:\n      mload(0x40)\n      dup1\n      swap2\n      sub\n      swap1\n      return\n        /* \"contracts/01_bucles_condicionales.sol\":176:453  function sumarV1(uint256 _number) public pure returns (uint256) {... */\n    tag_5:\n      tag_18\n      0x04\n      dup1\n      calldatasize\n      sub\n      dup2\n      add\n      swap1\n      tag_19\n      swap2\n      swap1\n      tag_15\n      jump\t// in\n    tag_19:\n      tag_20\n      jump\t// in\n    tag_18:\n      mload(0x40)\n      tag_21\n      swap2\n      swap1\n      tag_12\n      jump\t// in\n    tag_21:\n      mload(0x40)\n      dup1\n      swap2\n      sub\n      swap1\n      return\n        /* \"contracts/01_bucles_condicionales.sol\":916:1307  function impares() public pure returns (uint256) {... */\n    tag_6:\n      tag_22\n      tag_23\n      jump\t// in\n    tag_22:\n      mload(0x40)\n      tag_24\n      swap2\n      swap1\n      tag_12\n      jump\t// in\n    tag_24:\n      mload(0x40)\n      dup1\n      swap2\n      sub\n      swap1\n      return\n        /* \"contracts/01_bucles_condicionales.sol\":1362:2057  function operations(... */\n    tag_10:\n        /* \"contracts/01_bucles_condicionales.sol\":1483:1490  uint256 */\n      0x00\n        /* \"contracts/01_bucles_condicionales.sol\":1534:1557  bytes32 hash_opertation */\n      dup1\n        /* \"contracts/01_bucles_condicionales.sol\":1587:1597  _operation */\n      dup5\n        /* \"contracts/01_bucles_condicionales.sol\":1570:1598  abi.encodePacked(_operation) */\n      add(0x20, mload(0x40))\n      tag_26\n      swap2\n      swap1\n      tag_27\n      jump\t// in\n    tag_26:\n      mload(0x40)\n      0x20\n      dup2\n      dup4\n      sub\n      sub\n      dup2\n      mstore\n      swap1\n      0x40\n      mstore\n        /* \"contracts/01_bucles_condicionales.sol\":1560:1599  keccak256(abi.encodePacked(_operation)) */\n      dup1\n      mload\n      swap1\n      0x20\n      add\n      keccak256\n        /* \"contracts/01_bucles_condicionales.sol\":1534:1599  bytes32 hash_opertation = keccak256(abi.encodePacked(_operation)) */\n      swap1\n      pop\n        /* \"contracts/01_bucles_condicionales.sol\":1643:1664  abi.encodePacked(\"+\") */\n      add(0x20, mload(0x40))\n      tag_28\n      swap1\n      tag_29\n      jump\t// in\n    tag_28:\n      mload(0x40)\n      0x20\n      dup2\n      dup4\n      sub\n      sub\n      dup2\n      mstore\n      swap1\n      0x40\n      mstore\n        /* \"contracts/01_bucles_condicionales.sol\":1633:1665  keccak256(abi.encodePacked(\"+\")) */\n      dup1\n      mload\n      swap1\n      0x20\n      add\n      keccak256\n        /* \"contracts/01_bucles_condicionales.sol\":1614:1629  hash_opertation */\n      dup2\n        /* \"contracts/01_bucles_condicionales.sol\":1614:1665  hash_opertation == keccak256(abi.encodePacked(\"+\")) */\n      sub\n        /* \"contracts/01_bucles_condicionales.sol\":1610:2051  if (hash_opertation == keccak256(abi.encodePacked(\"+\"))) {... */\n      tag_30\n      jumpi\n        /* \"contracts/01_bucles_condicionales.sol\":1693:1695  _b */\n      dup3\n        /* \"contracts/01_bucles_condicionales.sol\":1688:1690  _a */\n      dup5\n        /* \"contracts/01_bucles_condicionales.sol\":1688:1695  _a + _b */\n      tag_31\n      swap2\n      swap1\n      tag_32\n      jump\t// in\n    tag_31:\n        /* \"contracts/01_bucles_condicionales.sol\":1681:1695  return _a + _b */\n      swap2\n      pop\n      pop\n      jump(tag_25)\n        /* \"contracts/01_bucles_condicionales.sol\":1610:2051  if (hash_opertation == keccak256(abi.encodePacked(\"+\"))) {... */\n    tag_30:\n        /* \"contracts/01_bucles_condicionales.sol\":1745:1766  abi.encodePacked(\"-\") */\n      add(0x20, mload(0x40))\n      tag_34\n      swap1\n      tag_35\n      jump\t// in\n    tag_34:\n      mload(0x40)\n      0x20\n      dup2\n      dup4\n      sub\n      sub\n      dup2\n      mstore\n      swap1\n      0x40\n      mstore\n        /* \"contracts/01_bucles_condicionales.sol\":1735:1767  keccak256(abi.encodePacked(\"-\")) */\n      dup1\n      mload\n      swap1\n      0x20\n      add\n      keccak256\n        /* \"contracts/01_bucles_condicionales.sol\":1716:1731  hash_opertation */\n      dup2\n        /* \"contracts/01_bucles_condicionales.sol\":1716:1767  hash_opertation == keccak256(abi.encodePacked(\"-\")) */\n      sub\n        /* \"contracts/01_bucles_condicionales.sol\":1712:2051  if (hash_opertation == keccak256(abi.encodePacked(\"-\"))) {... */\n      tag_36\n      jumpi\n        /* \"contracts/01_bucles_condicionales.sol\":1795:1797  _b */\n      dup3\n        /* \"contracts/01_bucles_condicionales.sol\":1790:1792  _a */\n      dup5\n        /* \"contracts/01_bucles_condicionales.sol\":1790:1797  _a - _b */\n      tag_37\n      swap2\n      swap1\n      tag_38\n      jump\t// in\n    tag_37:\n        /* \"contracts/01_bucles_condicionales.sol\":1783:1797  return _a - _b */\n      swap2\n      pop\n      pop\n      jump(tag_25)\n        /* \"contracts/01_bucles_condicionales.sol\":1712:2051  if (hash_opertation == keccak256(abi.encodePacked(\"-\"))) {... */\n    tag_36:\n        /* \"contracts/01_bucles_condicionales.sol\":1847:1868  abi.encodePacked(\"*\") */\n      add(0x20, mload(0x40))\n      tag_40\n      swap1\n      tag_41\n      jump\t// in\n    tag_40:\n      mload(0x40)\n      0x20\n      dup2\n      dup4\n      sub\n      sub\n      dup2\n      mstore\n      swap1\n      0x40\n      mstore\n        /* \"contracts/01_bucles_condicionales.sol\":1837:1869  keccak256(abi.encodePacked(\"*\")) */\n      dup1\n      mload\n      swap1\n      0x20\n      add\n      keccak256\n        /* \"contracts/01_bucles_condicionales.sol\":1818:1833  hash_opertation */\n      dup2\n        /* \"contracts/01_bucles_condicionales.sol\":1818:1869  hash_opertation == keccak256(abi.encodePacked(\"*\")) */\n      sub\n        /* \"contracts/01_bucles_condicionales.sol\":1814:2051  if (hash_opertation == keccak256(abi.encodePacked(\"*\"))) {... */\n      tag_42\n      jumpi\n        /* \"contracts/01_bucles_condicionales.sol\":1897:1899  _b */\n      dup3\n        /* \"contracts/01_bucles_condicionales.sol\":1892:1894  _a */\n      dup5\n        /* \"contracts/01_bucles_condicionales.sol\":1892:1899  _a * _b */\n      tag_43\n      swap2\n      swap1\n      tag_44\n      jump\t// in\n    tag_43:\n        /* \"contracts/01_bucles_condicionales.sol\":1885:1899  return _a * _b */\n      swap2\n      pop\n      pop\n      jump(tag_25)\n        /* \"contracts/01_bucles_condicionales.sol\":1814:2051  if (hash_opertation == keccak256(abi.encodePacked(\"*\"))) {... */\n    tag_42:\n        /* \"contracts/01_bucles_condicionales.sol\":1949:1970  abi.encodePacked(\"/\") */\n      add(0x20, mload(0x40))\n      tag_46\n      swap1\n      tag_47\n      jump\t// in\n    tag_46:\n      mload(0x40)\n      0x20\n      dup2\n      dup4\n      sub\n      sub\n      dup2\n      mstore\n      swap1\n      0x40\n      mstore\n        /* \"contracts/01_bucles_condicionales.sol\":1939:1971  keccak256(abi.encodePacked(\"/\")) */\n      dup1\n      mload\n      swap1\n      0x20\n      add\n      keccak256\n        /* \"contracts/01_bucles_condicionales.sol\":1920:1935  hash_opertation */\n      dup2\n        /* \"contracts/01_bucles_condicionales.sol\":1920:1971  hash_opertation == keccak256(abi.encodePacked(\"/\")) */\n      sub\n        /* \"contracts/01_bucles_condicionales.sol\":1916:2051  if (hash_opertation == keccak256(abi.encodePacked(\"/\"))) {... */\n      tag_48\n      jumpi\n        /* \"contracts/01_bucles_condicionales.sol\":1999:2001  _b */\n      dup3\n        /* \"contracts/01_bucles_condicionales.sol\":1994:1996  _a */\n      dup5\n        /* \"contracts/01_bucles_condicionales.sol\":1994:2001  _a / _b */\n      tag_49\n      swap2\n      swap1\n      tag_50\n      jump\t// in\n    tag_49:\n        /* \"contracts/01_bucles_condicionales.sol\":1987:2001  return _a / _b */\n      swap2\n      pop\n      pop\n      jump(tag_25)\n        /* \"contracts/01_bucles_condicionales.sol\":1916:2051  if (hash_opertation == keccak256(abi.encodePacked(\"/\"))) {... */\n    tag_48:\n        /* \"contracts/01_bucles_condicionales.sol\":2039:2040  0 */\n      0x00\n        /* \"contracts/01_bucles_condicionales.sol\":2032:2040  return 0 */\n      swap2\n      pop\n      pop\n        /* \"contracts/01_bucles_condicionales.sol\":1362:2057  function operations(... */\n    tag_25:\n      swap4\n      swap3\n      pop\n      pop\n      pop\n      jump\t// out\n        /* \"contracts/01_bucles_condicionales.sol\":459:863  function sumarV2(uint256 _number) public pure returns (uint256) {... */\n    tag_16:\n        /* \"contracts/01_bucles_condicionales.sol\":514:521  uint256 */\n      0x00\n        /* \"contracts/01_bucles_condicionales.sol\":533:542  uint256 n */\n      dup1\n        /* \"contracts/01_bucles_condicionales.sol\":545:547  11 */\n      0x0b\n        /* \"contracts/01_bucles_condicionales.sol\":533:547  uint256 n = 11 */\n      swap1\n      pop\n        /* \"contracts/01_bucles_condicionales.sol\":625:634  uint256 a */\n      0x00\n        /* \"contracts/01_bucles_condicionales.sol\":637:644  _number */\n      dup4\n        /* \"contracts/01_bucles_condicionales.sol\":625:644  uint256 a = _number */\n      swap1\n      pop\n        /* \"contracts/01_bucles_condicionales.sol\":689:698  uint256 l */\n      0x00\n        /* \"contracts/01_bucles_condicionales.sol\":711:713  10 */\n      0x0a\n        /* \"contracts/01_bucles_condicionales.sol\":701:708  _number */\n      dup6\n        /* \"contracts/01_bucles_condicionales.sol\":701:713  _number + 10 */\n      tag_53\n      swap2\n      swap1\n      tag_32\n      jump\t// in\n    tag_53:\n        /* \"contracts/01_bucles_condicionales.sol\":689:713  uint256 l = _number + 10 */\n      swap1\n      pop\n        /* \"contracts/01_bucles_condicionales.sol\":804:815  uint256 sum */\n      0x00\n        /* \"contracts/01_bucles_condicionales.sol\":834:835  2 */\n      0x02\n        /* \"contracts/01_bucles_condicionales.sol\":828:829  l */\n      dup3\n        /* \"contracts/01_bucles_condicionales.sol\":824:825  a */\n      dup5\n        /* \"contracts/01_bucles_condicionales.sol\":824:829  a + l */\n      tag_54\n      swap2\n      swap1\n      tag_32\n      jump\t// in\n    tag_54:\n        /* \"contracts/01_bucles_condicionales.sol\":819:820  n */\n      dup6\n        /* \"contracts/01_bucles_condicionales.sol\":819:830  n * (a + l) */\n      tag_55\n      swap2\n      swap1\n      tag_44\n      jump\t// in\n    tag_55:\n        /* \"contracts/01_bucles_condicionales.sol\":818:835  (n * (a + l)) / 2 */\n      tag_56\n      swap2\n      swap1\n      tag_50\n      jump\t// in\n    tag_56:\n        /* \"contracts/01_bucles_condicionales.sol\":804:835  uint256 sum = (n * (a + l)) / 2 */\n      swap1\n      pop\n        /* \"contracts/01_bucles_condicionales.sol\":853:856  sum */\n      dup1\n        /* \"contracts/01_bucles_condicionales.sol\":846:856  return sum */\n      swap5\n      pop\n      pop\n      pop\n      pop\n      pop\n        /* \"contracts/01_bucles_condicionales.sol\":459:863  function sumarV2(uint256 _number) public pure returns (uint256) {... */\n      swap2\n      swap1\n      pop\n      jump\t// out\n        /* \"contracts/01_bucles_condicionales.sol\":176:453  function sumarV1(uint256 _number) public pure returns (uint256) {... */\n    tag_20:\n        /* \"contracts/01_bucles_condicionales.sol\":231:238  uint256 */\n      0x00\n        /* \"contracts/01_bucles_condicionales.sol\":250:265  uint256 aux_num */\n      dup1\n        /* \"contracts/01_bucles_condicionales.sol\":268:269  0 */\n      0x00\n        /* \"contracts/01_bucles_condicionales.sol\":250:269  uint256 aux_num = 0 */\n      swap1\n      pop\n        /* \"contracts/01_bucles_condicionales.sol\":338:347  uint256 i */\n      0x00\n        /* \"contracts/01_bucles_condicionales.sol\":350:357  _number */\n      dup4\n        /* \"contracts/01_bucles_condicionales.sol\":338:357  uint256 i = _number */\n      swap1\n      pop\n        /* \"contracts/01_bucles_condicionales.sol\":333:422  for (uint256 i = _number; i <= (10 + _number); i++) {... */\n    tag_58:\n        /* \"contracts/01_bucles_condicionales.sol\":370:377  _number */\n      dup4\n        /* \"contracts/01_bucles_condicionales.sol\":365:367  10 */\n      0x0a\n        /* \"contracts/01_bucles_condicionales.sol\":365:377  10 + _number */\n      tag_61\n      swap2\n      swap1\n      tag_32\n      jump\t// in\n    tag_61:\n        /* \"contracts/01_bucles_condicionales.sol\":359:360  i */\n      dup2\n        /* \"contracts/01_bucles_condicionales.sol\":359:378  i <= (10 + _number) */\n      gt\n        /* \"contracts/01_bucles_condicionales.sol\":333:422  for (uint256 i = _number; i <= (10 + _number); i++) {... */\n      tag_59\n      jumpi\n        /* \"contracts/01_bucles_condicionales.sol\":410:411  i */\n      dup1\n        /* \"contracts/01_bucles_condicionales.sol\":399:411  aux_num += i */\n      dup3\n      tag_62\n      swap2\n      swap1\n      tag_32\n      jump\t// in\n    tag_62:\n      swap2\n      pop\n        /* \"contracts/01_bucles_condicionales.sol\":380:383  i++ */\n      dup1\n      dup1\n      tag_63\n      swap1\n      tag_64\n      jump\t// in\n    tag_63:\n      swap2\n      pop\n      pop\n        /* \"contracts/01_bucles_condicionales.sol\":333:422  for (uint256 i = _number; i <= (10 + _number); i++) {... */\n      jump(tag_58)\n    tag_59:\n      pop\n        /* \"contracts/01_bucles_condicionales.sol\":439:446  aux_num */\n      dup1\n        /* \"contracts/01_bucles_condicionales.sol\":432:446  return aux_num */\n      swap2\n      pop\n      pop\n        /* \"contracts/01_bucles_condicionales.sol\":176:453  function sumarV1(uint256 _number) public pure returns (uint256) {... */\n      swap2\n      swap1\n      pop\n      jump\t// out\n        /* \"contracts/01_bucles_condicionales.sol\":916:1307  function impares() public pure returns (uint256) {... */\n    tag_23:\n        /* \"contracts/01_bucles_condicionales.sol\":956:963  uint256 */\n      0x00\n        /* \"contracts/01_bucles_condicionales.sol\":975:986  uint256 sum */\n      dup1\n        /* \"contracts/01_bucles_condicionales.sol\":989:990  0 */\n      0x00\n        /* \"contracts/01_bucles_condicionales.sol\":975:990  uint256 sum = 0 */\n      swap1\n      pop\n        /* \"contracts/01_bucles_condicionales.sol\":1000:1013  uint256 count */\n      0x00\n        /* \"contracts/01_bucles_condicionales.sol\":1027:1041  uint256 number */\n      dup1\n        /* \"contracts/01_bucles_condicionales.sol\":1044:1045  1 */\n      0x01\n        /* \"contracts/01_bucles_condicionales.sol\":1027:1045  uint256 number = 1 */\n      swap1\n      pop\n        /* \"contracts/01_bucles_condicionales.sol\":1123:1280  while (count < 10) {... */\n    tag_66:\n        /* \"contracts/01_bucles_condicionales.sol\":1138:1140  10 */\n      0x0a\n        /* \"contracts/01_bucles_condicionales.sol\":1130:1135  count */\n      dup3\n        /* \"contracts/01_bucles_condicionales.sol\":1130:1140  count < 10 */\n      lt\n        /* \"contracts/01_bucles_condicionales.sol\":1123:1280  while (count < 10) {... */\n      iszero\n      tag_67\n      jumpi\n        /* \"contracts/01_bucles_condicionales.sol\":1174:1175  0 */\n      0x00\n        /* \"contracts/01_bucles_condicionales.sol\":1169:1170  2 */\n      0x02\n        /* \"contracts/01_bucles_condicionales.sol\":1160:1166  number */\n      dup3\n        /* \"contracts/01_bucles_condicionales.sol\":1160:1170  number % 2 */\n      tag_68\n      swap2\n      swap1\n      tag_69\n      jump\t// in\n    tag_68:\n        /* \"contracts/01_bucles_condicionales.sol\":1160:1175  number % 2 != 0 */\n      eq\n        /* \"contracts/01_bucles_condicionales.sol\":1156:1248  if (number % 2 != 0) {... */\n      tag_70\n      jumpi\n        /* \"contracts/01_bucles_condicionales.sol\":1202:1208  number */\n      dup1\n        /* \"contracts/01_bucles_condicionales.sol\":1195:1208  sum += number */\n      dup4\n      tag_71\n      swap2\n      swap1\n      tag_32\n      jump\t// in\n    tag_71:\n      swap3\n      pop\n        /* \"contracts/01_bucles_condicionales.sol\":1226:1233  count++ */\n      dup2\n      dup1\n      tag_72\n      swap1\n      tag_64\n      jump\t// in\n    tag_72:\n      swap3\n      pop\n      pop\n        /* \"contracts/01_bucles_condicionales.sol\":1156:1248  if (number % 2 != 0) {... */\n    tag_70:\n        /* \"contracts/01_bucles_condicionales.sol\":1261:1269  number++ */\n      dup1\n      dup1\n      tag_73\n      swap1\n      tag_64\n      jump\t// in\n    tag_73:\n      swap2\n      pop\n      pop\n        /* \"contracts/01_bucles_condicionales.sol\":1123:1280  while (count < 10) {... */\n      jump(tag_66)\n    tag_67:\n        /* \"contracts/01_bucles_condicionales.sol\":1297:1300  sum */\n      dup3\n        /* \"contracts/01_bucles_condicionales.sol\":1290:1300  return sum */\n      swap4\n      pop\n      pop\n      pop\n      pop\n        /* \"contracts/01_bucles_condicionales.sol\":916:1307  function impares() public pure returns (uint256) {... */\n      swap1\n      jump\t// out\n        /* \"#utility.yul\":7:82   */\n    tag_74:\n        /* \"#utility.yul\":40:46   */\n      0x00\n        /* \"#utility.yul\":73:75   */\n      0x40\n        /* \"#utility.yul\":67:76   */\n      mload\n        /* \"#utility.yul\":57:76   */\n      swap1\n      pop\n        /* \"#utility.yul\":7:82   */\n      swap1\n      jump\t// out\n        /* \"#utility.yul\":88:205   */\n    tag_75:\n        /* \"#utility.yul\":197:198   */\n      0x00\n        /* \"#utility.yul\":194:195   */\n      dup1\n        /* \"#utility.yul\":187:199   */\n      revert\n        /* \"#utility.yul\":211:328   */\n    tag_76:\n        /* \"#utility.yul\":320:321   */\n      0x00\n        /* \"#utility.yul\":317:318   */\n      dup1\n        /* \"#utility.yul\":310:322   */\n      revert\n        /* \"#utility.yul\":334:451   */\n    tag_77:\n        /* \"#utility.yul\":443:444   */\n      0x00\n        /* \"#utility.yul\":440:441   */\n      dup1\n        /* \"#utility.yul\":433:445   */\n      revert\n        /* \"#utility.yul\":457:574   */\n    tag_78:\n        /* \"#utility.yul\":566:567   */\n      0x00\n        /* \"#utility.yul\":563:564   */\n      dup1\n        /* \"#utility.yul\":556:568   */\n      revert\n        /* \"#utility.yul\":580:682   */\n    tag_79:\n        /* \"#utility.yul\":621:627   */\n      0x00\n        /* \"#utility.yul\":672:674   */\n      0x1f\n        /* \"#utility.yul\":668:675   */\n      not\n        /* \"#utility.yul\":663:665   */\n      0x1f\n        /* \"#utility.yul\":656:661   */\n      dup4\n        /* \"#utility.yul\":652:666   */\n      add\n        /* \"#utility.yul\":648:676   */\n      and\n        /* \"#utility.yul\":638:676   */\n      swap1\n      pop\n        /* \"#utility.yul\":580:682   */\n      swap2\n      swap1\n      pop\n      jump\t// out\n        /* \"#utility.yul\":688:868   */\n    tag_80:\n        /* \"#utility.yul\":736:813   */\n      0x4e487b7100000000000000000000000000000000000000000000000000000000\n        /* \"#utility.yul\":733:734   */\n      0x00\n        /* \"#utility.yul\":726:814   */\n      mstore\n        /* \"#utility.yul\":833:837   */\n      0x41\n        /* \"#utility.yul\":830:831   */\n      0x04\n        /* \"#utility.yul\":823:838   */\n      mstore\n        /* \"#utility.yul\":857:861   */\n      0x24\n        /* \"#utility.yul\":854:855   */\n      0x00\n        /* \"#utility.yul\":847:862   */\n      revert\n        /* \"#utility.yul\":874:1155   */\n    tag_81:\n        /* \"#utility.yul\":957:984   */\n      tag_114\n        /* \"#utility.yul\":979:983   */\n      dup3\n        /* \"#utility.yul\":957:984   */\n      tag_79\n      jump\t// in\n    tag_114:\n        /* \"#utility.yul\":949:955   */\n      dup2\n        /* \"#utility.yul\":945:985   */\n      add\n        /* \"#utility.yul\":1087:1093   */\n      dup2\n        /* \"#utility.yul\":1075:1085   */\n      dup2\n        /* \"#utility.yul\":1072:1094   */\n      lt\n        /* \"#utility.yul\":1051:1069   */\n      0xffffffffffffffff\n        /* \"#utility.yul\":1039:1049   */\n      dup3\n        /* \"#utility.yul\":1036:1070   */\n      gt\n        /* \"#utility.yul\":1033:1095   */\n      or\n        /* \"#utility.yul\":1030:1118   */\n      iszero\n      tag_115\n      jumpi\n        /* \"#utility.yul\":1098:1116   */\n      tag_116\n      tag_80\n      jump\t// in\n    tag_116:\n        /* \"#utility.yul\":1030:1118   */\n    tag_115:\n        /* \"#utility.yul\":1138:1148   */\n      dup1\n        /* \"#utility.yul\":1134:1136   */\n      0x40\n        /* \"#utility.yul\":1127:1149   */\n      mstore\n        /* \"#utility.yul\":917:1155   */\n      pop\n        /* \"#utility.yul\":874:1155   */\n      pop\n      pop\n      jump\t// out\n        /* \"#utility.yul\":1161:1290   */\n    tag_82:\n        /* \"#utility.yul\":1195:1201   */\n      0x00\n        /* \"#utility.yul\":1222:1242   */\n      tag_118\n      tag_74\n      jump\t// in\n    tag_118:\n        /* \"#utility.yul\":1212:1242   */\n      swap1\n      pop\n        /* \"#utility.yul\":1251:1284   */\n      tag_119\n        /* \"#utility.yul\":1279:1283   */\n      dup3\n        /* \"#utility.yul\":1271:1277   */\n      dup3\n        /* \"#utility.yul\":1251:1284   */\n      tag_81\n      jump\t// in\n    tag_119:\n        /* \"#utility.yul\":1161:1290   */\n      swap2\n      swap1\n      pop\n      jump\t// out\n        /* \"#utility.yul\":1296:1604   */\n    tag_83:\n        /* \"#utility.yul\":1358:1362   */\n      0x00\n        /* \"#utility.yul\":1448:1466   */\n      0xffffffffffffffff\n        /* \"#utility.yul\":1440:1446   */\n      dup3\n        /* \"#utility.yul\":1437:1467   */\n      gt\n        /* \"#utility.yul\":1434:1490   */\n      iszero\n      tag_121\n      jumpi\n        /* \"#utility.yul\":1470:1488   */\n      tag_122\n      tag_80\n      jump\t// in\n    tag_122:\n        /* \"#utility.yul\":1434:1490   */\n    tag_121:\n        /* \"#utility.yul\":1508:1537   */\n      tag_123\n        /* \"#utility.yul\":1530:1536   */\n      dup3\n        /* \"#utility.yul\":1508:1537   */\n      tag_79\n      jump\t// in\n    tag_123:\n        /* \"#utility.yul\":1500:1537   */\n      swap1\n      pop\n        /* \"#utility.yul\":1592:1596   */\n      0x20\n        /* \"#utility.yul\":1586:1590   */\n      dup2\n        /* \"#utility.yul\":1582:1597   */\n      add\n        /* \"#utility.yul\":1574:1597   */\n      swap1\n      pop\n        /* \"#utility.yul\":1296:1604   */\n      swap2\n      swap1\n      pop\n      jump\t// out\n        /* \"#utility.yul\":1610:1758   */\n    tag_84:\n        /* \"#utility.yul\":1708:1714   */\n      dup3\n        /* \"#utility.yul\":1703:1706   */\n      dup2\n        /* \"#utility.yul\":1698:1701   */\n      dup4\n        /* \"#utility.yul\":1685:1715   */\n      calldatacopy\n        /* \"#utility.yul\":1749:1750   */\n      0x00\n        /* \"#utility.yul\":1740:1746   */\n      dup4\n        /* \"#utility.yul\":1735:1738   */\n      dup4\n        /* \"#utility.yul\":1731:1747   */\n      add\n        /* \"#utility.yul\":1724:1751   */\n      mstore\n        /* \"#utility.yul\":1610:1758   */\n      pop\n      pop\n      pop\n      jump\t// out\n        /* \"#utility.yul\":1764:2189   */\n    tag_85:\n        /* \"#utility.yul\":1842:1847   */\n      0x00\n        /* \"#utility.yul\":1867:1933   */\n      tag_126\n        /* \"#utility.yul\":1883:1932   */\n      tag_127\n        /* \"#utility.yul\":1925:1931   */\n      dup5\n        /* \"#utility.yul\":1883:1932   */\n      tag_83\n      jump\t// in\n    tag_127:\n        /* \"#utility.yul\":1867:1933   */\n      tag_82\n      jump\t// in\n    tag_126:\n        /* \"#utility.yul\":1858:1933   */\n      swap1\n      pop\n        /* \"#utility.yul\":1956:1962   */\n      dup3\n        /* \"#utility.yul\":1949:1954   */\n      dup2\n        /* \"#utility.yul\":1942:1963   */\n      mstore\n        /* \"#utility.yul\":1994:1998   */\n      0x20\n        /* \"#utility.yul\":1987:1992   */\n      dup2\n        /* \"#utility.yul\":1983:1999   */\n      add\n        /* \"#utility.yul\":2032:2035   */\n      dup5\n        /* \"#utility.yul\":2023:2029   */\n      dup5\n        /* \"#utility.yul\":2018:2021   */\n      dup5\n        /* \"#utility.yul\":2014:2030   */\n      add\n        /* \"#utility.yul\":2011:2036   */\n      gt\n        /* \"#utility.yul\":2008:2120   */\n      iszero\n      tag_128\n      jumpi\n        /* \"#utility.yul\":2039:2118   */\n      tag_129\n      tag_78\n      jump\t// in\n    tag_129:\n        /* \"#utility.yul\":2008:2120   */\n    tag_128:\n        /* \"#utility.yul\":2129:2183   */\n      tag_130\n        /* \"#utility.yul\":2176:2182   */\n      dup5\n        /* \"#utility.yul\":2171:2174   */\n      dup3\n        /* \"#utility.yul\":2166:2169   */\n      dup6\n        /* \"#utility.yul\":2129:2183   */\n      tag_84\n      jump\t// in\n    tag_130:\n        /* \"#utility.yul\":1848:2189   */\n      pop\n        /* \"#utility.yul\":1764:2189   */\n      swap4\n      swap3\n      pop\n      pop\n      pop\n      jump\t// out\n        /* \"#utility.yul\":2209:2549   */\n    tag_86:\n        /* \"#utility.yul\":2265:2270   */\n      0x00\n        /* \"#utility.yul\":2314:2317   */\n      dup3\n        /* \"#utility.yul\":2307:2311   */\n      0x1f\n        /* \"#utility.yul\":2299:2305   */\n      dup4\n        /* \"#utility.yul\":2295:2312   */\n      add\n        /* \"#utility.yul\":2291:2318   */\n      slt\n        /* \"#utility.yul\":2281:2403   */\n      tag_132\n      jumpi\n        /* \"#utility.yul\":2322:2401   */\n      tag_133\n      tag_77\n      jump\t// in\n    tag_133:\n        /* \"#utility.yul\":2281:2403   */\n    tag_132:\n        /* \"#utility.yul\":2439:2445   */\n      dup2\n        /* \"#utility.yul\":2426:2446   */\n      calldataload\n        /* \"#utility.yul\":2464:2543   */\n      tag_134\n        /* \"#utility.yul\":2539:2542   */\n      dup5\n        /* \"#utility.yul\":2531:2537   */\n      dup3\n        /* \"#utility.yul\":2524:2528   */\n      0x20\n        /* \"#utility.yul\":2516:2522   */\n      dup7\n        /* \"#utility.yul\":2512:2529   */\n      add\n        /* \"#utility.yul\":2464:2543   */\n      tag_85\n      jump\t// in\n    tag_134:\n        /* \"#utility.yul\":2455:2543   */\n      swap2\n      pop\n        /* \"#utility.yul\":2271:2549   */\n      pop\n        /* \"#utility.yul\":2209:2549   */\n      swap3\n      swap2\n      pop\n      pop\n      jump\t// out\n        /* \"#utility.yul\":2555:2632   */\n    tag_87:\n        /* \"#utility.yul\":2592:2599   */\n      0x00\n        /* \"#utility.yul\":2621:2626   */\n      dup2\n        /* \"#utility.yul\":2610:2626   */\n      swap1\n      pop\n        /* \"#utility.yul\":2555:2632   */\n      swap2\n      swap1\n      pop\n      jump\t// out\n        /* \"#utility.yul\":2638:2760   */\n    tag_88:\n        /* \"#utility.yul\":2711:2735   */\n      tag_137\n        /* \"#utility.yul\":2729:2734   */\n      dup2\n        /* \"#utility.yul\":2711:2735   */\n      tag_87\n      jump\t// in\n    tag_137:\n        /* \"#utility.yul\":2704:2709   */\n      dup2\n        /* \"#utility.yul\":2701:2736   */\n      eq\n        /* \"#utility.yul\":2691:2754   */\n      tag_138\n      jumpi\n        /* \"#utility.yul\":2750:2751   */\n      0x00\n        /* \"#utility.yul\":2747:2748   */\n      dup1\n        /* \"#utility.yul\":2740:2752   */\n      revert\n        /* \"#utility.yul\":2691:2754   */\n    tag_138:\n        /* \"#utility.yul\":2638:2760   */\n      pop\n      jump\t// out\n        /* \"#utility.yul\":2766:2905   */\n    tag_89:\n        /* \"#utility.yul\":2812:2817   */\n      0x00\n        /* \"#utility.yul\":2850:2856   */\n      dup2\n        /* \"#utility.yul\":2837:2857   */\n      calldataload\n        /* \"#utility.yul\":2828:2857   */\n      swap1\n      pop\n        /* \"#utility.yul\":2866:2899   */\n      tag_140\n        /* \"#utility.yul\":2893:2898   */\n      dup2\n        /* \"#utility.yul\":2866:2899   */\n      tag_88\n      jump\t// in\n    tag_140:\n        /* \"#utility.yul\":2766:2905   */\n      swap3\n      swap2\n      pop\n      pop\n      jump\t// out\n        /* \"#utility.yul\":2911:3710   */\n    tag_9:\n        /* \"#utility.yul\":2998:3004   */\n      0x00\n        /* \"#utility.yul\":3006:3012   */\n      dup1\n        /* \"#utility.yul\":3014:3020   */\n      0x00\n        /* \"#utility.yul\":3063:3065   */\n      0x60\n        /* \"#utility.yul\":3051:3060   */\n      dup5\n        /* \"#utility.yul\":3042:3049   */\n      dup7\n        /* \"#utility.yul\":3038:3061   */\n      sub\n        /* \"#utility.yul\":3034:3066   */\n      slt\n        /* \"#utility.yul\":3031:3150   */\n      iszero\n      tag_142\n      jumpi\n        /* \"#utility.yul\":3069:3148   */\n      tag_143\n      tag_75\n      jump\t// in\n    tag_143:\n        /* \"#utility.yul\":3031:3150   */\n    tag_142:\n        /* \"#utility.yul\":3217:3218   */\n      0x00\n        /* \"#utility.yul\":3206:3215   */\n      dup5\n        /* \"#utility.yul\":3202:3219   */\n      add\n        /* \"#utility.yul\":3189:3220   */\n      calldataload\n        /* \"#utility.yul\":3247:3265   */\n      0xffffffffffffffff\n        /* \"#utility.yul\":3239:3245   */\n      dup2\n        /* \"#utility.yul\":3236:3266   */\n      gt\n        /* \"#utility.yul\":3233:3350   */\n      iszero\n      tag_144\n      jumpi\n        /* \"#utility.yul\":3269:3348   */\n      tag_145\n      tag_76\n      jump\t// in\n    tag_145:\n        /* \"#utility.yul\":3233:3350   */\n    tag_144:\n        /* \"#utility.yul\":3374:3437   */\n      tag_146\n        /* \"#utility.yul\":3429:3436   */\n      dup7\n        /* \"#utility.yul\":3420:3426   */\n      dup3\n        /* \"#utility.yul\":3409:3418   */\n      dup8\n        /* \"#utility.yul\":3405:3427   */\n      add\n        /* \"#utility.yul\":3374:3437   */\n      tag_86\n      jump\t// in\n    tag_146:\n        /* \"#utility.yul\":3364:3437   */\n      swap4\n      pop\n        /* \"#utility.yul\":3160:3447   */\n      pop\n        /* \"#utility.yul\":3486:3488   */\n      0x20\n        /* \"#utility.yul\":3512:3565   */\n      tag_147\n        /* \"#utility.yul\":3557:3564   */\n      dup7\n        /* \"#utility.yul\":3548:3554   */\n      dup3\n        /* \"#utility.yul\":3537:3546   */\n      dup8\n        /* \"#utility.yul\":3533:3555   */\n      add\n        /* \"#utility.yul\":3512:3565   */\n      tag_89\n      jump\t// in\n    tag_147:\n        /* \"#utility.yul\":3502:3565   */\n      swap3\n      pop\n        /* \"#utility.yul\":3457:3575   */\n      pop\n        /* \"#utility.yul\":3614:3616   */\n      0x40\n        /* \"#utility.yul\":3640:3693   */\n      tag_148\n        /* \"#utility.yul\":3685:3692   */\n      dup7\n        /* \"#utility.yul\":3676:3682   */\n      dup3\n        /* \"#utility.yul\":3665:3674   */\n      dup8\n        /* \"#utility.yul\":3661:3683   */\n      add\n        /* \"#utility.yul\":3640:3693   */\n      tag_89\n      jump\t// in\n    tag_148:\n        /* \"#utility.yul\":3630:3693   */\n      swap2\n      pop\n        /* \"#utility.yul\":3585:3703   */\n      pop\n        /* \"#utility.yul\":2911:3710   */\n      swap3\n      pop\n      swap3\n      pop\n      swap3\n      jump\t// out\n        /* \"#utility.yul\":3716:3834   */\n    tag_90:\n        /* \"#utility.yul\":3803:3827   */\n      tag_150\n        /* \"#utility.yul\":3821:3826   */\n      dup2\n        /* \"#utility.yul\":3803:3827   */\n      tag_87\n      jump\t// in\n    tag_150:\n        /* \"#utility.yul\":3798:3801   */\n      dup3\n        /* \"#utility.yul\":3791:3828   */\n      mstore\n        /* \"#utility.yul\":3716:3834   */\n      pop\n      pop\n      jump\t// out\n        /* \"#utility.yul\":3840:4062   */\n    tag_12:\n        /* \"#utility.yul\":3933:3937   */\n      0x00\n        /* \"#utility.yul\":3971:3973   */\n      0x20\n        /* \"#utility.yul\":3960:3969   */\n      dup3\n        /* \"#utility.yul\":3956:3974   */\n      add\n        /* \"#utility.yul\":3948:3974   */\n      swap1\n      pop\n        /* \"#utility.yul\":3984:4055   */\n      tag_152\n        /* \"#utility.yul\":4052:4053   */\n      0x00\n        /* \"#utility.yul\":4041:4050   */\n      dup4\n        /* \"#utility.yul\":4037:4054   */\n      add\n        /* \"#utility.yul\":4028:4034   */\n      dup5\n        /* \"#utility.yul\":3984:4055   */\n      tag_90\n      jump\t// in\n    tag_152:\n        /* \"#utility.yul\":3840:4062   */\n      swap3\n      swap2\n      pop\n      pop\n      jump\t// out\n        /* \"#utility.yul\":4068:4397   */\n    tag_15:\n        /* \"#utility.yul\":4127:4133   */\n      0x00\n        /* \"#utility.yul\":4176:4178   */\n      0x20\n        /* \"#utility.yul\":4164:4173   */\n      dup3\n        /* \"#utility.yul\":4155:4162   */\n      dup5\n        /* \"#utility.yul\":4151:4174   */\n      sub\n        /* \"#utility.yul\":4147:4179   */\n      slt\n        /* \"#utility.yul\":4144:4263   */\n      iszero\n      tag_154\n      jumpi\n        /* \"#utility.yul\":4182:4261   */\n      tag_155\n      tag_75\n      jump\t// in\n    tag_155:\n        /* \"#utility.yul\":4144:4263   */\n    tag_154:\n        /* \"#utility.yul\":4302:4303   */\n      0x00\n        /* \"#utility.yul\":4327:4380   */\n      tag_156\n        /* \"#utility.yul\":4372:4379   */\n      dup5\n        /* \"#utility.yul\":4363:4369   */\n      dup3\n        /* \"#utility.yul\":4352:4361   */\n      dup6\n        /* \"#utility.yul\":4348:4370   */\n      add\n        /* \"#utility.yul\":4327:4380   */\n      tag_89\n      jump\t// in\n    tag_156:\n        /* \"#utility.yul\":4317:4380   */\n      swap2\n      pop\n        /* \"#utility.yul\":4273:4390   */\n      pop\n        /* \"#utility.yul\":4068:4397   */\n      swap3\n      swap2\n      pop\n      pop\n      jump\t// out\n        /* \"#utility.yul\":4403:4502   */\n    tag_91:\n        /* \"#utility.yul\":4455:4461   */\n      0x00\n        /* \"#utility.yul\":4489:4494   */\n      dup2\n        /* \"#utility.yul\":4483:4495   */\n      mload\n        /* \"#utility.yul\":4473:4495   */\n      swap1\n      pop\n        /* \"#utility.yul\":4403:4502   */\n      swap2\n      swap1\n      pop\n      jump\t// out\n        /* \"#utility.yul\":4508:4656   */\n    tag_92:\n        /* \"#utility.yul\":4610:4621   */\n      0x00\n        /* \"#utility.yul\":4647:4650   */\n      dup2\n        /* \"#utility.yul\":4632:4650   */\n      swap1\n      pop\n        /* \"#utility.yul\":4508:4656   */\n      swap3\n      swap2\n      pop\n      pop\n      jump\t// out\n        /* \"#utility.yul\":4662:4801   */\n    tag_93:\n        /* \"#utility.yul\":4751:4757   */\n      dup3\n        /* \"#utility.yul\":4746:4749   */\n      dup2\n        /* \"#utility.yul\":4741:4744   */\n      dup4\n        /* \"#utility.yul\":4735:4758   */\n      mcopy\n        /* \"#utility.yul\":4792:4793   */\n      0x00\n        /* \"#utility.yul\":4783:4789   */\n      dup4\n        /* \"#utility.yul\":4778:4781   */\n      dup4\n        /* \"#utility.yul\":4774:4790   */\n      add\n        /* \"#utility.yul\":4767:4794   */\n      mstore\n        /* \"#utility.yul\":4662:4801   */\n      pop\n      pop\n      pop\n      jump\t// out\n        /* \"#utility.yul\":4807:5197   */\n    tag_94:\n        /* \"#utility.yul\":4913:4916   */\n      0x00\n        /* \"#utility.yul\":4941:4980   */\n      tag_161\n        /* \"#utility.yul\":4974:4979   */\n      dup3\n        /* \"#utility.yul\":4941:4980   */\n      tag_91\n      jump\t// in\n    tag_161:\n        /* \"#utility.yul\":4996:5085   */\n      tag_162\n        /* \"#utility.yul\":5078:5084   */\n      dup2\n        /* \"#utility.yul\":5073:5076   */\n      dup6\n        /* \"#utility.yul\":4996:5085   */\n      tag_92\n      jump\t// in\n    tag_162:\n        /* \"#utility.yul\":4989:5085   */\n      swap4\n      pop\n        /* \"#utility.yul\":5094:5159   */\n      tag_163\n        /* \"#utility.yul\":5152:5158   */\n      dup2\n        /* \"#utility.yul\":5147:5150   */\n      dup6\n        /* \"#utility.yul\":5140:5144   */\n      0x20\n        /* \"#utility.yul\":5133:5138   */\n      dup7\n        /* \"#utility.yul\":5129:5145   */\n      add\n        /* \"#utility.yul\":5094:5159   */\n      tag_93\n      jump\t// in\n    tag_163:\n        /* \"#utility.yul\":5184:5190   */\n      dup1\n        /* \"#utility.yul\":5179:5182   */\n      dup5\n        /* \"#utility.yul\":5175:5191   */\n      add\n        /* \"#utility.yul\":5168:5191   */\n      swap2\n      pop\n        /* \"#utility.yul\":4917:5197   */\n      pop\n        /* \"#utility.yul\":4807:5197   */\n      swap3\n      swap2\n      pop\n      pop\n      jump\t// out\n        /* \"#utility.yul\":5203:5478   */\n    tag_27:\n        /* \"#utility.yul\":5335:5338   */\n      0x00\n        /* \"#utility.yul\":5357:5452   */\n      tag_165\n        /* \"#utility.yul\":5448:5451   */\n      dup3\n        /* \"#utility.yul\":5439:5445   */\n      dup5\n        /* \"#utility.yul\":5357:5452   */\n      tag_94\n      jump\t// in\n    tag_165:\n        /* \"#utility.yul\":5350:5452   */\n      swap2\n      pop\n        /* \"#utility.yul\":5469:5472   */\n      dup2\n        /* \"#utility.yul\":5462:5472   */\n      swap1\n      pop\n        /* \"#utility.yul\":5203:5478   */\n      swap3\n      swap2\n      pop\n      pop\n      jump\t// out\n        /* \"#utility.yul\":5484:5635   */\n    tag_95:\n        /* \"#utility.yul\":5624:5627   */\n      0x2b00000000000000000000000000000000000000000000000000000000000000\n        /* \"#utility.yul\":5620:5621   */\n      0x00\n        /* \"#utility.yul\":5612:5618   */\n      dup3\n        /* \"#utility.yul\":5608:5622   */\n      add\n        /* \"#utility.yul\":5601:5628   */\n      mstore\n        /* \"#utility.yul\":5484:5635   */\n      pop\n      jump\t// out\n        /* \"#utility.yul\":5641:6041   */\n    tag_96:\n        /* \"#utility.yul\":5801:5804   */\n      0x00\n        /* \"#utility.yul\":5822:5906   */\n      tag_168\n        /* \"#utility.yul\":5904:5905   */\n      0x01\n        /* \"#utility.yul\":5899:5902   */\n      dup4\n        /* \"#utility.yul\":5822:5906   */\n      tag_92\n      jump\t// in\n    tag_168:\n        /* \"#utility.yul\":5815:5906   */\n      swap2\n      pop\n        /* \"#utility.yul\":5915:6008   */\n      tag_169\n        /* \"#utility.yul\":6004:6007   */\n      dup3\n        /* \"#utility.yul\":5915:6008   */\n      tag_95\n      jump\t// in\n    tag_169:\n        /* \"#utility.yul\":6033:6034   */\n      0x01\n        /* \"#utility.yul\":6028:6031   */\n      dup3\n        /* \"#utility.yul\":6024:6035   */\n      add\n        /* \"#utility.yul\":6017:6035   */\n      swap1\n      pop\n        /* \"#utility.yul\":5641:6041   */\n      swap2\n      swap1\n      pop\n      jump\t// out\n        /* \"#utility.yul\":6047:6428   */\n    tag_29:\n        /* \"#utility.yul\":6232:6235   */\n      0x00\n        /* \"#utility.yul\":6254:6402   */\n      tag_171\n        /* \"#utility.yul\":6398:6401   */\n      dup3\n        /* \"#utility.yul\":6254:6402   */\n      tag_96\n      jump\t// in\n    tag_171:\n        /* \"#utility.yul\":6247:6402   */\n      swap2\n      pop\n        /* \"#utility.yul\":6419:6422   */\n      dup2\n        /* \"#utility.yul\":6412:6422   */\n      swap1\n      pop\n        /* \"#utility.yul\":6047:6428   */\n      swap2\n      swap1\n      pop\n      jump\t// out\n        /* \"#utility.yul\":6434:6614   */\n    tag_97:\n        /* \"#utility.yul\":6482:6559   */\n      0x4e487b7100000000000000000000000000000000000000000000000000000000\n        /* \"#utility.yul\":6479:6480   */\n      0x00\n        /* \"#utility.yul\":6472:6560   */\n      mstore\n        /* \"#utility.yul\":6579:6583   */\n      0x11\n        /* \"#utility.yul\":6576:6577   */\n      0x04\n        /* \"#utility.yul\":6569:6584   */\n      mstore\n        /* \"#utility.yul\":6603:6607   */\n      0x24\n        /* \"#utility.yul\":6600:6601   */\n      0x00\n        /* \"#utility.yul\":6593:6608   */\n      revert\n        /* \"#utility.yul\":6620:6811   */\n    tag_32:\n        /* \"#utility.yul\":6660:6663   */\n      0x00\n        /* \"#utility.yul\":6679:6699   */\n      tag_174\n        /* \"#utility.yul\":6697:6698   */\n      dup3\n        /* \"#utility.yul\":6679:6699   */\n      tag_87\n      jump\t// in\n    tag_174:\n        /* \"#utility.yul\":6674:6699   */\n      swap2\n      pop\n        /* \"#utility.yul\":6713:6733   */\n      tag_175\n        /* \"#utility.yul\":6731:6732   */\n      dup4\n        /* \"#utility.yul\":6713:6733   */\n      tag_87\n      jump\t// in\n    tag_175:\n        /* \"#utility.yul\":6708:6733   */\n      swap3\n      pop\n        /* \"#utility.yul\":6756:6757   */\n      dup3\n        /* \"#utility.yul\":6753:6754   */\n      dup3\n        /* \"#utility.yul\":6749:6758   */\n      add\n        /* \"#utility.yul\":6742:6758   */\n      swap1\n      pop\n        /* \"#utility.yul\":6777:6780   */\n      dup1\n        /* \"#utility.yul\":6774:6775   */\n      dup3\n        /* \"#utility.yul\":6771:6781   */\n      gt\n        /* \"#utility.yul\":6768:6804   */\n      iszero\n      tag_176\n      jumpi\n        /* \"#utility.yul\":6784:6802   */\n      tag_177\n      tag_97\n      jump\t// in\n    tag_177:\n        /* \"#utility.yul\":6768:6804   */\n    tag_176:\n        /* \"#utility.yul\":6620:6811   */\n      swap3\n      swap2\n      pop\n      pop\n      jump\t// out\n        /* \"#utility.yul\":6817:6968   */\n    tag_98:\n        /* \"#utility.yul\":6957:6960   */\n      0x2d00000000000000000000000000000000000000000000000000000000000000\n        /* \"#utility.yul\":6953:6954   */\n      0x00\n        /* \"#utility.yul\":6945:6951   */\n      dup3\n        /* \"#utility.yul\":6941:6955   */\n      add\n        /* \"#utility.yul\":6934:6961   */\n      mstore\n        /* \"#utility.yul\":6817:6968   */\n      pop\n      jump\t// out\n        /* \"#utility.yul\":6974:7374   */\n    tag_99:\n        /* \"#utility.yul\":7134:7137   */\n      0x00\n        /* \"#utility.yul\":7155:7239   */\n      tag_180\n        /* \"#utility.yul\":7237:7238   */\n      0x01\n        /* \"#utility.yul\":7232:7235   */\n      dup4\n        /* \"#utility.yul\":7155:7239   */\n      tag_92\n      jump\t// in\n    tag_180:\n        /* \"#utility.yul\":7148:7239   */\n      swap2\n      pop\n        /* \"#utility.yul\":7248:7341   */\n      tag_181\n        /* \"#utility.yul\":7337:7340   */\n      dup3\n        /* \"#utility.yul\":7248:7341   */\n      tag_98\n      jump\t// in\n    tag_181:\n        /* \"#utility.yul\":7366:7367   */\n      0x01\n        /* \"#utility.yul\":7361:7364   */\n      dup3\n        /* \"#utility.yul\":7357:7368   */\n      add\n        /* \"#utility.yul\":7350:7368   */\n      swap1\n      pop\n        /* \"#utility.yul\":6974:7374   */\n      swap2\n      swap1\n      pop\n      jump\t// out\n        /* \"#utility.yul\":7380:7761   */\n    tag_35:\n        /* \"#utility.yul\":7565:7568   */\n      0x00\n        /* \"#utility.yul\":7587:7735   */\n      tag_183\n        /* \"#utility.yul\":7731:7734   */\n      dup3\n        /* \"#utility.yul\":7587:7735   */\n      tag_99\n      jump\t// in\n    tag_183:\n        /* \"#utility.yul\":7580:7735   */\n      swap2\n      pop\n        /* \"#utility.yul\":7752:7755   */\n      dup2\n        /* \"#utility.yul\":7745:7755   */\n      swap1\n      pop\n        /* \"#utility.yul\":7380:7761   */\n      swap2\n      swap1\n      pop\n      jump\t// out\n        /* \"#utility.yul\":7767:7961   */\n    tag_38:\n        /* \"#utility.yul\":7807:7811   */\n      0x00\n        /* \"#utility.yul\":7827:7847   */\n      tag_185\n        /* \"#utility.yul\":7845:7846   */\n      dup3\n        /* \"#utility.yul\":7827:7847   */\n      tag_87\n      jump\t// in\n    tag_185:\n        /* \"#utility.yul\":7822:7847   */\n      swap2\n      pop\n        /* \"#utility.yul\":7861:7881   */\n      tag_186\n        /* \"#utility.yul\":7879:7880   */\n      dup4\n        /* \"#utility.yul\":7861:7881   */\n      tag_87\n      jump\t// in\n    tag_186:\n        /* \"#utility.yul\":7856:7881   */\n      swap3\n      pop\n        /* \"#utility.yul\":7905:7906   */\n      dup3\n        /* \"#utility.yul\":7902:7903   */\n      dup3\n        /* \"#utility.yul\":7898:7907   */\n      sub\n        /* \"#utility.yul\":7890:7907   */\n      swap1\n      pop\n        /* \"#utility.yul\":7929:7930   */\n      dup2\n        /* \"#utility.yul\":7923:7927   */\n      dup2\n        /* \"#utility.yul\":7920:7931   */\n      gt\n        /* \"#utility.yul\":7917:7954   */\n      iszero\n      tag_187\n      jumpi\n        /* \"#utility.yul\":7934:7952   */\n      tag_188\n      tag_97\n      jump\t// in\n    tag_188:\n        /* \"#utility.yul\":7917:7954   */\n    tag_187:\n        /* \"#utility.yul\":7767:7961   */\n      swap3\n      swap2\n      pop\n      pop\n      jump\t// out\n        /* \"#utility.yul\":7967:8118   */\n    tag_100:\n        /* \"#utility.yul\":8107:8110   */\n      0x2a00000000000000000000000000000000000000000000000000000000000000\n        /* \"#utility.yul\":8103:8104   */\n      0x00\n        /* \"#utility.yul\":8095:8101   */\n      dup3\n        /* \"#utility.yul\":8091:8105   */\n      add\n        /* \"#utility.yul\":8084:8111   */\n      mstore\n        /* \"#utility.yul\":7967:8118   */\n      pop\n      jump\t// out\n        /* \"#utility.yul\":8124:8524   */\n    tag_101:\n        /* \"#utility.yul\":8284:8287   */\n      0x00\n        /* \"#utility.yul\":8305:8389   */\n      tag_191\n        /* \"#utility.yul\":8387:8388   */\n      0x01\n        /* \"#utility.yul\":8382:8385   */\n      dup4\n        /* \"#utility.yul\":8305:8389   */\n      tag_92\n      jump\t// in\n    tag_191:\n        /* \"#utility.yul\":8298:8389   */\n      swap2\n      pop\n        /* \"#utility.yul\":8398:8491   */\n      tag_192\n        /* \"#utility.yul\":8487:8490   */\n      dup3\n        /* \"#utility.yul\":8398:8491   */\n      tag_100\n      jump\t// in\n    tag_192:\n        /* \"#utility.yul\":8516:8517   */\n      0x01\n        /* \"#utility.yul\":8511:8514   */\n      dup3\n        /* \"#utility.yul\":8507:8518   */\n      add\n        /* \"#utility.yul\":8500:8518   */\n      swap1\n      pop\n        /* \"#utility.yul\":8124:8524   */\n      swap2\n      swap1\n      pop\n      jump\t// out\n        /* \"#utility.yul\":8530:8911   */\n    tag_41:\n        /* \"#utility.yul\":8715:8718   */\n      0x00\n        /* \"#utility.yul\":8737:8885   */\n      tag_194\n        /* \"#utility.yul\":8881:8884   */\n      dup3\n        /* \"#utility.yul\":8737:8885   */\n      tag_101\n      jump\t// in\n    tag_194:\n        /* \"#utility.yul\":8730:8885   */\n      swap2\n      pop\n        /* \"#utility.yul\":8902:8905   */\n      dup2\n        /* \"#utility.yul\":8895:8905   */\n      swap1\n      pop\n        /* \"#utility.yul\":8530:8911   */\n      swap2\n      swap1\n      pop\n      jump\t// out\n        /* \"#utility.yul\":8917:9327   */\n    tag_44:\n        /* \"#utility.yul\":8957:8964   */\n      0x00\n        /* \"#utility.yul\":8980:9000   */\n      tag_196\n        /* \"#utility.yul\":8998:8999   */\n      dup3\n        /* \"#utility.yul\":8980:9000   */\n      tag_87\n      jump\t// in\n    tag_196:\n        /* \"#utility.yul\":8975:9000   */\n      swap2\n      pop\n        /* \"#utility.yul\":9014:9034   */\n      tag_197\n        /* \"#utility.yul\":9032:9033   */\n      dup4\n        /* \"#utility.yul\":9014:9034   */\n      tag_87\n      jump\t// in\n    tag_197:\n        /* \"#utility.yul\":9009:9034   */\n      swap3\n      pop\n        /* \"#utility.yul\":9069:9070   */\n      dup3\n        /* \"#utility.yul\":9066:9067   */\n      dup3\n        /* \"#utility.yul\":9062:9071   */\n      mul\n        /* \"#utility.yul\":9091:9121   */\n      tag_198\n        /* \"#utility.yul\":9109:9120   */\n      dup2\n        /* \"#utility.yul\":9091:9121   */\n      tag_87\n      jump\t// in\n    tag_198:\n        /* \"#utility.yul\":9080:9121   */\n      swap2\n      pop\n        /* \"#utility.yul\":9270:9271   */\n      dup3\n        /* \"#utility.yul\":9261:9268   */\n      dup3\n        /* \"#utility.yul\":9257:9272   */\n      div\n        /* \"#utility.yul\":9254:9255   */\n      dup5\n        /* \"#utility.yul\":9251:9273   */\n      eq\n        /* \"#utility.yul\":9231:9232   */\n      dup4\n        /* \"#utility.yul\":9224:9233   */\n      iszero\n        /* \"#utility.yul\":9204:9287   */\n      or\n        /* \"#utility.yul\":9181:9320   */\n      tag_199\n      jumpi\n        /* \"#utility.yul\":9300:9318   */\n      tag_200\n      tag_97\n      jump\t// in\n    tag_200:\n        /* \"#utility.yul\":9181:9320   */\n    tag_199:\n        /* \"#utility.yul\":8965:9327   */\n      pop\n        /* \"#utility.yul\":8917:9327   */\n      swap3\n      swap2\n      pop\n      pop\n      jump\t// out\n        /* \"#utility.yul\":9333:9484   */\n    tag_102:\n        /* \"#utility.yul\":9473:9476   */\n      0x2f00000000000000000000000000000000000000000000000000000000000000\n        /* \"#utility.yul\":9469:9470   */\n      0x00\n        /* \"#utility.yul\":9461:9467   */\n      dup3\n        /* \"#utility.yul\":9457:9471   */\n      add\n        /* \"#utility.yul\":9450:9477   */\n      mstore\n        /* \"#utility.yul\":9333:9484   */\n      pop\n      jump\t// out\n        /* \"#utility.yul\":9490:9890   */\n    tag_103:\n        /* \"#utility.yul\":9650:9653   */\n      0x00\n        /* \"#utility.yul\":9671:9755   */\n      tag_203\n        /* \"#utility.yul\":9753:9754   */\n      0x01\n        /* \"#utility.yul\":9748:9751   */\n      dup4\n        /* \"#utility.yul\":9671:9755   */\n      tag_92\n      jump\t// in\n    tag_203:\n        /* \"#utility.yul\":9664:9755   */\n      swap2\n      pop\n        /* \"#utility.yul\":9764:9857   */\n      tag_204\n        /* \"#utility.yul\":9853:9856   */\n      dup3\n        /* \"#utility.yul\":9764:9857   */\n      tag_102\n      jump\t// in\n    tag_204:\n        /* \"#utility.yul\":9882:9883   */\n      0x01\n        /* \"#utility.yul\":9877:9880   */\n      dup3\n        /* \"#utility.yul\":9873:9884   */\n      add\n        /* \"#utility.yul\":9866:9884   */\n      swap1\n      pop\n        /* \"#utility.yul\":9490:9890   */\n      swap2\n      swap1\n      pop\n      jump\t// out\n        /* \"#utility.yul\":9896:10277   */\n    tag_47:\n        /* \"#utility.yul\":10081:10084   */\n      0x00\n        /* \"#utility.yul\":10103:10251   */\n      tag_206\n        /* \"#utility.yul\":10247:10250   */\n      dup3\n        /* \"#utility.yul\":10103:10251   */\n      tag_103\n      jump\t// in\n    tag_206:\n        /* \"#utility.yul\":10096:10251   */\n      swap2\n      pop\n        /* \"#utility.yul\":10268:10271   */\n      dup2\n        /* \"#utility.yul\":10261:10271   */\n      swap1\n      pop\n        /* \"#utility.yul\":9896:10277   */\n      swap2\n      swap1\n      pop\n      jump\t// out\n        /* \"#utility.yul\":10283:10463   */\n    tag_104:\n        /* \"#utility.yul\":10331:10408   */\n      0x4e487b7100000000000000000000000000000000000000000000000000000000\n        /* \"#utility.yul\":10328:10329   */\n      0x00\n        /* \"#utility.yul\":10321:10409   */\n      mstore\n        /* \"#utility.yul\":10428:10432   */\n      0x12\n        /* \"#utility.yul\":10425:10426   */\n      0x04\n        /* \"#utility.yul\":10418:10433   */\n      mstore\n        /* \"#utility.yul\":10452:10456   */\n      0x24\n        /* \"#utility.yul\":10449:10450   */\n      0x00\n        /* \"#utility.yul\":10442:10457   */\n      revert\n        /* \"#utility.yul\":10469:10654   */\n    tag_50:\n        /* \"#utility.yul\":10509:10510   */\n      0x00\n        /* \"#utility.yul\":10526:10546   */\n      tag_209\n        /* \"#utility.yul\":10544:10545   */\n      dup3\n        /* \"#utility.yul\":10526:10546   */\n      tag_87\n      jump\t// in\n    tag_209:\n        /* \"#utility.yul\":10521:10546   */\n      swap2\n      pop\n        /* \"#utility.yul\":10560:10580   */\n      tag_210\n        /* \"#utility.yul\":10578:10579   */\n      dup4\n        /* \"#utility.yul\":10560:10580   */\n      tag_87\n      jump\t// in\n    tag_210:\n        /* \"#utility.yul\":10555:10580   */\n      swap3\n      pop\n        /* \"#utility.yul\":10599:10600   */\n      dup3\n        /* \"#utility.yul\":10589:10624   */\n      tag_211\n      jumpi\n        /* \"#utility.yul\":10604:10622   */\n      tag_212\n      tag_104\n      jump\t// in\n    tag_212:\n        /* \"#utility.yul\":10589:10624   */\n    tag_211:\n        /* \"#utility.yul\":10646:10647   */\n      dup3\n        /* \"#utility.yul\":10643:10644   */\n      dup3\n        /* \"#utility.yul\":10639:10648   */\n      div\n        /* \"#utility.yul\":10634:10648   */\n      swap1\n      pop\n        /* \"#utility.yul\":10469:10654   */\n      swap3\n      swap2\n      pop\n      pop\n      jump\t// out\n        /* \"#utility.yul\":10660:10893   */\n    tag_64:\n        /* \"#utility.yul\":10699:10702   */\n      0x00\n        /* \"#utility.yul\":10722:10746   */\n      tag_214\n        /* \"#utility.yul\":10740:10745   */\n      dup3\n        /* \"#utility.yul\":10722:10746   */\n      tag_87\n      jump\t// in\n    tag_214:\n        /* \"#utility.yul\":10713:10746   */\n      swap2\n      pop\n        /* \"#utility.yul\":10768:10834   */\n      0xffffffffffffffffffffffffffffffffffffffffffffffffffffffffffffffff\n        /* \"#utility.yul\":10761:10766   */\n      dup3\n        /* \"#utility.yul\":10758:10835   */\n      sub\n        /* \"#utility.yul\":10755:10858   */\n      tag_215\n      jumpi\n        /* \"#utility.yul\":10838:10856   */\n      tag_216\n      tag_97\n      jump\t// in\n    tag_216:\n        /* \"#utility.yul\":10755:10858   */\n    tag_215:\n        /* \"#utility.yul\":10885:10886   */\n      0x01\n        /* \"#utility.yul\":10878:10883   */\n      dup3\n        /* \"#utility.yul\":10874:10887   */\n      add\n        /* \"#utility.yul\":10867:10887   */\n      swap1\n      pop\n        /* \"#utility.yul\":10660:10893   */\n      swap2\n      swap1\n      pop\n      jump\t// out\n        /* \"#utility.yul\":10899:11075   */\n    tag_69:\n        /* \"#utility.yul\":10931:10932   */\n      0x00\n        /* \"#utility.yul\":10948:10968   */\n      tag_218\n        /* \"#utility.yul\":10966:10967   */\n      dup3\n        /* \"#utility.yul\":10948:10968   */\n      tag_87\n      jump\t// in\n    tag_218:\n        /* \"#utility.yul\":10943:10968   */\n      swap2\n      pop\n        /* \"#utility.yul\":10982:11002   */\n      tag_219\n        /* \"#utility.yul\":11000:11001   */\n      dup4\n        /* \"#utility.yul\":10982:11002   */\n      tag_87\n      jump\t// in\n    tag_219:\n        /* \"#utility.yul\":10977:11002   */\n      swap3\n      pop\n        /* \"#utility.yul\":11021:11022   */\n      dup3\n        /* \"#utility.yul\":11011:11046   */\n      tag_220\n      jumpi\n        /* \"#utility.yul\":11026:11044   */\n      tag_221\n      tag_104\n      jump\t// in\n    tag_221:\n        /* \"#utility.yul\":11011:11046   */\n    tag_220:\n        /* \"#utility.yul\":11067:11068   */\n      dup3\n        /* \"#utility.yul\":11064:11065   */\n      dup3\n        /* \"#utility.yul\":11060:11069   */\n      mod\n        /* \"#utility.yul\":11055:11069   */\n      swap1\n      pop\n        /* \"#utility.yul\":10899:11075   */\n      swap3\n      swap2\n      pop\n      pop\n      jump\t// out\n\n    auxdata: 0xa26469706673582212205e003747e1ba4da5e6f585d587de7578235b7db2a896ecaf9253fc869cea562a64736f6c634300081a0033\n}\n",
				"bytecode": {
					"linkReferences": {},
					"object": "6080604052348015600e575f80fd5b506109218061001c5f395ff3fe608060405234801561000f575f80fd5b506004361061004a575f3560e01c80635ffe87331461004e578063b43ea79d1461007e578063bd5dd664146100ae578063f879f5c7146100de575b5f80fd5b610068600480360381019061006391906104a4565b6100fc565b604051610075919061051f565b60405180910390f35b61009860048036038101906100939190610538565b61022f565b6040516100a5919061051f565b60405180910390f35b6100c860048036038101906100c39190610538565b61027b565b6040516100d5919061051f565b60405180910390f35b6100e66102c3565b6040516100f3919061051f565b60405180910390f35b5f808460405160200161010f91906105b5565b60405160208183030381529060405280519060200120905060405160200161013690610615565b60405160208183030381529060405280519060200120810361016657828461015e9190610656565b915050610228565b604051602001610175906106d3565b6040516020818303038152906040528051906020012081036101a557828461019d91906106e7565b915050610228565b6040516020016101b490610764565b6040516020818303038152906040528051906020012081036101e45782846101dc9190610778565b915050610228565b6040516020016101f390610803565b60405160208183030381529060405280519060200120810361022357828461021b9190610844565b915050610228565b5f9150505b9392505050565b5f80600b90505f8390505f600a856102479190610656565b90505f600282846102589190610656565b856102639190610778565b61026d9190610844565b905080945050505050919050565b5f805f90505f8390505b83600a6102929190610656565b81116102b95780826102a49190610656565b915080806102b190610874565b915050610285565b5080915050919050565b5f805f90505f80600190505b600a82101561031b575f6002826102e691906108bb565b146103085780836102f79190610656565b9250818061030490610874565b9250505b808061031390610874565b9150506102cf565b82935050505090565b5f604051905090565b5f80fd5b5f80fd5b5f80fd5b5f80fd5b5f601f19601f8301169050919050565b7f4e487b71000000000000000000000000000000000000000000000000000000005f52604160045260245ffd5b6103838261033d565b810181811067ffffffffffffffff821117156103a2576103a161034d565b5b80604052505050565b5f6103b4610324565b90506103c0828261037a565b919050565b5f67ffffffffffffffff8211156103df576103de61034d565b5b6103e88261033d565b9050602081019050919050565b828183375f83830152505050565b5f610415610410846103c5565b6103ab565b90508281526020810184848401111561043157610430610339565b5b61043c8482856103f5565b509392505050565b5f82601f83011261045857610457610335565b5b8135610468848260208601610403565b91505092915050565b5f819050919050565b61048381610471565b811461048d575f80fd5b50565b5f8135905061049e8161047a565b92915050565b5f805f606084860312156104bb576104ba61032d565b5b5f84013567ffffffffffffffff8111156104d8576104d7610331565b5b6104e486828701610444565b93505060206104f586828701610490565b925050604061050686828701610490565b9150509250925092565b61051981610471565b82525050565b5f6020820190506105325f830184610510565b92915050565b5f6020828403121561054d5761054c61032d565b5b5f61055a84828501610490565b91505092915050565b5f81519050919050565b5f81905092915050565b8281835e5f83830152505050565b5f61058f82610563565b610599818561056d565b93506105a9818560208601610577565b80840191505092915050565b5f6105c08284610585565b915081905092915050565b7f2b000000000000000000000000000000000000000000000000000000000000005f82015250565b5f6105ff60018361056d565b915061060a826105cb565b600182019050919050565b5f61061f826105f3565b9150819050919050565b7f4e487b71000000000000000000000000000000000000000000000000000000005f52601160045260245ffd5b5f61066082610471565b915061066b83610471565b925082820190508082111561068357610682610629565b5b92915050565b7f2d000000000000000000000000000000000000000000000000000000000000005f82015250565b5f6106bd60018361056d565b91506106c882610689565b600182019050919050565b5f6106dd826106b1565b9150819050919050565b5f6106f182610471565b91506106fc83610471565b925082820390508181111561071457610713610629565b5b92915050565b7f2a000000000000000000000000000000000000000000000000000000000000005f82015250565b5f61074e60018361056d565b91506107598261071a565b600182019050919050565b5f61076e82610742565b9150819050919050565b5f61078282610471565b915061078d83610471565b925082820261079b81610471565b915082820484148315176107b2576107b1610629565b5b5092915050565b7f2f000000000000000000000000000000000000000000000000000000000000005f82015250565b5f6107ed60018361056d565b91506107f8826107b9565b600182019050919050565b5f61080d826107e1565b9150819050919050565b7f4e487b71000000000000000000000000000000000000000000000000000000005f52601260045260245ffd5b5f61084e82610471565b915061085983610471565b92508261086957610868610817565b5b828204905092915050565b5f61087e82610471565b91507fffffffffffffffffffffffffffffffffffffffffffffffffffffffffffffffff82036108b0576108af610629565b5b600182019050919050565b5f6108c582610471565b91506108d083610471565b9250826108e0576108df610817565b5b82820690509291505056fea26469706673582212205e003747e1ba4da5e6f585d587de7578235b7db2a896ecaf9253fc869cea562a64736f6c634300081a0033",
					"opcodes": "PUSH1 0x80 PUSH1 0x40 MSTORE CALLVALUE DUP1 ISZERO PUSH1 0xE JUMPI PUSH0 DUP1 REVERT JUMPDEST POP PUSH2 0x921 DUP1 PUSH2 0x1C PUSH0 CODECOPY PUSH0 RETURN INVALID PUSH1 0x80 PUSH1 0x40 MSTORE CALLVALUE DUP1 ISZERO PUSH2 0xF JUMPI PUSH0 DUP1 REVERT JUMPDEST POP PUSH1 0x4 CALLDATASIZE LT PUSH2 0x4A JUMPI PUSH0 CALLDATALOAD PUSH1 0xE0 SHR DUP1 PUSH4 0x5FFE8733 EQ PUSH2 0x4E JUMPI DUP1 PUSH4 0xB43EA79D EQ PUSH2 0x7E JUMPI DUP1 PUSH4 0xBD5DD664 EQ PUSH2 0xAE JUMPI DUP1 PUSH4 0xF879F5C7 EQ PUSH2 0xDE JUMPI JUMPDEST PUSH0 DUP1 REVERT JUMPDEST PUSH2 0x68 PUSH1 0x4 DUP1 CALLDATASIZE SUB DUP2 ADD SWAP1 PUSH2 0x63 SWAP2 SWAP1 PUSH2 0x4A4 JUMP JUMPDEST PUSH2 0xFC JUMP JUMPDEST PUSH1 0x40 MLOAD PUSH2 0x75 SWAP2 SWAP1 PUSH2 0x51F JUMP JUMPDEST PUSH1 0x40 MLOAD DUP1 SWAP2 SUB SWAP1 RETURN JUMPDEST PUSH2 0x98 PUSH1 0x4 DUP1 CALLDATASIZE SUB DUP2 ADD SWAP1 PUSH2 0x93 SWAP2 SWAP1 PUSH2 0x538 JUMP JUMPDEST PUSH2 0x22F JUMP JUMPDEST PUSH1 0x40 MLOAD PUSH2 0xA5 SWAP2 SWAP1 PUSH2 0x51F JUMP JUMPDEST PUSH1 0x40 MLOAD DUP1 SWAP2 SUB SWAP1 RETURN JUMPDEST PUSH2 0xC8 PUSH1 0x4 DUP1 CALLDATASIZE SUB DUP2 ADD SWAP1 PUSH2 0xC3 SWAP2 SWAP1 PUSH2 0x538 JUMP JUMPDEST PUSH2 0x27B JUMP JUMPDEST PUSH1 0x40 MLOAD PUSH2 0xD5 SWAP2 SWAP1 PUSH2 0x51F JUMP JUMPDEST PUSH1 0x40 MLOAD DUP1 SWAP2 SUB SWAP1 RETURN JUMPDEST PUSH2 0xE6 PUSH2 0x2C3 JUMP JUMPDEST PUSH1 0x40 MLOAD PUSH2 0xF3 SWAP2 SWAP1 PUSH2 0x51F JUMP JUMPDEST PUSH1 0x40 MLOAD DUP1 SWAP2 SUB SWAP1 RETURN JUMPDEST PUSH0 DUP1 DUP5 PUSH1 0x40 MLOAD PUSH1 0x20 ADD PUSH2 0x10F SWAP2 SWAP1 PUSH2 0x5B5 JUMP JUMPDEST PUSH1 0x40 MLOAD PUSH1 0x20 DUP2 DUP4 SUB SUB DUP2 MSTORE SWAP1 PUSH1 0x40 MSTORE DUP1 MLOAD SWAP1 PUSH1 0x20 ADD KECCAK256 SWAP1 POP PUSH1 0x40 MLOAD PUSH1 0x20 ADD PUSH2 0x136 SWAP1 PUSH2 0x615 JUMP JUMPDEST PUSH1 0x40 MLOAD PUSH1 0x20 DUP2 DUP4 SUB SUB DUP2 MSTORE SWAP1 PUSH1 0x40 MSTORE DUP1 MLOAD SWAP1 PUSH1 0x20 ADD KECCAK256 DUP2 SUB PUSH2 0x166 JUMPI DUP3 DUP5 PUSH2 0x15E SWAP2 SWAP1 PUSH2 0x656 JUMP JUMPDEST SWAP2 POP POP PUSH2 0x228 JUMP JUMPDEST PUSH1 0x40 MLOAD PUSH1 0x20 ADD PUSH2 0x175 SWAP1 PUSH2 0x6D3 JUMP JUMPDEST PUSH1 0x40 MLOAD PUSH1 0x20 DUP2 DUP4 SUB SUB DUP2 MSTORE SWAP1 PUSH1 0x40 MSTORE DUP1 MLOAD SWAP1 PUSH1 0x20 ADD KECCAK256 DUP2 SUB PUSH2 0x1A5 JUMPI DUP3 DUP5 PUSH2 0x19D SWAP2 SWAP1 PUSH2 0x6E7 JUMP JUMPDEST SWAP2 POP POP PUSH2 0x228 JUMP JUMPDEST PUSH1 0x40 MLOAD PUSH1 0x20 ADD PUSH2 0x1B4 SWAP1 PUSH2 0x764 JUMP JUMPDEST PUSH1 0x40 MLOAD PUSH1 0x20 DUP2 DUP4 SUB SUB DUP2 MSTORE SWAP1 PUSH1 0x40 MSTORE DUP1 MLOAD SWAP1 PUSH1 0x20 ADD KECCAK256 DUP2 SUB PUSH2 0x1E4 JUMPI DUP3 DUP5 PUSH2 0x1DC SWAP2 SWAP1 PUSH2 0x778 JUMP JUMPDEST SWAP2 POP POP PUSH2 0x228 JUMP JUMPDEST PUSH1 0x40 MLOAD PUSH1 0x20 ADD PUSH2 0x1F3 SWAP1 PUSH2 0x803 JUMP JUMPDEST PUSH1 0x40 MLOAD PUSH1 0x20 DUP2 DUP4 SUB SUB DUP2 MSTORE SWAP1 PUSH1 0x40 MSTORE DUP1 MLOAD SWAP1 PUSH1 0x20 ADD KECCAK256 DUP2 SUB PUSH2 0x223 JUMPI DUP3 DUP5 PUSH2 0x21B SWAP2 SWAP1 PUSH2 0x844 JUMP JUMPDEST SWAP2 POP POP PUSH2 0x228 JUMP JUMPDEST PUSH0 SWAP2 POP POP JUMPDEST SWAP4 SWAP3 POP POP POP JUMP JUMPDEST PUSH0 DUP1 PUSH1 0xB SWAP1 POP PUSH0 DUP4 SWAP1 POP PUSH0 PUSH1 0xA DUP6 PUSH2 0x247 SWAP2 SWAP1 PUSH2 0x656 JUMP JUMPDEST SWAP1 POP PUSH0 PUSH1 0x2 DUP3 DUP5 PUSH2 0x258 SWAP2 SWAP1 PUSH2 0x656 JUMP JUMPDEST DUP6 PUSH2 0x263 SWAP2 SWAP1 PUSH2 0x778 JUMP JUMPDEST PUSH2 0x26D SWAP2 SWAP1 PUSH2 0x844 JUMP JUMPDEST SWAP1 POP DUP1 SWAP5 POP POP POP POP POP SWAP2 SWAP1 POP JUMP JUMPDEST PUSH0 DUP1 PUSH0 SWAP1 POP PUSH0 DUP4 SWAP1 POP JUMPDEST DUP4 PUSH1 0xA PUSH2 0x292 SWAP2 SWAP1 PUSH2 0x656 JUMP JUMPDEST DUP2 GT PUSH2 0x2B9 JUMPI DUP1 DUP3 PUSH2 0x2A4 SWAP2 SWAP1 PUSH2 0x656 JUMP JUMPDEST SWAP2 POP DUP1 DUP1 PUSH2 0x2B1 SWAP1 PUSH2 0x874 JUMP JUMPDEST SWAP2 POP POP PUSH2 0x285 JUMP JUMPDEST POP DUP1 SWAP2 POP POP SWAP2 SWAP1 POP JUMP JUMPDEST PUSH0 DUP1 PUSH0 SWAP1 POP PUSH0 DUP1 PUSH1 0x1 SWAP1 POP JUMPDEST PUSH1 0xA DUP3 LT ISZERO PUSH2 0x31B JUMPI PUSH0 PUSH1 0x2 DUP3 PUSH2 0x2E6 SWAP2 SWAP1 PUSH2 0x8BB JUMP JUMPDEST EQ PUSH2 0x308 JUMPI DUP1 DUP4 PUSH2 0x2F7 SWAP2 SWAP1 PUSH2 0x656 JUMP JUMPDEST SWAP3 POP DUP2 DUP1 PUSH2 0x304 SWAP1 PUSH2 0x874 JUMP JUMPDEST SWAP3 POP POP JUMPDEST DUP1 DUP1 PUSH2 0x313 SWAP1 PUSH2 0x874 JUMP JUMPDEST SWAP2 POP POP PUSH2 0x2CF JUMP JUMPDEST DUP3 SWAP4 POP POP POP POP SWAP1 JUMP JUMPDEST PUSH0 PUSH1 0x40 MLOAD SWAP1 POP SWAP1 JUMP JUMPDEST PUSH0 DUP1 REVERT JUMPDEST PUSH0 DUP1 REVERT JUMPDEST PUSH0 DUP1 REVERT JUMPDEST PUSH0 DUP1 REVERT JUMPDEST PUSH0 PUSH1 0x1F NOT PUSH1 0x1F DUP4 ADD AND SWAP1 POP SWAP2 SWAP1 POP JUMP JUMPDEST PUSH32 0x4E487B7100000000000000000000000000000000000000000000000000000000 PUSH0 MSTORE PUSH1 0x41 PUSH1 0x4 MSTORE PUSH1 0x24 PUSH0 REVERT JUMPDEST PUSH2 0x383 DUP3 PUSH2 0x33D JUMP JUMPDEST DUP2 ADD DUP2 DUP2 LT PUSH8 0xFFFFFFFFFFFFFFFF DUP3 GT OR ISZERO PUSH2 0x3A2 JUMPI PUSH2 0x3A1 PUSH2 0x34D JUMP JUMPDEST JUMPDEST DUP1 PUSH1 0x40 MSTORE POP POP POP JUMP JUMPDEST PUSH0 PUSH2 0x3B4 PUSH2 0x324 JUMP JUMPDEST SWAP1 POP PUSH2 0x3C0 DUP3 DUP3 PUSH2 0x37A JUMP JUMPDEST SWAP2 SWAP1 POP JUMP JUMPDEST PUSH0 PUSH8 0xFFFFFFFFFFFFFFFF DUP3 GT ISZERO PUSH2 0x3DF JUMPI PUSH2 0x3DE PUSH2 0x34D JUMP JUMPDEST JUMPDEST PUSH2 0x3E8 DUP3 PUSH2 0x33D JUMP JUMPDEST SWAP1 POP PUSH1 0x20 DUP2 ADD SWAP1 POP SWAP2 SWAP1 POP JUMP JUMPDEST DUP3 DUP2 DUP4 CALLDATACOPY PUSH0 DUP4 DUP4 ADD MSTORE POP POP POP JUMP JUMPDEST PUSH0 PUSH2 0x415 PUSH2 0x410 DUP5 PUSH2 0x3C5 JUMP JUMPDEST PUSH2 0x3AB JUMP JUMPDEST SWAP1 POP DUP3 DUP2 MSTORE PUSH1 0x20 DUP2 ADD DUP5 DUP5 DUP5 ADD GT ISZERO PUSH2 0x431 JUMPI PUSH2 0x430 PUSH2 0x339 JUMP JUMPDEST JUMPDEST PUSH2 0x43C DUP5 DUP3 DUP6 PUSH2 0x3F5 JUMP JUMPDEST POP SWAP4 SWAP3 POP POP POP JUMP JUMPDEST PUSH0 DUP3 PUSH1 0x1F DUP4 ADD SLT PUSH2 0x458 JUMPI PUSH2 0x457 PUSH2 0x335 JUMP JUMPDEST JUMPDEST DUP2 CALLDATALOAD PUSH2 0x468 DUP5 DUP3 PUSH1 0x20 DUP7 ADD PUSH2 0x403 JUMP JUMPDEST SWAP2 POP POP SWAP3 SWAP2 POP POP JUMP JUMPDEST PUSH0 DUP2 SWAP1 POP SWAP2 SWAP1 POP JUMP JUMPDEST PUSH2 0x483 DUP2 PUSH2 0x471 JUMP JUMPDEST DUP2 EQ PUSH2 0x48D JUMPI PUSH0 DUP1 REVERT JUMPDEST POP JUMP JUMPDEST PUSH0 DUP2 CALLDATALOAD SWAP1 POP PUSH2 0x49E DUP2 PUSH2 0x47A JUMP JUMPDEST SWAP3 SWAP2 POP POP JUMP JUMPDEST PUSH0 DUP1 PUSH0 PUSH1 0x60 DUP5 DUP7 SUB SLT ISZERO PUSH2 0x4BB JUMPI PUSH2 0x4BA PUSH2 0x32D JUMP JUMPDEST JUMPDEST PUSH0 DUP5 ADD CALLDATALOAD PUSH8 0xFFFFFFFFFFFFFFFF DUP2 GT ISZERO PUSH2 0x4D8 JUMPI PUSH2 0x4D7 PUSH2 0x331 JUMP JUMPDEST JUMPDEST PUSH2 0x4E4 DUP7 DUP3 DUP8 ADD PUSH2 0x444 JUMP JUMPDEST SWAP4 POP POP PUSH1 0x20 PUSH2 0x4F5 DUP7 DUP3 DUP8 ADD PUSH2 0x490 JUMP JUMPDEST SWAP3 POP POP PUSH1 0x40 PUSH2 0x506 DUP7 DUP3 DUP8 ADD PUSH2 0x490 JUMP JUMPDEST SWAP2 POP POP SWAP3 POP SWAP3 POP SWAP3 JUMP JUMPDEST PUSH2 0x519 DUP2 PUSH2 0x471 JUMP JUMPDEST DUP3 MSTORE POP POP JUMP JUMPDEST PUSH0 PUSH1 0x20 DUP3 ADD SWAP1 POP PUSH2 0x532 PUSH0 DUP4 ADD DUP5 PUSH2 0x510 JUMP JUMPDEST SWAP3 SWAP2 POP POP JUMP JUMPDEST PUSH0 PUSH1 0x20 DUP3 DUP5 SUB SLT ISZERO PUSH2 0x54D JUMPI PUSH2 0x54C PUSH2 0x32D JUMP JUMPDEST JUMPDEST PUSH0 PUSH2 0x55A DUP5 DUP3 DUP6 ADD PUSH2 0x490 JUMP JUMPDEST SWAP2 POP POP SWAP3 SWAP2 POP POP JUMP JUMPDEST PUSH0 DUP2 MLOAD SWAP1 POP SWAP2 SWAP1 POP JUMP JUMPDEST PUSH0 DUP2 SWAP1 POP SWAP3 SWAP2 POP POP JUMP JUMPDEST DUP3 DUP2 DUP4 MCOPY PUSH0 DUP4 DUP4 ADD MSTORE POP POP POP JUMP JUMPDEST PUSH0 PUSH2 0x58F DUP3 PUSH2 0x563 JUMP JUMPDEST PUSH2 0x599 DUP2 DUP6 PUSH2 0x56D JUMP JUMPDEST SWAP4 POP PUSH2 0x5A9 DUP2 DUP6 PUSH1 0x20 DUP7 ADD PUSH2 0x577 JUMP JUMPDEST DUP1 DUP5 ADD SWAP2 POP POP SWAP3 SWAP2 POP POP JUMP JUMPDEST PUSH0 PUSH2 0x5C0 DUP3 DUP5 PUSH2 0x585 JUMP JUMPDEST SWAP2 POP DUP2 SWAP1 POP SWAP3 SWAP2 POP POP JUMP JUMPDEST PUSH32 0x2B00000000000000000000000000000000000000000000000000000000000000 PUSH0 DUP3 ADD MSTORE POP JUMP JUMPDEST PUSH0 PUSH2 0x5FF PUSH1 0x1 DUP4 PUSH2 0x56D JUMP JUMPDEST SWAP2 POP PUSH2 0x60A DUP3 PUSH2 0x5CB JUMP JUMPDEST PUSH1 0x1 DUP3 ADD SWAP1 POP SWAP2 SWAP1 POP JUMP JUMPDEST PUSH0 PUSH2 0x61F DUP3 PUSH2 0x5F3 JUMP JUMPDEST SWAP2 POP DUP2 SWAP1 POP SWAP2 SWAP1 POP JUMP JUMPDEST PUSH32 0x4E487B7100000000000000000000000000000000000000000000000000000000 PUSH0 MSTORE PUSH1 0x11 PUSH1 0x4 MSTORE PUSH1 0x24 PUSH0 REVERT JUMPDEST PUSH0 PUSH2 0x660 DUP3 PUSH2 0x471 JUMP JUMPDEST SWAP2 POP PUSH2 0x66B DUP4 PUSH2 0x471 JUMP JUMPDEST SWAP3 POP DUP3 DUP3 ADD SWAP1 POP DUP1 DUP3 GT ISZERO PUSH2 0x683 JUMPI PUSH2 0x682 PUSH2 0x629 JUMP JUMPDEST JUMPDEST SWAP3 SWAP2 POP POP JUMP JUMPDEST PUSH32 0x2D00000000000000000000000000000000000000000000000000000000000000 PUSH0 DUP3 ADD MSTORE POP JUMP JUMPDEST PUSH0 PUSH2 0x6BD PUSH1 0x1 DUP4 PUSH2 0x56D JUMP JUMPDEST SWAP2 POP PUSH2 0x6C8 DUP3 PUSH2 0x689 JUMP JUMPDEST PUSH1 0x1 DUP3 ADD SWAP1 POP SWAP2 SWAP1 POP JUMP JUMPDEST PUSH0 PUSH2 0x6DD DUP3 PUSH2 0x6B1 JUMP JUMPDEST SWAP2 POP DUP2 SWAP1 POP SWAP2 SWAP1 POP JUMP JUMPDEST PUSH0 PUSH2 0x6F1 DUP3 PUSH2 0x471 JUMP JUMPDEST SWAP2 POP PUSH2 0x6FC DUP4 PUSH2 0x471 JUMP JUMPDEST SWAP3 POP DUP3 DUP3 SUB SWAP1 POP DUP2 DUP2 GT ISZERO PUSH2 0x714 JUMPI PUSH2 0x713 PUSH2 0x629 JUMP JUMPDEST JUMPDEST SWAP3 SWAP2 POP POP JUMP JUMPDEST PUSH32 0x2A00000000000000000000000000000000000000000000000000000000000000 PUSH0 DUP3 ADD MSTORE POP JUMP JUMPDEST PUSH0 PUSH2 0x74E PUSH1 0x1 DUP4 PUSH2 0x56D JUMP JUMPDEST SWAP2 POP PUSH2 0x759 DUP3 PUSH2 0x71A JUMP JUMPDEST PUSH1 0x1 DUP3 ADD SWAP1 POP SWAP2 SWAP1 POP JUMP JUMPDEST PUSH0 PUSH2 0x76E DUP3 PUSH2 0x742 JUMP JUMPDEST SWAP2 POP DUP2 SWAP1 POP SWAP2 SWAP1 POP JUMP JUMPDEST PUSH0 PUSH2 0x782 DUP3 PUSH2 0x471 JUMP JUMPDEST SWAP2 POP PUSH2 0x78D DUP4 PUSH2 0x471 JUMP JUMPDEST SWAP3 POP DUP3 DUP3 MUL PUSH2 0x79B DUP2 PUSH2 0x471 JUMP JUMPDEST SWAP2 POP DUP3 DUP3 DIV DUP5 EQ DUP4 ISZERO OR PUSH2 0x7B2 JUMPI PUSH2 0x7B1 PUSH2 0x629 JUMP JUMPDEST JUMPDEST POP SWAP3 SWAP2 POP POP JUMP JUMPDEST PUSH32 0x2F00000000000000000000000000000000000000000000000000000000000000 PUSH0 DUP3 ADD MSTORE POP JUMP JUMPDEST PUSH0 PUSH2 0x7ED PUSH1 0x1 DUP4 PUSH2 0x56D JUMP JUMPDEST SWAP2 POP PUSH2 0x7F8 DUP3 PUSH2 0x7B9 JUMP JUMPDEST PUSH1 0x1 DUP3 ADD SWAP1 POP SWAP2 SWAP1 POP JUMP JUMPDEST PUSH0 PUSH2 0x80D DUP3 PUSH2 0x7E1 JUMP JUMPDEST SWAP2 POP DUP2 SWAP1 POP SWAP2 SWAP1 POP JUMP JUMPDEST PUSH32 0x4E487B7100000000000000000000000000000000000000000000000000000000 PUSH0 MSTORE PUSH1 0x12 PUSH1 0x4 MSTORE PUSH1 0x24 PUSH0 REVERT JUMPDEST PUSH0 PUSH2 0x84E DUP3 PUSH2 0x471 JUMP JUMPDEST SWAP2 POP PUSH2 0x859 DUP4 PUSH2 0x471 JUMP JUMPDEST SWAP3 POP DUP3 PUSH2 0x869 JUMPI PUSH2 0x868 PUSH2 0x817 JUMP JUMPDEST JUMPDEST DUP3 DUP3 DIV SWAP1 POP SWAP3 SWAP2 POP POP JUMP JUMPDEST PUSH0 PUSH2 0x87E DUP3 PUSH2 0x471 JUMP JUMPDEST SWAP2 POP PUSH32 0xFFFFFFFFFFFFFFFFFFFFFFFFFFFFFFFFFFFFFFFFFFFFFFFFFFFFFFFFFFFFFFFF DUP3 SUB PUSH2 0x8B0 JUMPI PUSH2 0x8AF PUSH2 0x629 JUMP JUMPDEST JUMPDEST PUSH1 0x1 DUP3 ADD SWAP1 POP SWAP2 SWAP1 POP JUMP JUMPDEST PUSH0 PUSH2 0x8C5 DUP3 PUSH2 0x471 JUMP JUMPDEST SWAP2 POP PUSH2 0x8D0 DUP4 PUSH2 0x471 JUMP JUMPDEST SWAP3 POP DUP3 PUSH2 0x8E0 JUMPI PUSH2 0x8DF PUSH2 0x817 JUMP JUMPDEST JUMPDEST DUP3 DUP3 MOD SWAP1 POP SWAP3 SWAP2 POP POP JUMP INVALID LOG2 PUSH5 0x6970667358 0x22 SLT KECCAK256 MCOPY STOP CALLDATACOPY SELFBALANCE 0xE1 0xBA 0x4D 0xA5 0xE6 CREATE2 DUP6 0xD5 DUP8 0xDE PUSH22 0x78235B7DB2A896ECAF9253FC869CEA562A64736F6C63 NUMBER STOP ADDMOD BYTE STOP CALLER "
				},
				"gasEstimates": {
					"creation": {
						"codeDepositCost": "467400",
						"executionCost": "503",
						"totalCost": "467903"
					},
					"external": {
						"impares()": "infinite",
						"operations(string,uint256,uint256)": "infinite",
						"sumarV1(uint256)": "infinite",
						"sumarV2(uint256)": "infinite"
					}
				},
				"methodIdentifiers": {
					"impares()": "f879f5c7",
					"operations(string,uint256,uint256)": "5ffe8733",
					"sumarV1(uint256)": "bd5dd664",
					"sumarV2(uint256)": "b43ea79d"
				}
			},
			"storageLayout": {
				"storage": [],
				"types": null
			},
			"userdoc": {
				"kind": "user",
				"methods": {},
				"version": 1
			}
		}
	}
}